{
  "contractName": "BTTSTokenFactory",
  "abi": [
    {
      "constant": false,
      "inputs": [
        {
          "name": "symbol",
          "type": "string"
        },
        {
          "name": "name",
          "type": "string"
        },
        {
          "name": "decimals",
          "type": "uint8"
        },
        {
          "name": "initialSupply",
          "type": "uint256"
        },
        {
          "name": "mintable",
          "type": "bool"
        },
        {
          "name": "transferable",
          "type": "bool"
        }
      ],
      "name": "deployBTTSTokenContract",
      "outputs": [
        {
          "name": "bttsTokenAddress",
          "type": "address"
        }
      ],
      "payable": false,
      "stateMutability": "nonpayable",
      "type": "function"
    },
    {
      "constant": true,
      "inputs": [],
      "name": "numberOfDeployedTokens",
      "outputs": [
        {
          "name": "",
          "type": "uint256"
        }
      ],
      "payable": false,
      "stateMutability": "view",
      "type": "function"
    },
    {
      "constant": true,
      "inputs": [
        {
          "name": "tokenContract",
          "type": "address"
        }
      ],
      "name": "verify",
      "outputs": [
        {
          "name": "valid",
          "type": "bool"
        },
        {
          "name": "owner",
          "type": "address"
        },
        {
          "name": "decimals",
          "type": "uint256"
        },
        {
          "name": "mintable",
          "type": "bool"
        },
        {
          "name": "transferable",
          "type": "bool"
        }
      ],
      "payable": false,
      "stateMutability": "view",
      "type": "function"
    },
    {
      "constant": false,
      "inputs": [],
      "name": "acceptOwnership",
      "outputs": [],
      "payable": false,
      "stateMutability": "nonpayable",
      "type": "function"
    },
    {
      "constant": false,
      "inputs": [
        {
          "name": "_newOwner",
          "type": "address"
        }
      ],
      "name": "transferOwnershipImmediately",
      "outputs": [],
      "payable": false,
      "stateMutability": "nonpayable",
      "type": "function"
    },
    {
      "constant": true,
      "inputs": [],
      "name": "owner",
      "outputs": [
        {
          "name": "",
          "type": "address"
        }
      ],
      "payable": false,
      "stateMutability": "view",
      "type": "function"
    },
    {
      "constant": true,
      "inputs": [],
      "name": "newOwner",
      "outputs": [
        {
          "name": "",
          "type": "address"
        }
      ],
      "payable": false,
      "stateMutability": "view",
      "type": "function"
    },
    {
      "constant": false,
      "inputs": [
        {
          "name": "tokenAddress",
          "type": "address"
        },
        {
          "name": "tokens",
          "type": "uint256"
        }
      ],
      "name": "transferAnyERC20Token",
      "outputs": [
        {
          "name": "success",
          "type": "bool"
        }
      ],
      "payable": false,
      "stateMutability": "nonpayable",
      "type": "function"
    },
    {
      "constant": true,
      "inputs": [
        {
          "name": "",
          "type": "uint256"
        }
      ],
      "name": "deployedTokens",
      "outputs": [
        {
          "name": "",
          "type": "address"
        }
      ],
      "payable": false,
      "stateMutability": "view",
      "type": "function"
    },
    {
      "constant": false,
      "inputs": [
        {
          "name": "_newOwner",
          "type": "address"
        }
      ],
      "name": "transferOwnership",
      "outputs": [],
      "payable": false,
      "stateMutability": "nonpayable",
      "type": "function"
    },
    {
      "payable": true,
      "stateMutability": "payable",
      "type": "fallback"
    },
    {
      "anonymous": false,
      "inputs": [
        {
          "indexed": true,
          "name": "ownerAddress",
          "type": "address"
        },
        {
          "indexed": true,
          "name": "bttsTokenAddress",
          "type": "address"
        },
        {
          "indexed": false,
          "name": "symbol",
          "type": "string"
        },
        {
          "indexed": false,
          "name": "name",
          "type": "string"
        },
        {
          "indexed": false,
          "name": "decimals",
          "type": "uint8"
        },
        {
          "indexed": false,
          "name": "initialSupply",
          "type": "uint256"
        },
        {
          "indexed": false,
          "name": "mintable",
          "type": "bool"
        },
        {
          "indexed": false,
          "name": "transferable",
          "type": "bool"
        }
      ],
      "name": "BTTSTokenListing",
      "type": "event"
    },
    {
      "anonymous": false,
      "inputs": [
        {
          "indexed": true,
          "name": "_from",
          "type": "address"
        },
        {
          "indexed": true,
          "name": "_to",
          "type": "address"
        }
      ],
      "name": "OwnershipTransferred",
      "type": "event"
    }
  ],
  "bytecode": "0x6060604052336000806101000a81548173ffffffffffffffffffffffffffffffffffffffff021916908373ffffffffffffffffffffffffffffffffffffffff160217905550614d7e806100536000396000f3006060604052600436106100a4576000357c0100000000000000000000000000000000000000000000000000000000900463ffffffff16806308796ea0146100a95780635cd3b917146101b457806363a9c3d7146101dd57806379ba50971461027e5780637e71fb09146102935780638da5cb5b146102cc578063d4ee1d9014610321578063dc39d06d14610376578063ec81aadb146103d0578063f2fde38b14610433575b600080fd5b34156100b457600080fd5b610172600480803590602001908201803590602001908080601f0160208091040260200160405190810160405280939291908181526020018383808284378201915050505050509190803590602001908201803590602001908080601f0160208091040260200160405190810160405280939291908181526020018383808284378201915050505050509190803560ff169060200190919080359060200190919080351515906020019091908035151590602001909190505061046c565b604051808273ffffffffffffffffffffffffffffffffffffffff1673ffffffffffffffffffffffffffffffffffffffff16815260200191505060405180910390f35b34156101bf57600080fd5b6101c76107f7565b6040518082815260200191505060405180910390f35b34156101e857600080fd5b610214600480803573ffffffffffffffffffffffffffffffffffffffff16906020019091905050610804565b60405180861515151581526020018573ffffffffffffffffffffffffffffffffffffffff1673ffffffffffffffffffffffffffffffffffffffff16815260200184815260200183151515158152602001821515151581526020019550505050505060405180910390f35b341561028957600080fd5b610291610a97565b005b341561029e57600080fd5b6102ca600480803573ffffffffffffffffffffffffffffffffffffffff16906020019091905050610c36565b005b34156102d757600080fd5b6102df610d91565b604051808273ffffffffffffffffffffffffffffffffffffffff1673ffffffffffffffffffffffffffffffffffffffff16815260200191505060405180910390f35b341561032c57600080fd5b610334610db6565b604051808273ffffffffffffffffffffffffffffffffffffffff1673ffffffffffffffffffffffffffffffffffffffff16815260200191505060405180910390f35b341561038157600080fd5b6103b6600480803573ffffffffffffffffffffffffffffffffffffffff16906020019091908035906020019091905050610ddc565b604051808215151515815260200191505060405180910390f35b34156103db57600080fd5b6103f16004808035906020019091905050610f28565b604051808273ffffffffffffffffffffffffffffffffffffffff1673ffffffffffffffffffffffffffffffffffffffff16815260200191505060405180910390f35b341561043e57600080fd5b61046a600480803573ffffffffffffffffffffffffffffffffffffffff16906020019091905050610f67565b005b60003387878787878761047d611006565b808873ffffffffffffffffffffffffffffffffffffffff1673ffffffffffffffffffffffffffffffffffffffff16815260200180602001806020018760ff1660ff1681526020018681526020018515151515815260200184151515158152602001838103835289818151815260200191508051906020019080838360005b838110156105165780820151818401526020810190506104fb565b50505050905090810190601f1680156105435780820380516001836020036101000a031916815260200191505b50838103825288818151815260200191508051906020019080838360005b8381101561057c578082015181840152602081019050610561565b50505050905090810190601f1680156105a95780820380516001836020036101000a031916815260200191505b509950505050505050505050604051809103906000f08015156105cb57600080fd5b90506001600260008373ffffffffffffffffffffffffffffffffffffffff1673ffffffffffffffffffffffffffffffffffffffff16815260200190815260200160002060006101000a81548160ff021916908315150217905550600380548060010182816106399190611016565b9160005260206000209001600083909190916101000a81548173ffffffffffffffffffffffffffffffffffffffff021916908373ffffffffffffffffffffffffffffffffffffffff160217905550508073ffffffffffffffffffffffffffffffffffffffff163373ffffffffffffffffffffffffffffffffffffffff167f433b409f8a018a898964fd9c3ce44391119baeb70fcf0dde007576288c6162608989898989896040518080602001806020018760ff1660ff1681526020018681526020018515151515815260200184151515158152602001838103835289818151815260200191508051906020019080838360005b8381101561074757808201518184015260208101905061072c565b50505050905090810190601f1680156107745780820380516001836020036101000a031916815260200191505b50838103825288818151815260200191508051906020019080838360005b838110156107ad578082015181840152602081019050610792565b50505050905090810190601f1680156107da5780820380516001836020036101000a031916815260200191505b509850505050505050505060405180910390a39695505050505050565b6000600380549050905090565b600080600080600080600260008873ffffffffffffffffffffffffffffffffffffffff1673ffffffffffffffffffffffffffffffffffffffff16815260200190815260200160002060009054906101000a900460ff1695508515610a8d578690508073ffffffffffffffffffffffffffffffffffffffff16638da5cb5b6000604051602001526040518163ffffffff167c0100000000000000000000000000000000000000000000000000000000028152600401602060405180830381600087803b15156108d157600080fd5b6102c65a03f115156108e257600080fd5b5050506040518051905094508073ffffffffffffffffffffffffffffffffffffffff1663313ce5676000604051602001526040518163ffffffff167c0100000000000000000000000000000000000000000000000000000000028152600401602060405180830381600087803b151561095a57600080fd5b6102c65a03f1151561096b57600080fd5b5050506040518051905060ff1693508073ffffffffffffffffffffffffffffffffffffffff16634bf365df6000604051602001526040518163ffffffff167c0100000000000000000000000000000000000000000000000000000000028152600401602060405180830381600087803b15156109e657600080fd5b6102c65a03f115156109f757600080fd5b5050506040518051905092508073ffffffffffffffffffffffffffffffffffffffff166392ff0d316000604051602001526040518163ffffffff167c0100000000000000000000000000000000000000000000000000000000028152600401602060405180830381600087803b1515610a6f57600080fd5b6102c65a03f11515610a8057600080fd5b5050506040518051905091505b5091939590929450565b600160009054906101000a900473ffffffffffffffffffffffffffffffffffffffff1673ffffffffffffffffffffffffffffffffffffffff163373ffffffffffffffffffffffffffffffffffffffff16141515610af357600080fd5b600160009054906101000a900473ffffffffffffffffffffffffffffffffffffffff1673ffffffffffffffffffffffffffffffffffffffff166000809054906101000a900473ffffffffffffffffffffffffffffffffffffffff1673ffffffffffffffffffffffffffffffffffffffff167f8be0079c531659141344cd1fd0a4f28419497f9722a3daafe3b4186f6b6457e060405160405180910390a3600160009054906101000a900473ffffffffffffffffffffffffffffffffffffffff166000806101000a81548173ffffffffffffffffffffffffffffffffffffffff021916908373ffffffffffffffffffffffffffffffffffffffff1602179055506000600160006101000a81548173ffffffffffffffffffffffffffffffffffffffff021916908373ffffffffffffffffffffffffffffffffffffffff160217905550565b6000809054906101000a900473ffffffffffffffffffffffffffffffffffffffff1673ffffffffffffffffffffffffffffffffffffffff163373ffffffffffffffffffffffffffffffffffffffff16141515610c9157600080fd5b8073ffffffffffffffffffffffffffffffffffffffff166000809054906101000a900473ffffffffffffffffffffffffffffffffffffffff1673ffffffffffffffffffffffffffffffffffffffff167f8be0079c531659141344cd1fd0a4f28419497f9722a3daafe3b4186f6b6457e060405160405180910390a3806000806101000a81548173ffffffffffffffffffffffffffffffffffffffff021916908373ffffffffffffffffffffffffffffffffffffffff1602179055506000600160006101000a81548173ffffffffffffffffffffffffffffffffffffffff021916908373ffffffffffffffffffffffffffffffffffffffff16021790555050565b6000809054906101000a900473ffffffffffffffffffffffffffffffffffffffff1681565b600160009054906101000a900473ffffffffffffffffffffffffffffffffffffffff1681565b60008060009054906101000a900473ffffffffffffffffffffffffffffffffffffffff1673ffffffffffffffffffffffffffffffffffffffff163373ffffffffffffffffffffffffffffffffffffffff16141515610e3957600080fd5b8273ffffffffffffffffffffffffffffffffffffffff1663a9059cbb6000809054906101000a900473ffffffffffffffffffffffffffffffffffffffff16846000604051602001526040518363ffffffff167c0100000000000000000000000000000000000000000000000000000000028152600401808373ffffffffffffffffffffffffffffffffffffffff1673ffffffffffffffffffffffffffffffffffffffff16815260200182815260200192505050602060405180830381600087803b1515610f0557600080fd5b6102c65a03f11515610f1657600080fd5b50505060405180519050905092915050565b600381815481101515610f3757fe5b90600052602060002090016000915054906101000a900473ffffffffffffffffffffffffffffffffffffffff1681565b6000809054906101000a900473ffffffffffffffffffffffffffffffffffffffff1673ffffffffffffffffffffffffffffffffffffffff163373ffffffffffffffffffffffffffffffffffffffff16141515610fc257600080fd5b80600160006101000a81548173ffffffffffffffffffffffffffffffffffffffff021916908373ffffffffffffffffffffffffffffffffffffffff16021790555050565b604051613ceb8061106883390190565b81548183558181151161103d5781836000526020600020918201910161103c9190611042565b5b505050565b61106491905b80821115611060576000816000905550600101611048565b5090565b905600606060405234156200001057600080fd5b60405162003ceb38038062003ceb83398101604052808051906020019091908051820191906020018051820191906020018051906020019091908051906020019091908051906020019091908051906020019091905050600073__BTTSLib_______________________________6335659df99091898989898989896040518963ffffffff167c0100000000000000000000000000000000000000000000000000000000028152600401808981526020018873ffffffffffffffffffffffffffffffffffffffff1673ffffffffffffffffffffffffffffffffffffffff16815260200180602001806020018760ff1660ff1681526020018681526020018515151515815260200184151515158152602001838103835289818151815260200191508051906020019080838360005b838110156200015b5780820151818401526020810190506200013e565b50505050905090810190601f168015620001895780820380516001836020036101000a031916815260200191505b50838103825288818151815260200191508051906020019080838360005b83811015620001c4578082015181840152602081019050620001a7565b50505050905090810190601f168015620001f25780820380516001836020036101000a031916815260200191505b509a505050505050505050505060006040518083038186803b15156200021757600080fd5b6102c65a03f415156200022957600080fd5b50505050505050505050613aa880620002436000396000f30060606040526004361061021a576000357c0100000000000000000000000000000000000000000000000000000000900463ffffffff16806305a5f8301461021f57806306fdde03146102f1578063075461721461037f578063095ea7b3146103d45780630cd55abf1461042e5780631296d47d1461047b57806318160ddd1461050a5780631a2b3adf14610533578063233907a3146105e157806323b872dd14610648578063313ce567146106c1578063344bcc7d146106f05780634bf365df146107fc578063500b9426146108295780635b1ea8581461087a57806370a08231146108e15780637532eaac1461092e57806379ba509714610a1b5780637c0fbc3114610a305780637e5cd5c114610b275780637e71fb0914610b3c57806389443aac14610b755780638da5cb5b14610b9e578063905295e314610bf357806392ff0d3114610c2c57806395d89b4114610c59578063965b0cc414610ce757806396cfd12414610e21578063a3fc136a14610eb0578063a9059cbb14610f17578063af35c6c714610f71578063c14a932f14610f86578063c7a86e3314610fed578063cae9ca51146110e4578063d1a1beb414611181578063d4ee1d90146111e6578063dc39d06d1461123b578063dd62ed3e14611295578063e2cc7a5114611301578063e9afa7a11461138f578063f16f9b531461147c578063f2fde38b146115ac578063f30d4d3f146115e5578063fca3b5aa146116fb575b600080fd5b341561022a57600080fd5b6102d3600480803573ffffffffffffffffffffffffffffffffffffffff1690602001909190803573ffffffffffffffffffffffffffffffffffffffff1690602001909190803590602001909190803590602001908201803590602001908080601f01602080910402602001604051908101604052809392919081815260200183838082843782019150505050505091908035906020019091908035906020019091905050611734565b60405180826000191660001916815260200191505060405180910390f35b34156102fc57600080fd5b6103046118bf565b6040518080602001828103825283818151815260200191508051906020019080838360005b83811015610344578082015181840152602081019050610329565b50505050905090810190601f1680156103715780820380516001836020036101000a031916815260200191505b509250505060405180910390f35b341561038a57600080fd5b61039261196a565b604051808273ffffffffffffffffffffffffffffffffffffffff1673ffffffffffffffffffffffffffffffffffffffff16815260200191505060405180910390f35b34156103df57600080fd5b610414600480803573ffffffffffffffffffffffffffffffffffffffff16906020019091908035906020019091905050611996565b604051808215151515815260200191505060405180910390f35b341561043957600080fd5b610465600480803573ffffffffffffffffffffffffffffffffffffffff16906020019091905050611a6c565b6040518082815260200191505060405180910390f35b341561048657600080fd5b6104ec600480803573ffffffffffffffffffffffffffffffffffffffff1690602001909190803573ffffffffffffffffffffffffffffffffffffffff16906020019091908035906020019091908035906020019091908035906020019091905050611ab7565b60405180826000191660001916815260200191505060405180910390f35b341561051557600080fd5b61051d611bd4565b6040518082815260200191505060405180910390f35b341561053e57600080fd5b6105c3600480803573ffffffffffffffffffffffffffffffffffffffff1690602001909190803573ffffffffffffffffffffffffffffffffffffffff1690602001909190803573ffffffffffffffffffffffffffffffffffffffff16906020019091908035906020019091908035906020019091908035906020019091905050611c24565b60405180826000191660001916815260200191505060405180910390f35b34156105ec57600080fd5b6105f4611d76565b60405180827bffffffffffffffffffffffffffffffffffffffffffffffffffffffff19167bffffffffffffffffffffffffffffffffffffffffffffffffffffffff1916815260200191505060405180910390f35b341561065357600080fd5b6106a7600480803573ffffffffffffffffffffffffffffffffffffffff1690602001909190803573ffffffffffffffffffffffffffffffffffffffff16906020019091908035906020019091905050611d9a565b604051808215151515815260200191505060405180910390f35b34156106cc57600080fd5b6106d4611ea5565b604051808260ff1660ff16815260200191505060405180910390f35b34156106fb57600080fd5b6107e2600480803573ffffffffffffffffffffffffffffffffffffffff1690602001909190803573ffffffffffffffffffffffffffffffffffffffff1690602001909190803573ffffffffffffffffffffffffffffffffffffffff1690602001909190803590602001909190803590602001909190803590602001909190803590602001908201803590602001908080601f0160208091040260200160405190810160405280939291908181526020018383808284378201915050505050509190803573ffffffffffffffffffffffffffffffffffffffff16906020019091905050611ebe565b604051808215151515815260200191505060405180910390f35b341561080757600080fd5b61080f6120b3565b604051808215151515815260200191505060405180910390f35b341561083457600080fd5b610860600480803573ffffffffffffffffffffffffffffffffffffffff169060200190919050506120cc565b604051808215151515815260200191505060405180910390f35b341561088557600080fd5b61088d612124565b60405180827bffffffffffffffffffffffffffffffffffffffffffffffffffffffff19167bffffffffffffffffffffffffffffffffffffffffffffffffffffffff1916815260200191505060405180910390f35b34156108ec57600080fd5b610918600480803573ffffffffffffffffffffffffffffffffffffffff16906020019091905050612148565b6040518082815260200191505060405180910390f35b341561093957600080fd5b610a01600480803573ffffffffffffffffffffffffffffffffffffffff1690602001909190803573ffffffffffffffffffffffffffffffffffffffff1690602001909190803590602001909190803590602001909190803590602001909190803590602001908201803590602001908080601f0160208091040260200160405190810160405280939291908181526020018383808284378201915050505050509190803573ffffffffffffffffffffffffffffffffffffffff16906020019091905050612193565b604051808215151515815260200191505060405180910390f35b3415610a2657600080fd5b610a2e612353565b005b3415610a3b57600080fd5b610b03600480803573ffffffffffffffffffffffffffffffffffffffff1690602001909190803573ffffffffffffffffffffffffffffffffffffffff1690602001909190803590602001909190803590602001909190803590602001909190803590602001908201803590602001908080601f0160208091040260200160405190810160405280939291908181526020018383808284378201915050505050509190803573ffffffffffffffffffffffffffffffffffffffff169060200190919050506123d6565b60405180826009811115610b1357fe5b60ff16815260200191505060405180910390f35b3415610b3257600080fd5b610b3a612596565b005b3415610b4757600080fd5b610b73600480803573ffffffffffffffffffffffffffffffffffffffff16906020019091905050612619565b005b3415610b8057600080fd5b610b886126d1565b6040518082815260200191505060405180910390f35b3415610ba957600080fd5b610bb16126d6565b604051808273ffffffffffffffffffffffffffffffffffffffff1673ffffffffffffffffffffffffffffffffffffffff16815260200191505060405180910390f35b3415610bfe57600080fd5b610c2a600480803573ffffffffffffffffffffffffffffffffffffffff16906020019091905050612702565b005b3415610c3757600080fd5b610c3f6127ba565b604051808215151515815260200191505060405180910390f35b3415610c6457600080fd5b610c6c6127d3565b6040518080602001828103825283818151815260200191508051906020019080838360005b83811015610cac578082015181840152602081019050610c91565b50505050905090810190601f168015610cd95780820380516001836020036101000a031916815260200191505b509250505060405180910390f35b3415610cf257600080fd5b610dfd600480803573ffffffffffffffffffffffffffffffffffffffff1690602001909190803573ffffffffffffffffffffffffffffffffffffffff1690602001909190803590602001909190803590602001908201803590602001908080601f0160208091040260200160405190810160405280939291908181526020018383808284378201915050505050509190803590602001909190803590602001909190803590602001908201803590602001908080601f0160208091040260200160405190810160405280939291908181526020018383808284378201915050505050509190803573ffffffffffffffffffffffffffffffffffffffff1690602001909190505061287e565b60405180826009811115610e0d57fe5b60ff16815260200191505060405180910390f35b3415610e2c57600080fd5b610e92600480803573ffffffffffffffffffffffffffffffffffffffff1690602001909190803573ffffffffffffffffffffffffffffffffffffffff16906020019091908035906020019091908035906020019091908035906020019091905050612aac565b60405180826000191660001916815260200191505060405180910390f35b3415610ebb57600080fd5b610ec3612bc9565b60405180827bffffffffffffffffffffffffffffffffffffffffffffffffffffffff19167bffffffffffffffffffffffffffffffffffffffffffffffffffffffff1916815260200191505060405180910390f35b3415610f2257600080fd5b610f57600480803573ffffffffffffffffffffffffffffffffffffffff16906020019091908035906020019091905050612bed565b604051808215151515815260200191505060405180910390f35b3415610f7c57600080fd5b610f84612cc3565b005b3415610f9157600080fd5b610f99612d46565b60405180827bffffffffffffffffffffffffffffffffffffffffffffffffffffffff19167bffffffffffffffffffffffffffffffffffffffffffffffffffffffff1916815260200191505060405180910390f35b3415610ff857600080fd5b6110c0600480803573ffffffffffffffffffffffffffffffffffffffff1690602001909190803573ffffffffffffffffffffffffffffffffffffffff1690602001909190803590602001909190803590602001909190803590602001909190803590602001908201803590602001908080601f0160208091040260200160405190810160405280939291908181526020018383808284378201915050505050509190803573ffffffffffffffffffffffffffffffffffffffff16906020019091905050612d6a565b604051808260098111156110d057fe5b60ff16815260200191505060405180910390f35b34156110ef57600080fd5b611167600480803573ffffffffffffffffffffffffffffffffffffffff1690602001909190803590602001909190803590602001908201803590602001908080601f01602080910402602001604051908101604052809392919081815260200183838082843782019150505050505091905050612f2a565b604051808215151515815260200191505060405180910390f35b341561118c57600080fd5b6111cc600480803573ffffffffffffffffffffffffffffffffffffffff16906020019091908035906020019091908035151590602001909190505061306e565b604051808215151515815260200191505060405180910390f35b34156111f157600080fd5b6111f9613151565b604051808273ffffffffffffffffffffffffffffffffffffffff1673ffffffffffffffffffffffffffffffffffffffff16815260200191505060405180910390f35b341561124657600080fd5b61127b600480803573ffffffffffffffffffffffffffffffffffffffff1690602001909190803590602001909190505061317d565b604051808215151515815260200191505060405180910390f35b34156112a057600080fd5b6112eb600480803573ffffffffffffffffffffffffffffffffffffffff1690602001909190803573ffffffffffffffffffffffffffffffffffffffff16906020019091905050613253565b6040518082815260200191505060405180910390f35b341561130c57600080fd5b6113146132dc565b6040518080602001828103825283818151815260200191508051906020019080838360005b83811015611354578082015181840152602081019050611339565b50505050905090810190601f1680156113815780820380516001836020036101000a031916815260200191505b509250505060405180910390f35b341561139a57600080fd5b611462600480803573ffffffffffffffffffffffffffffffffffffffff1690602001909190803573ffffffffffffffffffffffffffffffffffffffff1690602001909190803590602001909190803590602001909190803590602001909190803590602001908201803590602001908080601f0160208091040260200160405190810160405280939291908181526020018383808284378201915050505050509190803573ffffffffffffffffffffffffffffffffffffffff16906020019091905050613315565b604051808215151515815260200191505060405180910390f35b341561148757600080fd5b611592600480803573ffffffffffffffffffffffffffffffffffffffff1690602001909190803573ffffffffffffffffffffffffffffffffffffffff1690602001909190803590602001909190803590602001908201803590602001908080601f0160208091040260200160405190810160405280939291908181526020018383808284378201915050505050509190803590602001909190803590602001909190803590602001908201803590602001908080601f0160208091040260200160405190810160405280939291908181526020018383808284378201915050505050509190803573ffffffffffffffffffffffffffffffffffffffff169060200190919050506134d5565b604051808215151515815260200191505060405180910390f35b34156115b757600080fd5b6115e3600480803573ffffffffffffffffffffffffffffffffffffffff16906020019091905050613703565b005b34156115f057600080fd5b6116d7600480803573ffffffffffffffffffffffffffffffffffffffff1690602001909190803573ffffffffffffffffffffffffffffffffffffffff1690602001909190803573ffffffffffffffffffffffffffffffffffffffff1690602001909190803590602001909190803590602001909190803590602001909190803590602001908201803590602001908080601f0160208091040260200160405190810160405280939291908181526020018383808284378201915050505050509190803573ffffffffffffffffffffffffffffffffffffffff169060200190919050506137bb565b604051808260098111156116e757fe5b60ff16815260200191505060405180910390f35b341561170657600080fd5b611732600480803573ffffffffffffffffffffffffffffffffffffffff169060200190919050506139b0565b005b60008073__BTTSLib_______________________________63ed3b174b90918989898989896000604051602001526040518863ffffffff167c0100000000000000000000000000000000000000000000000000000000028152600401808881526020018773ffffffffffffffffffffffffffffffffffffffff1673ffffffffffffffffffffffffffffffffffffffff1681526020018673ffffffffffffffffffffffffffffffffffffffff1673ffffffffffffffffffffffffffffffffffffffff16815260200185815260200180602001848152602001838152602001828103825285818151815260200191508051906020019080838360005b8381101561184957808201518184015260208101905061182e565b50505050905090810190601f1680156118765780820380516001836020036101000a031916815260200191505b509850505050505050505060206040518083038186803b151561189857600080fd5b6102c65a03f415156118a957600080fd5b5050506040518051905090509695505050505050565b6118c7613a68565b60006005018054600181600116156101000203166002900480601f0160208091040260200160405190810160405280929190818152602001828054600181600116156101000203166002900480156119605780601f1061193557610100808354040283529160200191611960565b820191906000526020600020905b81548152906001019060200180831161194357829003601f168201915b5050505050905090565b60008060020160009054906101000a900473ffffffffffffffffffffffffffffffffffffffff16905090565b60008073__BTTSLib_______________________________63bed568f7909185856000604051602001526040518463ffffffff167c0100000000000000000000000000000000000000000000000000000000028152600401808481526020018373ffffffffffffffffffffffffffffffffffffffff1673ffffffffffffffffffffffffffffffffffffffff168152602001828152602001935050505060206040518083038186803b1515611a4957600080fd5b6102c65a03f41515611a5a57600080fd5b50505060405180519050905092915050565b600080600a0160008373ffffffffffffffffffffffffffffffffffffffff1673ffffffffffffffffffffffffffffffffffffffff168152602001908152602001600020549050919050565b60008073__BTTSLib_______________________________633c0734a3909188888888886000604051602001526040518763ffffffff167c0100000000000000000000000000000000000000000000000000000000028152600401808781526020018673ffffffffffffffffffffffffffffffffffffffff1673ffffffffffffffffffffffffffffffffffffffff1681526020018573ffffffffffffffffffffffffffffffffffffffff1673ffffffffffffffffffffffffffffffffffffffff168152602001848152602001838152602001828152602001965050505050505060206040518083038186803b1515611bae57600080fd5b6102c65a03f41515611bbf57600080fd5b50505060405180519050905095945050505050565b60008060080160008073ffffffffffffffffffffffffffffffffffffffff1673ffffffffffffffffffffffffffffffffffffffff1681526020019081526020016000205460006007015403905090565b60008073__BTTSLib_______________________________638099f6cb90918989898989896000604051602001526040518863ffffffff167c0100000000000000000000000000000000000000000000000000000000028152600401808881526020018773ffffffffffffffffffffffffffffffffffffffff1673ffffffffffffffffffffffffffffffffffffffff1681526020018673ffffffffffffffffffffffffffffffffffffffff1673ffffffffffffffffffffffffffffffffffffffff1681526020018573ffffffffffffffffffffffffffffffffffffffff1673ffffffffffffffffffffffffffffffffffffffff16815260200184815260200183815260200182815260200197505050505050505060206040518083038186803b1515611d4f57600080fd5b6102c65a03f41515611d6057600080fd5b5050506040518051905090509695505050505050565b7ff16f9b530000000000000000000000000000000000000000000000000000000081565b60008073__BTTSLib_______________________________6367b9965490918686866000604051602001526040518563ffffffff167c0100000000000000000000000000000000000000000000000000000000028152600401808581526020018473ffffffffffffffffffffffffffffffffffffffff1673ffffffffffffffffffffffffffffffffffffffff1681526020018373ffffffffffffffffffffffffffffffffffffffff1673ffffffffffffffffffffffffffffffffffffffff16815260200182815260200194505050505060206040518083038186803b1515611e8157600080fd5b6102c65a03f41515611e9257600080fd5b5050506040518051905090509392505050565b60008060060160009054906101000a900460ff16905090565b60008073__BTTSLib_______________________________635b08c4d890918b8b8b8b8b8b8b8b6000604051602001526040518a63ffffffff167c0100000000000000000000000000000000000000000000000000000000028152600401808a81526020018973ffffffffffffffffffffffffffffffffffffffff1673ffffffffffffffffffffffffffffffffffffffff1681526020018873ffffffffffffffffffffffffffffffffffffffff1673ffffffffffffffffffffffffffffffffffffffff1681526020018773ffffffffffffffffffffffffffffffffffffffff1673ffffffffffffffffffffffffffffffffffffffff168152602001868152602001858152602001848152602001806020018373ffffffffffffffffffffffffffffffffffffffff1673ffffffffffffffffffffffffffffffffffffffff168152602001828103825284818151815260200191508051906020019080838360005b8381101561203957808201518184015260208101905061201e565b50505050905090810190601f1680156120665780820380516001836020036101000a031916815260200191505b509a505050505050505050505060206040518083038186803b151561208a57600080fd5b6102c65a03f4151561209b57600080fd5b50505060405180519050905098975050505050505050565b60008060020160149054906101000a900460ff16905090565b60008060030160008373ffffffffffffffffffffffffffffffffffffffff1673ffffffffffffffffffffffffffffffffffffffff16815260200190815260200160002060009054906101000a900460ff169050919050565b7f7532eaac0000000000000000000000000000000000000000000000000000000081565b60008060080160008373ffffffffffffffffffffffffffffffffffffffff1673ffffffffffffffffffffffffffffffffffffffff168152602001908152602001600020549050919050565b60008073__BTTSLib_______________________________6340c3e55b90918a8a8a8a8a8a8a6000604051602001526040518963ffffffff167c0100000000000000000000000000000000000000000000000000000000028152600401808981526020018873ffffffffffffffffffffffffffffffffffffffff1673ffffffffffffffffffffffffffffffffffffffff1681526020018773ffffffffffffffffffffffffffffffffffffffff1673ffffffffffffffffffffffffffffffffffffffff168152602001868152602001858152602001848152602001806020018373ffffffffffffffffffffffffffffffffffffffff1673ffffffffffffffffffffffffffffffffffffffff168152602001828103825284818151815260200191508051906020019080838360005b838110156122db5780820151818401526020810190506122c0565b50505050905090810190601f1680156123085780820380516001836020036101000a031916815260200191505b50995050505050505050505060206040518083038186803b151561232b57600080fd5b6102c65a03f4151561233c57600080fd5b505050604051805190509050979650505050505050565b600073__BTTSLib_______________________________63ea300bda90916040518263ffffffff167c01000000000000000000000000000000000000000000000000000000000281526004018082815260200191505060006040518083038186803b15156123c057600080fd5b6102c65a03f415156123d157600080fd5b505050565b60008073__BTTSLib_______________________________63f12d346e90918a8a8a8a8a8a8a6000604051602001526040518963ffffffff167c0100000000000000000000000000000000000000000000000000000000028152600401808981526020018873ffffffffffffffffffffffffffffffffffffffff1673ffffffffffffffffffffffffffffffffffffffff1681526020018773ffffffffffffffffffffffffffffffffffffffff1673ffffffffffffffffffffffffffffffffffffffff168152602001868152602001858152602001848152602001806020018373ffffffffffffffffffffffffffffffffffffffff1673ffffffffffffffffffffffffffffffffffffffff168152602001828103825284818151815260200191508051906020019080838360005b8381101561251e578082015181840152602081019050612503565b50505050905090810190601f16801561254b5780820380516001836020036101000a031916815260200191505b50995050505050505050505060206040518083038186803b151561256e57600080fd5b6102c65a03f4151561257f57600080fd5b505050604051805190509050979650505050505050565b600073__BTTSLib_______________________________63f72cb00a90916040518263ffffffff167c01000000000000000000000000000000000000000000000000000000000281526004018082815260200191505060006040518083038186803b151561260357600080fd5b6102c65a03f4151561261457600080fd5b505050565b600073__BTTSLib_______________________________638fedeca69091836040518363ffffffff167c0100000000000000000000000000000000000000000000000000000000028152600401808381526020018273ffffffffffffffffffffffffffffffffffffffff1673ffffffffffffffffffffffffffffffffffffffff1681526020019250505060006040518083038186803b15156126ba57600080fd5b6102c65a03f415156126cb57600080fd5b50505050565b606e81565b60008060000160019054906101000a900473ffffffffffffffffffffffffffffffffffffffff16905090565b600073__BTTSLib_______________________________63b39d0e099091836040518363ffffffff167c0100000000000000000000000000000000000000000000000000000000028152600401808381526020018273ffffffffffffffffffffffffffffffffffffffff1673ffffffffffffffffffffffffffffffffffffffff1681526020019250505060006040518083038186803b15156127a357600080fd5b6102c65a03f415156127b457600080fd5b50505050565b60008060020160159054906101000a900460ff16905090565b6127db613a68565b60006004018054600181600116156101000203166002900480601f0160208091040260200160405190810160405280929190818152602001828054600181600116156101000203166002900480156128745780601f1061284957610100808354040283529160200191612874565b820191906000526020600020905b81548152906001019060200180831161285757829003601f168201915b5050505050905090565b60008073__BTTSLib_______________________________63e0ccb74990918b8b8b8b8b8b8b8b6000604051602001526040518a63ffffffff167c0100000000000000000000000000000000000000000000000000000000028152600401808a81526020018973ffffffffffffffffffffffffffffffffffffffff1673ffffffffffffffffffffffffffffffffffffffff1681526020018873ffffffffffffffffffffffffffffffffffffffff1673ffffffffffffffffffffffffffffffffffffffff16815260200187815260200180602001868152602001858152602001806020018473ffffffffffffffffffffffffffffffffffffffff1673ffffffffffffffffffffffffffffffffffffffff168152602001838103835288818151815260200191508051906020019080838360005b838110156129cb5780820151818401526020810190506129b0565b50505050905090810190601f1680156129f85780820380516001836020036101000a031916815260200191505b50838103825285818151815260200191508051906020019080838360005b83811015612a31578082015181840152602081019050612a16565b50505050905090810190601f168015612a5e5780820380516001836020036101000a031916815260200191505b509b50505050505050505050505060206040518083038186803b1515612a8357600080fd5b6102c65a03f41515612a9457600080fd5b50505060405180519050905098975050505050505050565b60008073__BTTSLib_______________________________63836be758909188888888886000604051602001526040518763ffffffff167c0100000000000000000000000000000000000000000000000000000000028152600401808781526020018673ffffffffffffffffffffffffffffffffffffffff1673ffffffffffffffffffffffffffffffffffffffff1681526020018573ffffffffffffffffffffffffffffffffffffffff1673ffffffffffffffffffffffffffffffffffffffff168152602001848152602001838152602001828152602001965050505050505060206040518083038186803b1515612ba357600080fd5b6102c65a03f41515612bb457600080fd5b50505060405180519050905095945050505050565b7fe9afa7a10000000000000000000000000000000000000000000000000000000081565b60008073__BTTSLib_______________________________6306ad0e7b909185856000604051602001526040518463ffffffff167c0100000000000000000000000000000000000000000000000000000000028152600401808481526020018373ffffffffffffffffffffffffffffffffffffffff1673ffffffffffffffffffffffffffffffffffffffff168152602001828152602001935050505060206040518083038186803b1515612ca057600080fd5b6102c65a03f41515612cb157600080fd5b50505060405180519050905092915050565b600073__BTTSLib_______________________________63976f56a590916040518263ffffffff167c01000000000000000000000000000000000000000000000000000000000281526004018082815260200191505060006040518083038186803b1515612d3057600080fd5b6102c65a03f41515612d4157600080fd5b505050565b7f344bcc7d0000000000000000000000000000000000000000000000000000000081565b60008073__BTTSLib_______________________________63b457c85f90918a8a8a8a8a8a8a6000604051602001526040518963ffffffff167c0100000000000000000000000000000000000000000000000000000000028152600401808981526020018873ffffffffffffffffffffffffffffffffffffffff1673ffffffffffffffffffffffffffffffffffffffff1681526020018773ffffffffffffffffffffffffffffffffffffffff1673ffffffffffffffffffffffffffffffffffffffff168152602001868152602001858152602001848152602001806020018373ffffffffffffffffffffffffffffffffffffffff1673ffffffffffffffffffffffffffffffffffffffff168152602001828103825284818151815260200191508051906020019080838360005b83811015612eb2578082015181840152602081019050612e97565b50505050905090810190601f168015612edf5780820380516001836020036101000a031916815260200191505b50995050505050505050505060206040518083038186803b1515612f0257600080fd5b6102c65a03f41515612f1357600080fd5b505050604051805190509050979650505050505050565b60008073__BTTSLib_______________________________637f3f30bf90918686866000604051602001526040518563ffffffff167c0100000000000000000000000000000000000000000000000000000000028152600401808581526020018473ffffffffffffffffffffffffffffffffffffffff1673ffffffffffffffffffffffffffffffffffffffff16815260200183815260200180602001828103825283818151815260200191508051906020019080838360005b83811015612ffe578082015181840152602081019050612fe3565b50505050905090810190601f16801561302b5780820380516001836020036101000a031916815260200191505b509550505050505060206040518083038186803b151561304a57600080fd5b6102c65a03f4151561305b57600080fd5b5050506040518051905090509392505050565b60008073__BTTSLib_______________________________639fb6f52690918686866000604051602001526040518563ffffffff167c0100000000000000000000000000000000000000000000000000000000028152600401808581526020018473ffffffffffffffffffffffffffffffffffffffff1673ffffffffffffffffffffffffffffffffffffffff1681526020018381526020018215151515815260200194505050505060206040518083038186803b151561312d57600080fd5b6102c65a03f4151561313e57600080fd5b5050506040518051905090509392505050565b60008060010160009054906101000a900473ffffffffffffffffffffffffffffffffffffffff16905090565b60008073__BTTSLib_______________________________637512eb85909185856000604051602001526040518463ffffffff167c0100000000000000000000000000000000000000000000000000000000028152600401808481526020018373ffffffffffffffffffffffffffffffffffffffff1673ffffffffffffffffffffffffffffffffffffffff168152602001828152602001935050505060206040518083038186803b151561323057600080fd5b6102c65a03f4151561324157600080fd5b50505060405180519050905092915050565b60008060090160008473ffffffffffffffffffffffffffffffffffffffff1673ffffffffffffffffffffffffffffffffffffffff16815260200190815260200160002060008373ffffffffffffffffffffffffffffffffffffffff1673ffffffffffffffffffffffffffffffffffffffff16815260200190815260200160002054905092915050565b6040805190810160405280601c81526020017f19457468657265756d205369676e6564204d6573736167653a0a33320000000081525081565b60008073__BTTSLib_______________________________6306fc839790918a8a8a8a8a8a8a6000604051602001526040518963ffffffff167c0100000000000000000000000000000000000000000000000000000000028152600401808981526020018873ffffffffffffffffffffffffffffffffffffffff1673ffffffffffffffffffffffffffffffffffffffff1681526020018773ffffffffffffffffffffffffffffffffffffffff1673ffffffffffffffffffffffffffffffffffffffff168152602001868152602001858152602001848152602001806020018373ffffffffffffffffffffffffffffffffffffffff1673ffffffffffffffffffffffffffffffffffffffff168152602001828103825284818151815260200191508051906020019080838360005b8381101561345d578082015181840152602081019050613442565b50505050905090810190601f16801561348a5780820380516001836020036101000a031916815260200191505b50995050505050505050505060206040518083038186803b15156134ad57600080fd5b6102c65a03f415156134be57600080fd5b505050604051805190509050979650505050505050565b60008073__BTTSLib_______________________________63f134977b90918b8b8b8b8b8b8b8b6000604051602001526040518a63ffffffff167c0100000000000000000000000000000000000000000000000000000000028152600401808a81526020018973ffffffffffffffffffffffffffffffffffffffff1673ffffffffffffffffffffffffffffffffffffffff1681526020018873ffffffffffffffffffffffffffffffffffffffff1673ffffffffffffffffffffffffffffffffffffffff16815260200187815260200180602001868152602001858152602001806020018473ffffffffffffffffffffffffffffffffffffffff1673ffffffffffffffffffffffffffffffffffffffff168152602001838103835288818151815260200191508051906020019080838360005b83811015613622578082015181840152602081019050613607565b50505050905090810190601f16801561364f5780820380516001836020036101000a031916815260200191505b50838103825285818151815260200191508051906020019080838360005b8381101561368857808201518184015260208101905061366d565b50505050905090810190601f1680156136b55780820380516001836020036101000a031916815260200191505b509b50505050505050505050505060206040518083038186803b15156136da57600080fd5b6102c65a03f415156136eb57600080fd5b50505060405180519050905098975050505050505050565b600073__BTTSLib_______________________________6364850de59091836040518363ffffffff167c0100000000000000000000000000000000000000000000000000000000028152600401808381526020018273ffffffffffffffffffffffffffffffffffffffff1673ffffffffffffffffffffffffffffffffffffffff1681526020019250505060006040518083038186803b15156137a457600080fd5b6102c65a03f415156137b557600080fd5b50505050565b60008073__BTTSLib_______________________________6311a44a6b90918b8b8b8b8b8b8b8b6000604051602001526040518a63ffffffff167c0100000000000000000000000000000000000000000000000000000000028152600401808a81526020018973ffffffffffffffffffffffffffffffffffffffff1673ffffffffffffffffffffffffffffffffffffffff1681526020018873ffffffffffffffffffffffffffffffffffffffff1673ffffffffffffffffffffffffffffffffffffffff1681526020018773ffffffffffffffffffffffffffffffffffffffff1673ffffffffffffffffffffffffffffffffffffffff168152602001868152602001858152602001848152602001806020018373ffffffffffffffffffffffffffffffffffffffff1673ffffffffffffffffffffffffffffffffffffffff168152602001828103825284818151815260200191508051906020019080838360005b8381101561393657808201518184015260208101905061391b565b50505050905090810190601f1680156139635780820380516001836020036101000a031916815260200191505b509a505050505050505050505060206040518083038186803b151561398757600080fd5b6102c65a03f4151561399857600080fd5b50505060405180519050905098975050505050505050565b600073__BTTSLib_______________________________635250afa19091836040518363ffffffff167c0100000000000000000000000000000000000000000000000000000000028152600401808381526020018273ffffffffffffffffffffffffffffffffffffffff1673ffffffffffffffffffffffffffffffffffffffff1681526020019250505060006040518083038186803b1515613a5157600080fd5b6102c65a03f41515613a6257600080fd5b50505050565b6020604051908101604052806000815250905600a165627a7a72305820b41ae1c969fce49cb32a0632fd0d75955c5e0111e5a0295fd0f3f4889837f2830029a165627a7a723058207865e641e2c59009bfb7476fc1a69d410967edd44f86922f0c03eebba8e92ce40029",
  "source": "pragma solidity ^0.4.18;\n\nimport \"./BTTSLib.sol\";\n\n// ----------------------------------------------------------------------------\n// BokkyPooBah's Token Teleportation Service Token v1.10\n//\n// Enjoy. (c) BokkyPooBah / Bok Consulting Pty Ltd 2018. The MIT Licence.\n// ----------------------------------------------------------------------------\ncontract BTTSToken is BTTSTokenInterface {\n    using BTTSLib for BTTSLib.Data;\n\n    BTTSLib.Data data;\n\n    // ------------------------------------------------------------------------\n    // Constructor\n    // ------------------------------------------------------------------------\n    function BTTSToken(address owner, string symbol, string name, uint8 decimals, uint initialSupply, bool mintable, bool transferable) public {\n        data.init(owner, symbol, name, decimals, initialSupply, mintable, transferable);\n    }\n\n    // ------------------------------------------------------------------------\n    // Ownership\n    // ------------------------------------------------------------------------\n    function owner() public view returns (address) {\n        return data.owner;\n    }\n    function newOwner() public view returns (address) {\n        return data.newOwner;\n    }\n    function transferOwnership(address _newOwner) public {\n        data.transferOwnership(_newOwner);\n    }\n    function acceptOwnership() public {\n        data.acceptOwnership();\n    }\n    function transferOwnershipImmediately(address _newOwner) public {\n        data.transferOwnershipImmediately(_newOwner);\n    }\n\n    // ------------------------------------------------------------------------\n    // Token\n    // ------------------------------------------------------------------------\n    function symbol() public view returns (string) {\n        return data.symbol;\n    }\n    function name() public view returns (string) {\n        return data.name;\n    }\n    function decimals() public view returns (uint8) {\n        return data.decimals;\n    }\n\n    // ------------------------------------------------------------------------\n    // Minting and management\n    // ------------------------------------------------------------------------\n    function minter() public view returns (address) {\n        return data.minter;\n    }\n    function setMinter(address _minter) public {\n        data.setMinter(_minter);\n    }\n    function mint(address tokenOwner, uint tokens, bool lockAccount) public returns (bool success) {\n        return data.mint(tokenOwner, tokens, lockAccount);\n    }\n    function accountLocked(address tokenOwner) public view returns (bool) {\n        return data.accountLocked[tokenOwner];\n    }\n    function unlockAccount(address tokenOwner) public {\n        data.unlockAccount(tokenOwner);\n    }\n    function mintable() public view returns (bool) {\n        return data.mintable;\n    }\n    function transferable() public view returns (bool) {\n        return data.transferable;\n    }\n    function disableMinting() public {\n        data.disableMinting();\n    }\n    function enableTransfers() public {\n        data.enableTransfers();\n    }\n    function nextNonce(address spender) public view returns (uint) {\n        return data.nextNonce[spender];\n    }\n\n    // ------------------------------------------------------------------------\n    // Other functions\n    // ------------------------------------------------------------------------\n    function transferAnyERC20Token(address tokenAddress, uint tokens) public returns (bool success) {\n        return data.transferAnyERC20Token(tokenAddress, tokens);\n    }\n\n    // ------------------------------------------------------------------------\n    // Don't accept ethers\n    // ------------------------------------------------------------------------\n    function () public payable {\n        revert();\n    }\n\n    // ------------------------------------------------------------------------\n    // Token functions\n    // ------------------------------------------------------------------------\n    function totalSupply() public view returns (uint) {\n        return data.totalSupply - data.balances[address(0)];\n    }\n    function balanceOf(address tokenOwner) public view returns (uint balance) {\n        return data.balances[tokenOwner];\n    }\n    function allowance(address tokenOwner, address spender) public view returns (uint remaining) {\n        return data.allowed[tokenOwner][spender];\n    }\n    function transfer(address to, uint tokens) public returns (bool success) {\n        return data.transfer(to, tokens);\n    }\n    function approve(address spender, uint tokens) public returns (bool success) {\n        return data.approve(spender, tokens);\n    }\n    function transferFrom(address from, address to, uint tokens) public returns (bool success) {\n        return data.transferFrom(from, to, tokens);\n    }\n    function approveAndCall(address spender, uint tokens, bytes _data) public returns (bool success) {\n        return data.approveAndCall(spender, tokens, _data);\n    }\n\n    // ------------------------------------------------------------------------\n    // Signed function\n    // ------------------------------------------------------------------------\n    function signedTransferHash(address tokenOwner, address to, uint tokens, uint fee, uint nonce) public view returns (bytes32 hash) {\n        return data.signedTransferHash(tokenOwner, to, tokens, fee, nonce);\n    }\n    function signedTransferCheck(address tokenOwner, address to, uint tokens, uint fee, uint nonce, bytes sig, address feeAccount) public view returns (CheckResult result) {\n        return data.signedTransferCheck(tokenOwner, to, tokens, fee, nonce, sig, feeAccount);\n    }\n    function signedTransfer(address tokenOwner, address to, uint tokens, uint fee, uint nonce, bytes sig, address feeAccount) public returns (bool success) {\n        return data.signedTransfer(tokenOwner, to, tokens, fee, nonce, sig, feeAccount);\n    }\n    function signedApproveHash(address tokenOwner, address spender, uint tokens, uint fee, uint nonce) public view returns (bytes32 hash) {\n        return data.signedApproveHash(tokenOwner, spender, tokens, fee, nonce);\n    }\n    function signedApproveCheck(address tokenOwner, address spender, uint tokens, uint fee, uint nonce, bytes sig, address feeAccount) public view returns (CheckResult result) {\n        return data.signedApproveCheck(tokenOwner, spender, tokens, fee, nonce, sig, feeAccount);\n    }\n    function signedApprove(address tokenOwner, address spender, uint tokens, uint fee, uint nonce, bytes sig, address feeAccount) public returns (bool success) {\n        return data.signedApprove(tokenOwner, spender, tokens, fee, nonce, sig, feeAccount);\n    }\n    function signedTransferFromHash(address spender, address from, address to, uint tokens, uint fee, uint nonce) public view returns (bytes32 hash) {\n        return data.signedTransferFromHash(spender, from, to, tokens, fee, nonce);\n    }\n    function signedTransferFromCheck(address spender, address from, address to, uint tokens, uint fee, uint nonce, bytes sig, address feeAccount) public view returns (CheckResult result) {\n        return data.signedTransferFromCheck(spender, from, to, tokens, fee, nonce, sig, feeAccount);\n    }\n    function signedTransferFrom(address spender, address from, address to, uint tokens, uint fee, uint nonce, bytes sig, address feeAccount) public returns (bool success) {\n        return data.signedTransferFrom(spender, from, to, tokens, fee, nonce, sig, feeAccount);\n    }\n    function signedApproveAndCallHash(address tokenOwner, address spender, uint tokens, bytes _data, uint fee, uint nonce) public view returns (bytes32 hash) {\n        return data.signedApproveAndCallHash(tokenOwner, spender, tokens, _data, fee, nonce);\n    }\n    function signedApproveAndCallCheck(address tokenOwner, address spender, uint tokens, bytes _data, uint fee, uint nonce, bytes sig, address feeAccount) public view returns (CheckResult result) {\n        return data.signedApproveAndCallCheck(tokenOwner, spender, tokens, _data, fee, nonce, sig, feeAccount);\n    }\n    function signedApproveAndCall(address tokenOwner, address spender, uint tokens, bytes _data, uint fee, uint nonce, bytes sig, address feeAccount) public returns (bool success) {\n        return data.signedApproveAndCall(tokenOwner, spender, tokens, _data, fee, nonce, sig, feeAccount);\n    }\n}\n\n// ----------------------------------------------------------------------------\n// Owned contract\n// ----------------------------------------------------------------------------\ncontract Owned {\n    address public owner;\n    address public newOwner;\n    event OwnershipTransferred(address indexed _from, address indexed _to);\n\n    function Owned() public {\n        owner = msg.sender;\n    }\n    modifier onlyOwner {\n        require(msg.sender == owner);\n        _;\n    }\n    function transferOwnership(address _newOwner) public onlyOwner {\n        newOwner = _newOwner;\n    }\n    function acceptOwnership() public {\n        require(msg.sender == newOwner);\n        OwnershipTransferred(owner, newOwner);\n        owner = newOwner;\n        newOwner = address(0);\n    }\n    function transferOwnershipImmediately(address _newOwner) public onlyOwner {\n        OwnershipTransferred(owner, _newOwner);\n        owner = _newOwner;\n        newOwner = address(0);\n    }\n}\n\n\n// ----------------------------------------------------------------------------\n// BokkyPooBah's Token Teleportation Service Token Factory v1.10\n//\n// Enjoy. (c) BokkyPooBah / Bok Consulting Pty Ltd 2018. The MIT Licence.\n// ----------------------------------------------------------------------------\ncontract BTTSTokenFactory is Owned {\n\n    // ------------------------------------------------------------------------\n    // Internal data\n    // ------------------------------------------------------------------------\n    mapping(address => bool) _verify;\n    address[] public deployedTokens;\n\n    // ------------------------------------------------------------------------\n    // Event\n    // ------------------------------------------------------------------------\n    event BTTSTokenListing(address indexed ownerAddress,\n        address indexed bttsTokenAddress,\n        string symbol, string name, uint8 decimals,\n        uint initialSupply, bool mintable, bool transferable);\n\n\n    // ------------------------------------------------------------------------\n    // Anyone can call this method to verify whether the bttsToken contract at\n    // the specified address was deployed using this factory\n    //\n    // Parameters:\n    //   tokenContract  the bttsToken contract address\n    //\n    // Return values:\n    //   valid          did this BTTSTokenFactory create the BTTSToken contract?\n    //   decimals       number of decimal places for the token contract\n    //   initialSupply  the token initial supply\n    //   mintable       is the token mintable after deployment?\n    //   transferable   are the tokens transferable after deployment?\n    // ------------------------------------------------------------------------\n    function verify(address tokenContract) public view returns (\n        bool    valid,\n        address owner,\n        uint    decimals,\n        bool    mintable,\n        bool    transferable\n    ) {\n        valid = _verify[tokenContract];\n        if (valid) {\n            BTTSToken t = BTTSToken(tokenContract);\n            owner        = t.owner();\n            decimals     = t.decimals();\n            mintable     = t.mintable();\n            transferable = t.transferable();\n        }\n    }\n\n\n    // ------------------------------------------------------------------------\n    // Any account can call this method to deploy a new BTTSToken contract.\n    // The owner of the BTTSToken contract will be the calling account\n    //\n    // Parameters:\n    //   symbol         symbol\n    //   name           name\n    //   decimals       number of decimal places for the token contract\n    //   initialSupply  the token initial supply\n    //   mintable       is the token mintable after deployment?\n    //   transferable   are the tokens transferable after deployment?\n    //\n    // For example, deploying a BTTSToken contract with `initialSupply` of\n    // 1,000.000000000000000000 tokens:\n    //   symbol         \"ME\"\n    //   name           \"My Token\"\n    //   decimals       18\n    //   initialSupply  10000000000000000000000 = 1,000.000000000000000000\n    //                  tokens\n    //   mintable       can tokens be minted after deployment?\n    //   transferable   are the tokens transferable after deployment?\n    //\n    // The BTTSTokenListing() event is logged with the following parameters\n    //   owner          the account that execute this transaction\n    //   symbol         symbol\n    //   name           name\n    //   decimals       number of decimal places for the token contract\n    //   initialSupply  the token initial supply\n    //   mintable       can tokens be minted after deployment?\n    //   transferable   are the tokens transferable after deployment?\n    // ------------------------------------------------------------------------\n    function deployBTTSTokenContract(\n        string symbol,\n        string name,\n        uint8 decimals,\n        uint initialSupply,\n        bool mintable,\n        bool transferable\n    ) public returns (address bttsTokenAddress) {\n        bttsTokenAddress = new BTTSToken(\n            msg.sender,\n            symbol,\n            name,\n            decimals,\n            initialSupply,\n            mintable,\n            transferable);\n        // Record that this factory created the trader\n        _verify[bttsTokenAddress] = true;\n        deployedTokens.push(bttsTokenAddress);\n        BTTSTokenListing(msg.sender, bttsTokenAddress, symbol, name, decimals,\n            initialSupply, mintable, transferable);\n    }\n\n\n    // ------------------------------------------------------------------------\n    // Number of deployed tokens\n    // ------------------------------------------------------------------------\n    function numberOfDeployedTokens() public view returns (uint) {\n        return deployedTokens.length;\n    }\n\n    // ------------------------------------------------------------------------\n    // Factory owner can transfer out any accidentally sent ERC20 tokens\n    //\n    // Parameters:\n    //   tokenAddress  contract address of the token contract being withdrawn\n    //                 from\n    //   tokens        number of tokens\n    // ------------------------------------------------------------------------\n    function transferAnyERC20Token(address tokenAddress, uint tokens) public onlyOwner returns (bool success) {\n        return ERC20Interface(tokenAddress).transfer(owner, tokens);\n    }\n\n    // ------------------------------------------------------------------------\n    // Don't accept ethers\n    // ------------------------------------------------------------------------\n    function () public payable {\n        revert();\n    }\n}",
  "sourcePath": "/home/zeming/work/blockchain/meetup-queue/react-uport/contracts/BTTSTokenFactory.sol",
  "compiler": {
    "name": "solc",
    "version": "0.4.18+commit.9cf6e910.Emscripten.clang"
  },
  "schemaVersion": "1.0.1",
  "updatedAt": "2018-04-22T13:48:57.821Z"
}