{
  "contractName": "BTTSLib",
  "abi": [
    {
      "constant": false,
      "inputs": [
        {
          "name": "self",
          "type": "BTTSLib.Data storage"
        },
        {
          "name": "to",
          "type": "address"
        },
        {
          "name": "tokens",
          "type": "uint256"
        }
      ],
      "name": "transfer",
      "outputs": [
        {
          "name": "success",
          "type": "bool"
        }
      ],
      "payable": false,
      "stateMutability": "nonpayable",
      "type": "function"
    },
    {
      "constant": false,
      "inputs": [
        {
          "name": "self",
          "type": "BTTSLib.Data storage"
        },
        {
          "name": "tokenOwner",
          "type": "address"
        },
        {
          "name": "spender",
          "type": "address"
        },
        {
          "name": "tokens",
          "type": "uint256"
        },
        {
          "name": "fee",
          "type": "uint256"
        },
        {
          "name": "nonce",
          "type": "uint256"
        },
        {
          "name": "sig",
          "type": "bytes"
        },
        {
          "name": "feeAccount",
          "type": "address"
        }
      ],
      "name": "signedApprove",
      "outputs": [
        {
          "name": "success",
          "type": "bool"
        }
      ],
      "payable": false,
      "stateMutability": "nonpayable",
      "type": "function"
    },
    {
      "constant": true,
      "inputs": [
        {
          "name": "self",
          "type": "BTTSLib.Data storage"
        },
        {
          "name": "spender",
          "type": "address"
        },
        {
          "name": "from",
          "type": "address"
        },
        {
          "name": "to",
          "type": "address"
        },
        {
          "name": "tokens",
          "type": "uint256"
        },
        {
          "name": "fee",
          "type": "uint256"
        },
        {
          "name": "nonce",
          "type": "uint256"
        },
        {
          "name": "sig",
          "type": "bytes"
        },
        {
          "name": "feeAccount",
          "type": "address"
        }
      ],
      "name": "signedTransferFromCheck",
      "outputs": [
        {
          "name": "result",
          "type": "BTTSTokenInterface.CheckResult"
        }
      ],
      "payable": false,
      "stateMutability": "view",
      "type": "function"
    },
    {
      "constant": true,
      "inputs": [],
      "name": "signedApproveAndCallSig",
      "outputs": [
        {
          "name": "",
          "type": "bytes4"
        }
      ],
      "payable": false,
      "stateMutability": "view",
      "type": "function"
    },
    {
      "constant": false,
      "inputs": [
        {
          "name": "self",
          "type": "BTTSLib.Data storage"
        },
        {
          "name": "owner",
          "type": "address"
        },
        {
          "name": "symbol",
          "type": "string"
        },
        {
          "name": "name",
          "type": "string"
        },
        {
          "name": "decimals",
          "type": "uint8"
        },
        {
          "name": "initialSupply",
          "type": "uint256"
        },
        {
          "name": "mintable",
          "type": "bool"
        },
        {
          "name": "transferable",
          "type": "bool"
        }
      ],
      "name": "init",
      "outputs": [],
      "payable": false,
      "stateMutability": "nonpayable",
      "type": "function"
    },
    {
      "constant": true,
      "inputs": [
        {
          "name": "",
          "type": "BTTSLib.Data storage"
        },
        {
          "name": "tokenOwner",
          "type": "address"
        },
        {
          "name": "spender",
          "type": "address"
        },
        {
          "name": "tokens",
          "type": "uint256"
        },
        {
          "name": "fee",
          "type": "uint256"
        },
        {
          "name": "nonce",
          "type": "uint256"
        }
      ],
      "name": "signedApproveHash",
      "outputs": [
        {
          "name": "hash",
          "type": "bytes32"
        }
      ],
      "payable": false,
      "stateMutability": "view",
      "type": "function"
    },
    {
      "constant": false,
      "inputs": [
        {
          "name": "self",
          "type": "BTTSLib.Data storage"
        },
        {
          "name": "tokenOwner",
          "type": "address"
        },
        {
          "name": "to",
          "type": "address"
        },
        {
          "name": "tokens",
          "type": "uint256"
        },
        {
          "name": "fee",
          "type": "uint256"
        },
        {
          "name": "nonce",
          "type": "uint256"
        },
        {
          "name": "sig",
          "type": "bytes"
        },
        {
          "name": "feeAccount",
          "type": "address"
        }
      ],
      "name": "signedTransfer",
      "outputs": [
        {
          "name": "success",
          "type": "bool"
        }
      ],
      "payable": false,
      "stateMutability": "nonpayable",
      "type": "function"
    },
    {
      "constant": false,
      "inputs": [
        {
          "name": "self",
          "type": "BTTSLib.Data storage"
        },
        {
          "name": "minter",
          "type": "address"
        }
      ],
      "name": "setMinter",
      "outputs": [],
      "payable": false,
      "stateMutability": "nonpayable",
      "type": "function"
    },
    {
      "constant": false,
      "inputs": [
        {
          "name": "self",
          "type": "BTTSLib.Data storage"
        },
        {
          "name": "spender",
          "type": "address"
        },
        {
          "name": "from",
          "type": "address"
        },
        {
          "name": "to",
          "type": "address"
        },
        {
          "name": "tokens",
          "type": "uint256"
        },
        {
          "name": "fee",
          "type": "uint256"
        },
        {
          "name": "nonce",
          "type": "uint256"
        },
        {
          "name": "sig",
          "type": "bytes"
        },
        {
          "name": "feeAccount",
          "type": "address"
        }
      ],
      "name": "signedTransferFrom",
      "outputs": [
        {
          "name": "success",
          "type": "bool"
        }
      ],
      "payable": false,
      "stateMutability": "nonpayable",
      "type": "function"
    },
    {
      "constant": true,
      "inputs": [],
      "name": "signedTransferSig",
      "outputs": [
        {
          "name": "",
          "type": "bytes4"
        }
      ],
      "payable": false,
      "stateMutability": "view",
      "type": "function"
    },
    {
      "constant": false,
      "inputs": [
        {
          "name": "self",
          "type": "BTTSLib.Data storage"
        },
        {
          "name": "newOwner",
          "type": "address"
        }
      ],
      "name": "transferOwnership",
      "outputs": [],
      "payable": false,
      "stateMutability": "nonpayable",
      "type": "function"
    },
    {
      "constant": false,
      "inputs": [
        {
          "name": "self",
          "type": "BTTSLib.Data storage"
        },
        {
          "name": "from",
          "type": "address"
        },
        {
          "name": "to",
          "type": "address"
        },
        {
          "name": "tokens",
          "type": "uint256"
        }
      ],
      "name": "transferFrom",
      "outputs": [
        {
          "name": "success",
          "type": "bool"
        }
      ],
      "payable": false,
      "stateMutability": "nonpayable",
      "type": "function"
    },
    {
      "constant": false,
      "inputs": [
        {
          "name": "self",
          "type": "BTTSLib.Data storage"
        },
        {
          "name": "tokenAddress",
          "type": "address"
        },
        {
          "name": "tokens",
          "type": "uint256"
        }
      ],
      "name": "transferAnyERC20Token",
      "outputs": [
        {
          "name": "success",
          "type": "bool"
        }
      ],
      "payable": false,
      "stateMutability": "nonpayable",
      "type": "function"
    },
    {
      "constant": false,
      "inputs": [
        {
          "name": "self",
          "type": "BTTSLib.Data storage"
        },
        {
          "name": "spender",
          "type": "address"
        },
        {
          "name": "tokens",
          "type": "uint256"
        },
        {
          "name": "data",
          "type": "bytes"
        }
      ],
      "name": "approveAndCall",
      "outputs": [
        {
          "name": "success",
          "type": "bool"
        }
      ],
      "payable": false,
      "stateMutability": "nonpayable",
      "type": "function"
    },
    {
      "constant": true,
      "inputs": [
        {
          "name": "",
          "type": "BTTSLib.Data storage"
        },
        {
          "name": "spender",
          "type": "address"
        },
        {
          "name": "from",
          "type": "address"
        },
        {
          "name": "to",
          "type": "address"
        },
        {
          "name": "tokens",
          "type": "uint256"
        },
        {
          "name": "fee",
          "type": "uint256"
        },
        {
          "name": "nonce",
          "type": "uint256"
        }
      ],
      "name": "signedTransferFromHash",
      "outputs": [
        {
          "name": "hash",
          "type": "bytes32"
        }
      ],
      "payable": false,
      "stateMutability": "view",
      "type": "function"
    },
    {
      "constant": true,
      "inputs": [
        {
          "name": "",
          "type": "BTTSLib.Data storage"
        },
        {
          "name": "tokenOwner",
          "type": "address"
        },
        {
          "name": "to",
          "type": "address"
        },
        {
          "name": "tokens",
          "type": "uint256"
        },
        {
          "name": "fee",
          "type": "uint256"
        },
        {
          "name": "nonce",
          "type": "uint256"
        }
      ],
      "name": "signedTransferHash",
      "outputs": [
        {
          "name": "hash",
          "type": "bytes32"
        }
      ],
      "payable": false,
      "stateMutability": "view",
      "type": "function"
    },
    {
      "constant": true,
      "inputs": [],
      "name": "bttsVersion",
      "outputs": [
        {
          "name": "",
          "type": "uint256"
        }
      ],
      "payable": false,
      "stateMutability": "view",
      "type": "function"
    },
    {
      "constant": false,
      "inputs": [
        {
          "name": "self",
          "type": "BTTSLib.Data storage"
        },
        {
          "name": "newOwner",
          "type": "address"
        }
      ],
      "name": "transferOwnershipImmediately",
      "outputs": [],
      "payable": false,
      "stateMutability": "nonpayable",
      "type": "function"
    },
    {
      "constant": false,
      "inputs": [
        {
          "name": "self",
          "type": "BTTSLib.Data storage"
        }
      ],
      "name": "enableTransfers",
      "outputs": [],
      "payable": false,
      "stateMutability": "nonpayable",
      "type": "function"
    },
    {
      "constant": false,
      "inputs": [
        {
          "name": "self",
          "type": "BTTSLib.Data storage"
        },
        {
          "name": "tokenOwner",
          "type": "address"
        },
        {
          "name": "tokens",
          "type": "uint256"
        },
        {
          "name": "lockAccount",
          "type": "bool"
        }
      ],
      "name": "mint",
      "outputs": [
        {
          "name": "success",
          "type": "bool"
        }
      ],
      "payable": false,
      "stateMutability": "nonpayable",
      "type": "function"
    },
    {
      "constant": true,
      "inputs": [],
      "name": "signedApproveSig",
      "outputs": [
        {
          "name": "",
          "type": "bytes4"
        }
      ],
      "payable": false,
      "stateMutability": "view",
      "type": "function"
    },
    {
      "constant": false,
      "inputs": [
        {
          "name": "self",
          "type": "BTTSLib.Data storage"
        },
        {
          "name": "tokenOwner",
          "type": "address"
        }
      ],
      "name": "unlockAccount",
      "outputs": [],
      "payable": false,
      "stateMutability": "nonpayable",
      "type": "function"
    },
    {
      "constant": true,
      "inputs": [
        {
          "name": "self",
          "type": "BTTSLib.Data storage"
        },
        {
          "name": "tokenOwner",
          "type": "address"
        },
        {
          "name": "spender",
          "type": "address"
        },
        {
          "name": "tokens",
          "type": "uint256"
        },
        {
          "name": "fee",
          "type": "uint256"
        },
        {
          "name": "nonce",
          "type": "uint256"
        },
        {
          "name": "sig",
          "type": "bytes"
        },
        {
          "name": "feeAccount",
          "type": "address"
        }
      ],
      "name": "signedApproveCheck",
      "outputs": [
        {
          "name": "result",
          "type": "BTTSTokenInterface.CheckResult"
        }
      ],
      "payable": false,
      "stateMutability": "view",
      "type": "function"
    },
    {
      "constant": false,
      "inputs": [
        {
          "name": "self",
          "type": "BTTSLib.Data storage"
        },
        {
          "name": "spender",
          "type": "address"
        },
        {
          "name": "tokens",
          "type": "uint256"
        }
      ],
      "name": "approve",
      "outputs": [
        {
          "name": "success",
          "type": "bool"
        }
      ],
      "payable": false,
      "stateMutability": "nonpayable",
      "type": "function"
    },
    {
      "constant": true,
      "inputs": [],
      "name": "signedTransferFromSig",
      "outputs": [
        {
          "name": "",
          "type": "bytes4"
        }
      ],
      "payable": false,
      "stateMutability": "view",
      "type": "function"
    },
    {
      "constant": true,
      "inputs": [
        {
          "name": "",
          "type": "BTTSLib.Data storage"
        },
        {
          "name": "result",
          "type": "BTTSTokenInterface.CheckResult"
        }
      ],
      "name": "getCheckResultMessage",
      "outputs": [
        {
          "name": "",
          "type": "string"
        }
      ],
      "payable": false,
      "stateMutability": "pure",
      "type": "function"
    },
    {
      "constant": true,
      "inputs": [
        {
          "name": "hash",
          "type": "bytes32"
        },
        {
          "name": "sig",
          "type": "bytes"
        }
      ],
      "name": "ecrecoverFromSig",
      "outputs": [
        {
          "name": "recoveredAddress",
          "type": "address"
        }
      ],
      "payable": false,
      "stateMutability": "pure",
      "type": "function"
    },
    {
      "constant": true,
      "inputs": [
        {
          "name": "self",
          "type": "BTTSLib.Data storage"
        },
        {
          "name": "tokenOwner",
          "type": "address"
        },
        {
          "name": "spender",
          "type": "address"
        },
        {
          "name": "tokens",
          "type": "uint256"
        },
        {
          "name": "data",
          "type": "bytes"
        },
        {
          "name": "fee",
          "type": "uint256"
        },
        {
          "name": "nonce",
          "type": "uint256"
        },
        {
          "name": "sig",
          "type": "bytes"
        },
        {
          "name": "feeAccount",
          "type": "address"
        }
      ],
      "name": "signedApproveAndCallCheck",
      "outputs": [
        {
          "name": "result",
          "type": "BTTSTokenInterface.CheckResult"
        }
      ],
      "payable": false,
      "stateMutability": "view",
      "type": "function"
    },
    {
      "constant": true,
      "inputs": [],
      "name": "signingPrefix",
      "outputs": [
        {
          "name": "",
          "type": "bytes"
        }
      ],
      "payable": false,
      "stateMutability": "view",
      "type": "function"
    },
    {
      "constant": false,
      "inputs": [
        {
          "name": "self",
          "type": "BTTSLib.Data storage"
        }
      ],
      "name": "acceptOwnership",
      "outputs": [],
      "payable": false,
      "stateMutability": "nonpayable",
      "type": "function"
    },
    {
      "constant": true,
      "inputs": [
        {
          "name": "",
          "type": "BTTSLib.Data storage"
        },
        {
          "name": "tokenOwner",
          "type": "address"
        },
        {
          "name": "spender",
          "type": "address"
        },
        {
          "name": "tokens",
          "type": "uint256"
        },
        {
          "name": "data",
          "type": "bytes"
        },
        {
          "name": "fee",
          "type": "uint256"
        },
        {
          "name": "nonce",
          "type": "uint256"
        }
      ],
      "name": "signedApproveAndCallHash",
      "outputs": [
        {
          "name": "hash",
          "type": "bytes32"
        }
      ],
      "payable": false,
      "stateMutability": "view",
      "type": "function"
    },
    {
      "constant": true,
      "inputs": [
        {
          "name": "self",
          "type": "BTTSLib.Data storage"
        },
        {
          "name": "tokenOwner",
          "type": "address"
        },
        {
          "name": "to",
          "type": "address"
        },
        {
          "name": "tokens",
          "type": "uint256"
        },
        {
          "name": "fee",
          "type": "uint256"
        },
        {
          "name": "nonce",
          "type": "uint256"
        },
        {
          "name": "sig",
          "type": "bytes"
        },
        {
          "name": "feeAccount",
          "type": "address"
        }
      ],
      "name": "signedTransferCheck",
      "outputs": [
        {
          "name": "result",
          "type": "BTTSTokenInterface.CheckResult"
        }
      ],
      "payable": false,
      "stateMutability": "view",
      "type": "function"
    },
    {
      "constant": false,
      "inputs": [
        {
          "name": "self",
          "type": "BTTSLib.Data storage"
        },
        {
          "name": "tokenOwner",
          "type": "address"
        },
        {
          "name": "spender",
          "type": "address"
        },
        {
          "name": "tokens",
          "type": "uint256"
        },
        {
          "name": "data",
          "type": "bytes"
        },
        {
          "name": "fee",
          "type": "uint256"
        },
        {
          "name": "nonce",
          "type": "uint256"
        },
        {
          "name": "sig",
          "type": "bytes"
        },
        {
          "name": "feeAccount",
          "type": "address"
        }
      ],
      "name": "signedApproveAndCall",
      "outputs": [
        {
          "name": "success",
          "type": "bool"
        }
      ],
      "payable": false,
      "stateMutability": "nonpayable",
      "type": "function"
    },
    {
      "constant": false,
      "inputs": [
        {
          "name": "self",
          "type": "BTTSLib.Data storage"
        }
      ],
      "name": "disableMinting",
      "outputs": [],
      "payable": false,
      "stateMutability": "nonpayable",
      "type": "function"
    },
    {
      "anonymous": false,
      "inputs": [
        {
          "indexed": true,
          "name": "from",
          "type": "address"
        },
        {
          "indexed": true,
          "name": "to",
          "type": "address"
        }
      ],
      "name": "OwnershipTransferred",
      "type": "event"
    },
    {
      "anonymous": false,
      "inputs": [
        {
          "indexed": false,
          "name": "from",
          "type": "address"
        },
        {
          "indexed": false,
          "name": "to",
          "type": "address"
        }
      ],
      "name": "MinterUpdated",
      "type": "event"
    },
    {
      "anonymous": false,
      "inputs": [
        {
          "indexed": true,
          "name": "tokenOwner",
          "type": "address"
        },
        {
          "indexed": false,
          "name": "tokens",
          "type": "uint256"
        },
        {
          "indexed": false,
          "name": "lockAccount",
          "type": "bool"
        }
      ],
      "name": "Mint",
      "type": "event"
    },
    {
      "anonymous": false,
      "inputs": [],
      "name": "MintingDisabled",
      "type": "event"
    },
    {
      "anonymous": false,
      "inputs": [],
      "name": "TransfersEnabled",
      "type": "event"
    },
    {
      "anonymous": false,
      "inputs": [
        {
          "indexed": true,
          "name": "tokenOwner",
          "type": "address"
        }
      ],
      "name": "AccountUnlocked",
      "type": "event"
    },
    {
      "anonymous": false,
      "inputs": [
        {
          "indexed": true,
          "name": "from",
          "type": "address"
        },
        {
          "indexed": true,
          "name": "to",
          "type": "address"
        },
        {
          "indexed": false,
          "name": "tokens",
          "type": "uint256"
        }
      ],
      "name": "Transfer",
      "type": "event"
    },
    {
      "anonymous": false,
      "inputs": [
        {
          "indexed": true,
          "name": "tokenOwner",
          "type": "address"
        },
        {
          "indexed": true,
          "name": "spender",
          "type": "address"
        },
        {
          "indexed": false,
          "name": "tokens",
          "type": "uint256"
        }
      ],
      "name": "Approval",
      "type": "event"
    }
  ],
  "bytecode": "0x6060604052341561000f57600080fd5b61626b806200001f6000396000f3006060604052600436106101ac576000357c0100000000000000000000000000000000000000000000000000000000900463ffffffff16806306ad0e7b146101b157806306fc83971461020957806311a44a6b146102f4578063233907a31461040857806335659df9146104645780633c0734a31461054c57806340c3e55b146105d95780635250afa1146106c45780635b08c4d8146106fb5780635b1ea8581461080557806364850de51461086157806367b99654146108985780637512eb851461090f5780637f3f30bf146109675780638099f6cb14610a02578063836be75814610aae57806389443aac14610b3b5780638fedeca614610b59578063976f56a514610b905780639fb6f52614610ba8578063a3fc136a14610c0b578063b39d0e0914610c67578063b457c85f14610c9e578063bed568f714610d93578063c14a932f14610deb578063c3af8bcb14610e47578063d4acaf6c14610ee4578063e0ccb74914610f83578063e2cc7a51146110bb578063ea300bda1461113e578063ed3b174b14611156578063f12d346e14611226578063f134977b1461131b578063f72cb00a14611449575b600080fd5b6101ef600480803590602001909190803573ffffffffffffffffffffffffffffffffffffffff16906020019091908035906020019091905050611461565b604051808215151515815260200191505060405180910390f35b6102da600480803590602001909190803573ffffffffffffffffffffffffffffffffffffffff1690602001909190803573ffffffffffffffffffffffffffffffffffffffff1690602001909190803590602001909190803590602001909190803590602001909190803590602001908201803590602001908080601f0160208091040260200160405190810160405280939291908181526020018383808284378201915050505050509190803573ffffffffffffffffffffffffffffffffffffffff16906020019091905050611739565b604051808215151515815260200191505060405180910390f35b6103e4600480803590602001909190803573ffffffffffffffffffffffffffffffffffffffff1690602001909190803573ffffffffffffffffffffffffffffffffffffffff1690602001909190803573ffffffffffffffffffffffffffffffffffffffff1690602001909190803590602001909190803590602001909190803590602001909190803590602001908201803590602001908080601f0160208091040260200160405190810160405280939291908181526020018383808284378201915050505050509190803573ffffffffffffffffffffffffffffffffffffffff16906020019091905050611bfd565b604051808260098111156103f457fe5b60ff16815260200191505060405180910390f35b610410612115565b60405180827bffffffffffffffffffffffffffffffffffffffffffffffffffffffff19167bffffffffffffffffffffffffffffffffffffffffffffffffffffffff1916815260200191505060405180910390f35b61054a600480803590602001909190803573ffffffffffffffffffffffffffffffffffffffff1690602001909190803590602001908201803590602001908080601f0160208091040260200160405190810160405280939291908181526020018383808284378201915050505050509190803590602001908201803590602001908080601f0160208091040260200160405190810160405280939291908181526020018383808284378201915050505050509190803560ff1690602001909190803590602001909190803515159060200190919080351515906020019091905050612139565b005b6105bb600480803590602001909190803573ffffffffffffffffffffffffffffffffffffffff1690602001909190803573ffffffffffffffffffffffffffffffffffffffff169060200190919080359060200190919080359060200190919080359060200190919050506123aa565b60405180826000191660001916815260200191505060405180910390f35b6106aa600480803590602001909190803573ffffffffffffffffffffffffffffffffffffffff1690602001909190803573ffffffffffffffffffffffffffffffffffffffff1690602001909190803590602001909190803590602001909190803590602001909190803590602001908201803590602001908080601f0160208091040260200160405190810160405280939291908181526020018383808284378201915050505050509190803573ffffffffffffffffffffffffffffffffffffffff1690602001909190505061250d565b604051808215151515815260200191505060405180910390f35b6106f9600480803590602001909190803573ffffffffffffffffffffffffffffffffffffffff16906020019091905050612a6e565b005b6107eb600480803590602001909190803573ffffffffffffffffffffffffffffffffffffffff1690602001909190803573ffffffffffffffffffffffffffffffffffffffff1690602001909190803573ffffffffffffffffffffffffffffffffffffffff1690602001909190803590602001909190803590602001909190803590602001909190803590602001908201803590602001908080601f0160208091040260200160405190810160405280939291908181526020018383808284378201915050505050509190803573ffffffffffffffffffffffffffffffffffffffff16906020019091905050612beb565b604051808215151515815260200191505060405180910390f35b61080d613362565b60405180827bffffffffffffffffffffffffffffffffffffffffffffffffffffffff19167bffffffffffffffffffffffffffffffffffffffffffffffffffffffff1916815260200191505060405180910390f35b610896600480803590602001909190803573ffffffffffffffffffffffffffffffffffffffff16906020019091905050613386565b005b6108f5600480803590602001909190803573ffffffffffffffffffffffffffffffffffffffff1690602001909190803573ffffffffffffffffffffffffffffffffffffffff1690602001909190803590602001909190505061342b565b604051808215151515815260200191505060405180910390f35b61094d600480803590602001909190803573ffffffffffffffffffffffffffffffffffffffff16906020019091908035906020019091905050613740565b604051808215151515815260200191505060405180910390f35b6109e8600480803590602001909190803573ffffffffffffffffffffffffffffffffffffffff1690602001909190803590602001909190803590602001908201803590602001908080601f01602080910402602001604051908101604052809392919081815260200183838082843782019150505050505091905050613893565b604051808215151515815260200191505060405180910390f35b610a90600480803590602001909190803573ffffffffffffffffffffffffffffffffffffffff1690602001909190803573ffffffffffffffffffffffffffffffffffffffff1690602001909190803573ffffffffffffffffffffffffffffffffffffffff16906020019091908035906020019091908035906020019091908035906020019091905050613b3b565b60405180826000191660001916815260200191505060405180910390f35b610b1d600480803590602001909190803573ffffffffffffffffffffffffffffffffffffffff1690602001909190803573ffffffffffffffffffffffffffffffffffffffff16906020019091908035906020019091908035906020019091908035906020019091905050613ce2565b60405180826000191660001916815260200191505060405180910390f35b610b43613e45565b6040518082815260200191505060405180910390f35b610b8e600480803590602001909190803573ffffffffffffffffffffffffffffffffffffffff16906020019091905050613e4a565b005b610ba66004808035906020019091905050613fb1565b005b610bf1600480803590602001909190803573ffffffffffffffffffffffffffffffffffffffff169060200190919080359060200190919080351515906020019091905050614079565b604051808215151515815260200191505060405180910390f35b610c13614323565b60405180827bffffffffffffffffffffffffffffffffffffffffffffffffffffffff19167bffffffffffffffffffffffffffffffffffffffffffffffffffffffff1916815260200191505060405180910390f35b610c9c600480803590602001909190803573ffffffffffffffffffffffffffffffffffffffff16906020019091905050614347565b005b610d6f600480803590602001909190803573ffffffffffffffffffffffffffffffffffffffff1690602001909190803573ffffffffffffffffffffffffffffffffffffffff1690602001909190803590602001909190803590602001909190803590602001909190803590602001908201803590602001908080601f0160208091040260200160405190810160405280939291908181526020018383808284378201915050505050509190803573ffffffffffffffffffffffffffffffffffffffff169060200190919050506144a0565b60405180826009811115610d7f57fe5b60ff16815260200191505060405180910390f35b610dd1600480803590602001909190803573ffffffffffffffffffffffffffffffffffffffff169060200190919080359060200190919050506147a2565b604051808215151515815260200191505060405180910390f35b610df36148f2565b60405180827bffffffffffffffffffffffffffffffffffffffffffffffffffffffff19167bffffffffffffffffffffffffffffffffffffffffffffffffffffffff1916815260200191505060405180910390f35b610e69600480803590602001909190803560ff16906020019091905050614916565b6040518080602001828103825283818151815260200191508051906020019080838360005b83811015610ea9578082015181840152602081019050610e8e565b50505050905090810190601f168015610ed65780820380516001836020036101000a031916815260200191505b509250505060405180910390f35b610f4160048080356000191690602001909190803590602001908201803590602001908080601f01602080910402602001604051908101604052809392919081815260200183838082843782019150505050505091905050614d1b565b604051808273ffffffffffffffffffffffffffffffffffffffff1673ffffffffffffffffffffffffffffffffffffffff16815260200191505060405180910390f35b611097600480803590602001909190803573ffffffffffffffffffffffffffffffffffffffff1690602001909190803573ffffffffffffffffffffffffffffffffffffffff1690602001909190803590602001909190803590602001908201803590602001908080601f0160208091040260200160405190810160405280939291908181526020018383808284378201915050505050509190803590602001909190803590602001909190803590602001908201803590602001908080601f0160208091040260200160405190810160405280939291908181526020018383808284378201915050505050509190803573ffffffffffffffffffffffffffffffffffffffff16906020019091905050614e19565b604051808260098111156110a757fe5b60ff16815260200191505060405180910390f35b6110c361511d565b6040518080602001828103825283818151815260200191508051906020019080838360005b838110156111035780820151818401526020810190506110e8565b50505050905090810190601f1680156111305780820380516001836020036101000a031916815260200191505b509250505060405180910390f35b6111546004808035906020019091905050615156565b005b611208600480803590602001909190803573ffffffffffffffffffffffffffffffffffffffff1690602001909190803573ffffffffffffffffffffffffffffffffffffffff1690602001909190803590602001909190803590602001908201803590602001908080601f01602080910402602001604051908101604052809392919081815260200183838082843782019150505050505091908035906020019091908035906020019091905050615304565b60405180826000191660001916815260200191505060405180910390f35b6112f7600480803590602001909190803573ffffffffffffffffffffffffffffffffffffffff1690602001909190803573ffffffffffffffffffffffffffffffffffffffff1690602001909190803590602001909190803590602001909190803590602001909190803590602001908201803590602001908080601f0160208091040260200160405190810160405280939291908181526020018383808284378201915050505050509190803573ffffffffffffffffffffffffffffffffffffffff169060200190919050506154bd565b6040518082600981111561130757fe5b60ff16815260200191505060405180910390f35b61142f600480803590602001909190803573ffffffffffffffffffffffffffffffffffffffff1690602001909190803573ffffffffffffffffffffffffffffffffffffffff1690602001909190803590602001909190803590602001908201803590602001908080601f0160208091040260200160405190810160405280939291908181526020018383808284378201915050505050509190803590602001909190803590602001909190803590602001908201803590602001908080601f0160208091040260200160405190810160405280939291908181526020018383808284378201915050505050509190803573ffffffffffffffffffffffffffffffffffffffff169060200190919050506158b5565b604051808215151515815260200191505060405180910390f35b61145f6004808035906020019091905050615ed2565b005b60008360020160159054906101000a900460ff168061154357508360020160149054906101000a900460ff16801561154257508360000160019054906101000a900473ffffffffffffffffffffffffffffffffffffffff1673ffffffffffffffffffffffffffffffffffffffff163373ffffffffffffffffffffffffffffffffffffffff16148061154157508360020160009054906101000a900473ffffffffffffffffffffffffffffffffffffffff1673ffffffffffffffffffffffffffffffffffffffff163373ffffffffffffffffffffffffffffffffffffffff16145b5b5b151561154e57600080fd5b8360030160003373ffffffffffffffffffffffffffffffffffffffff1673ffffffffffffffffffffffffffffffffffffffff16815260200190815260200160002060009054906101000a900460ff161515156115a957600080fd5b6115f48460080160003373ffffffffffffffffffffffffffffffffffffffff1673ffffffffffffffffffffffffffffffffffffffff168152602001908152602001600020548361614e565b8460080160003373ffffffffffffffffffffffffffffffffffffffff1673ffffffffffffffffffffffffffffffffffffffff168152602001908152602001600020819055506116848460080160008573ffffffffffffffffffffffffffffffffffffffff1673ffffffffffffffffffffffffffffffffffffffff168152602001908152602001600020548361616a565b8460080160008573ffffffffffffffffffffffffffffffffffffffff1673ffffffffffffffffffffffffffffffffffffffff168152602001908152602001600020819055508273ffffffffffffffffffffffffffffffffffffffff163373ffffffffffffffffffffffffffffffffffffffff167fddf252ad1be2c89b69c2b068fc378daa952ba7f163c4a11628f55a4df523b3ef846040518082815260200191505060405180910390a3600190509392505050565b6000808960020160159054906101000a900460ff16151561175957600080fd5b6117678a8a8a8a8a8a6123aa565b9050600073ffffffffffffffffffffffffffffffffffffffff168973ffffffffffffffffffffffffffffffffffffffff161415801561188157506118526040805190810160405280601c81526020017f19457468657265756d205369676e6564204d6573736167653a0a333200000000815250826040518083805190602001908083835b60208310151561181057805182526020820191506020810190506020830392506117eb565b6001836020036101000a038019825116818451168082178552505050505050905001826000191660001916815260200192505050604051809103902085614d1b565b73ffffffffffffffffffffffffffffffffffffffff168973ffffffffffffffffffffffffffffffffffffffff16145b151561188c57600080fd5b8960030160008a73ffffffffffffffffffffffffffffffffffffffff1673ffffffffffffffffffffffffffffffffffffffff16815260200190815260200160002060009054906101000a900460ff161515156118e757600080fd5b848a600a0160008b73ffffffffffffffffffffffffffffffffffffffff1673ffffffffffffffffffffffffffffffffffffffff1681526020019081526020016000205414151561193657600080fd5b600185018a600a0160008b73ffffffffffffffffffffffffffffffffffffffff1673ffffffffffffffffffffffffffffffffffffffff16815260200190815260200160002081905550868a60090160008b73ffffffffffffffffffffffffffffffffffffffff1673ffffffffffffffffffffffffffffffffffffffff16815260200190815260200160002060008a73ffffffffffffffffffffffffffffffffffffffff1673ffffffffffffffffffffffffffffffffffffffff168152602001908152602001600020819055508773ffffffffffffffffffffffffffffffffffffffff168973ffffffffffffffffffffffffffffffffffffffff167f8c5be1e5ebec7d5bd14f71427d1e84f3dd0314c0f7b2291e5b200ac8c7c3b925896040518082815260200191505060405180910390a3611ab28a60080160008b73ffffffffffffffffffffffffffffffffffffffff1673ffffffffffffffffffffffffffffffffffffffff168152602001908152602001600020548761614e565b8a60080160008b73ffffffffffffffffffffffffffffffffffffffff1673ffffffffffffffffffffffffffffffffffffffff16815260200190815260200160002081905550611b428a60080160008573ffffffffffffffffffffffffffffffffffffffff1673ffffffffffffffffffffffffffffffffffffffff168152602001908152602001600020548761616a565b8a60080160008573ffffffffffffffffffffffffffffffffffffffff1673ffffffffffffffffffffffffffffffffffffffff168152602001908152602001600020819055508273ffffffffffffffffffffffffffffffffffffffff168973ffffffffffffffffffffffffffffffffffffffff167fddf252ad1be2c89b69c2b068fc378daa952ba7f163c4a11628f55a4df523b3ef886040518082815260200191505060405180910390a3600191505098975050505050505050565b60008060008b60020160159054906101000a900460ff161515611c235760019250612106565b611c328c8c8c8c8c8c8c613b3b565b9150600073ffffffffffffffffffffffffffffffffffffffff168b73ffffffffffffffffffffffffffffffffffffffff161480611d4b5750611d1b6040805190810160405280601c81526020017f19457468657265756d205369676e6564204d6573736167653a0a333200000000815250836040518083805190602001908083835b602083101515611cd95780518252602082019150602081019050602083039250611cb4565b6001836020036101000a038019825116818451168082178552505050505050905001826000191660001916815260200192505050604051809103902086614d1b565b73ffffffffffffffffffffffffffffffffffffffff168b73ffffffffffffffffffffffffffffffffffffffff1614155b15611d595760039250612106565b8b60030160008b73ffffffffffffffffffffffffffffffffffffffff1673ffffffffffffffffffffffffffffffffffffffff16815260200190815260200160002060009054906101000a900460ff1615611db65760029250612106565b858c600a0160008d73ffffffffffffffffffffffffffffffffffffffff1673ffffffffffffffffffffffffffffffffffffffff16815260200190815260200160002054141515611e095760049250612106565b611e13888861616a565b9050878c60090160008c73ffffffffffffffffffffffffffffffffffffffff1673ffffffffffffffffffffffffffffffffffffffff16815260200190815260200160002060008d73ffffffffffffffffffffffffffffffffffffffff1673ffffffffffffffffffffffffffffffffffffffff168152602001908152602001600020541015611ea45760059250612106565b808c60090160008c73ffffffffffffffffffffffffffffffffffffffff1673ffffffffffffffffffffffffffffffffffffffff16815260200190815260200160002060008d73ffffffffffffffffffffffffffffffffffffffff1673ffffffffffffffffffffffffffffffffffffffff168152602001908152602001600020541015611f335760069250612106565b878c60080160008c73ffffffffffffffffffffffffffffffffffffffff1673ffffffffffffffffffffffffffffffffffffffff168152602001908152602001600020541015611f855760079250612106565b808c60080160008c73ffffffffffffffffffffffffffffffffffffffff1673ffffffffffffffffffffffffffffffffffffffff168152602001908152602001600020541015611fd75760089250612106565b8b60080160008a73ffffffffffffffffffffffffffffffffffffffff1673ffffffffffffffffffffffffffffffffffffffff16815260200190815260200160002054888d60080160008c73ffffffffffffffffffffffffffffffffffffffff1673ffffffffffffffffffffffffffffffffffffffff1681526020019081526020016000205401101561206c5760099250612106565b8b60080160008573ffffffffffffffffffffffffffffffffffffffff1673ffffffffffffffffffffffffffffffffffffffff16815260200190815260200160002054878d60080160008773ffffffffffffffffffffffffffffffffffffffff1673ffffffffffffffffffffffffffffffffffffffff168152602001908152602001600020540110156121015760099250612106565b600092505b50509998505050505050505050565b7ff16f9b530000000000000000000000000000000000000000000000000000000081565b8760000160009054906101000a900460ff1615151561215757600080fd5b60018860000160006101000a81548160ff021916908315150217905550868860000160016101000a81548173ffffffffffffffffffffffffffffffffffffffff021916908373ffffffffffffffffffffffffffffffffffffffff160217905550858860040190805190602001906121cf929190616186565b50848860050190805190602001906121e8929190616186565b50838860060160006101000a81548160ff021916908360ff160217905550600083111561236857828860080160008973ffffffffffffffffffffffffffffffffffffffff1673ffffffffffffffffffffffffffffffffffffffff168152602001908152602001600020819055508288600701819055508760000160019054906101000a900473ffffffffffffffffffffffffffffffffffffffff1673ffffffffffffffffffffffffffffffffffffffff167ff9288aa3c16d157f87dbf24b824f702d4c76887d38e8fd6ef8212ad19a712aee84600060405180838152602001821515151581526020019250505060405180910390a28760000160019054906101000a900473ffffffffffffffffffffffffffffffffffffffff1673ffffffffffffffffffffffffffffffffffffffff16600073ffffffffffffffffffffffffffffffffffffffff167fddf252ad1be2c89b69c2b068fc378daa952ba7f163c4a11628f55a4df523b3ef856040518082815260200191505060405180910390a35b818860020160146101000a81548160ff021916908315150217905550808860020160156101000a81548160ff0219169083151502179055505050505050505050565b60007fe9afa7a10000000000000000000000000000000000000000000000000000000030878787878760405180887bffffffffffffffffffffffffffffffffffffffffffffffffffffffff19167bffffffffffffffffffffffffffffffffffffffffffffffffffffffff191681526004018773ffffffffffffffffffffffffffffffffffffffff1673ffffffffffffffffffffffffffffffffffffffff166c010000000000000000000000000281526014018673ffffffffffffffffffffffffffffffffffffffff1673ffffffffffffffffffffffffffffffffffffffff166c010000000000000000000000000281526014018573ffffffffffffffffffffffffffffffffffffffff1673ffffffffffffffffffffffffffffffffffffffff166c01000000000000000000000000028152601401848152602001838152602001828152602001975050505050505050604051809103902090509695505050505050565b6000808960020160159054906101000a900460ff16151561252d57600080fd5b61253b8a8a8a8a8a8a613ce2565b9050600073ffffffffffffffffffffffffffffffffffffffff168973ffffffffffffffffffffffffffffffffffffffff161415801561265557506126266040805190810160405280601c81526020017f19457468657265756d205369676e6564204d6573736167653a0a333200000000815250826040518083805190602001908083835b6020831015156125e457805182526020820191506020810190506020830392506125bf565b6001836020036101000a038019825116818451168082178552505050505050905001826000191660001916815260200192505050604051809103902085614d1b565b73ffffffffffffffffffffffffffffffffffffffff168973ffffffffffffffffffffffffffffffffffffffff16145b151561266057600080fd5b8960030160008a73ffffffffffffffffffffffffffffffffffffffff1673ffffffffffffffffffffffffffffffffffffffff16815260200190815260200160002060009054906101000a900460ff161515156126bb57600080fd5b848a600a0160008b73ffffffffffffffffffffffffffffffffffffffff1673ffffffffffffffffffffffffffffffffffffffff1681526020019081526020016000205414151561270a57600080fd5b600185018a600a0160008b73ffffffffffffffffffffffffffffffffffffffff1673ffffffffffffffffffffffffffffffffffffffff1681526020019081526020016000208190555061279e8a60080160008b73ffffffffffffffffffffffffffffffffffffffff1673ffffffffffffffffffffffffffffffffffffffff168152602001908152602001600020548861614e565b8a60080160008b73ffffffffffffffffffffffffffffffffffffffff1673ffffffffffffffffffffffffffffffffffffffff1681526020019081526020016000208190555061282e8a60080160008a73ffffffffffffffffffffffffffffffffffffffff1673ffffffffffffffffffffffffffffffffffffffff168152602001908152602001600020548861616a565b8a60080160008a73ffffffffffffffffffffffffffffffffffffffff1673ffffffffffffffffffffffffffffffffffffffff168152602001908152602001600020819055508773ffffffffffffffffffffffffffffffffffffffff168973ffffffffffffffffffffffffffffffffffffffff167fddf252ad1be2c89b69c2b068fc378daa952ba7f163c4a11628f55a4df523b3ef896040518082815260200191505060405180910390a36129238a60080160008b73ffffffffffffffffffffffffffffffffffffffff1673ffffffffffffffffffffffffffffffffffffffff168152602001908152602001600020548761614e565b8a60080160008b73ffffffffffffffffffffffffffffffffffffffff1673ffffffffffffffffffffffffffffffffffffffff168152602001908152602001600020819055506129b38a60080160008573ffffffffffffffffffffffffffffffffffffffff1673ffffffffffffffffffffffffffffffffffffffff168152602001908152602001600020548761616a565b8a60080160008573ffffffffffffffffffffffffffffffffffffffff1673ffffffffffffffffffffffffffffffffffffffff168152602001908152602001600020819055508273ffffffffffffffffffffffffffffffffffffffff168973ffffffffffffffffffffffffffffffffffffffff167fddf252ad1be2c89b69c2b068fc378daa952ba7f163c4a11628f55a4df523b3ef886040518082815260200191505060405180910390a3600191505098975050505050505050565b8160000160019054906101000a900473ffffffffffffffffffffffffffffffffffffffff1673ffffffffffffffffffffffffffffffffffffffff163373ffffffffffffffffffffffffffffffffffffffff16141515612acc57600080fd5b8160020160149054906101000a900460ff161515612ae957600080fd5b7f1cf2de25c5bf439ac0287061c3a0fa69b3b02867d0ccfd2ded34e42577050b738260020160009054906101000a900473ffffffffffffffffffffffffffffffffffffffff1682604051808373ffffffffffffffffffffffffffffffffffffffff1673ffffffffffffffffffffffffffffffffffffffff1681526020018273ffffffffffffffffffffffffffffffffffffffff1673ffffffffffffffffffffffffffffffffffffffff1681526020019250505060405180910390a1808260020160006101000a81548173ffffffffffffffffffffffffffffffffffffffff021916908373ffffffffffffffffffffffffffffffffffffffff1602179055505050565b6000808a60020160159054906101000a900460ff161515612c0b57600080fd5b612c1a8b8b8b8b8b8b8b613b3b565b9050600073ffffffffffffffffffffffffffffffffffffffff168a73ffffffffffffffffffffffffffffffffffffffff1614158015612d345750612d056040805190810160405280601c81526020017f19457468657265756d205369676e6564204d6573736167653a0a333200000000815250826040518083805190602001908083835b602083101515612cc35780518252602082019150602081019050602083039250612c9e565b6001836020036101000a038019825116818451168082178552505050505050905001826000191660001916815260200192505050604051809103902085614d1b565b73ffffffffffffffffffffffffffffffffffffffff168a73ffffffffffffffffffffffffffffffffffffffff16145b1515612d3f57600080fd5b8a60030160008a73ffffffffffffffffffffffffffffffffffffffff1673ffffffffffffffffffffffffffffffffffffffff16815260200190815260200160002060009054906101000a900460ff16151515612d9a57600080fd5b848b600a0160008c73ffffffffffffffffffffffffffffffffffffffff1673ffffffffffffffffffffffffffffffffffffffff16815260200190815260200160002054141515612de957600080fd5b600185018b600a0160008c73ffffffffffffffffffffffffffffffffffffffff1673ffffffffffffffffffffffffffffffffffffffff16815260200190815260200160002081905550612e7d8b60080160008b73ffffffffffffffffffffffffffffffffffffffff1673ffffffffffffffffffffffffffffffffffffffff168152602001908152602001600020548861614e565b8b60080160008b73ffffffffffffffffffffffffffffffffffffffff1673ffffffffffffffffffffffffffffffffffffffff16815260200190815260200160002081905550612f4a8b60090160008b73ffffffffffffffffffffffffffffffffffffffff1673ffffffffffffffffffffffffffffffffffffffff16815260200190815260200160002060008c73ffffffffffffffffffffffffffffffffffffffff1673ffffffffffffffffffffffffffffffffffffffff168152602001908152602001600020548861614e565b8b60090160008b73ffffffffffffffffffffffffffffffffffffffff1673ffffffffffffffffffffffffffffffffffffffff16815260200190815260200160002060008c73ffffffffffffffffffffffffffffffffffffffff1673ffffffffffffffffffffffffffffffffffffffff168152602001908152602001600020819055506130178b60080160008a73ffffffffffffffffffffffffffffffffffffffff1673ffffffffffffffffffffffffffffffffffffffff168152602001908152602001600020548861616a565b8b60080160008a73ffffffffffffffffffffffffffffffffffffffff1673ffffffffffffffffffffffffffffffffffffffff168152602001908152602001600020819055508773ffffffffffffffffffffffffffffffffffffffff168973ffffffffffffffffffffffffffffffffffffffff167fddf252ad1be2c89b69c2b068fc378daa952ba7f163c4a11628f55a4df523b3ef896040518082815260200191505060405180910390a361310c8b60080160008b73ffffffffffffffffffffffffffffffffffffffff1673ffffffffffffffffffffffffffffffffffffffff168152602001908152602001600020548761614e565b8b60080160008b73ffffffffffffffffffffffffffffffffffffffff1673ffffffffffffffffffffffffffffffffffffffff168152602001908152602001600020819055506131d98b60090160008b73ffffffffffffffffffffffffffffffffffffffff1673ffffffffffffffffffffffffffffffffffffffff16815260200190815260200160002060008c73ffffffffffffffffffffffffffffffffffffffff1673ffffffffffffffffffffffffffffffffffffffff168152602001908152602001600020548761614e565b8b60090160008b73ffffffffffffffffffffffffffffffffffffffff1673ffffffffffffffffffffffffffffffffffffffff16815260200190815260200160002060008c73ffffffffffffffffffffffffffffffffffffffff1673ffffffffffffffffffffffffffffffffffffffff168152602001908152602001600020819055506132a68b60080160008573ffffffffffffffffffffffffffffffffffffffff1673ffffffffffffffffffffffffffffffffffffffff168152602001908152602001600020548761616a565b8b60080160008573ffffffffffffffffffffffffffffffffffffffff1673ffffffffffffffffffffffffffffffffffffffff168152602001908152602001600020819055508273ffffffffffffffffffffffffffffffffffffffff168973ffffffffffffffffffffffffffffffffffffffff167fddf252ad1be2c89b69c2b068fc378daa952ba7f163c4a11628f55a4df523b3ef886040518082815260200191505060405180910390a360019150509998505050505050505050565b7f7532eaac0000000000000000000000000000000000000000000000000000000081565b8160000160019054906101000a900473ffffffffffffffffffffffffffffffffffffffff1673ffffffffffffffffffffffffffffffffffffffff163373ffffffffffffffffffffffffffffffffffffffff161415156133e457600080fd5b808260010160006101000a81548173ffffffffffffffffffffffffffffffffffffffff021916908373ffffffffffffffffffffffffffffffffffffffff1602179055505050565b60008460020160159054906101000a900460ff16151561344a57600080fd5b8460030160008573ffffffffffffffffffffffffffffffffffffffff1673ffffffffffffffffffffffffffffffffffffffff16815260200190815260200160002060009054906101000a900460ff161515156134a557600080fd5b6134f08560080160008673ffffffffffffffffffffffffffffffffffffffff1673ffffffffffffffffffffffffffffffffffffffff168152602001908152602001600020548361614e565b8560080160008673ffffffffffffffffffffffffffffffffffffffff1673ffffffffffffffffffffffffffffffffffffffff168152602001908152602001600020819055506135bd8560090160008673ffffffffffffffffffffffffffffffffffffffff1673ffffffffffffffffffffffffffffffffffffffff16815260200190815260200160002060003373ffffffffffffffffffffffffffffffffffffffff1673ffffffffffffffffffffffffffffffffffffffff168152602001908152602001600020548361614e565b8560090160008673ffffffffffffffffffffffffffffffffffffffff1673ffffffffffffffffffffffffffffffffffffffff16815260200190815260200160002060003373ffffffffffffffffffffffffffffffffffffffff1673ffffffffffffffffffffffffffffffffffffffff1681526020019081526020016000208190555061368a8560080160008573ffffffffffffffffffffffffffffffffffffffff1673ffffffffffffffffffffffffffffffffffffffff168152602001908152602001600020548361616a565b8560080160008573ffffffffffffffffffffffffffffffffffffffff1673ffffffffffffffffffffffffffffffffffffffff168152602001908152602001600020819055508273ffffffffffffffffffffffffffffffffffffffff168473ffffffffffffffffffffffffffffffffffffffff167fddf252ad1be2c89b69c2b068fc378daa952ba7f163c4a11628f55a4df523b3ef846040518082815260200191505060405180910390a360019050949350505050565b60008360000160019054906101000a900473ffffffffffffffffffffffffffffffffffffffff1673ffffffffffffffffffffffffffffffffffffffff163373ffffffffffffffffffffffffffffffffffffffff161415156137a057600080fd5b8273ffffffffffffffffffffffffffffffffffffffff1663a9059cbb8560000160019054906101000a900473ffffffffffffffffffffffffffffffffffffffff16846000604051602001526040518363ffffffff167c0100000000000000000000000000000000000000000000000000000000028152600401808373ffffffffffffffffffffffffffffffffffffffff1673ffffffffffffffffffffffffffffffffffffffff16815260200182815260200192505050602060405180830381600087803b151561386f57600080fd5b6102c65a03f1151561388057600080fd5b5050506040518051905090509392505050565b60008460030160003373ffffffffffffffffffffffffffffffffffffffff1673ffffffffffffffffffffffffffffffffffffffff16815260200190815260200160002060009054906101000a900460ff161515156138f057600080fd5b828560090160003373ffffffffffffffffffffffffffffffffffffffff1673ffffffffffffffffffffffffffffffffffffffff16815260200190815260200160002060008673ffffffffffffffffffffffffffffffffffffffff1673ffffffffffffffffffffffffffffffffffffffff168152602001908152602001600020819055508373ffffffffffffffffffffffffffffffffffffffff163373ffffffffffffffffffffffffffffffffffffffff167f8c5be1e5ebec7d5bd14f71427d1e84f3dd0314c0f7b2291e5b200ac8c7c3b925856040518082815260200191505060405180910390a38373ffffffffffffffffffffffffffffffffffffffff16638f4ffcb1338530866040518563ffffffff167c0100000000000000000000000000000000000000000000000000000000028152600401808573ffffffffffffffffffffffffffffffffffffffff1673ffffffffffffffffffffffffffffffffffffffff1681526020018481526020018373ffffffffffffffffffffffffffffffffffffffff1673ffffffffffffffffffffffffffffffffffffffff16815260200180602001828103825283818151815260200191508051906020019080838360005b83811015613acd578082015181840152602081019050613ab2565b50505050905090810190601f168015613afa5780820380516001836020036101000a031916815260200191505b5095505050505050600060405180830381600087803b1515613b1b57600080fd5b6102c65a03f11515613b2c57600080fd5b50505060019050949350505050565b60007f344bcc7d000000000000000000000000000000000000000000000000000000003088888888888860405180897bffffffffffffffffffffffffffffffffffffffffffffffffffffffff19167bffffffffffffffffffffffffffffffffffffffffffffffffffffffff191681526004018873ffffffffffffffffffffffffffffffffffffffff1673ffffffffffffffffffffffffffffffffffffffff166c010000000000000000000000000281526014018773ffffffffffffffffffffffffffffffffffffffff1673ffffffffffffffffffffffffffffffffffffffff166c010000000000000000000000000281526014018673ffffffffffffffffffffffffffffffffffffffff1673ffffffffffffffffffffffffffffffffffffffff166c010000000000000000000000000281526014018573ffffffffffffffffffffffffffffffffffffffff1673ffffffffffffffffffffffffffffffffffffffff166c010000000000000000000000000281526014018481526020018381526020018281526020019850505050505050505060405180910390209050979650505050505050565b60007f7532eaac0000000000000000000000000000000000000000000000000000000030878787878760405180887bffffffffffffffffffffffffffffffffffffffffffffffffffffffff19167bffffffffffffffffffffffffffffffffffffffffffffffffffffffff191681526004018773ffffffffffffffffffffffffffffffffffffffff1673ffffffffffffffffffffffffffffffffffffffff166c010000000000000000000000000281526014018673ffffffffffffffffffffffffffffffffffffffff1673ffffffffffffffffffffffffffffffffffffffff166c010000000000000000000000000281526014018573ffffffffffffffffffffffffffffffffffffffff1673ffffffffffffffffffffffffffffffffffffffff166c01000000000000000000000000028152601401848152602001838152602001828152602001975050505050505050604051809103902090509695505050505050565b606e81565b8160000160019054906101000a900473ffffffffffffffffffffffffffffffffffffffff1673ffffffffffffffffffffffffffffffffffffffff163373ffffffffffffffffffffffffffffffffffffffff16141515613ea857600080fd5b8073ffffffffffffffffffffffffffffffffffffffff168260000160019054906101000a900473ffffffffffffffffffffffffffffffffffffffff1673ffffffffffffffffffffffffffffffffffffffff167f8be0079c531659141344cd1fd0a4f28419497f9722a3daafe3b4186f6b6457e060405160405180910390a3808260000160016101000a81548173ffffffffffffffffffffffffffffffffffffffff021916908373ffffffffffffffffffffffffffffffffffffffff16021790555060008260010160006101000a81548173ffffffffffffffffffffffffffffffffffffffff021916908373ffffffffffffffffffffffffffffffffffffffff1602179055505050565b8060000160019054906101000a900473ffffffffffffffffffffffffffffffffffffffff1673ffffffffffffffffffffffffffffffffffffffff163373ffffffffffffffffffffffffffffffffffffffff1614151561400f57600080fd5b8060020160159054906101000a900460ff1615151561402d57600080fd5b60018160020160156101000a81548160ff0219169083151502179055507feadb24812ab3c9a55c774958184293ebdb6c7f6a2dbab11f397d80c86feb65d360405160405180910390a150565b60008460020160149054906101000a900460ff16151561409857600080fd5b8460020160009054906101000a900473ffffffffffffffffffffffffffffffffffffffff1673ffffffffffffffffffffffffffffffffffffffff163373ffffffffffffffffffffffffffffffffffffffff16148061414557508460000160019054906101000a900473ffffffffffffffffffffffffffffffffffffffff1673ffffffffffffffffffffffffffffffffffffffff163373ffffffffffffffffffffffffffffffffffffffff16145b151561415057600080fd5b81156141b15760018560030160008673ffffffffffffffffffffffffffffffffffffffff1673ffffffffffffffffffffffffffffffffffffffff16815260200190815260200160002060006101000a81548160ff0219169083151502179055505b6141fc8560080160008673ffffffffffffffffffffffffffffffffffffffff1673ffffffffffffffffffffffffffffffffffffffff168152602001908152602001600020548461616a565b8560080160008673ffffffffffffffffffffffffffffffffffffffff1673ffffffffffffffffffffffffffffffffffffffff1681526020019081526020016000208190555061424f85600701548461616a565b85600701819055508373ffffffffffffffffffffffffffffffffffffffff167ff9288aa3c16d157f87dbf24b824f702d4c76887d38e8fd6ef8212ad19a712aee848460405180838152602001821515151581526020019250505060405180910390a28373ffffffffffffffffffffffffffffffffffffffff16600073ffffffffffffffffffffffffffffffffffffffff167fddf252ad1be2c89b69c2b068fc378daa952ba7f163c4a11628f55a4df523b3ef856040518082815260200191505060405180910390a360019050949350505050565b7fe9afa7a10000000000000000000000000000000000000000000000000000000081565b8160000160019054906101000a900473ffffffffffffffffffffffffffffffffffffffff1673ffffffffffffffffffffffffffffffffffffffff163373ffffffffffffffffffffffffffffffffffffffff161415156143a557600080fd5b8160030160008273ffffffffffffffffffffffffffffffffffffffff1673ffffffffffffffffffffffffffffffffffffffff16815260200190815260200160002060009054906101000a900460ff1615156143ff57600080fd5b60008260030160008373ffffffffffffffffffffffffffffffffffffffff1673ffffffffffffffffffffffffffffffffffffffff16815260200190815260200160002060006101000a81548160ff0219169083151502179055508073ffffffffffffffffffffffffffffffffffffffff167fb7df7ef889418eecc895118f0d863c3074abf7769bfe39ba852192114c725dfc60405160405180910390a25050565b6000808960020160159054906101000a900460ff1615156144c45760019150614795565b6144d28a8a8a8a8a8a6123aa565b9050600073ffffffffffffffffffffffffffffffffffffffff168973ffffffffffffffffffffffffffffffffffffffff1614806145eb57506145bb6040805190810160405280601c81526020017f19457468657265756d205369676e6564204d6573736167653a0a333200000000815250826040518083805190602001908083835b6020831015156145795780518252602082019150602081019050602083039250614554565b6001836020036101000a038019825116818451168082178552505050505050905001826000191660001916815260200192505050604051809103902085614d1b565b73ffffffffffffffffffffffffffffffffffffffff168973ffffffffffffffffffffffffffffffffffffffff1614155b156145f95760039150614795565b8960030160008a73ffffffffffffffffffffffffffffffffffffffff1673ffffffffffffffffffffffffffffffffffffffff16815260200190815260200160002060009054906101000a900460ff16156146565760029150614795565b848a600a0160008b73ffffffffffffffffffffffffffffffffffffffff1673ffffffffffffffffffffffffffffffffffffffff168152602001908152602001600020541415156146a95760049150614795565b858a60080160008b73ffffffffffffffffffffffffffffffffffffffff1673ffffffffffffffffffffffffffffffffffffffff1681526020019081526020016000205410156146fb5760089150614795565b8960080160008473ffffffffffffffffffffffffffffffffffffffff1673ffffffffffffffffffffffffffffffffffffffff16815260200190815260200160002054868b60080160008673ffffffffffffffffffffffffffffffffffffffff1673ffffffffffffffffffffffffffffffffffffffff168152602001908152602001600020540110156147905760099150614795565b600091505b5098975050505050505050565b60008360030160003373ffffffffffffffffffffffffffffffffffffffff1673ffffffffffffffffffffffffffffffffffffffff16815260200190815260200160002060009054906101000a900460ff161515156147ff57600080fd5b818460090160003373ffffffffffffffffffffffffffffffffffffffff1673ffffffffffffffffffffffffffffffffffffffff16815260200190815260200160002060008573ffffffffffffffffffffffffffffffffffffffff1673ffffffffffffffffffffffffffffffffffffffff168152602001908152602001600020819055508273ffffffffffffffffffffffffffffffffffffffff163373ffffffffffffffffffffffffffffffffffffffff167f8c5be1e5ebec7d5bd14f71427d1e84f3dd0314c0f7b2291e5b200ac8c7c3b925846040518082815260200191505060405180910390a3600190509392505050565b7f344bcc7d0000000000000000000000000000000000000000000000000000000081565b61491e616206565b6000600981111561492b57fe5b82600981111561493757fe5b141561497a576040805190810160405280600781526020017f53756363657373000000000000000000000000000000000000000000000000008152509050614d15565b6001600981111561498757fe5b82600981111561499357fe5b14156149d6576040805190810160405280601b81526020017f546f6b656e73206e6f74207472616e7366657261626c652079657400000000008152509050614d15565b600260098111156149e357fe5b8260098111156149ef57fe5b1415614a32576040805190810160405280600e81526020017f4163636f756e74206c6f636b65640000000000000000000000000000000000008152509050614d15565b60036009811115614a3f57fe5b826009811115614a4b57fe5b1415614a8e576040805190810160405280601b81526020017f4d69736d6174636820696e207369676e696e67206163636f756e7400000000008152509050614d15565b60046009811115614a9b57fe5b826009811115614aa757fe5b1415614aea576040805190810160405280600d81526020017f496e76616c6964206e6f6e6365000000000000000000000000000000000000008152509050614d15565b60056009811115614af757fe5b826009811115614b0357fe5b1415614b46576040805190810160405280601c81526020017f496e73756666696369656e7420617070726f76656420746f6b656e73000000008152509050614d15565b60066009811115614b5357fe5b826009811115614b5f57fe5b1415614bc957606060405190810160405280602581526020017f496e73756666696369656e7420617070726f76656420746f6b656e7320666f7281526020017f20666565730000000000000000000000000000000000000000000000000000008152509050614d15565b60076009811115614bd657fe5b826009811115614be257fe5b1415614c25576040805190810160405280601381526020017f496e73756666696369656e7420746f6b656e73000000000000000000000000008152509050614d15565b60086009811115614c3257fe5b826009811115614c3e57fe5b1415614c81576040805190810160405280601c81526020017f496e73756666696369656e7420746f6b656e7320666f722066656573000000008152509050614d15565b600980811115614c8d57fe5b826009811115614c9957fe5b1415614cdc576040805190810160405280600e81526020017f4f766572666c6f77206572726f720000000000000000000000000000000000008152509050614d15565b6040805190810160405280600d81526020017f556e6b6e6f776e206572726f720000000000000000000000000000000000000081525090505b92915050565b60008060008060418551141515614d355760009350614e10565b6020850151925060408501519150606085015160001a9050601b8160ff161015614d6057601b810190505b601b8160ff1614158015614d785750601c8160ff1614155b15614d865760009350614e10565b600186828585604051600081526020016040526000604051602001526040518085600019166000191681526020018460ff1660ff16815260200183600019166000191681526020018260001916600019168152602001945050505050602060405160208103908084039060008661646e5a03f11515614e0457600080fd5b50506020604051035193505b50505092915050565b6000808a60020160159054906101000a900460ff161515614e3d576001915061510f565b614e4c8b8b8b8b8b8b8b615304565b9050600073ffffffffffffffffffffffffffffffffffffffff168a73ffffffffffffffffffffffffffffffffffffffff161480614f655750614f356040805190810160405280601c81526020017f19457468657265756d205369676e6564204d6573736167653a0a333200000000815250826040518083805190602001908083835b602083101515614ef35780518252602082019150602081019050602083039250614ece565b6001836020036101000a038019825116818451168082178552505050505050905001826000191660001916815260200192505050604051809103902085614d1b565b73ffffffffffffffffffffffffffffffffffffffff168a73ffffffffffffffffffffffffffffffffffffffff1614155b15614f73576003915061510f565b8a60030160008b73ffffffffffffffffffffffffffffffffffffffff1673ffffffffffffffffffffffffffffffffffffffff16815260200190815260200160002060009054906101000a900460ff1615614fd0576002915061510f565b848b600a0160008c73ffffffffffffffffffffffffffffffffffffffff1673ffffffffffffffffffffffffffffffffffffffff16815260200190815260200160002054141515615023576004915061510f565b858b60080160008c73ffffffffffffffffffffffffffffffffffffffff1673ffffffffffffffffffffffffffffffffffffffff168152602001908152602001600020541015615075576008915061510f565b8a60080160008473ffffffffffffffffffffffffffffffffffffffff1673ffffffffffffffffffffffffffffffffffffffff16815260200190815260200160002054868c60080160008673ffffffffffffffffffffffffffffffffffffffff1673ffffffffffffffffffffffffffffffffffffffff1681526020019081526020016000205401101561510a576009915061510f565b600091505b509998505050505050505050565b6040805190810160405280601c81526020017f19457468657265756d205369676e6564204d6573736167653a0a33320000000081525081565b8060010160009054906101000a900473ffffffffffffffffffffffffffffffffffffffff1673ffffffffffffffffffffffffffffffffffffffff163373ffffffffffffffffffffffffffffffffffffffff161415156151b457600080fd5b8060010160009054906101000a900473ffffffffffffffffffffffffffffffffffffffff1673ffffffffffffffffffffffffffffffffffffffff168160000160019054906101000a900473ffffffffffffffffffffffffffffffffffffffff1673ffffffffffffffffffffffffffffffffffffffff167f8be0079c531659141344cd1fd0a4f28419497f9722a3daafe3b4186f6b6457e060405160405180910390a38060010160009054906101000a900473ffffffffffffffffffffffffffffffffffffffff168160000160016101000a81548173ffffffffffffffffffffffffffffffffffffffff021916908373ffffffffffffffffffffffffffffffffffffffff16021790555060008160010160006101000a81548173ffffffffffffffffffffffffffffffffffffffff021916908373ffffffffffffffffffffffffffffffffffffffff16021790555050565b60007ff16f9b53000000000000000000000000000000000000000000000000000000003088888888888860405180897bffffffffffffffffffffffffffffffffffffffffffffffffffffffff19167bffffffffffffffffffffffffffffffffffffffffffffffffffffffff191681526004018873ffffffffffffffffffffffffffffffffffffffff1673ffffffffffffffffffffffffffffffffffffffff166c010000000000000000000000000281526014018773ffffffffffffffffffffffffffffffffffffffff1673ffffffffffffffffffffffffffffffffffffffff166c010000000000000000000000000281526014018673ffffffffffffffffffffffffffffffffffffffff1673ffffffffffffffffffffffffffffffffffffffff166c0100000000000000000000000002815260140185815260200184805190602001908083835b602083101515615470578051825260208201915060208101905060208303925061544b565b6001836020036101000a0380198251168184511680821785525050505050509050018381526020018281526020019850505050505050505060405180910390209050979650505050505050565b60008060008a60020160159054906101000a900460ff1615156154e357600192506158a7565b6154f18b8b8b8b8b8b613ce2565b9150600073ffffffffffffffffffffffffffffffffffffffff168a73ffffffffffffffffffffffffffffffffffffffff16148061560a57506155da6040805190810160405280601c81526020017f19457468657265756d205369676e6564204d6573736167653a0a333200000000815250836040518083805190602001908083835b6020831015156155985780518252602082019150602081019050602083039250615573565b6001836020036101000a038019825116818451168082178552505050505050905001826000191660001916815260200192505050604051809103902086614d1b565b73ffffffffffffffffffffffffffffffffffffffff168a73ffffffffffffffffffffffffffffffffffffffff1614155b1561561857600392506158a7565b8a60030160008b73ffffffffffffffffffffffffffffffffffffffff1673ffffffffffffffffffffffffffffffffffffffff16815260200190815260200160002060009054906101000a900460ff161561567557600292506158a7565b858b600a0160008c73ffffffffffffffffffffffffffffffffffffffff1673ffffffffffffffffffffffffffffffffffffffff168152602001908152602001600020541415156156c857600492506158a7565b6156d2888861616a565b9050878b60080160008c73ffffffffffffffffffffffffffffffffffffffff1673ffffffffffffffffffffffffffffffffffffffff16815260200190815260200160002054101561572657600792506158a7565b808b60080160008c73ffffffffffffffffffffffffffffffffffffffff1673ffffffffffffffffffffffffffffffffffffffff16815260200190815260200160002054101561577857600892506158a7565b8a60080160008a73ffffffffffffffffffffffffffffffffffffffff1673ffffffffffffffffffffffffffffffffffffffff16815260200190815260200160002054888c60080160008c73ffffffffffffffffffffffffffffffffffffffff1673ffffffffffffffffffffffffffffffffffffffff1681526020019081526020016000205401101561580d57600992506158a7565b8a60080160008573ffffffffffffffffffffffffffffffffffffffff1673ffffffffffffffffffffffffffffffffffffffff16815260200190815260200160002054878c60080160008773ffffffffffffffffffffffffffffffffffffffff1673ffffffffffffffffffffffffffffffffffffffff168152602001908152602001600020540110156158a257600992506158a7565b600092505b505098975050505050505050565b6000808a60020160159054906101000a900460ff1615156158d557600080fd5b6158e48b8b8b8b8b8b8b615304565b9050600073ffffffffffffffffffffffffffffffffffffffff168a73ffffffffffffffffffffffffffffffffffffffff16141580156159fe57506159cf6040805190810160405280601c81526020017f19457468657265756d205369676e6564204d6573736167653a0a333200000000815250826040518083805190602001908083835b60208310151561598d5780518252602082019150602081019050602083039250615968565b6001836020036101000a038019825116818451168082178552505050505050905001826000191660001916815260200192505050604051809103902085614d1b565b73ffffffffffffffffffffffffffffffffffffffff168a73ffffffffffffffffffffffffffffffffffffffff16145b1515615a0957600080fd5b8a60030160008b73ffffffffffffffffffffffffffffffffffffffff1673ffffffffffffffffffffffffffffffffffffffff16815260200190815260200160002060009054906101000a900460ff16151515615a6457600080fd5b848b600a0160008c73ffffffffffffffffffffffffffffffffffffffff1673ffffffffffffffffffffffffffffffffffffffff16815260200190815260200160002054141515615ab357600080fd5b600185018b600a0160008c73ffffffffffffffffffffffffffffffffffffffff1673ffffffffffffffffffffffffffffffffffffffff16815260200190815260200160002081905550878b60090160008c73ffffffffffffffffffffffffffffffffffffffff1673ffffffffffffffffffffffffffffffffffffffff16815260200190815260200160002060008b73ffffffffffffffffffffffffffffffffffffffff1673ffffffffffffffffffffffffffffffffffffffff168152602001908152602001600020819055508873ffffffffffffffffffffffffffffffffffffffff168a73ffffffffffffffffffffffffffffffffffffffff167f8c5be1e5ebec7d5bd14f71427d1e84f3dd0314c0f7b2291e5b200ac8c7c3b9258a6040518082815260200191505060405180910390a3615c2f8b60080160008c73ffffffffffffffffffffffffffffffffffffffff1673ffffffffffffffffffffffffffffffffffffffff168152602001908152602001600020548761614e565b8b60080160008c73ffffffffffffffffffffffffffffffffffffffff1673ffffffffffffffffffffffffffffffffffffffff16815260200190815260200160002081905550615cbf8b60080160008573ffffffffffffffffffffffffffffffffffffffff1673ffffffffffffffffffffffffffffffffffffffff168152602001908152602001600020548761616a565b8b60080160008573ffffffffffffffffffffffffffffffffffffffff1673ffffffffffffffffffffffffffffffffffffffff168152602001908152602001600020819055508273ffffffffffffffffffffffffffffffffffffffff168a73ffffffffffffffffffffffffffffffffffffffff167fddf252ad1be2c89b69c2b068fc378daa952ba7f163c4a11628f55a4df523b3ef886040518082815260200191505060405180910390a38873ffffffffffffffffffffffffffffffffffffffff16638f4ffcb18b8a308b6040518563ffffffff167c0100000000000000000000000000000000000000000000000000000000028152600401808573ffffffffffffffffffffffffffffffffffffffff1673ffffffffffffffffffffffffffffffffffffffff1681526020018481526020018373ffffffffffffffffffffffffffffffffffffffff1673ffffffffffffffffffffffffffffffffffffffff16815260200180602001828103825283818151815260200191508051906020019080838360005b83811015615e5e578082015181840152602081019050615e43565b50505050905090810190601f168015615e8b5780820380516001836020036101000a031916815260200191505b5095505050505050600060405180830381600087803b1515615eac57600080fd5b6102c65a03f11515615ebd57600080fd5b50505060019150509998505050505050505050565b8060020160149054906101000a900460ff161515615eef57600080fd5b8060020160009054906101000a900473ffffffffffffffffffffffffffffffffffffffff1673ffffffffffffffffffffffffffffffffffffffff163373ffffffffffffffffffffffffffffffffffffffff161480615f9c57508060000160019054906101000a900473ffffffffffffffffffffffffffffffffffffffff1673ffffffffffffffffffffffffffffffffffffffff163373ffffffffffffffffffffffffffffffffffffffff16145b1515615fa757600080fd5b60008160020160146101000a81548160ff021916908315150217905550600073ffffffffffffffffffffffffffffffffffffffff168160020160009054906101000a900473ffffffffffffffffffffffffffffffffffffffff1673ffffffffffffffffffffffffffffffffffffffff1614151561611f577f1cf2de25c5bf439ac0287061c3a0fa69b3b02867d0ccfd2ded34e42577050b738160020160009054906101000a900473ffffffffffffffffffffffffffffffffffffffff166000604051808373ffffffffffffffffffffffffffffffffffffffff1673ffffffffffffffffffffffffffffffffffffffff1681526020018273ffffffffffffffffffffffffffffffffffffffff1673ffffffffffffffffffffffffffffffffffffffff1681526020019250505060405180910390a160008160020160006101000a81548173ffffffffffffffffffffffffffffffffffffffff021916908373ffffffffffffffffffffffffffffffffffffffff1602179055505b7faf79b4370f6af9d950564bbe6b81f7f0834c003c455db9248f4e55e6bf865eb760405160405180910390a150565b600082821115151561615f57600080fd5b818303905092915050565b6000818301905082811015151561618057600080fd5b92915050565b828054600181600116156101000203166002900490600052602060002090601f016020900481019282601f106161c757805160ff19168380011785556161f5565b828001600101855582156161f5579182015b828111156161f45782518255916020019190600101906161d9565b5b509050616202919061621a565b5090565b602060405190810160405280600081525090565b61623c91905b80821115616238576000816000905550600101616220565b5090565b905600a165627a7a72305820fc01bd64ca3e419008d1de42751be2b1014ec0f669be7e7464bf66b91550dfff0029",
  "source": "pragma solidity ^0.4.18;\n\n// ----------------------------------------------------------------------------\n// BokkyPooBah's Token Teleportation Service v1.10\n//\n// https://github.com/bokkypoobah/BokkyPooBahsTokenTeleportationServiceSmartContract\n//\n// Enjoy. (c) BokkyPooBah / Bok Consulting Pty Ltd 2018. The MIT Licence.\n// ----------------------------------------------------------------------------\n\n\n// ----------------------------------------------------------------------------\n// ERC Token Standard #20 Interface\n// https://github.com/ethereum/EIPs/blob/master/EIPS/eip-20-token-standard.md\n// ----------------------------------------------------------------------------\ncontract ERC20Interface {\n    function totalSupply() public view returns (uint);\n    function balanceOf(address tokenOwner) public view returns (uint balance);\n    function allowance(address tokenOwner, address spender) public view returns (uint remaining);\n    function transfer(address to, uint tokens) public returns (bool success);\n    function approve(address spender, uint tokens) public returns (bool success);\n    function transferFrom(address from, address to, uint tokens) public returns (bool success);\n\n    event Transfer(address indexed from, address indexed to, uint tokens);\n    event Approval(address indexed tokenOwner, address indexed spender, uint tokens);\n}\n\n\n// ----------------------------------------------------------------------------\n// Contracts that can have tokens approved, and then a function executed\n// ----------------------------------------------------------------------------\ncontract ApproveAndCallFallBack {\n    function receiveApproval(address from, uint256 tokens, address token, bytes data) public;\n}\n\n\n// ----------------------------------------------------------------------------\n// BokkyPooBah's Token Teleportation Service Interface v1.10\n//\n// Enjoy. (c) BokkyPooBah / Bok Consulting Pty Ltd 2018. The MIT Licence.\n// ----------------------------------------------------------------------------\ncontract BTTSTokenInterface is ERC20Interface {\n    uint public constant bttsVersion = 110;\n\n    bytes public constant signingPrefix = \"\\x19Ethereum Signed Message:\\n32\";\n    bytes4 public constant signedTransferSig = \"\\x75\\x32\\xea\\xac\";\n    bytes4 public constant signedApproveSig = \"\\xe9\\xaf\\xa7\\xa1\";\n    bytes4 public constant signedTransferFromSig = \"\\x34\\x4b\\xcc\\x7d\";\n    bytes4 public constant signedApproveAndCallSig = \"\\xf1\\x6f\\x9b\\x53\";\n\n    event OwnershipTransferred(address indexed from, address indexed to);\n    event MinterUpdated(address from, address to);\n    event Mint(address indexed tokenOwner, uint tokens, bool lockAccount);\n    event MintingDisabled();\n    event TransfersEnabled();\n    event AccountUnlocked(address indexed tokenOwner);\n\n    function approveAndCall(address spender, uint tokens, bytes data) public returns (bool success);\n\n    // ------------------------------------------------------------------------\n    // signed{X} functions\n    // ------------------------------------------------------------------------\n    function signedTransferHash(address tokenOwner, address to, uint tokens, uint fee, uint nonce) public view returns (bytes32 hash);\n    function signedTransferCheck(address tokenOwner, address to, uint tokens, uint fee, uint nonce, bytes sig, address feeAccount) public view returns (CheckResult result);\n    function signedTransfer(address tokenOwner, address to, uint tokens, uint fee, uint nonce, bytes sig, address feeAccount) public returns (bool success);\n\n    function signedApproveHash(address tokenOwner, address spender, uint tokens, uint fee, uint nonce) public view returns (bytes32 hash);\n    function signedApproveCheck(address tokenOwner, address spender, uint tokens, uint fee, uint nonce, bytes sig, address feeAccount) public view returns (CheckResult result);\n    function signedApprove(address tokenOwner, address spender, uint tokens, uint fee, uint nonce, bytes sig, address feeAccount) public returns (bool success);\n\n    function signedTransferFromHash(address spender, address from, address to, uint tokens, uint fee, uint nonce) public view returns (bytes32 hash);\n    function signedTransferFromCheck(address spender, address from, address to, uint tokens, uint fee, uint nonce, bytes sig, address feeAccount) public view returns (CheckResult result);\n    function signedTransferFrom(address spender, address from, address to, uint tokens, uint fee, uint nonce, bytes sig, address feeAccount) public returns (bool success);\n\n    function signedApproveAndCallHash(address tokenOwner, address spender, uint tokens, bytes _data, uint fee, uint nonce) public view returns (bytes32 hash);\n    function signedApproveAndCallCheck(address tokenOwner, address spender, uint tokens, bytes _data, uint fee, uint nonce, bytes sig, address feeAccount) public view returns (CheckResult result);\n    function signedApproveAndCall(address tokenOwner, address spender, uint tokens, bytes _data, uint fee, uint nonce, bytes sig, address feeAccount) public returns (bool success);\n\n    function mint(address tokenOwner, uint tokens, bool lockAccount) public returns (bool success);\n    function unlockAccount(address tokenOwner) public;\n    function disableMinting() public;\n    function enableTransfers() public;\n\n    // ------------------------------------------------------------------------\n    // signed{X}Check return status\n    // ------------------------------------------------------------------------\n    enum CheckResult {\n        Success,                           // 0 Success\n        NotTransferable,                   // 1 Tokens not transferable yet\n        AccountLocked,                     // 2 Account locked\n        SignerMismatch,                    // 3 Mismatch in signing account\n        InvalidNonce,                      // 4 Invalid nonce\n        InsufficientApprovedTokens,        // 5 Insufficient approved tokens\n        InsufficientApprovedTokensForFees, // 6 Insufficient approved tokens for fees\n        InsufficientTokens,                // 7 Insufficient tokens\n        InsufficientTokensForFees,         // 8 Insufficient tokens for fees\n        OverflowError                      // 9 Overflow error\n    }\n}\n\n\n// ----------------------------------------------------------------------------\n// BokkyPooBah's Token Teleportation Service Library v1.00\n//\n// Enjoy. (c) BokkyPooBah / Bok Consulting Pty Ltd 2018. The MIT Licence.\n// ----------------------------------------------------------------------------\nlibrary BTTSLib {\n    struct Data {\n        bool initialised;\n\n        // Ownership\n        address owner;\n        address newOwner;\n\n        // Minting and management\n        address minter;\n        bool mintable;\n        bool transferable;\n        mapping(address => bool) accountLocked;\n\n        // Token\n        string symbol;\n        string name;\n        uint8 decimals;\n        uint totalSupply;\n        mapping(address => uint) balances;\n        mapping(address => mapping(address => uint)) allowed;\n        mapping(address => uint) nextNonce;\n    }\n\n\n    // ------------------------------------------------------------------------\n    // Constants\n    // ------------------------------------------------------------------------\n    uint public constant bttsVersion = 110;\n    bytes public constant signingPrefix = \"\\x19Ethereum Signed Message:\\n32\";\n    bytes4 public constant signedTransferSig = \"\\x75\\x32\\xea\\xac\";\n    bytes4 public constant signedApproveSig = \"\\xe9\\xaf\\xa7\\xa1\";\n    bytes4 public constant signedTransferFromSig = \"\\x34\\x4b\\xcc\\x7d\";\n    bytes4 public constant signedApproveAndCallSig = \"\\xf1\\x6f\\x9b\\x53\";\n\n    // ------------------------------------------------------------------------\n    // Event\n    // ------------------------------------------------------------------------\n    event OwnershipTransferred(address indexed from, address indexed to);\n    event MinterUpdated(address from, address to);\n    event Mint(address indexed tokenOwner, uint tokens, bool lockAccount);\n    event MintingDisabled();\n    event TransfersEnabled();\n    event AccountUnlocked(address indexed tokenOwner);\n    event Transfer(address indexed from, address indexed to, uint tokens);\n    event Approval(address indexed tokenOwner, address indexed spender, uint tokens);\n\n\n    // ------------------------------------------------------------------------\n    // Initialisation\n    // ------------------------------------------------------------------------\n    function init(Data storage self, address owner, string symbol, string name, uint8 decimals, uint initialSupply, bool mintable, bool transferable) public {\n        require(!self.initialised);\n        self.initialised = true;\n        self.owner = owner;\n        self.symbol = symbol;\n        self.name = name;\n        self.decimals = decimals;\n        if (initialSupply > 0) {\n            self.balances[owner] = initialSupply;\n            self.totalSupply = initialSupply;\n            Mint(self.owner, initialSupply, false);\n            Transfer(address(0), self.owner, initialSupply);\n        }\n        self.mintable = mintable;\n        self.transferable = transferable;\n    }\n\n    // ------------------------------------------------------------------------\n    // Safe maths, inspired by OpenZeppelin\n    // ------------------------------------------------------------------------\n    function safeAdd(uint a, uint b) internal pure returns (uint c) {\n        c = a + b;\n        require(c >= a);\n    }\n    function safeSub(uint a, uint b) internal pure returns (uint c) {\n        require(b <= a);\n        c = a - b;\n    }\n    function safeMul(uint a, uint b) internal pure returns (uint c) {\n        c = a * b;\n        require(a == 0 || c / a == b);\n    }\n    function safeDiv(uint a, uint b) internal pure returns (uint c) {\n        require(b > 0);\n        c = a / b;\n    }\n\n    // ------------------------------------------------------------------------\n    // Ownership\n    // ------------------------------------------------------------------------\n    function transferOwnership(Data storage self, address newOwner) public {\n        require(msg.sender == self.owner);\n        self.newOwner = newOwner;\n    }\n    function acceptOwnership(Data storage self) public {\n        require(msg.sender == self.newOwner);\n        OwnershipTransferred(self.owner, self.newOwner);\n        self.owner = self.newOwner;\n        self.newOwner = address(0);\n    }\n    function transferOwnershipImmediately(Data storage self, address newOwner) public {\n        require(msg.sender == self.owner);\n        OwnershipTransferred(self.owner, newOwner);\n        self.owner = newOwner;\n        self.newOwner = address(0);\n    }\n\n    // ------------------------------------------------------------------------\n    // Minting and management\n    // ------------------------------------------------------------------------\n    function setMinter(Data storage self, address minter) public {\n        require(msg.sender == self.owner);\n        require(self.mintable);\n        MinterUpdated(self.minter, minter);\n        self.minter = minter;\n    }\n    function mint(Data storage self, address tokenOwner, uint tokens, bool lockAccount) public returns (bool success) {\n        require(self.mintable);\n        require(msg.sender == self.minter || msg.sender == self.owner);\n        if (lockAccount) {\n            self.accountLocked[tokenOwner] = true;\n        }\n        self.balances[tokenOwner] = safeAdd(self.balances[tokenOwner], tokens);\n        self.totalSupply = safeAdd(self.totalSupply, tokens);\n        Mint(tokenOwner, tokens, lockAccount);\n        Transfer(address(0), tokenOwner, tokens);\n        return true;\n    }\n    function unlockAccount(Data storage self, address tokenOwner) public {\n        require(msg.sender == self.owner);\n        require(self.accountLocked[tokenOwner]);\n        self.accountLocked[tokenOwner] = false;\n        AccountUnlocked(tokenOwner);\n    }\n    function disableMinting(Data storage self) public {\n        require(self.mintable);\n        require(msg.sender == self.minter || msg.sender == self.owner);\n        self.mintable = false;\n        if (self.minter != address(0)) {\n            MinterUpdated(self.minter, address(0));\n            self.minter = address(0);\n        }\n        MintingDisabled();\n    }\n    function enableTransfers(Data storage self) public {\n        require(msg.sender == self.owner);\n        require(!self.transferable);\n        self.transferable = true;\n        TransfersEnabled();\n    }\n\n    // ------------------------------------------------------------------------\n    // Other functions\n    // ------------------------------------------------------------------------\n    function transferAnyERC20Token(Data storage self, address tokenAddress, uint tokens) public returns (bool success) {\n        require(msg.sender == self.owner);\n        return ERC20Interface(tokenAddress).transfer(self.owner, tokens);\n    }\n\n    // ------------------------------------------------------------------------\n    // ecrecover from a signature rather than the signature in parts [v, r, s]\n    // The signature format is a compact form {bytes32 r}{bytes32 s}{uint8 v}.\n    // Compact means, uint8 is not padded to 32 bytes.\n    //\n    // An invalid signature results in the address(0) being returned, make\n    // sure that the returned result is checked to be non-zero for validity\n    //\n    // Parts from https://gist.github.com/axic/5b33912c6f61ae6fd96d6c4a47afde6d\n    // ------------------------------------------------------------------------\n    function ecrecoverFromSig(bytes32 hash, bytes sig) public pure returns (address recoveredAddress) {\n        bytes32 r;\n        bytes32 s;\n        uint8 v;\n        if (sig.length != 65) return address(0);\n        assembly {\n            r := mload(add(sig, 32))\n            s := mload(add(sig, 64))\n            // Here we are loading the last 32 bytes. We exploit the fact that 'mload' will pad with zeroes if we overread.\n            // There is no 'mload8' to do this, but that would be nicer.\n            v := byte(0, mload(add(sig, 96)))\n        }\n        // Albeit non-transactional signatures are not specified by the YP, one would expect it to match the YP range of [27, 28]\n        // geth uses [0, 1] and some clients have followed. This might change, see https://github.com/ethereum/go-ethereum/issues/2053\n        if (v < 27) {\n          v += 27;\n        }\n        if (v != 27 && v != 28) return address(0);\n        return ecrecover(hash, v, r, s);\n    }\n\n    // ------------------------------------------------------------------------\n    // Get CheckResult message\n    // ------------------------------------------------------------------------\n    function getCheckResultMessage(Data storage /*self*/, BTTSTokenInterface.CheckResult result) public pure returns (string) {\n        if (result == BTTSTokenInterface.CheckResult.Success) {\n            return \"Success\";\n        } else if (result == BTTSTokenInterface.CheckResult.NotTransferable) {\n            return \"Tokens not transferable yet\";\n        } else if (result == BTTSTokenInterface.CheckResult.AccountLocked) {\n            return \"Account locked\";\n        } else if (result == BTTSTokenInterface.CheckResult.SignerMismatch) {\n            return \"Mismatch in signing account\";\n        } else if (result == BTTSTokenInterface.CheckResult.InvalidNonce) {\n            return \"Invalid nonce\";\n        } else if (result == BTTSTokenInterface.CheckResult.InsufficientApprovedTokens) {\n            return \"Insufficient approved tokens\";\n        } else if (result == BTTSTokenInterface.CheckResult.InsufficientApprovedTokensForFees) {\n            return \"Insufficient approved tokens for fees\";\n        } else if (result == BTTSTokenInterface.CheckResult.InsufficientTokens) {\n            return \"Insufficient tokens\";\n        } else if (result == BTTSTokenInterface.CheckResult.InsufficientTokensForFees) {\n            return \"Insufficient tokens for fees\";\n        } else if (result == BTTSTokenInterface.CheckResult.OverflowError) {\n            return \"Overflow error\";\n        } else {\n            return \"Unknown error\";\n        }\n    }\n\n    // ------------------------------------------------------------------------\n    // Token functions\n    // ------------------------------------------------------------------------\n    function transfer(Data storage self, address to, uint tokens) public returns (bool success) {\n        // Owner and minter can move tokens before the tokens are transferable\n        require(self.transferable || (self.mintable && (msg.sender == self.owner  || msg.sender == self.minter)));\n        require(!self.accountLocked[msg.sender]);\n        self.balances[msg.sender] = safeSub(self.balances[msg.sender], tokens);\n        self.balances[to] = safeAdd(self.balances[to], tokens);\n        Transfer(msg.sender, to, tokens);\n        return true;\n    }\n    function approve(Data storage self, address spender, uint tokens) public returns (bool success) {\n        require(!self.accountLocked[msg.sender]);\n        self.allowed[msg.sender][spender] = tokens;\n        Approval(msg.sender, spender, tokens);\n        return true;\n    }\n    function transferFrom(Data storage self, address from, address to, uint tokens) public returns (bool success) {\n        require(self.transferable);\n        require(!self.accountLocked[from]);\n        self.balances[from] = safeSub(self.balances[from], tokens);\n        self.allowed[from][msg.sender] = safeSub(self.allowed[from][msg.sender], tokens);\n        self.balances[to] = safeAdd(self.balances[to], tokens);\n        Transfer(from, to, tokens);\n        return true;\n    }\n    function approveAndCall(Data storage self, address spender, uint tokens, bytes data) public returns (bool success) {\n        require(!self.accountLocked[msg.sender]);\n        self.allowed[msg.sender][spender] = tokens;\n        Approval(msg.sender, spender, tokens);\n        ApproveAndCallFallBack(spender).receiveApproval(msg.sender, tokens, address(this), data);\n        return true;\n    }\n\n    // ------------------------------------------------------------------------\n    // Signed function\n    // ------------------------------------------------------------------------\n    function signedTransferHash(Data storage /*self*/, address tokenOwner, address to, uint tokens, uint fee, uint nonce) public view returns (bytes32 hash) {\n        hash = keccak256(signedTransferSig, address(this), tokenOwner, to, tokens, fee, nonce);\n    }\n    function signedTransferCheck(Data storage self, address tokenOwner, address to, uint tokens, uint fee, uint nonce, bytes sig, address feeAccount) public view returns (BTTSTokenInterface.CheckResult result) {\n        if (!self.transferable) return BTTSTokenInterface.CheckResult.NotTransferable;\n        bytes32 hash = signedTransferHash(self, tokenOwner, to, tokens, fee, nonce);\n        if (tokenOwner == address(0) || tokenOwner != ecrecoverFromSig(keccak256(signingPrefix, hash), sig)) return BTTSTokenInterface.CheckResult.SignerMismatch;\n        if (self.accountLocked[tokenOwner]) return BTTSTokenInterface.CheckResult.AccountLocked;\n        if (self.nextNonce[tokenOwner] != nonce) return BTTSTokenInterface.CheckResult.InvalidNonce;\n        uint total = safeAdd(tokens, fee);\n        if (self.balances[tokenOwner] < tokens) return BTTSTokenInterface.CheckResult.InsufficientTokens;\n        if (self.balances[tokenOwner] < total) return BTTSTokenInterface.CheckResult.InsufficientTokensForFees;\n        if (self.balances[to] + tokens < self.balances[to]) return BTTSTokenInterface.CheckResult.OverflowError;\n        if (self.balances[feeAccount] + fee < self.balances[feeAccount]) return BTTSTokenInterface.CheckResult.OverflowError;\n        return BTTSTokenInterface.CheckResult.Success;\n    }\n    function signedTransfer(Data storage self, address tokenOwner, address to, uint tokens, uint fee, uint nonce, bytes sig, address feeAccount) public returns (bool success) {\n        require(self.transferable);\n        bytes32 hash = signedTransferHash(self, tokenOwner, to, tokens, fee, nonce);\n        require(tokenOwner != address(0) && tokenOwner == ecrecoverFromSig(keccak256(signingPrefix, hash), sig));\n        require(!self.accountLocked[tokenOwner]);\n        require(self.nextNonce[tokenOwner] == nonce);\n        self.nextNonce[tokenOwner] = nonce + 1;\n        self.balances[tokenOwner] = safeSub(self.balances[tokenOwner], tokens);\n        self.balances[to] = safeAdd(self.balances[to], tokens);\n        Transfer(tokenOwner, to, tokens);\n        self.balances[tokenOwner] = safeSub(self.balances[tokenOwner], fee);\n        self.balances[feeAccount] = safeAdd(self.balances[feeAccount], fee);\n        Transfer(tokenOwner, feeAccount, fee);\n        return true;\n    }\n    function signedApproveHash(Data storage /*self*/, address tokenOwner, address spender, uint tokens, uint fee, uint nonce) public view returns (bytes32 hash) {\n        hash = keccak256(signedApproveSig, address(this), tokenOwner, spender, tokens, fee, nonce);\n    }\n    function signedApproveCheck(Data storage self, address tokenOwner, address spender, uint tokens, uint fee, uint nonce, bytes sig, address feeAccount) public view returns (BTTSTokenInterface.CheckResult result) {\n        if (!self.transferable) return BTTSTokenInterface.CheckResult.NotTransferable;\n        bytes32 hash = signedApproveHash(self, tokenOwner, spender, tokens, fee, nonce);\n        if (tokenOwner == address(0) || tokenOwner != ecrecoverFromSig(keccak256(signingPrefix, hash), sig)) return BTTSTokenInterface.CheckResult.SignerMismatch;\n        if (self.accountLocked[tokenOwner]) return BTTSTokenInterface.CheckResult.AccountLocked;\n        if (self.nextNonce[tokenOwner] != nonce) return BTTSTokenInterface.CheckResult.InvalidNonce;\n        if (self.balances[tokenOwner] < fee) return BTTSTokenInterface.CheckResult.InsufficientTokensForFees;\n        if (self.balances[feeAccount] + fee < self.balances[feeAccount]) return BTTSTokenInterface.CheckResult.OverflowError;\n        return BTTSTokenInterface.CheckResult.Success;\n    }\n    function signedApprove(Data storage self, address tokenOwner, address spender, uint tokens, uint fee, uint nonce, bytes sig, address feeAccount) public returns (bool success) {\n        require(self.transferable);\n        bytes32 hash = signedApproveHash(self, tokenOwner, spender, tokens, fee, nonce);\n        require(tokenOwner != address(0) && tokenOwner == ecrecoverFromSig(keccak256(signingPrefix, hash), sig));\n        require(!self.accountLocked[tokenOwner]);\n        require(self.nextNonce[tokenOwner] == nonce);\n        self.nextNonce[tokenOwner] = nonce + 1;\n        self.allowed[tokenOwner][spender] = tokens;\n        Approval(tokenOwner, spender, tokens);\n        self.balances[tokenOwner] = safeSub(self.balances[tokenOwner], fee);\n        self.balances[feeAccount] = safeAdd(self.balances[feeAccount], fee);\n        Transfer(tokenOwner, feeAccount, fee);\n        return true;\n    }\n    function signedTransferFromHash(Data storage /*self*/, address spender, address from, address to, uint tokens, uint fee, uint nonce) public view returns (bytes32 hash) {\n        hash = keccak256(signedTransferFromSig, address(this), spender, from, to, tokens, fee, nonce);\n    }\n    function signedTransferFromCheck(Data storage self, address spender, address from, address to, uint tokens, uint fee, uint nonce, bytes sig, address feeAccount) public view returns (BTTSTokenInterface.CheckResult result) {\n        if (!self.transferable) return BTTSTokenInterface.CheckResult.NotTransferable;\n        bytes32 hash = signedTransferFromHash(self, spender, from, to, tokens, fee, nonce);\n        if (spender == address(0) || spender != ecrecoverFromSig(keccak256(signingPrefix, hash), sig)) return BTTSTokenInterface.CheckResult.SignerMismatch;\n        if (self.accountLocked[from]) return BTTSTokenInterface.CheckResult.AccountLocked;\n        if (self.nextNonce[spender] != nonce) return BTTSTokenInterface.CheckResult.InvalidNonce;\n        uint total = safeAdd(tokens, fee);\n        if (self.allowed[from][spender] < tokens) return BTTSTokenInterface.CheckResult.InsufficientApprovedTokens;\n        if (self.allowed[from][spender] < total) return BTTSTokenInterface.CheckResult.InsufficientApprovedTokensForFees;\n        if (self.balances[from] < tokens) return BTTSTokenInterface.CheckResult.InsufficientTokens;\n        if (self.balances[from] < total) return BTTSTokenInterface.CheckResult.InsufficientTokensForFees;\n        if (self.balances[to] + tokens < self.balances[to]) return BTTSTokenInterface.CheckResult.OverflowError;\n        if (self.balances[feeAccount] + fee < self.balances[feeAccount]) return BTTSTokenInterface.CheckResult.OverflowError;\n        return BTTSTokenInterface.CheckResult.Success;\n    }\n    function signedTransferFrom(Data storage self, address spender, address from, address to, uint tokens, uint fee, uint nonce, bytes sig, address feeAccount) public returns (bool success) {\n        require(self.transferable);\n        bytes32 hash = signedTransferFromHash(self, spender, from, to, tokens, fee, nonce);\n        require(spender != address(0) && spender == ecrecoverFromSig(keccak256(signingPrefix, hash), sig));\n        require(!self.accountLocked[from]);\n        require(self.nextNonce[spender] == nonce);\n        self.nextNonce[spender] = nonce + 1;\n        self.balances[from] = safeSub(self.balances[from], tokens);\n        self.allowed[from][spender] = safeSub(self.allowed[from][spender], tokens);\n        self.balances[to] = safeAdd(self.balances[to], tokens);\n        Transfer(from, to, tokens);\n        self.balances[from] = safeSub(self.balances[from], fee);\n        self.allowed[from][spender] = safeSub(self.allowed[from][spender], fee);\n        self.balances[feeAccount] = safeAdd(self.balances[feeAccount], fee);\n        Transfer(from, feeAccount, fee);\n        return true;\n    }\n    function signedApproveAndCallHash(Data storage /*self*/, address tokenOwner, address spender, uint tokens, bytes data, uint fee, uint nonce) public view returns (bytes32 hash) {\n        hash = keccak256(signedApproveAndCallSig, address(this), tokenOwner, spender, tokens, data, fee, nonce);\n    }\n    function signedApproveAndCallCheck(Data storage self, address tokenOwner, address spender, uint tokens, bytes data, uint fee, uint nonce, bytes sig, address feeAccount) public view returns (BTTSTokenInterface.CheckResult result) {\n        if (!self.transferable) return BTTSTokenInterface.CheckResult.NotTransferable;\n        bytes32 hash = signedApproveAndCallHash(self, tokenOwner, spender, tokens, data, fee, nonce);\n        if (tokenOwner == address(0) || tokenOwner != ecrecoverFromSig(keccak256(signingPrefix, hash), sig)) return BTTSTokenInterface.CheckResult.SignerMismatch;\n        if (self.accountLocked[tokenOwner]) return BTTSTokenInterface.CheckResult.AccountLocked;\n        if (self.nextNonce[tokenOwner] != nonce) return BTTSTokenInterface.CheckResult.InvalidNonce;\n        if (self.balances[tokenOwner] < fee) return BTTSTokenInterface.CheckResult.InsufficientTokensForFees;\n        if (self.balances[feeAccount] + fee < self.balances[feeAccount]) return BTTSTokenInterface.CheckResult.OverflowError;\n        return BTTSTokenInterface.CheckResult.Success;\n    }\n    function signedApproveAndCall(Data storage self, address tokenOwner, address spender, uint tokens, bytes data, uint fee, uint nonce, bytes sig, address feeAccount) public returns (bool success) {\n        require(self.transferable);\n        bytes32 hash = signedApproveAndCallHash(self, tokenOwner, spender, tokens, data, fee, nonce);\n        require(tokenOwner != address(0) && tokenOwner == ecrecoverFromSig(keccak256(signingPrefix, hash), sig));\n        require(!self.accountLocked[tokenOwner]);\n        require(self.nextNonce[tokenOwner] == nonce);\n        self.nextNonce[tokenOwner] = nonce + 1;\n        self.allowed[tokenOwner][spender] = tokens;\n        Approval(tokenOwner, spender, tokens);\n        self.balances[tokenOwner] = safeSub(self.balances[tokenOwner], fee);\n        self.balances[feeAccount] = safeAdd(self.balances[feeAccount], fee);\n        Transfer(tokenOwner, feeAccount, fee);\n        ApproveAndCallFallBack(spender).receiveApproval(tokenOwner, tokens, address(this), data);\n        return true;\n    }\n}",
  "sourcePath": "/home/zeming/work/blockchain/meetup-queue/react-uport/contracts/BTTSLib.sol",
  "compiler": {
    "name": "solc",
    "version": "0.4.18+commit.9cf6e910.Emscripten.clang"
  },
  "schemaVersion": "1.0.1",
  "updatedAt": "2018-04-22T13:48:57.882Z"
}