{
  "contractName": "MeetupBase",
  "abi": [
    {
      "constant": true,
      "inputs": [],
      "name": "organiserAddress",
      "outputs": [
        {
          "name": "",
          "type": "address"
        }
      ],
      "payable": false,
      "stateMutability": "view",
      "type": "function"
    },
    {
      "constant": true,
      "inputs": [
        {
          "name": "",
          "type": "address"
        }
      ],
      "name": "addressToPoints",
      "outputs": [
        {
          "name": "",
          "type": "uint256"
        }
      ],
      "payable": false,
      "stateMutability": "view",
      "type": "function"
    },
    {
      "constant": false,
      "inputs": [
        {
          "name": "name",
          "type": "bytes32"
        }
      ],
      "name": "registerUser",
      "outputs": [],
      "payable": false,
      "stateMutability": "nonpayable",
      "type": "function"
    },
    {
      "constant": false,
      "inputs": [],
      "name": "joinNextMeetup",
      "outputs": [],
      "payable": false,
      "stateMutability": "nonpayable",
      "type": "function"
    },
    {
      "constant": true,
      "inputs": [
        {
          "name": "",
          "type": "uint256"
        }
      ],
      "name": "meetups",
      "outputs": [
        {
          "name": "createTime",
          "type": "uint64"
        },
        {
          "name": "startTime",
          "type": "uint64"
        },
        {
          "name": "maxCapacity",
          "type": "uint8"
        }
      ],
      "payable": false,
      "stateMutability": "view",
      "type": "function"
    },
    {
      "constant": false,
      "inputs": [],
      "name": "unpause",
      "outputs": [],
      "payable": false,
      "stateMutability": "nonpayable",
      "type": "function"
    },
    {
      "constant": true,
      "inputs": [
        {
          "name": "i",
          "type": "uint256"
        }
      ],
      "name": "getRegistrationList",
      "outputs": [
        {
          "name": "",
          "type": "address[]"
        }
      ],
      "payable": false,
      "stateMutability": "view",
      "type": "function"
    },
    {
      "constant": false,
      "inputs": [
        {
          "name": "name",
          "type": "bytes32"
        }
      ],
      "name": "deregisterUser",
      "outputs": [],
      "payable": false,
      "stateMutability": "nonpayable",
      "type": "function"
    },
    {
      "constant": true,
      "inputs": [],
      "name": "getMeetupCount",
      "outputs": [
        {
          "name": "",
          "type": "uint256"
        }
      ],
      "payable": false,
      "stateMutability": "view",
      "type": "function"
    },
    {
      "constant": true,
      "inputs": [
        {
          "name": "i",
          "type": "uint256"
        }
      ],
      "name": "getRegisteredUserNames",
      "outputs": [
        {
          "name": "",
          "type": "bytes32[]"
        }
      ],
      "payable": false,
      "stateMutability": "view",
      "type": "function"
    },
    {
      "constant": true,
      "inputs": [],
      "name": "getFoodOptionCount",
      "outputs": [
        {
          "name": "",
          "type": "uint256"
        }
      ],
      "payable": false,
      "stateMutability": "view",
      "type": "function"
    },
    {
      "constant": true,
      "inputs": [
        {
          "name": "",
          "type": "bytes32"
        }
      ],
      "name": "userToAddress",
      "outputs": [
        {
          "name": "",
          "type": "address"
        }
      ],
      "payable": false,
      "stateMutability": "view",
      "type": "function"
    },
    {
      "constant": false,
      "inputs": [
        {
          "name": "_newAssistant",
          "type": "address"
        }
      ],
      "name": "setAssistant_1",
      "outputs": [],
      "payable": false,
      "stateMutability": "nonpayable",
      "type": "function"
    },
    {
      "constant": true,
      "inputs": [
        {
          "name": "i",
          "type": "uint256"
        }
      ],
      "name": "getPresenters",
      "outputs": [
        {
          "name": "",
          "type": "address[]"
        }
      ],
      "payable": false,
      "stateMutability": "view",
      "type": "function"
    },
    {
      "constant": false,
      "inputs": [],
      "name": "pause",
      "outputs": [],
      "payable": false,
      "stateMutability": "nonpayable",
      "type": "function"
    },
    {
      "constant": false,
      "inputs": [
        {
          "name": "_newOrganiser",
          "type": "address"
        }
      ],
      "name": "setOrganiser",
      "outputs": [],
      "payable": false,
      "stateMutability": "nonpayable",
      "type": "function"
    },
    {
      "constant": true,
      "inputs": [
        {
          "name": "",
          "type": "uint256"
        }
      ],
      "name": "foodOptions",
      "outputs": [
        {
          "name": "",
          "type": "string"
        }
      ],
      "payable": false,
      "stateMutability": "view",
      "type": "function"
    },
    {
      "constant": true,
      "inputs": [],
      "name": "assistantAddress_1",
      "outputs": [
        {
          "name": "",
          "type": "address"
        }
      ],
      "payable": false,
      "stateMutability": "view",
      "type": "function"
    },
    {
      "constant": false,
      "inputs": [
        {
          "name": "_newAssistant",
          "type": "address"
        }
      ],
      "name": "setAssistant_2",
      "outputs": [],
      "payable": false,
      "stateMutability": "nonpayable",
      "type": "function"
    },
    {
      "constant": true,
      "inputs": [],
      "name": "assistantAddress_2",
      "outputs": [
        {
          "name": "",
          "type": "address"
        }
      ],
      "payable": false,
      "stateMutability": "view",
      "type": "function"
    },
    {
      "constant": false,
      "inputs": [],
      "name": "leaveNextMeetup",
      "outputs": [],
      "payable": false,
      "stateMutability": "nonpayable",
      "type": "function"
    },
    {
      "constant": true,
      "inputs": [
        {
          "name": "",
          "type": "address"
        }
      ],
      "name": "addressToUser",
      "outputs": [
        {
          "name": "",
          "type": "bytes32"
        }
      ],
      "payable": false,
      "stateMutability": "view",
      "type": "function"
    },
    {
      "constant": false,
      "inputs": [
        {
          "name": "_startTime",
          "type": "uint64"
        },
        {
          "name": "_maxCapacity",
          "type": "uint8"
        },
        {
          "name": "_presenters",
          "type": "address[]"
        }
      ],
      "name": "createMeetup",
      "outputs": [
        {
          "name": "",
          "type": "uint256"
        }
      ],
      "payable": false,
      "stateMutability": "nonpayable",
      "type": "function"
    },
    {
      "inputs": [],
      "payable": false,
      "stateMutability": "nonpayable",
      "type": "constructor"
    },
    {
      "anonymous": false,
      "inputs": [
        {
          "indexed": false,
          "name": "startTime",
          "type": "uint64"
        },
        {
          "indexed": false,
          "name": "maxCapacity",
          "type": "uint8"
        }
      ],
      "name": "Creation",
      "type": "event"
    }
  ],
  "bytecode": "0x60606040526000600260146101000a81548160ff02191690831515021790555034156200002b57600080fd5b336000806101000a81548173ffffffffffffffffffffffffffffffffffffffff021916908373ffffffffffffffffffffffffffffffffffffffff16021790555033600160006101000a81548173ffffffffffffffffffffffffffffffffffffffff021916908373ffffffffffffffffffffffffffffffffffffffff16021790555033600260006101000a81548173ffffffffffffffffffffffffffffffffffffffff021916908373ffffffffffffffffffffffffffffffffffffffff16021790555060a0604051908101604052806040805190810160405280600581526020017f70697a7a6100000000000000000000000000000000000000000000000000000081525081526020016040805190810160405280600581526020017f737573686900000000000000000000000000000000000000000000000000000081525081526020016040805190810160405280600581526020017f73616c616400000000000000000000000000000000000000000000000000000081525081526020016040805190810160405280600681526020017f62757269746f000000000000000000000000000000000000000000000000000081525081526020016040805190810160405280600681526020017f737562776179000000000000000000000000000000000000000000000000000081525081525060079060056200023092919062000237565b50620003ca565b8280548282559060005260206000209081019282156200028b579160200282015b828111156200028a578251829080519060200190620002799291906200029e565b509160200191906001019062000258565b5b5090506200029a919062000325565b5090565b828054600181600116156101000203166002900490600052602060002090601f016020900481019282601f10620002e157805160ff191683800117855562000312565b8280016001018555821562000312579182015b8281111562000311578251825591602001919060010190620002f4565b5b50905062000321919062000356565b5090565b6200035391905b808211156200034f57600081816200034591906200037e565b506001016200032c565b5090565b90565b6200037b91905b80821115620003775760008160009055506001016200035d565b5090565b90565b50805460018160011615610100020316600290046000825580601f10620003a65750620003c7565b601f016020900490600052602060002090810190620003c6919062000356565b5b50565b61221e80620003da6000396000f300606060405260043610610133576000357c0100000000000000000000000000000000000000000000000000000000900463ffffffff16806304e3c9b814610138578063131b745e1461018d5780632dc03259146101da5780632ff96e8e1461020157806337026ae1146102165780633f4ba83a14610289578063430f19151461029e5780634754697014610316578063539f7fb71461033d5780635bf79001146103665780636160b3b3146103de5780636c88beeb1461040757806377bdfc571461046e57806379c685e2146104a75780638456cb591461051f5780638c4b0e7e14610534578063a3c6217b1461056d578063c8ded43e14610609578063d92319271461065e578063d92a174514610697578063e3ccbc59146106ec578063edf5388614610701578063f33a4c5014610756575b600080fd5b341561014357600080fd5b61014b6107e3565b604051808273ffffffffffffffffffffffffffffffffffffffff1673ffffffffffffffffffffffffffffffffffffffff16815260200191505060405180910390f35b341561019857600080fd5b6101c4600480803573ffffffffffffffffffffffffffffffffffffffff16906020019091905050610808565b6040518082815260200191505060405180910390f35b34156101e557600080fd5b6101ff600480803560001916906020019091905050610820565b005b341561020c57600080fd5b610214610976565b005b341561022157600080fd5b6102376004808035906020019091905050610b9f565b604051808467ffffffffffffffff1667ffffffffffffffff1681526020018367ffffffffffffffff1667ffffffffffffffff1681526020018260ff1660ff168152602001935050505060405180910390f35b341561029457600080fd5b61029c610c0d565b005b34156102a957600080fd5b6102bf6004808035906020019091905050610ca0565b6040518080602001828103825283818151815260200191508051906020019060200280838360005b838110156103025780820151818401526020810190506102e7565b505050509050019250505060405180910390f35b341561032157600080fd5b61033b600480803560001916906020019091905050610d54565b005b341561034857600080fd5b610350610f73565b6040518082815260200191505060405180910390f35b341561037157600080fd5b6103876004808035906020019091905050610f80565b6040518080602001828103825283818151815260200191508051906020019060200280838360005b838110156103ca5780820151818401526020810190506103af565b505050509050019250505060405180910390f35b34156103e957600080fd5b6103f1611002565b6040518082815260200191505060405180910390f35b341561041257600080fd5b61042c60048080356000191690602001909190505061100f565b604051808273ffffffffffffffffffffffffffffffffffffffff1673ffffffffffffffffffffffffffffffffffffffff16815260200191505060405180910390f35b341561047957600080fd5b6104a5600480803573ffffffffffffffffffffffffffffffffffffffff16906020019091905050611042565b005b34156104b257600080fd5b6104c860048080359060200190919050506111cd565b6040518080602001828103825283818151815260200191508051906020019060200280838360005b8381101561050b5780820151818401526020810190506104f0565b505050509050019250505060405180910390f35b341561052a57600080fd5b610532611281565b005b341561053f57600080fd5b61056b600480803573ffffffffffffffffffffffffffffffffffffffff169060200190919050506113c5565b005b341561057857600080fd5b61058e600480803590602001909190505061149f565b6040518080602001828103825283818151815260200191508051906020019080838360005b838110156105ce5780820151818401526020810190506105b3565b50505050905090810190601f1680156105fb5780820380516001836020036101000a031916815260200191505b509250505060405180910390f35b341561061457600080fd5b61061c61155b565b604051808273ffffffffffffffffffffffffffffffffffffffff1673ffffffffffffffffffffffffffffffffffffffff16815260200191505060405180910390f35b341561066957600080fd5b610695600480803573ffffffffffffffffffffffffffffffffffffffff16906020019091905050611581565b005b34156106a257600080fd5b6106aa61170c565b604051808273ffffffffffffffffffffffffffffffffffffffff1673ffffffffffffffffffffffffffffffffffffffff16815260200191505060405180910390f35b34156106f757600080fd5b6106ff611732565b005b341561070c57600080fd5b610738600480803573ffffffffffffffffffffffffffffffffffffffff16906020019091905050611a33565b60405180826000191660001916815260200191505060405180910390f35b341561076157600080fd5b6107cd600480803567ffffffffffffffff1690602001909190803560ff1690602001909190803590602001908201803590602001908080602002602001604051908101604052809392919081815260200183836020028082843782019150505050505091905050611a4b565b6040518082815260200191505060405180910390f35b6000809054906101000a900473ffffffffffffffffffffffffffffffffffffffff1681565b60046020528060005260406000206000915090505481565b600060056000836000191660001916815260200190815260200160002060009054906101000a900473ffffffffffffffffffffffffffffffffffffffff1673ffffffffffffffffffffffffffffffffffffffff1614801561088657506000816000191614155b156109735780600660003373ffffffffffffffffffffffffffffffffffffffff1673ffffffffffffffffffffffffffffffffffffffff16815260200190815260200160002081600019169055503360056000836000191660001916815260200190815260200160002060006101000a81548173ffffffffffffffffffffffffffffffffffffffff021916908373ffffffffffffffffffffffffffffffffffffffff1602179055506064600460003373ffffffffffffffffffffffffffffffffffffffff1673ffffffffffffffffffffffffffffffffffffffff168152602001908152602001600020819055505b50565b6000806000806000600102600660003373ffffffffffffffffffffffffffffffffffffffff1673ffffffffffffffffffffffffffffffffffffffff16815260200190815260200160002054600019161115156109d157600080fd5b60016003805490500393506003848154811015156109eb57fe5b906000526020600020906004020192508260000160089054906101000a900467ffffffffffffffff1667ffffffffffffffff1642101515610a2b57600080fd5b600091505b8260020180549050821015610ac1573373ffffffffffffffffffffffffffffffffffffffff168360020183815481101515610a6757fe5b906000526020600020900160009054906101000a900473ffffffffffffffffffffffffffffffffffffffff1673ffffffffffffffffffffffffffffffffffffffff161415610ab457600080fd5b8180600101925050610a30565b600660003373ffffffffffffffffffffffffffffffffffffffff1673ffffffffffffffffffffffffffffffffffffffff168152602001908152602001600020549050826002018054806001018281610b199190611e1b565b9160005260206000209001600033909190916101000a81548173ffffffffffffffffffffffffffffffffffffffff021916908373ffffffffffffffffffffffffffffffffffffffff16021790555050826003018054806001018281610b7e9190611e47565b91600052602060002090016000839091909150906000191690555050505050565b600381815481101515610bae57fe5b90600052602060002090600402016000915090508060000160009054906101000a900467ffffffffffffffff16908060000160089054906101000a900467ffffffffffffffff16908060000160109054906101000a900460ff16905083565b6000809054906101000a900473ffffffffffffffffffffffffffffffffffffffff1673ffffffffffffffffffffffffffffffffffffffff163373ffffffffffffffffffffffffffffffffffffffff16141515610c6857600080fd5b600260149054906101000a900460ff161515610c8357600080fd5b6000600260146101000a81548160ff021916908315150217905550565b610ca8611e73565b600382815481101515610cb757fe5b9060005260206000209060040201600201805480602002602001604051908101604052809291908181526020018280548015610d4857602002820191906000526020600020905b8160009054906101000a900473ffffffffffffffffffffffffffffffffffffffff1673ffffffffffffffffffffffffffffffffffffffff1681526020019060010190808311610cfe575b50505050509050919050565b6000809054906101000a900473ffffffffffffffffffffffffffffffffffffffff1673ffffffffffffffffffffffffffffffffffffffff163373ffffffffffffffffffffffffffffffffffffffff161480610dfc5750600160009054906101000a900473ffffffffffffffffffffffffffffffffffffffff1673ffffffffffffffffffffffffffffffffffffffff163373ffffffffffffffffffffffffffffffffffffffff16145b80610e545750600260009054906101000a900473ffffffffffffffffffffffffffffffffffffffff1673ffffffffffffffffffffffffffffffffffffffff163373ffffffffffffffffffffffffffffffffffffffff16145b1515610e5f57600080fd5b600060056000836000191660001916815260200190815260200160002060009054906101000a900473ffffffffffffffffffffffffffffffffffffffff1673ffffffffffffffffffffffffffffffffffffffff1614158015610ec657506000816000191614155b15610f70576000600660003373ffffffffffffffffffffffffffffffffffffffff1673ffffffffffffffffffffffffffffffffffffffff1681526020019081526020016000208160001916905550600060056000836000191660001916815260200190815260200160002060006101000a81548173ffffffffffffffffffffffffffffffffffffffff021916908373ffffffffffffffffffffffffffffffffffffffff1602179055505b50565b6000600380549050905090565b610f88611e87565b600382815481101515610f9757fe5b9060005260206000209060040201600301805480602002602001604051908101604052809291908181526020018280548015610ff657602002820191906000526020600020905b81546000191681526020019060010190808311610fde575b50505050509050919050565b6000600780549050905090565b60056020528060005260406000206000915054906101000a900473ffffffffffffffffffffffffffffffffffffffff1681565b6000809054906101000a900473ffffffffffffffffffffffffffffffffffffffff1673ffffffffffffffffffffffffffffffffffffffff163373ffffffffffffffffffffffffffffffffffffffff1614806110ea5750600160009054906101000a900473ffffffffffffffffffffffffffffffffffffffff1673ffffffffffffffffffffffffffffffffffffffff163373ffffffffffffffffffffffffffffffffffffffff16145b806111425750600260009054906101000a900473ffffffffffffffffffffffffffffffffffffffff1673ffffffffffffffffffffffffffffffffffffffff163373ffffffffffffffffffffffffffffffffffffffff16145b151561114d57600080fd5b600073ffffffffffffffffffffffffffffffffffffffff168173ffffffffffffffffffffffffffffffffffffffff161415151561118957600080fd5b80600160006101000a81548173ffffffffffffffffffffffffffffffffffffffff021916908373ffffffffffffffffffffffffffffffffffffffff16021790555050565b6111d5611e73565b6003828154811015156111e457fe5b906000526020600020906004020160010180548060200260200160405190810160405280929190818152602001828054801561127557602002820191906000526020600020905b8160009054906101000a900473ffffffffffffffffffffffffffffffffffffffff1673ffffffffffffffffffffffffffffffffffffffff168152602001906001019080831161122b575b50505050509050919050565b6000809054906101000a900473ffffffffffffffffffffffffffffffffffffffff1673ffffffffffffffffffffffffffffffffffffffff163373ffffffffffffffffffffffffffffffffffffffff1614806113295750600160009054906101000a900473ffffffffffffffffffffffffffffffffffffffff1673ffffffffffffffffffffffffffffffffffffffff163373ffffffffffffffffffffffffffffffffffffffff16145b806113815750600260009054906101000a900473ffffffffffffffffffffffffffffffffffffffff1673ffffffffffffffffffffffffffffffffffffffff163373ffffffffffffffffffffffffffffffffffffffff16145b151561138c57600080fd5b600260149054906101000a900460ff161515156113a857600080fd5b6001600260146101000a81548160ff021916908315150217905550565b6000809054906101000a900473ffffffffffffffffffffffffffffffffffffffff1673ffffffffffffffffffffffffffffffffffffffff163373ffffffffffffffffffffffffffffffffffffffff1614151561142057600080fd5b600073ffffffffffffffffffffffffffffffffffffffff168173ffffffffffffffffffffffffffffffffffffffff161415151561145c57600080fd5b806000806101000a81548173ffffffffffffffffffffffffffffffffffffffff021916908373ffffffffffffffffffffffffffffffffffffffff16021790555050565b6007818154811015156114ae57fe5b90600052602060002090016000915090508054600181600116156101000203166002900480601f0160208091040260200160405190810160405280929190818152602001828054600181600116156101000203166002900480156115535780601f1061152857610100808354040283529160200191611553565b820191906000526020600020905b81548152906001019060200180831161153657829003601f168201915b505050505081565b600160009054906101000a900473ffffffffffffffffffffffffffffffffffffffff1681565b6000809054906101000a900473ffffffffffffffffffffffffffffffffffffffff1673ffffffffffffffffffffffffffffffffffffffff163373ffffffffffffffffffffffffffffffffffffffff1614806116295750600160009054906101000a900473ffffffffffffffffffffffffffffffffffffffff1673ffffffffffffffffffffffffffffffffffffffff163373ffffffffffffffffffffffffffffffffffffffff16145b806116815750600260009054906101000a900473ffffffffffffffffffffffffffffffffffffffff1673ffffffffffffffffffffffffffffffffffffffff163373ffffffffffffffffffffffffffffffffffffffff16145b151561168c57600080fd5b600073ffffffffffffffffffffffffffffffffffffffff168173ffffffffffffffffffffffffffffffffffffffff16141515156116c857600080fd5b80600260006101000a81548173ffffffffffffffffffffffffffffffffffffffff021916908373ffffffffffffffffffffffffffffffffffffffff16021790555050565b600260009054906101000a900473ffffffffffffffffffffffffffffffffffffffff1681565b6000806000808260000160089054906101000a900467ffffffffffffffff1667ffffffffffffffff164210151561176857600080fd5b6000600102600660003373ffffffffffffffffffffffffffffffffffffffff1673ffffffffffffffffffffffffffffffffffffffff16815260200190815260200160002054600019161115156117bd57600080fd5b60016003805490500393506003848154811015156117d757fe5b9060005260206000209060040201925060009150600090505b8260020180549050811015611a21573373ffffffffffffffffffffffffffffffffffffffff16836002018281548110151561182757fe5b906000526020600020900160009054906101000a900473ffffffffffffffffffffffffffffffffffffffff1673ffffffffffffffffffffffffffffffffffffffff161415611a145760019150600183600201805490501115611a135782600201600184600201805490500381548110151561189e57fe5b906000526020600020900160009054906101000a900473ffffffffffffffffffffffffffffffffffffffff1683600201828154811015156118db57fe5b906000526020600020900160006101000a81548173ffffffffffffffffffffffffffffffffffffffff021916908373ffffffffffffffffffffffffffffffffffffffff16021790555082600301600184600201805490500381548110151561193f57fe5b906000526020600020900154836003018281548110151561195c57fe5b9060005260206000209001816000191690555082600201600184600201805490500381548110151561198a57fe5b906000526020600020900160006101000a81549073ffffffffffffffffffffffffffffffffffffffff02191690558260030160018460020180549050038154811015156119d357fe5b906000526020600020900160009055826002018054809190600190036119f99190611e9b565b5082600301805480919060019003611a119190611ec7565b505b5b80806001019150506117f0565b811515611a2d57600080fd5b50505050565b60066020528060005260406000206000915090505481565b6000611a55611e73565b611a5d611e87565b6000611a67611ef3565b60008060009054906101000a900473ffffffffffffffffffffffffffffffffffffffff1673ffffffffffffffffffffffffffffffffffffffff163373ffffffffffffffffffffffffffffffffffffffff161480611b115750600160009054906101000a900473ffffffffffffffffffffffffffffffffffffffff1673ffffffffffffffffffffffffffffffffffffffff163373ffffffffffffffffffffffffffffffffffffffff16145b80611b695750600260009054906101000a900473ffffffffffffffffffffffffffffffffffffffff1673ffffffffffffffffffffffffffffffffffffffff163373ffffffffffffffffffffffffffffffffffffffff16145b1515611b7457600080fd5b4267ffffffffffffffff168967ffffffffffffffff16111515611b9657600080fd5b86518860ff16111515611ba857600080fd5b8694508651604051805910611bba5750595b90808252806020026020018201604052509350600092505b8651831015611c6557600660008885815181101515611bed57fe5b9060200190602002015173ffffffffffffffffffffffffffffffffffffffff1673ffffffffffffffffffffffffffffffffffffffff168152602001908152602001600020548484815181101515611c4057fe5b9060200190602002019060001916908160001916815250508280600101935050611bd2565b60c0604051908101604052804267ffffffffffffffff1681526020018a67ffffffffffffffff1681526020018960ff168152602001888152602001868152602001858152509150600160038054806001018281611cc29190611f53565b9160005260206000209060040201600085909190915060008201518160000160006101000a81548167ffffffffffffffff021916908367ffffffffffffffff16021790555060208201518160000160086101000a81548167ffffffffffffffff021916908367ffffffffffffffff16021790555060408201518160000160106101000a81548160ff021916908360ff1602179055506060820151816001019080519060200190611d73929190611f85565b506080820151816002019080519060200190611d90929190611f85565b5060a0820151816003019080519060200190611dad92919061200f565b5050500390507f6c08c4f4120938bf9af43b49da6fa61eba64ebd2ffd368cbfb6bc9a7ab61bd168989604051808367ffffffffffffffff1667ffffffffffffffff1681526020018260ff1660ff1681526020019250505060405180910390a180955050505050509392505050565b815481835581811511611e4257818360005260206000209182019101611e419190612062565b5b505050565b815481835581811511611e6e57818360005260206000209182019101611e6d9190612087565b5b505050565b602060405190810160405280600081525090565b602060405190810160405280600081525090565b815481835581811511611ec257818360005260206000209182019101611ec19190612062565b5b505050565b815481835581811511611eee57818360005260206000209182019101611eed9190612087565b5b505050565b60c060405190810160405280600067ffffffffffffffff168152602001600067ffffffffffffffff168152602001600060ff168152602001611f336120ac565b8152602001611f406120ac565b8152602001611f4d6120c0565b81525090565b815481835581811511611f8057600402816004028360005260206000209182019101611f7f91906120d4565b5b505050565b828054828255906000526020600020908101928215611ffe579160200282015b82811115611ffd5782518260006101000a81548173ffffffffffffffffffffffffffffffffffffffff021916908373ffffffffffffffffffffffffffffffffffffffff16021790555091602001919060010190611fa5565b5b50905061200b919061216d565b5090565b828054828255906000526020600020908101928215612051579160200282015b8281111561205057825182906000191690559160200191906001019061202f565b5b50905061205e9190612087565b5090565b61208491905b80821115612080576000816000905550600101612068565b5090565b90565b6120a991905b808211156120a557600081600090555060010161208d565b5090565b90565b602060405190810160405280600081525090565b602060405190810160405280600081525090565b61216a91905b8082111561216657600080820160006101000a81549067ffffffffffffffff02191690556000820160086101000a81549067ffffffffffffffff02191690556000820160106101000a81549060ff021916905560018201600061213d91906121b0565b60028201600061214d91906121b0565b60038201600061215d91906121d1565b506004016120da565b5090565b90565b6121ad91905b808211156121a957600081816101000a81549073ffffffffffffffffffffffffffffffffffffffff021916905550600101612173565b5090565b90565b50805460008255906000526020600020908101906121ce9190612062565b50565b50805460008255906000526020600020908101906121ef9190612087565b505600a165627a7a72305820f1507af524c1835f28133ffe60feed24c3c6afa05ac253429e13dfbae8cb64920029",
  "source": "pragma solidity ^0.4.18;\n\nimport \"./MeetupAccessControl.sol\";\n\n/// @title Base contract for Meetup. Holds all common structs, events and base variables.\n\n// Based on\n// https://github.com/axiomzen/cryptokitties-bounty/blob/master/contracts/KittyBase.sol\n// https://monax.io/docs/solidity/solidity_1_the_five_types_model/\n\ncontract MeetupBase is MeetupAccessControl {\n    /*** EVENTS ***/\n\n    // @dev The Creation event is fired whenever a new meetup event comes into existence. \n    //      These meetup events are created by event organiser or assistants \n    event Creation(uint64 startTime, uint8 maxCapacity);\n\n\n    /*** DATA TYPES ***/\n\n    struct Meetup {\n        // The timestamp from the block when the meetup event is created.\n        uint64 createTime;\n\n        // The timestamp from the block when the meetup event is scheduled to start.\n        uint64 startTime;\n\n        // Capacity of the meeting.\n        uint8 maxCapacity;\n\n        // Address of the presenters.\n        address[] presenters;\n\n        // Address of people who register for the event.\n        // Only the top maxCapacity people will be able to enter.\n        // The rest will be on the waiting list.\n        address[] registrationList;\n\n        bytes32[] registeredUserNames;\n    }\n\n    /*** STORAGE ***/\n\n    /// @dev An array containing the Meetup struct for all Meetups in existence. \n    Meetup[] public meetups;\n\n    /// @dev A mapping from user address to points\n    mapping (address => uint256) public addressToPoints;\n\n    // Here we store the names. Make it public to automatically generate an\n    // accessor function named 'users' that takes a fixed-length string as argument.\n    mapping (bytes32 => address) public userToAddress;\n    mapping (address => bytes32) public addressToUser;\n\n    /// @dev An array containing food options\n    string[] public foodOptions;\n\n\n\n    // Initialise contract with the owner taking all three roles\n    // These can later be transferred to the right person\n    function MeetupBase() public {\n        organiserAddress = msg.sender;\n        assistantAddress_1 = msg.sender;\n        assistantAddress_2 = msg.sender;\n        foodOptions = [\"pizza\", \"sushi\", \"salad\", \"burito\", \"subway\"];\n    }\n\n    // Register the provided name with the caller address.\n    // Also, we don't want them to register \"\" as their name.\n    function registerUser(bytes32 name) public {\n        // require(\n        //     msg.sender == userToAddress[name] ||\n        //     msg.sender == organiserAddress ||\n        //     msg.sender == assistantAddress_1 ||\n        //     msg.sender == assistantAddress_2\n        // );\n        \n        if(userToAddress[name] == 0 && name != \"\"){\n            addressToUser[msg.sender] = name;\n            userToAddress[name] = msg.sender;            \n            addressToPoints[msg.sender] = 100;\n        }\n    }\n\n    // Deregister the provided name with the caller address.\n    // Only user him/herself or assistants can deregister a user\n    function deregisterUser(bytes32 name) public onlyAssistant {        \n        // require(\n        //     msg.sender == users[name] ||\n        //     msg.sender == organiserAddress ||\n        //     msg.sender == assistantAddress_1 ||\n        //     msg.sender == assistantAddress_2\n        // );\n        if(userToAddress[name] != 0 && name != \"\"){\n            addressToUser[msg.sender] = \"\";\n            userToAddress[name] = 0x0;\n        }\n    }\n\n    // @param _timeUntilMeetup Time until the scheduled meeting start time\n    // @param _maxCapacity Maximum capacity of the meeting.\n    // @param _presenters Addresses of presenters.\n    function createMeetup (            \n        uint64 _startTime,        \n        uint8 _maxCapacity,       \n        address[] _presenters\n    )\n        public\n        onlyAssistant() \n        returns (uint256)\n    {\n\n        // Can't create a meetup in the past\n        require(uint64(_startTime) > uint64(now));\n\n        // Must have at least 1 extra spot\n        require(_maxCapacity > _presenters.length);\n\n        address[] memory _registrationList = _presenters;\n        bytes32[] memory _registeredUserNames = new bytes32[](_presenters.length);\n\n        // Map address to names\n        for (uint i = 0; i < _presenters.length; i++) {\n            _registeredUserNames[i] = addressToUser[_presenters[i]];\n        }      \n        \n\n        \n        Meetup memory _meetup = Meetup({            \n            createTime: uint64(now),\n            startTime: uint64(_startTime),\n            maxCapacity: _maxCapacity,\n            presenters: _presenters,\n            registrationList: _registrationList,\n            registeredUserNames: _registeredUserNames\n        });\n\n        uint256 newMeetupId = meetups.push(_meetup) - 1 ;\n\n        // emit the creation event\n        Creation(_startTime, _maxCapacity);\n\n        return newMeetupId;\n    }\n\n\n\tfunction getPresenters(uint i) public view returns (address[]){\n\t\treturn meetups[i].presenters;\n\t}\n\n    function getRegistrationList(uint i) public view returns (address[]){\n        return meetups[i].registrationList;\n    }\n\n    function getRegisteredUserNames(uint i) public view returns (bytes32[]){\n        return meetups[i].registeredUserNames;\n    }\n\n    function getFoodOptionCount () public view returns (uint256) {\n        return foodOptions.length;\n    }\n\n\n    function joinNextMeetup ()\n        public        \n        // returns (bool)\n    {\n        // require(userToAddress[_userName] == msg.sender);\n        // require(userToAddress[_userName] != address(0));        \n        require(addressToUser[msg.sender] > 0);\n\n        uint256 _meetupId = meetups.length - 1;\n        Meetup storage _meetup = meetups[_meetupId];\n\n        // Can't join a meetup that has already started.\n        require(now < _meetup.startTime);        \n\n        // Can't join twice\n        for (uint i = 0; i < _meetup.registrationList.length; i++) {\n            if (_meetup.registrationList[i] == msg.sender) {\n                revert();\n            }\n        }      \n\n        bytes32 _userName = addressToUser[msg.sender];\n        _meetup.registrationList.push(msg.sender);\n        _meetup.registeredUserNames.push(_userName);\n        // deduct deposit\n        // addressToPoints[msg.sender] = addressToPoints[msg.sender] - 50;\n\n    }\n\n    function leaveNextMeetup ()\n        public        \n        // returns (bool)\n    {\n        // Can't leave a meetup that has already started.\n        require(now < _meetup.startTime);        \n\n        // Have to be a registered user\n        require(addressToUser[msg.sender] > 0);        \n\n        uint256 _meetupId = meetups.length - 1;\n        Meetup storage _meetup = meetups[_meetupId];\n\n        // Have to be registered to leave\n        bool hasJoined = false;\n        for (uint i = 0; i < _meetup.registrationList.length; i++) {\n            if (_meetup.registrationList[i] == msg.sender) {\n                hasJoined = true;\n\n                // can't leave the meetup if there's only one person!\n                if (_meetup.registrationList.length > 1) {\n                    // shift the last entry to the delted entry\n                    _meetup.registrationList[i] = _meetup.registrationList[_meetup.registrationList.length-1];\n                    _meetup.registeredUserNames[i] = _meetup.registeredUserNames[_meetup.registrationList.length-1];\n\n                    // delete the last entry\n                    delete(_meetup.registrationList[_meetup.registrationList.length-1]);\n                    delete(_meetup.registeredUserNames[_meetup.registrationList.length-1]);\n\n                    // update length\n                    _meetup.registrationList.length--;\n                    _meetup.registeredUserNames.length--;\n                }                \n            }\n        }      \n        require(hasJoined);\n    }\n\n    function getMeetupCount () public view returns (uint256) {\n        return meetups.length;\n    }\n  \n\n}\n\n\n\n\n\n// list of meetup members: \n// http://api.meetup.com/BokkyPooBahs-Ethereum-Workshop/members\n",
  "sourcePath": "/home/zeming/work/blockchain/meetup-queue/react-uport/contracts/MeetupBase.sol",
  "compiler": {
    "name": "solc",
    "version": "0.4.18+commit.9cf6e910.Emscripten.clang"
  },
  "schemaVersion": "1.0.1",
  "updatedAt": "2018-03-29T10:27:38.093Z"
}