{
  "contractName": "MeetupBase",
  "abi": [
    {
      "constant": true,
      "inputs": [],
      "name": "organiserAddress",
      "outputs": [
        {
          "name": "",
          "type": "address"
        }
      ],
      "payable": false,
      "stateMutability": "view",
      "type": "function"
    },
    {
      "constant": true,
      "inputs": [
        {
          "name": "",
          "type": "address"
        }
      ],
      "name": "userToPoints",
      "outputs": [
        {
          "name": "",
          "type": "int256"
        }
      ],
      "payable": false,
      "stateMutability": "view",
      "type": "function"
    },
    {
      "constant": false,
      "inputs": [
        {
          "name": "name",
          "type": "bytes32"
        }
      ],
      "name": "registerUser",
      "outputs": [],
      "payable": false,
      "stateMutability": "nonpayable",
      "type": "function"
    },
    {
      "constant": false,
      "inputs": [],
      "name": "unpause",
      "outputs": [],
      "payable": false,
      "stateMutability": "nonpayable",
      "type": "function"
    },
    {
      "constant": true,
      "inputs": [],
      "name": "getMeetupCount",
      "outputs": [
        {
          "name": "",
          "type": "uint256"
        }
      ],
      "payable": false,
      "stateMutability": "view",
      "type": "function"
    },
    {
      "constant": false,
      "inputs": [
        {
          "name": "_userName",
          "type": "bytes32"
        }
      ],
      "name": "joinNextMeetup",
      "outputs": [],
      "payable": false,
      "stateMutability": "nonpayable",
      "type": "function"
    },
    {
      "constant": false,
      "inputs": [
        {
          "name": "_newAssistant",
          "type": "address"
        }
      ],
      "name": "setAssistant_1",
      "outputs": [],
      "payable": false,
      "stateMutability": "nonpayable",
      "type": "function"
    },
    {
      "constant": false,
      "inputs": [],
      "name": "pause",
      "outputs": [],
      "payable": false,
      "stateMutability": "nonpayable",
      "type": "function"
    },
    {
      "constant": false,
      "inputs": [
        {
          "name": "_newOrganiser",
          "type": "address"
        }
      ],
      "name": "setOrganiser",
      "outputs": [],
      "payable": false,
      "stateMutability": "nonpayable",
      "type": "function"
    },
    {
      "constant": false,
      "inputs": [
        {
          "name": "name",
          "type": "bytes32"
        }
      ],
      "name": "unregisterUser",
      "outputs": [],
      "payable": false,
      "stateMutability": "nonpayable",
      "type": "function"
    },
    {
      "constant": true,
      "inputs": [],
      "name": "assistantAddress_1",
      "outputs": [
        {
          "name": "",
          "type": "address"
        }
      ],
      "payable": false,
      "stateMutability": "view",
      "type": "function"
    },
    {
      "constant": true,
      "inputs": [
        {
          "name": "",
          "type": "bytes32"
        }
      ],
      "name": "users",
      "outputs": [
        {
          "name": "",
          "type": "address"
        }
      ],
      "payable": false,
      "stateMutability": "view",
      "type": "function"
    },
    {
      "constant": false,
      "inputs": [
        {
          "name": "_newAssistant",
          "type": "address"
        }
      ],
      "name": "setAssistant_2",
      "outputs": [],
      "payable": false,
      "stateMutability": "nonpayable",
      "type": "function"
    },
    {
      "constant": true,
      "inputs": [],
      "name": "assistantAddress_2",
      "outputs": [
        {
          "name": "",
          "type": "address"
        }
      ],
      "payable": false,
      "stateMutability": "view",
      "type": "function"
    },
    {
      "constant": false,
      "inputs": [
        {
          "name": "_timeUntilMeetup",
          "type": "uint64"
        },
        {
          "name": "_maxCapacity",
          "type": "uint8"
        },
        {
          "name": "_presenters",
          "type": "address[]"
        }
      ],
      "name": "createMeetup",
      "outputs": [
        {
          "name": "",
          "type": "uint256"
        }
      ],
      "payable": false,
      "stateMutability": "nonpayable",
      "type": "function"
    },
    {
      "inputs": [],
      "payable": false,
      "stateMutability": "nonpayable",
      "type": "constructor"
    },
    {
      "anonymous": false,
      "inputs": [
        {
          "indexed": false,
          "name": "timeUntilMeetup",
          "type": "uint64"
        },
        {
          "indexed": false,
          "name": "maxCapacity",
          "type": "uint8"
        }
      ],
      "name": "Birth",
      "type": "event"
    }
  ],
  "bytecode": "0x60606040526000600260146101000a81548160ff021916908315150217905550341561002a57600080fd5b336000806101000a81548173ffffffffffffffffffffffffffffffffffffffff021916908373ffffffffffffffffffffffffffffffffffffffff16021790555033600160006101000a81548173ffffffffffffffffffffffffffffffffffffffff021916908373ffffffffffffffffffffffffffffffffffffffff16021790555033600260006101000a81548173ffffffffffffffffffffffffffffffffffffffff021916908373ffffffffffffffffffffffffffffffffffffffff1602179055506115df806100fb6000396000f3006060604052600436106100db576000357c0100000000000000000000000000000000000000000000000000000000900463ffffffff16806304e3c9b8146100e05780632ae6b135146101355780632dc03259146101825780633f4ba83a146101a9578063539f7fb7146101be57806353a81dcc146101e757806377bdfc571461020e5780638456cb59146102475780638c4b0e7e1461025c578063c228237514610295578063c8ded43e146102bc578063cea6ab9814610311578063d923192714610378578063d92a1745146103b1578063f33a4c5014610406575b600080fd5b34156100eb57600080fd5b6100f3610493565b604051808273ffffffffffffffffffffffffffffffffffffffff1673ffffffffffffffffffffffffffffffffffffffff16815260200191505060405180910390f35b341561014057600080fd5b61016c600480803573ffffffffffffffffffffffffffffffffffffffff169060200190919050506104b8565b6040518082815260200191505060405180910390f35b341561018d57600080fd5b6101a76004808035600019169060200190919050506104d0565b005b34156101b457600080fd5b6101bc610715565b005b34156101c957600080fd5b6101d16107a8565b6040518082815260200191505060405180910390f35b34156101f257600080fd5b61020c6004808035600019169060200190919050506107b5565b005b341561021957600080fd5b610245600480803573ffffffffffffffffffffffffffffffffffffffff16906020019091905050610a01565b005b341561025257600080fd5b61025a610b8c565b005b341561026757600080fd5b610293600480803573ffffffffffffffffffffffffffffffffffffffff16906020019091905050610cd0565b005b34156102a057600080fd5b6102ba600480803560001916906020019091905050610daa565b005b34156102c757600080fd5b6102cf610e75565b604051808273ffffffffffffffffffffffffffffffffffffffff1673ffffffffffffffffffffffffffffffffffffffff16815260200191505060405180910390f35b341561031c57600080fd5b610336600480803560001916906020019091905050610e9b565b604051808273ffffffffffffffffffffffffffffffffffffffff1673ffffffffffffffffffffffffffffffffffffffff16815260200191505060405180910390f35b341561038357600080fd5b6103af600480803573ffffffffffffffffffffffffffffffffffffffff16906020019091905050610ece565b005b34156103bc57600080fd5b6103c4611059565b604051808273ffffffffffffffffffffffffffffffffffffffff1673ffffffffffffffffffffffffffffffffffffffff16815260200191505060405180910390f35b341561041157600080fd5b61047d600480803567ffffffffffffffff1690602001909190803560ff169060200190919080359060200190820180359060200190808060200260200160405190810160405280939291908181526020018383602002808284378201915050505050509190505061107f565b6040518082815260200191505060405180910390f35b6000809054906101000a900473ffffffffffffffffffffffffffffffffffffffff1681565b60046020528060005260406000206000915090505481565b60056000826000191660001916815260200190815260200160002060009054906101000a900473ffffffffffffffffffffffffffffffffffffffff1673ffffffffffffffffffffffffffffffffffffffff163373ffffffffffffffffffffffffffffffffffffffff16148061059157506000809054906101000a900473ffffffffffffffffffffffffffffffffffffffff1673ffffffffffffffffffffffffffffffffffffffff163373ffffffffffffffffffffffffffffffffffffffff16145b806105e95750600160009054906101000a900473ffffffffffffffffffffffffffffffffffffffff1673ffffffffffffffffffffffffffffffffffffffff163373ffffffffffffffffffffffffffffffffffffffff16145b806106415750600260009054906101000a900473ffffffffffffffffffffffffffffffffffffffff1673ffffffffffffffffffffffffffffffffffffffff163373ffffffffffffffffffffffffffffffffffffffff16145b151561064c57600080fd5b600060056000836000191660001916815260200190815260200160002060009054906101000a900473ffffffffffffffffffffffffffffffffffffffff1673ffffffffffffffffffffffffffffffffffffffff161480156106b257506000816000191614155b15610712573360056000836000191660001916815260200190815260200160002060006101000a81548173ffffffffffffffffffffffffffffffffffffffff021916908373ffffffffffffffffffffffffffffffffffffffff1602179055505b50565b6000809054906101000a900473ffffffffffffffffffffffffffffffffffffffff1673ffffffffffffffffffffffffffffffffffffffff163373ffffffffffffffffffffffffffffffffffffffff1614151561077057600080fd5b600260149054906101000a900460ff16151561078b57600080fd5b6000600260146101000a81548160ff021916908315150217905550565b6000600380549050905090565b60008060003373ffffffffffffffffffffffffffffffffffffffff1660056000866000191660001916815260200190815260200160002060009054906101000a900473ffffffffffffffffffffffffffffffffffffffff1673ffffffffffffffffffffffffffffffffffffffff1614151561082f57600080fd5b600073ffffffffffffffffffffffffffffffffffffffff1660056000866000191660001916815260200190815260200160002060009054906101000a900473ffffffffffffffffffffffffffffffffffffffff1673ffffffffffffffffffffffffffffffffffffffff16141515156108a657600080fd5b60016003805490500392506003838154811015156108c057fe5b906000526020600020906003020191508160000160089054906101000a900467ffffffffffffffff1667ffffffffffffffff164210151561090057600080fd5b600090505b8160020180549050811015610996573373ffffffffffffffffffffffffffffffffffffffff16826002018281548110151561093c57fe5b906000526020600020900160009054906101000a900473ffffffffffffffffffffffffffffffffffffffff1673ffffffffffffffffffffffffffffffffffffffff16141561098957600080fd5b8080600101915050610905565b8160020180548060010182816109ac919061133e565b9160005260206000209001600033909190916101000a81548173ffffffffffffffffffffffffffffffffffffffff021916908373ffffffffffffffffffffffffffffffffffffffff1602179055505050505050565b6000809054906101000a900473ffffffffffffffffffffffffffffffffffffffff1673ffffffffffffffffffffffffffffffffffffffff163373ffffffffffffffffffffffffffffffffffffffff161480610aa95750600160009054906101000a900473ffffffffffffffffffffffffffffffffffffffff1673ffffffffffffffffffffffffffffffffffffffff163373ffffffffffffffffffffffffffffffffffffffff16145b80610b015750600260009054906101000a900473ffffffffffffffffffffffffffffffffffffffff1673ffffffffffffffffffffffffffffffffffffffff163373ffffffffffffffffffffffffffffffffffffffff16145b1515610b0c57600080fd5b600073ffffffffffffffffffffffffffffffffffffffff168173ffffffffffffffffffffffffffffffffffffffff1614151515610b4857600080fd5b80600160006101000a81548173ffffffffffffffffffffffffffffffffffffffff021916908373ffffffffffffffffffffffffffffffffffffffff16021790555050565b6000809054906101000a900473ffffffffffffffffffffffffffffffffffffffff1673ffffffffffffffffffffffffffffffffffffffff163373ffffffffffffffffffffffffffffffffffffffff161480610c345750600160009054906101000a900473ffffffffffffffffffffffffffffffffffffffff1673ffffffffffffffffffffffffffffffffffffffff163373ffffffffffffffffffffffffffffffffffffffff16145b80610c8c5750600260009054906101000a900473ffffffffffffffffffffffffffffffffffffffff1673ffffffffffffffffffffffffffffffffffffffff163373ffffffffffffffffffffffffffffffffffffffff16145b1515610c9757600080fd5b600260149054906101000a900460ff16151515610cb357600080fd5b6001600260146101000a81548160ff021916908315150217905550565b6000809054906101000a900473ffffffffffffffffffffffffffffffffffffffff1673ffffffffffffffffffffffffffffffffffffffff163373ffffffffffffffffffffffffffffffffffffffff16141515610d2b57600080fd5b600073ffffffffffffffffffffffffffffffffffffffff168173ffffffffffffffffffffffffffffffffffffffff1614151515610d6757600080fd5b806000806101000a81548173ffffffffffffffffffffffffffffffffffffffff021916908373ffffffffffffffffffffffffffffffffffffffff16021790555050565b600060056000836000191660001916815260200190815260200160002060009054906101000a900473ffffffffffffffffffffffffffffffffffffffff1673ffffffffffffffffffffffffffffffffffffffff1614158015610e1157506000816000191614155b15610e7257600060056000836000191660001916815260200190815260200160002060006101000a81548173ffffffffffffffffffffffffffffffffffffffff021916908373ffffffffffffffffffffffffffffffffffffffff1602179055505b50565b600160009054906101000a900473ffffffffffffffffffffffffffffffffffffffff1681565b60056020528060005260406000206000915054906101000a900473ffffffffffffffffffffffffffffffffffffffff1681565b6000809054906101000a900473ffffffffffffffffffffffffffffffffffffffff1673ffffffffffffffffffffffffffffffffffffffff163373ffffffffffffffffffffffffffffffffffffffff161480610f765750600160009054906101000a900473ffffffffffffffffffffffffffffffffffffffff1673ffffffffffffffffffffffffffffffffffffffff163373ffffffffffffffffffffffffffffffffffffffff16145b80610fce5750600260009054906101000a900473ffffffffffffffffffffffffffffffffffffffff1673ffffffffffffffffffffffffffffffffffffffff163373ffffffffffffffffffffffffffffffffffffffff16145b1515610fd957600080fd5b600073ffffffffffffffffffffffffffffffffffffffff168173ffffffffffffffffffffffffffffffffffffffff161415151561101557600080fd5b80600260006101000a81548173ffffffffffffffffffffffffffffffffffffffff021916908373ffffffffffffffffffffffffffffffffffffffff16021790555050565b600260009054906101000a900473ffffffffffffffffffffffffffffffffffffffff1681565b600061108961136a565b61109161137e565b60008060009054906101000a900473ffffffffffffffffffffffffffffffffffffffff1673ffffffffffffffffffffffffffffffffffffffff163373ffffffffffffffffffffffffffffffffffffffff16148061113b5750600160009054906101000a900473ffffffffffffffffffffffffffffffffffffffff1673ffffffffffffffffffffffffffffffffffffffff163373ffffffffffffffffffffffffffffffffffffffff16145b806111935750600260009054906101000a900473ffffffffffffffffffffffffffffffffffffffff1673ffffffffffffffffffffffffffffffffffffffff163373ffffffffffffffffffffffffffffffffffffffff16145b151561119e57600080fd5b84925060a0604051908101604052804267ffffffffffffffff1681526020018867ffffffffffffffff16420167ffffffffffffffff1681526020018760ff16815260200186815260200184815250915060016003805480600101828161120491906113d1565b9160005260206000209060030201600085909190915060008201518160000160006101000a81548167ffffffffffffffff021916908367ffffffffffffffff16021790555060208201518160000160086101000a81548167ffffffffffffffff021916908367ffffffffffffffff16021790555060408201518160000160106101000a81548160ff021916908360ff16021790555060608201518160010190805190602001906112b5929190611403565b5060808201518160020190805190602001906112d2929190611403565b5050500390507f28972991b28557e0dfac62c83b4eb863d13d65ad467e70e6e0a0ece1c1bafac98787604051808367ffffffffffffffff1667ffffffffffffffff1681526020018260ff1660ff1681526020019250505060405180910390a18093505050509392505050565b81548183558181151161136557818360005260206000209182019101611364919061148d565b5b505050565b602060405190810160405280600081525090565b60a060405190810160405280600067ffffffffffffffff168152602001600067ffffffffffffffff168152602001600060ff1681526020016113be6114b2565b81526020016113cb6114b2565b81525090565b8154818355818115116113fe576003028160030283600052602060002091820191016113fd91906114c6565b5b505050565b82805482825590600052602060002090810192821561147c579160200282015b8281111561147b5782518260006101000a81548173ffffffffffffffffffffffffffffffffffffffff021916908373ffffffffffffffffffffffffffffffffffffffff16021790555091602001919060010190611423565b5b509050611489919061154f565b5090565b6114af91905b808211156114ab576000816000905550600101611493565b5090565b90565b602060405190810160405280600081525090565b61154c91905b8082111561154857600080820160006101000a81549067ffffffffffffffff02191690556000820160086101000a81549067ffffffffffffffff02191690556000820160106101000a81549060ff021916905560018201600061152f9190611592565b60028201600061153f9190611592565b506003016114cc565b5090565b90565b61158f91905b8082111561158b57600081816101000a81549073ffffffffffffffffffffffffffffffffffffffff021916905550600101611555565b5090565b90565b50805460008255906000526020600020908101906115b0919061148d565b505600a165627a7a72305820a4badd8a3293bc2c7b34ad67853f17e7db28063875c0eea6ab7237629a03570d0029",
  "source": "pragma solidity ^0.4.18;\n\n// import \"./MeetupAccessControl.sol\";\n\n\n// Based on https://github.com/axiomzen/cryptokitties-bounty/blob/master/contracts/KittyAccessControl.sol\ncontract MeetupAccessControl {\n\n  // The addresses of the accounts (or contracts) that can execute actions within each roles.\n  address public organiserAddress;\n  address public assistantAddress_1;\n  address public assistantAddress_2;\n  bool paused = false;\n\n  /// Access modifier for organiser-only functionality\n  modifier onlyOrganiser() {\n      require(msg.sender == organiserAddress);\n      _;\n  }\n\n  /// Access modifier for organiser-only functionality\n  modifier onlyAssistant() {\n      require(\n        msg.sender == organiserAddress ||\n        msg.sender == assistantAddress_1 ||\n        msg.sender == assistantAddress_2\n      );\n      _;\n  }\n\n  /// @dev Assigns a new address to act as the assistant. Only available to the current CEO.\n  /// @param _newAssistant The address of the new assistant\n  function setAssistant_1(address _newAssistant) public onlyAssistant {\n      require(_newAssistant != address(0));\n\n      assistantAddress_1 = _newAssistant;\n  }\n\n  /// @dev Assigns a new address to act as the assistant. Only available to the current CEO.\n  /// @param _newAssistant The address of the new assistant\n  function setAssistant_2(address _newAssistant) public onlyAssistant {\n      require(_newAssistant != address(0));\n\n      assistantAddress_2 = _newAssistant;\n  }\n\n\n  /// @dev Assigns a new address to act as the organiser. Only available to the current organiser.\n  /// @param _newOrganiser The address of the new organiser\n  function setOrganiser(address _newOrganiser) public onlyOrganiser {\n      require(_newOrganiser != address(0));\n\n      organiserAddress = _newOrganiser;\n  }\n\n  /// @dev Modifier to allow actions only when the contract IS NOT paused\n  modifier whenNotPaused() {\n      require(!paused);\n      _;\n  }\n\n  /// @dev Modifier to allow actions only when the contract IS paused\n  modifier whenPaused {\n      require(paused);\n      _;\n  }\n\n  /// @dev Called by any \"assistant\" role to pause the contract. Used only when\n  ///  a bug or exploit is detected and we need to limit damage.\n  function pause() public onlyAssistant whenNotPaused {\n      paused = true;\n  }\n\n  /// @dev Unpauses the smart contract. Can only be called by the CEO, since\n  ///  one reason we may pause the contract is when CFO or COO accounts are\n  ///  compromised.\n  function unpause() public onlyOrganiser whenPaused {\n      // can't unpause if contract was upgraded\n      paused = false;\n  }\n\n}\n\n/// @title Base contract for Meetup. Holds all common structs, events and base variables.\n\n// Based on\n// https://github.com/axiomzen/cryptokitties-bounty/blob/master/contracts/KittyBase.sol\n// https://monax.io/docs/solidity/solidity_1_the_five_types_model/\n\ncontract MeetupBase is MeetupAccessControl {\n    /*** EVENTS ***/\n\n    // @dev The Birth event is fired whenever a new meetup event comes into existence. \n    //      These meetup events are created by event organiser or assistants \n    event Birth(uint64 timeUntilMeetup, uint8 maxCapacity);\n\n\n    /*** DATA TYPES ***/\n\n    struct Meetup {\n        // The timestamp from the block when the meetup event is created.\n        uint64 birthTime;\n\n        // The timestamp from the block when the meetup event is scheduled to start.\n        uint64 startTime;\n\n        // Capacity of the meeting.\n        uint8 maxCapacity;\n\n        // Address of the presenters.\n        address[] presenters;\n\n        // Address of people who register for the event.\n        // Only the top maxCapacity people will be able to enter.\n        // The rest will be on the waiting list.\n        address[] registrationList;\n    }\n\n    /*** STORAGE ***/\n\n    /// @dev An array containing the Meetup struct for all Meetups in existence. \n    Meetup[] meetups;\n\n    /// @dev A mapping from user address to points\n    mapping (address => int256) public userToPoints;\n\n    // Here we store the names. Make it public to automatically generate an\n    // accessor function named 'users' that takes a fixed-length string as argument.\n    mapping (bytes32 => address) public users;\n\n\n    // Initialise contract with the owner taking all three roles\n    // These can later be transferred to the right person\n    function MeetupBase() public {\n        organiserAddress = msg.sender;\n        assistantAddress_1 = msg.sender;\n        assistantAddress_2 = msg.sender;\n    }\n\n    // Register the provided name with the caller address.\n    // Also, we don't want them to register \"\" as their name.\n    function registerUser(bytes32 name) public {\n        require(\n            msg.sender == users[name] ||\n            msg.sender == organiserAddress ||\n            msg.sender == assistantAddress_1 ||\n            msg.sender == assistantAddress_2\n        );\n        \n        if(users[name] == 0 && name != \"\"){\n            users[name] = msg.sender;\n        }\n    }\n\n    // Unregister the provided name with the caller address.\n    function unregisterUser(bytes32 name) public {        \n        if(users[name] != 0 && name != \"\"){\n            users[name] = 0x0;\n        }\n    }\n\n    // @param _timeUntilMeetup Time until the scheduled meeting start time\n    // @param _maxCapacity Maximum capacity of the meeting.\n    // @param _presenters Addresses of presenters.\n    function createMeetup (            \n        uint64 _timeUntilMeetup,        \n        uint8 _maxCapacity,       \n        address[] _presenters\n    )\n        public\n        onlyAssistant() \n        returns (uint256)\n    {\n\n        address[] memory _registrationList = _presenters;\n        \n        Meetup memory _meetup = Meetup({            \n            birthTime: uint64(now),\n            startTime: uint64(now + _timeUntilMeetup),            \n            maxCapacity: _maxCapacity,\n            presenters: _presenters,\n            registrationList: _registrationList\n        });\n\n        uint256 newMeetupId = meetups.push(_meetup) - 1 ;\n\n        // emit the birth event\n        Birth(_timeUntilMeetup, _maxCapacity);\n\n        return newMeetupId;\n    }\n\n    function joinNextMeetup (bytes32 _userName)\n        public        \n        // returns (bool)\n    {\n        require(users[_userName] == msg.sender);\n        require(users[_userName] != address(0));        \n\n        uint256 _meetupId = meetups.length - 1;\n        Meetup storage _meetup = meetups[_meetupId];\n\n        // Can't join a meetup that has already started.\n        require(now < _meetup.startTime);        \n\n        // Can't join twice\n        for (uint i = 0; i < _meetup.registrationList.length; i++) {\n            if (_meetup.registrationList[i] == msg.sender) {\n                revert();\n            }\n        }      \n\n        \n        _meetup.registrationList.push(msg.sender);\n\n    }\n\n    function getMeetupCount () public view returns (uint256) {\n        return meetups.length;\n    }\n  \n\n}\n\n\n\n\n\n// list of meetup members: \n// http://api.meetup.com/BokkyPooBahs-Ethereum-Workshop/members",
  "sourcePath": "/home/zeming/work/blockchain/meetup-queue/react-uport/contracts/MeetupBase.sol",
  "compiler": {
    "name": "solc",
    "version": "0.4.18+commit.9cf6e910.Emscripten.clang"
  },
  "schemaVersion": "1.0.1",
  "updatedAt": "2018-03-17T10:42:26.388Z"
}