{
  "contractName": "MeetupBase",
  "abi": [
    {
      "constant": true,
      "inputs": [],
      "name": "organiserAddress",
      "outputs": [
        {
          "name": "",
          "type": "address"
        }
      ],
      "payable": false,
      "stateMutability": "view",
      "type": "function"
    },
    {
      "constant": true,
      "inputs": [],
      "name": "getWinningFood",
      "outputs": [
        {
          "name": "winningFood_",
          "type": "bytes32"
        }
      ],
      "payable": false,
      "stateMutability": "view",
      "type": "function"
    },
    {
      "constant": true,
      "inputs": [
        {
          "name": "",
          "type": "address"
        }
      ],
      "name": "addressToPoints",
      "outputs": [
        {
          "name": "",
          "type": "uint256"
        }
      ],
      "payable": false,
      "stateMutability": "view",
      "type": "function"
    },
    {
      "constant": false,
      "inputs": [
        {
          "name": "name",
          "type": "bytes32"
        }
      ],
      "name": "registerUser",
      "outputs": [],
      "payable": false,
      "stateMutability": "nonpayable",
      "type": "function"
    },
    {
      "constant": true,
      "inputs": [
        {
          "name": "",
          "type": "uint256"
        }
      ],
      "name": "users",
      "outputs": [
        {
          "name": "userCreateTime",
          "type": "uint64"
        },
        {
          "name": "userAddress",
          "type": "address"
        },
        {
          "name": "userName",
          "type": "bytes32"
        },
        {
          "name": "userPoints",
          "type": "uint256"
        },
        {
          "name": "hasDeregistered",
          "type": "bool"
        }
      ],
      "payable": false,
      "stateMutability": "view",
      "type": "function"
    },
    {
      "constant": true,
      "inputs": [
        {
          "name": "",
          "type": "uint256"
        }
      ],
      "name": "meetups",
      "outputs": [
        {
          "name": "createTime",
          "type": "uint64"
        },
        {
          "name": "startTime",
          "type": "uint64"
        },
        {
          "name": "maxCapacity",
          "type": "uint8"
        }
      ],
      "payable": false,
      "stateMutability": "view",
      "type": "function"
    },
    {
      "constant": false,
      "inputs": [],
      "name": "unpause",
      "outputs": [],
      "payable": false,
      "stateMutability": "nonpayable",
      "type": "function"
    },
    {
      "constant": true,
      "inputs": [
        {
          "name": "i",
          "type": "uint256"
        }
      ],
      "name": "getRegistrationList",
      "outputs": [
        {
          "name": "",
          "type": "uint256[]"
        }
      ],
      "payable": false,
      "stateMutability": "view",
      "type": "function"
    },
    {
      "constant": false,
      "inputs": [
        {
          "name": "_id",
          "type": "uint256"
        }
      ],
      "name": "deregisterUser",
      "outputs": [
        {
          "name": "",
          "type": "bool"
        }
      ],
      "payable": false,
      "stateMutability": "nonpayable",
      "type": "function"
    },
    {
      "constant": true,
      "inputs": [],
      "name": "getMeetupCount",
      "outputs": [
        {
          "name": "",
          "type": "uint256"
        }
      ],
      "payable": false,
      "stateMutability": "view",
      "type": "function"
    },
    {
      "constant": false,
      "inputs": [
        {
          "name": "_food",
          "type": "bytes32"
        }
      ],
      "name": "joinNextMeetup",
      "outputs": [],
      "payable": false,
      "stateMutability": "nonpayable",
      "type": "function"
    },
    {
      "constant": true,
      "inputs": [
        {
          "name": "i",
          "type": "uint256"
        }
      ],
      "name": "getRegisteredUserNames",
      "outputs": [
        {
          "name": "",
          "type": "bytes32[]"
        }
      ],
      "payable": false,
      "stateMutability": "view",
      "type": "function"
    },
    {
      "constant": true,
      "inputs": [],
      "name": "getFoodOptionCount",
      "outputs": [
        {
          "name": "",
          "type": "uint256"
        }
      ],
      "payable": false,
      "stateMutability": "view",
      "type": "function"
    },
    {
      "constant": true,
      "inputs": [
        {
          "name": "",
          "type": "bytes32"
        }
      ],
      "name": "userToAddress",
      "outputs": [
        {
          "name": "",
          "type": "address"
        }
      ],
      "payable": false,
      "stateMutability": "view",
      "type": "function"
    },
    {
      "constant": false,
      "inputs": [
        {
          "name": "_newAssistant",
          "type": "address"
        }
      ],
      "name": "setAssistant_1",
      "outputs": [],
      "payable": false,
      "stateMutability": "nonpayable",
      "type": "function"
    },
    {
      "constant": true,
      "inputs": [
        {
          "name": "i",
          "type": "uint256"
        }
      ],
      "name": "getPresenters",
      "outputs": [
        {
          "name": "",
          "type": "uint256[]"
        }
      ],
      "payable": false,
      "stateMutability": "view",
      "type": "function"
    },
    {
      "constant": false,
      "inputs": [],
      "name": "pause",
      "outputs": [],
      "payable": false,
      "stateMutability": "nonpayable",
      "type": "function"
    },
    {
      "constant": false,
      "inputs": [
        {
          "name": "_startTime",
          "type": "uint64"
        },
        {
          "name": "_maxCapacity",
          "type": "uint8"
        },
        {
          "name": "_presenters",
          "type": "uint256[]"
        },
        {
          "name": "_food",
          "type": "bytes32"
        }
      ],
      "name": "createMeetup",
      "outputs": [
        {
          "name": "",
          "type": "uint256"
        }
      ],
      "payable": false,
      "stateMutability": "nonpayable",
      "type": "function"
    },
    {
      "constant": false,
      "inputs": [
        {
          "name": "_newOrganiser",
          "type": "address"
        }
      ],
      "name": "setOrganiser",
      "outputs": [],
      "payable": false,
      "stateMutability": "nonpayable",
      "type": "function"
    },
    {
      "constant": true,
      "inputs": [
        {
          "name": "",
          "type": "uint256"
        }
      ],
      "name": "foodOptions",
      "outputs": [
        {
          "name": "",
          "type": "bytes32"
        }
      ],
      "payable": false,
      "stateMutability": "view",
      "type": "function"
    },
    {
      "constant": false,
      "inputs": [
        {
          "name": "_userName",
          "type": "bytes32"
        }
      ],
      "name": "createUser",
      "outputs": [
        {
          "name": "",
          "type": "uint256"
        }
      ],
      "payable": false,
      "stateMutability": "nonpayable",
      "type": "function"
    },
    {
      "constant": true,
      "inputs": [
        {
          "name": "_id",
          "type": "uint256"
        }
      ],
      "name": "getUser",
      "outputs": [
        {
          "name": "userCreateTime",
          "type": "uint64"
        },
        {
          "name": "userAddress",
          "type": "address"
        },
        {
          "name": "userName",
          "type": "bytes32"
        },
        {
          "name": "userPoints",
          "type": "uint256"
        },
        {
          "name": "hasDeregistered",
          "type": "bool"
        }
      ],
      "payable": false,
      "stateMutability": "view",
      "type": "function"
    },
    {
      "constant": true,
      "inputs": [
        {
          "name": "",
          "type": "bytes32"
        }
      ],
      "name": "foodToVotes",
      "outputs": [
        {
          "name": "",
          "type": "uint8"
        }
      ],
      "payable": false,
      "stateMutability": "view",
      "type": "function"
    },
    {
      "constant": true,
      "inputs": [],
      "name": "assistantAddress_1",
      "outputs": [
        {
          "name": "",
          "type": "address"
        }
      ],
      "payable": false,
      "stateMutability": "view",
      "type": "function"
    },
    {
      "constant": false,
      "inputs": [
        {
          "name": "_food",
          "type": "bytes32"
        }
      ],
      "name": "removeFoodOption",
      "outputs": [],
      "payable": false,
      "stateMutability": "nonpayable",
      "type": "function"
    },
    {
      "constant": false,
      "inputs": [
        {
          "name": "_newAssistant",
          "type": "address"
        }
      ],
      "name": "setAssistant_2",
      "outputs": [],
      "payable": false,
      "stateMutability": "nonpayable",
      "type": "function"
    },
    {
      "constant": true,
      "inputs": [],
      "name": "assistantAddress_2",
      "outputs": [
        {
          "name": "",
          "type": "address"
        }
      ],
      "payable": false,
      "stateMutability": "view",
      "type": "function"
    },
    {
      "constant": false,
      "inputs": [],
      "name": "leaveNextMeetup",
      "outputs": [],
      "payable": false,
      "stateMutability": "nonpayable",
      "type": "function"
    },
    {
      "constant": true,
      "inputs": [
        {
          "name": "",
          "type": "address"
        }
      ],
      "name": "addressToUser",
      "outputs": [
        {
          "name": "",
          "type": "bytes32"
        }
      ],
      "payable": false,
      "stateMutability": "view",
      "type": "function"
    },
    {
      "constant": false,
      "inputs": [
        {
          "name": "_food",
          "type": "bytes32"
        }
      ],
      "name": "addFoodOption",
      "outputs": [],
      "payable": false,
      "stateMutability": "nonpayable",
      "type": "function"
    },
    {
      "inputs": [],
      "payable": false,
      "stateMutability": "nonpayable",
      "type": "constructor"
    },
    {
      "anonymous": false,
      "inputs": [
        {
          "indexed": false,
          "name": "startTime",
          "type": "uint64"
        },
        {
          "indexed": false,
          "name": "maxCapacity",
          "type": "uint8"
        }
      ],
      "name": "MeeupEventCreated",
      "type": "event"
    },
    {
      "anonymous": false,
      "inputs": [
        {
          "indexed": false,
          "name": "userCreateTime",
          "type": "uint64"
        },
        {
          "indexed": false,
          "name": "userId",
          "type": "uint256"
        },
        {
          "indexed": false,
          "name": "userName",
          "type": "bytes32"
        }
      ],
      "name": "UserCreated",
      "type": "event"
    }
  ],
  "bytecode": "0x60606040526000600260146101000a81548160ff02191690831515021790555034156200002b57600080fd5b336000806101000a81548173ffffffffffffffffffffffffffffffffffffffff021916908373ffffffffffffffffffffffffffffffffffffffff16021790555033600160006101000a81548173ffffffffffffffffffffffffffffffffffffffff021916908373ffffffffffffffffffffffffffffffffffffffff16021790555033600260006101000a81548173ffffffffffffffffffffffffffffffffffffffff021916908373ffffffffffffffffffffffffffffffffffffffff16021790555060c0604051908101604052807f6e6f7468696e6700000000000000000000000000000000000000000000000000600019166000191681526020017f70697a7a610000000000000000000000000000000000000000000000000000006000191681526020017f73757368690000000000000000000000000000000000000000000000000000006000191681526020017f73616c61640000000000000000000000000000000000000000000000000000006000191681526020017f62757269746f00000000000000000000000000000000000000000000000000006000191681526020017f73756277617900000000000000000000000000000000000000000000000000006000191681525060089060066200020992919062000210565b5062000290565b82805482825590600052602060002090810192821562000255579160200282015b828111156200025457825182906000191690559160200191906001019062000231565b5b50905062000264919062000268565b5090565b6200028d91905b80821115620002895760008160009055506001016200026f565b5090565b90565b612b2780620002a06000396000f300606060405260043610610180576000357c0100000000000000000000000000000000000000000000000000000000900463ffffffff16806304e3c9b8146101855780630e71ff88146101da578063131b745e1461020b5780632dc0325914610258578063365b98b21461027f57806337026ae11461031e5780633f4ba83a14610391578063430f1915146103a6578063516a55741461041e578063539f7fb71461045957806353a81dcc146104825780635bf79001146104a95780636160b3b3146105215780636c88beeb1461054a57806377bdfc57146105b157806379c685e2146105ea5780638456cb59146106625780638a7d6d1a146106775780638c4b0e7e14610711578063a3c6217b1461074a578063abf7bfd814610789578063b0467deb146107c4578063b3eea66a14610863578063c8ded43e146108a4578063d339b36d146108f9578063d923192714610920578063d92a174514610959578063e3ccbc59146109ae578063edf53886146109c3578063f9aa4d0814610a18575b600080fd5b341561019057600080fd5b610198610a3f565b604051808273ffffffffffffffffffffffffffffffffffffffff1673ffffffffffffffffffffffffffffffffffffffff16815260200191505060405180910390f35b34156101e557600080fd5b6101ed610a64565b60405180826000191660001916815260200191505060405180910390f35b341561021657600080fd5b610242600480803573ffffffffffffffffffffffffffffffffffffffff16906020019091905050610b8d565b6040518082815260200191505060405180910390f35b341561026357600080fd5b61027d600480803560001916906020019091905050610ba5565b005b341561028a57600080fd5b6102a06004808035906020019091905050610cfb565b604051808667ffffffffffffffff1667ffffffffffffffff1681526020018573ffffffffffffffffffffffffffffffffffffffff1673ffffffffffffffffffffffffffffffffffffffff1681526020018460001916600019168152602001838152602001821515151581526020019550505050505060405180910390f35b341561032957600080fd5b61033f6004808035906020019091905050610d81565b604051808467ffffffffffffffff1667ffffffffffffffff1681526020018367ffffffffffffffff1667ffffffffffffffff1681526020018260ff1660ff168152602001935050505060405180910390f35b341561039c57600080fd5b6103a4610def565b005b34156103b157600080fd5b6103c76004808035906020019091905050610e82565b6040518080602001828103825283818151815260200191508051906020019060200280838360005b8381101561040a5780820151818401526020810190506103ef565b505050509050019250505060405180910390f35b341561042957600080fd5b61043f6004808035906020019091905050610f00565b604051808215151515815260200191505060405180910390f35b341561046457600080fd5b61046c610fba565b6040518082815260200191505060405180910390f35b341561048d57600080fd5b6104a7600480803560001916906020019091905050610fc7565b005b34156104b457600080fd5b6104ca60048080359060200190919050506111c2565b6040518080602001828103825283818151815260200191508051906020019060200280838360005b8381101561050d5780820151818401526020810190506104f2565b505050509050019250505060405180910390f35b341561052c57600080fd5b610534611244565b6040518082815260200191505060405180910390f35b341561055557600080fd5b61056f600480803560001916906020019091905050611251565b604051808273ffffffffffffffffffffffffffffffffffffffff1673ffffffffffffffffffffffffffffffffffffffff16815260200191505060405180910390f35b34156105bc57600080fd5b6105e8600480803573ffffffffffffffffffffffffffffffffffffffff16906020019091905050611284565b005b34156105f557600080fd5b61060b600480803590602001909190505061140f565b6040518080602001828103825283818151815260200191508051906020019060200280838360005b8381101561064e578082015181840152602081019050610633565b505050509050019250505060405180910390f35b341561066d57600080fd5b61067561148d565b005b341561068257600080fd5b6106fb600480803567ffffffffffffffff1690602001909190803560ff1690602001909190803590602001908201803590602001908080602002602001604051908101604052809392919081815260200183836020028082843782019150505050505091908035600019169060200190919050506115d1565b6040518082815260200191505060405180910390f35b341561071c57600080fd5b610748600480803573ffffffffffffffffffffffffffffffffffffffff16906020019091905050611a41565b005b341561075557600080fd5b61076b6004808035906020019091905050611b1b565b60405180826000191660001916815260200191505060405180910390f35b341561079457600080fd5b6107ae600480803560001916906020019091905050611b3f565b6040518082815260200191505060405180910390f35b34156107cf57600080fd5b6107e56004808035906020019091905050611d21565b604051808667ffffffffffffffff1667ffffffffffffffff1681526020018573ffffffffffffffffffffffffffffffffffffffff1673ffffffffffffffffffffffffffffffffffffffff1681526020018460001916600019168152602001838152602001821515151581526020019550505050505060405180910390f35b341561086e57600080fd5b610888600480803560001916906020019091905050611db7565b604051808260ff1660ff16815260200191505060405180910390f35b34156108af57600080fd5b6108b7611dd7565b604051808273ffffffffffffffffffffffffffffffffffffffff1673ffffffffffffffffffffffffffffffffffffffff16815260200191505060405180910390f35b341561090457600080fd5b61091e600480803560001916906020019091905050611dfd565b005b341561092b57600080fd5b610957600480803573ffffffffffffffffffffffffffffffffffffffff16906020019091905050612042565b005b341561096457600080fd5b61096c6121cd565b604051808273ffffffffffffffffffffffffffffffffffffffff1673ffffffffffffffffffffffffffffffffffffffff16815260200191505060405180910390f35b34156109b957600080fd5b6109c16121f3565b005b34156109ce57600080fd5b6109fa600480803573ffffffffffffffffffffffffffffffffffffffff169060200190919050506123e7565b60405180826000191660001916815260200191505060405180910390f35b3415610a2357600080fd5b610a3d6004808035600019169060200190919050506123ff565b005b6000809054906101000a900473ffffffffffffffffffffffffffffffffffffffff1681565b6000806000809150600090505b600880549050811015610b88577f6e6f7468696e6700000000000000000000000000000000000000000000000000600882815481101515610aae57fe5b9060005260206000209001546000191614158015610b1057508160096000600884815481101515610adb57fe5b9060005260206000209001546000191660001916815260200190815260200160002060009054906101000a900460ff1660ff16115b15610b7b5760096000600883815481101515610b2857fe5b9060005260206000209001546000191660001916815260200190815260200160002060009054906101000a900460ff1660ff169150600881815481101515610b6c57fe5b90600052602060002090015492505b8080600101915050610a71565b505090565b60056020528060005260406000206000915090505481565b600060066000836000191660001916815260200190815260200160002060009054906101000a900473ffffffffffffffffffffffffffffffffffffffff1673ffffffffffffffffffffffffffffffffffffffff16148015610c0b57506000816000191614155b15610cf85780600760003373ffffffffffffffffffffffffffffffffffffffff1673ffffffffffffffffffffffffffffffffffffffff16815260200190815260200160002081600019169055503360066000836000191660001916815260200190815260200160002060006101000a81548173ffffffffffffffffffffffffffffffffffffffff021916908373ffffffffffffffffffffffffffffffffffffffff1602179055506064600560003373ffffffffffffffffffffffffffffffffffffffff1673ffffffffffffffffffffffffffffffffffffffff168152602001908152602001600020819055505b50565b600481815481101515610d0a57fe5b90600052602060002090600402016000915090508060000160009054906101000a900467ffffffffffffffff16908060000160089054906101000a900473ffffffffffffffffffffffffffffffffffffffff16908060010154908060020154908060030160009054906101000a900460ff16905085565b600381815481101515610d9057fe5b90600052602060002090600402016000915090508060000160009054906101000a900467ffffffffffffffff16908060000160089054906101000a900467ffffffffffffffff16908060000160109054906101000a900460ff16905083565b6000809054906101000a900473ffffffffffffffffffffffffffffffffffffffff1673ffffffffffffffffffffffffffffffffffffffff163373ffffffffffffffffffffffffffffffffffffffff16141515610e4a57600080fd5b600260149054906101000a900460ff161515610e6557600080fd5b6000600260146101000a81548160ff021916908315150217905550565b610e8a612698565b600382815481101515610e9957fe5b9060005260206000209060040201600201805480602002602001604051908101604052809291908181526020018280548015610ef457602002820191906000526020600020905b815481526020019060010190808311610ee0575b50505050509050919050565b60003373ffffffffffffffffffffffffffffffffffffffff16600483815481101515610f2857fe5b906000526020600020906004020160000160089054906101000a900473ffffffffffffffffffffffffffffffffffffffff1673ffffffffffffffffffffffffffffffffffffffff16141515610f7c57600080fd5b6001600483815481101515610f8d57fe5b906000526020600020906004020160030160006101000a81548160ff021916908315150217905550919050565b6000600380549050905090565b6000806000806000806000610fda6125a1565b9650600095506000886000191614151515610ff457600080fd5b600094505b60088054905085101561104257876000191660088681548110151561101a57fe5b90600052602060002090015460001916141561103557600195505b8480600101955050610ff9565b85151561104e57600080fd5b6001600960008a6000191660001916815260200190815260200160002060008282829054906101000a900460ff160192506101000a81548160ff021916908360ff16021790555060016003805490500393506003848154811015156110af57fe5b906000526020600020906004020192508260000160089054906101000a900467ffffffffffffffff1667ffffffffffffffff16421015156110ef57600080fd5b600091505b82600201805490508210156111395786836002018381548110151561111557fe5b906000526020600020900154141561112c57600080fd5b81806001019250506110f4565b60048781548110151561114857fe5b906000526020600020906004020160010154905082600201805480600101828161117291906126ac565b91600052602060002090016000899091909150555082600301805480600101828161119d91906126d8565b9160005260206000209001600083909190915090600019169055505050505050505050565b6111ca612704565b6003828154811015156111d957fe5b906000526020600020906004020160030180548060200260200160405190810160405280929190818152602001828054801561123857602002820191906000526020600020905b81546000191681526020019060010190808311611220575b50505050509050919050565b6000600880549050905090565b60066020528060005260406000206000915054906101000a900473ffffffffffffffffffffffffffffffffffffffff1681565b6000809054906101000a900473ffffffffffffffffffffffffffffffffffffffff1673ffffffffffffffffffffffffffffffffffffffff163373ffffffffffffffffffffffffffffffffffffffff16148061132c5750600160009054906101000a900473ffffffffffffffffffffffffffffffffffffffff1673ffffffffffffffffffffffffffffffffffffffff163373ffffffffffffffffffffffffffffffffffffffff16145b806113845750600260009054906101000a900473ffffffffffffffffffffffffffffffffffffffff1673ffffffffffffffffffffffffffffffffffffffff163373ffffffffffffffffffffffffffffffffffffffff16145b151561138f57600080fd5b600073ffffffffffffffffffffffffffffffffffffffff168173ffffffffffffffffffffffffffffffffffffffff16141515156113cb57600080fd5b80600160006101000a81548173ffffffffffffffffffffffffffffffffffffffff021916908373ffffffffffffffffffffffffffffffffffffffff16021790555050565b611417612698565b60038281548110151561142657fe5b906000526020600020906004020160010180548060200260200160405190810160405280929190818152602001828054801561148157602002820191906000526020600020905b81548152602001906001019080831161146d575b50505050509050919050565b6000809054906101000a900473ffffffffffffffffffffffffffffffffffffffff1673ffffffffffffffffffffffffffffffffffffffff163373ffffffffffffffffffffffffffffffffffffffff1614806115355750600160009054906101000a900473ffffffffffffffffffffffffffffffffffffffff1673ffffffffffffffffffffffffffffffffffffffff163373ffffffffffffffffffffffffffffffffffffffff16145b8061158d5750600260009054906101000a900473ffffffffffffffffffffffffffffffffffffffff1673ffffffffffffffffffffffffffffffffffffffff163373ffffffffffffffffffffffffffffffffffffffff16145b151561159857600080fd5b600260149054906101000a900460ff161515156115b457600080fd5b6001600260146101000a81548160ff021916908315150217905550565b60008060006115de612698565b6115e6612704565b60006115f0612718565b60008060009054906101000a900473ffffffffffffffffffffffffffffffffffffffff1673ffffffffffffffffffffffffffffffffffffffff163373ffffffffffffffffffffffffffffffffffffffff16148061169a5750600160009054906101000a900473ffffffffffffffffffffffffffffffffffffffff1673ffffffffffffffffffffffffffffffffffffffff163373ffffffffffffffffffffffffffffffffffffffff16145b806116f25750600260009054906101000a900473ffffffffffffffffffffffffffffffffffffffff1673ffffffffffffffffffffffffffffffffffffffff163373ffffffffffffffffffffffffffffffffffffffff16145b15156116fd57600080fd5b60009650600089600019161415151561171557600080fd5b600095505b60088054905086101561176357886000191660088781548110151561173b57fe5b90600052602060002090015460001916141561175657600196505b858060010196505061171a565b86151561176f57600080fd5b6001600960008b6000191660001916815260200190815260200160002060008282829054906101000a900460ff160192506101000a81548160ff021916908360ff1602179055504267ffffffffffffffff168c67ffffffffffffffff161115156117d857600080fd5b89518b60ff161115156117ea57600080fd5b89945089516040518059106117fc5750595b90808252806020026020018201604052509350600092505b89518310156118885760048a8481518110151561182d57fe5b9060200190602002015181548110151561184357fe5b906000526020600020906004020160010154848481518110151561186357fe5b9060200190602002019060001916908160001916815250508280600101935050611814565b60c0604051908101604052804267ffffffffffffffff1681526020018d67ffffffffffffffff1681526020018c60ff1681526020018b81526020018681526020018581525091506001600380548060010182816118e59190612778565b9160005260206000209060040201600085909190915060008201518160000160006101000a81548167ffffffffffffffff021916908367ffffffffffffffff16021790555060208201518160000160086101000a81548167ffffffffffffffff021916908367ffffffffffffffff16021790555060408201518160000160106101000a81548160ff021916908360ff16021790555060608201518160010190805190602001906119969291906127aa565b5060808201518160020190805190602001906119b39291906127aa565b5060a08201518160030190805190602001906119d09291906127f7565b5050500390507fab0cb854bf4985f2a74779a5e848b4080deb126d0833eb6aa3239d5e1e663f568c8c604051808367ffffffffffffffff1667ffffffffffffffff1681526020018260ff1660ff1681526020019250505060405180910390a180975050505050505050949350505050565b6000809054906101000a900473ffffffffffffffffffffffffffffffffffffffff1673ffffffffffffffffffffffffffffffffffffffff163373ffffffffffffffffffffffffffffffffffffffff16141515611a9c57600080fd5b600073ffffffffffffffffffffffffffffffffffffffff168173ffffffffffffffffffffffffffffffffffffffff1614151515611ad857600080fd5b806000806101000a81548173ffffffffffffffffffffffffffffffffffffffff021916908373ffffffffffffffffffffffffffffffffffffffff16021790555050565b600881815481101515611b2a57fe5b90600052602060002090016000915090505481565b6000611b4961284a565b6000803373ffffffffffffffffffffffffffffffffffffffff1614158015611b7657506000846000191614155b1515611b8157600080fd5b60a0604051908101604052804267ffffffffffffffff1681526020013373ffffffffffffffffffffffffffffffffffffffff1681526020018560001916815260200160648152602001600015158152509150600160048054806001018281611be9919061289f565b9160005260206000209060040201600085909190915060008201518160000160006101000a81548167ffffffffffffffff021916908367ffffffffffffffff16021790555060208201518160000160086101000a81548173ffffffffffffffffffffffffffffffffffffffff021916908373ffffffffffffffffffffffffffffffffffffffff160217905550604082015181600101906000191690556060820151816002015560808201518160030160006101000a81548160ff02191690831515021790555050500390507f76132e572dfc008b139657cf5c9ddbed5df48e5d9eac3df431a8dc6653d6683f428286604051808467ffffffffffffffff1667ffffffffffffffff1681526020018381526020018260001916600019168152602001935050505060405180910390a18092505050919050565b600080600080600080600487815481101515611d3957fe5b906000526020600020906004020190508060000160009054906101000a900467ffffffffffffffff1695508060000160089054906101000a900473ffffffffffffffffffffffffffffffffffffffff16945080600101549350806002015492508060030160009054906101000a900460ff1691505091939590929450565b60096020528060005260406000206000915054906101000a900460ff1681565b600160009054906101000a900473ffffffffffffffffffffffffffffffffffffffff1681565b6000806000809054906101000a900473ffffffffffffffffffffffffffffffffffffffff1673ffffffffffffffffffffffffffffffffffffffff163373ffffffffffffffffffffffffffffffffffffffff161480611ea85750600160009054906101000a900473ffffffffffffffffffffffffffffffffffffffff1673ffffffffffffffffffffffffffffffffffffffff163373ffffffffffffffffffffffffffffffffffffffff16145b80611f005750600260009054906101000a900473ffffffffffffffffffffffffffffffffffffffff1673ffffffffffffffffffffffffffffffffffffffff163373ffffffffffffffffffffffffffffffffffffffff16145b1515611f0b57600080fd5b6000836000191614158015611f4457507f6e6f7468696e6700000000000000000000000000000000000000000000000000836000191614155b1515611f4f57600080fd5b60009150600090505b600880549050811015612031578260001916600882815481101515611f7957fe5b906000526020600020900154600019161415612024576001915060016008805490501115612023576008600160088054905003815481101515611fb857fe5b906000526020600020900154600882815481101515611fd357fe5b906000526020600020900181600019169055506008600160088054905003815481101515611ffd57fe5b906000526020600020900160009055600880548091906001900361202191906128d1565b505b5b8080600101915050611f58565b81151561203d57600080fd5b505050565b6000809054906101000a900473ffffffffffffffffffffffffffffffffffffffff1673ffffffffffffffffffffffffffffffffffffffff163373ffffffffffffffffffffffffffffffffffffffff1614806120ea5750600160009054906101000a900473ffffffffffffffffffffffffffffffffffffffff1673ffffffffffffffffffffffffffffffffffffffff163373ffffffffffffffffffffffffffffffffffffffff16145b806121425750600260009054906101000a900473ffffffffffffffffffffffffffffffffffffffff1673ffffffffffffffffffffffffffffffffffffffff163373ffffffffffffffffffffffffffffffffffffffff16145b151561214d57600080fd5b600073ffffffffffffffffffffffffffffffffffffffff168173ffffffffffffffffffffffffffffffffffffffff161415151561218957600080fd5b80600260006101000a81548173ffffffffffffffffffffffffffffffffffffffff021916908373ffffffffffffffffffffffffffffffffffffffff16021790555050565b600260009054906101000a900473ffffffffffffffffffffffffffffffffffffffff1681565b60008060008060008260000160089054906101000a900467ffffffffffffffff1667ffffffffffffffff164210151561222b57600080fd5b6122336125a1565b9450600160038054905003935060038481548110151561224f57fe5b9060005260206000209060040201925060009150600090505b82600201805490508110156123d45784836002018281548110151561228957fe5b90600052602060002090015414156123c757600191506001836002018054905011156123c6578260020160018460020180549050038154811015156122ca57fe5b90600052602060002090015483600201828154811015156122e757fe5b90600052602060002090018190555082600301600184600201805490500381548110151561231157fe5b906000526020600020900154836003018281548110151561232e57fe5b9060005260206000209001816000191690555082600201600184600201805490500381548110151561235c57fe5b90600052602060002090016000905582600301600184600201805490500381548110151561238657fe5b906000526020600020900160009055826002018054809190600190036123ac91906128fd565b50826003018054809190600190036123c491906128d1565b505b5b8080600101915050612268565b8115156123e057600080fd5b5050505050565b60076020528060005260406000206000915090505481565b60008060009054906101000a900473ffffffffffffffffffffffffffffffffffffffff1673ffffffffffffffffffffffffffffffffffffffff163373ffffffffffffffffffffffffffffffffffffffff1614806124a95750600160009054906101000a900473ffffffffffffffffffffffffffffffffffffffff1673ffffffffffffffffffffffffffffffffffffffff163373ffffffffffffffffffffffffffffffffffffffff16145b806125015750600260009054906101000a900473ffffffffffffffffffffffffffffffffffffffff1673ffffffffffffffffffffffffffffffffffffffff163373ffffffffffffffffffffffffffffffffffffffff16145b151561250c57600080fd5b600082600019161415151561252057600080fd5b600090505b60088054905081101561256e57816000191660088281548110151561254657fe5b90600052602060002090015460001916141561256157600080fd5b8080600101915050612525565b6008805480600101828161258291906126d8565b9160005260206000209001600084909190915090600019169055505050565b60008060008060009250600090505b600480549050811015612683573373ffffffffffffffffffffffffffffffffffffffff166004828154811015156125e357fe5b906000526020600020906004020160000160089054906101000a900473ffffffffffffffffffffffffffffffffffffffff1673ffffffffffffffffffffffffffffffffffffffff1614801561266957506000151560048281548110151561264657fe5b906000526020600020906004020160030160009054906101000a900460ff161515145b1561267657600192508091505b80806001019150506125b0565b82151561268f57600080fd5b81935050505090565b602060405190810160405280600081525090565b8154818355818115116126d3578183600052602060002091820191016126d29190612929565b5b505050565b8154818355818115116126ff578183600052602060002091820191016126fe919061294e565b5b505050565b602060405190810160405280600081525090565b60c060405190810160405280600067ffffffffffffffff168152602001600067ffffffffffffffff168152602001600060ff168152602001612758612973565b8152602001612765612973565b8152602001612772612987565b81525090565b8154818355818115116127a5576004028160040283600052602060002091820191016127a4919061299b565b5b505050565b8280548282559060005260206000209081019282156127e6579160200282015b828111156127e55782518255916020019190600101906127ca565b5b5090506127f39190612929565b5090565b828054828255906000526020600020908101928215612839579160200282015b82811115612838578251829060001916905591602001919060010190612817565b5b509050612846919061294e565b5090565b60a060405190810160405280600067ffffffffffffffff168152602001600073ffffffffffffffffffffffffffffffffffffffff16815260200160008019168152602001600081526020016000151581525090565b8154818355818115116128cc576004028160040283600052602060002091820191016128cb9190612a34565b5b505050565b8154818355818115116128f8578183600052602060002091820191016128f7919061294e565b5b505050565b815481835581811511612924578183600052602060002091820191016129239190612929565b5b505050565b61294b91905b8082111561294757600081600090555060010161292f565b5090565b90565b61297091905b8082111561296c576000816000905550600101612954565b5090565b90565b602060405190810160405280600081525090565b602060405190810160405280600081525090565b612a3191905b80821115612a2d57600080820160006101000a81549067ffffffffffffffff02191690556000820160086101000a81549067ffffffffffffffff02191690556000820160106101000a81549060ff0219169055600182016000612a049190612ab9565b600282016000612a149190612ab9565b600382016000612a249190612ada565b506004016129a1565b5090565b90565b612ab691905b80821115612ab257600080820160006101000a81549067ffffffffffffffff02191690556000820160086101000a81549073ffffffffffffffffffffffffffffffffffffffff0219169055600182016000905560028201600090556003820160006101000a81549060ff021916905550600401612a3a565b5090565b90565b5080546000825590600052602060002090810190612ad79190612929565b50565b5080546000825590600052602060002090810190612af8919061294e565b505600a165627a7a7230582082ae47615d6109f7bba54c3daf089d4fc0792d03358049df84a3e7d9aa879aa70029",
  "source": "pragma solidity ^0.4.18;\n\nimport \"./MeetupAccessControl.sol\";\n\n/// @title Base contract for Meetup. Holds all common structs, events and base variables.\n\n// Based on\n// https://github.com/axiomzen/cryptokitties-bounty/blob/master/contracts/KittyBase.sol\n// https://monax.io/docs/solidity/solidity_1_the_five_types_model/\n\ncontract MeetupBase is MeetupAccessControl {\n    /*** EVENTS ***/\n\n    // @dev The Creation event is fired whenever a new meetup event comes into existence. \n    //      These meetup events are created by event organiser or assistants \n    event MeeupEventCreated(uint64 startTime, uint8 maxCapacity);\n    event UserCreated(uint64 userCreateTime, uint256 userId, bytes32 userName);\n\n\n    /*** DATA TYPES ***/\n\n    struct Meetup {\n        // The timestamp from the block when the meetup event is created.\n        uint64 createTime;\n\n        // The timestamp from the block when the meetup event is scheduled to start.\n        uint64 startTime;\n\n        // Capacity of the meeting.\n        uint8 maxCapacity;\n\n        // User ID of the presenters.\n        uint256[] presenters;\n\n        // User ID of people who register for the event.\n        // Only the top maxCapacity people will be able to enter.\n        // The rest will be on the waiting list.\n        uint256[] registrationList;\n\n        bytes32[] registeredUserNames;\n    }\n\n    struct User {\n        uint64 userCreateTime;\n        address userAddress;\n        bytes32 userName;\n        uint256 userPoints;\n        bool hasDeregistered;                \n    }\n\n    /*** STORAGE ***/\n\n    /// @dev An array containing the Meetup struct for all Meetups in existence. \n    Meetup[] public meetups;\n\n    User[] public users;\n\n    /// @dev A mapping from user address to points\n    mapping (address => uint256) public addressToPoints;\n\n    // Here we store the names. Make it public to automatically generate an\n    // accessor function named 'users' that takes a fixed-length string as argument.\n    mapping (bytes32 => address) public userToAddress;\n    mapping (address => bytes32) public addressToUser;\n\n    /// @dev An array containing food options\n    bytes32[] public foodOptions;\n    // Mapping from food name to number of votes\n    mapping (bytes32 => uint8) public foodToVotes;\n\n\n\n\n    // Initialise contract with the owner taking all three roles\n    // These can later be transferred to the right person\n    function MeetupBase() public {\n        organiserAddress = msg.sender;\n        assistantAddress_1 = msg.sender;\n        assistantAddress_2 = msg.sender;\n        foodOptions = [bytes32(\"nothing\"), \"pizza\", \"sushi\", \"salad\", \"burito\", \"subway\"];\n    }\n\n\n    function createUser(bytes32 _userName) public returns (uint256) {\n        require(msg.sender != 0 && _userName != \"\");\n\n        User memory _user = User({\n            userCreateTime: uint64(now),\n            userAddress: msg.sender,\n            userName: _userName,\n            userPoints: 100,\n            hasDeregistered: false  \n        });\n\n        uint256 userId = users.push(_user) - 1 ;\n        UserCreated(uint64(now), userId, _userName);\n        return userId;\n    }\n\n    function deregisterUser(uint256 _id) public returns (bool) {\n        require(users[_id].userAddress == msg.sender);        \n        users[_id].hasDeregistered = true;\n    }\n\n    /// @notice Returns all the relevant information about a specific user.\n    /// @param _id The ID of the user of interest.\n    function getUser(uint256 _id)\n        public\n        view\n        returns (\n        uint64 userCreateTime,\n        address userAddress,\n        bytes32 userName,\n        uint256 userPoints,\n        bool hasDeregistered\n    ) {\n        User storage user = users[_id];\n        \n        userCreateTime = user.userCreateTime;\n        userAddress = user.userAddress;\n        userName = user.userName;\n        userPoints = user.userPoints;\n        hasDeregistered = user.hasDeregistered;        \n    }\n\n    // Register the provided name with the caller address.\n    // Also, we don't want them to register \"\" as their name.\n    function registerUser(bytes32 name) public {\n        // require(\n        //     msg.sender == userToAddress[name] ||\n        //     msg.sender == organiserAddress ||\n        //     msg.sender == assistantAddress_1 ||\n        //     msg.sender == assistantAddress_2\n        // );\n        \n        if(userToAddress[name] == 0 && name != \"\"){\n            addressToUser[msg.sender] = name;\n            userToAddress[name] = msg.sender;            \n            addressToPoints[msg.sender] = 100;\n        }\n    }\n\n    // // Deregister the provided name with the caller address.\n    // // Only user him/herself or assistants can deregister a user\n    // function deregisterUser(bytes32 name) public onlyAssistant {        \n    //     // require(\n    //     //     msg.sender == users[name] ||\n    //     //     msg.sender == organiserAddress ||\n    //     //     msg.sender == assistantAddress_1 ||\n    //     //     msg.sender == assistantAddress_2\n    //     // );\n    //     if(userToAddress[name] != 0 && name != \"\"){\n    //         addressToUser[msg.sender] = \"\";\n    //         userToAddress[name] = 0x0;\n    //     }\n    // }\n\n    function addFoodOption(bytes32 _food) public onlyAssistant {\n        require(_food != '');\n\n        // Can't add the same food twice\n        for (uint i = 0; i < foodOptions.length; i++) {\n            if (foodOptions[i] == _food) {\n                revert();\n            }\n        }\n\n        foodOptions.push(_food);\n    }\n\n    function removeFoodOption(bytes32 _food) public onlyAssistant {\n        require(_food != '' && _food != 'nothing');\n\n        // Has to be in the food option list to be removed\n        bool isListedFood = false;\n        for (uint i = 0; i < foodOptions.length; i++) {\n            if (foodOptions[i] == _food) {\n                isListedFood = true;\n\n                // can't remove the food option if there's only one option left!\n                if (foodOptions.length > 1) {\n                    // shift the last entry to the deleted entry\n                    foodOptions[i] = foodOptions[foodOptions.length-1];                    \n\n                    // delete the last entry\n                    delete(foodOptions[foodOptions.length-1]);                    \n\n                    // update length\n                    foodOptions.length--;                    \n                }                \n            }\n        }      \n        require(isListedFood);\n    }\n\n    /// @dev Computes the winning food option taking all\n    /// previous votes into account.\n    function getWinningFood() public view\n            returns (bytes32 winningFood_)\n    {\n        uint winningVoteCount = 0;\n        for (uint p = 0; p < foodOptions.length; p++) {\n            if (foodOptions[p] != \"nothing\" &&\n                foodToVotes[foodOptions[p]] > winningVoteCount) {\n                winningVoteCount = foodToVotes[foodOptions[p]];\n                winningFood_ = foodOptions[p];\n            }\n        }\n    }\n\n\n    // @param _timeUntilMeetup Time until the scheduled meeting start time\n    // @param _maxCapacity Maximum capacity of the meeting.\n    // @param _presenters Addresses of presenters.\n    // @param _food food voted by the creator\n    function createMeetup (            \n        uint64 _startTime,        \n        uint8 _maxCapacity,       \n        uint256[] _presenters,\n        bytes32 _food\n    )\n        public\n        onlyAssistant() \n        returns (uint256)\n    {\n        // Check if the food option is valid\n        bool isValidFood = false;\n        require(_food != '');\n        for (uint j = 0; j < foodOptions.length; j++) {\n            if (foodOptions[j] == _food) {\n                isValidFood = true;\n            }\n        }\n        require(isValidFood);\n\n        foodToVotes[_food] += 1;\n\n\n        // Can't create a meetup in the past\n        require(uint64(_startTime) > uint64(now));\n\n        // Must have at least 1 extra spot\n        require(_maxCapacity > _presenters.length);\n\n        uint256[] memory _registrationList = _presenters;\n        bytes32[] memory _registeredUserNames = new bytes32[](_presenters.length);\n\n        // Map address to names\n        for (uint i = 0; i < _presenters.length; i++) {\n            // _registeredUserNames[i] = addressToUser[_presenters[i]];\n            _registeredUserNames[i] = users[_presenters[i]].userName;\n        }        \n\n        \n        Meetup memory _meetup = Meetup({            \n            createTime: uint64(now),\n            startTime: uint64(_startTime),\n            maxCapacity: _maxCapacity,\n            presenters: _presenters,\n            registrationList: _registrationList,\n            registeredUserNames: _registeredUserNames            \n        });\n\n        uint256 newMeetupId = meetups.push(_meetup) - 1 ;\n\n        // emit the meetup event creation event\n        MeeupEventCreated(_startTime, _maxCapacity);\n\n        return newMeetupId;\n    }\n\n\n\tfunction getPresenters(uint i) public view returns (uint256[]){\n\t\treturn meetups[i].presenters;\n\t}\n\n    function getRegistrationList(uint i) public view returns (uint256[]){\n        return meetups[i].registrationList;\n    }\n\n    function getRegisteredUserNames(uint i) public view returns (bytes32[]){\n        return meetups[i].registeredUserNames;\n    }\n\n    function getFoodOptionCount() public view returns (uint256) {\n        return foodOptions.length;\n    }\n\n\n    function getUserId() internal view returns (uint256) {\n      bool isValidUser = false;\n      uint256 userId;\n      for (uint i = 0; i < users.length; i++) {\n        if (users[i].userAddress == msg.sender && \n          users[i].hasDeregistered == false) {\n          isValidUser = true;\n          userId = i;\n        }\n      }  \n      require(isValidUser);\n\n      return userId;\n    }\n    \n    function joinNextMeetup(bytes32 _food)\n        public                \n        // returns (bool)\n    {\n        // require(userToAddress[_userName] == msg.sender);\n        // require(userToAddress[_userName] != address(0));        \n        // require(addressToUser[msg.sender] > 0);        \n        uint256 _userId = getUserId();\n\n        // Check if the food option is valid\n        bool isValidFood = false;\n        require(_food != '');\n        for (uint j = 0; j < foodOptions.length; j++) {\n            if (foodOptions[j] == _food) {\n                isValidFood = true;\n            }\n        }\n        require(isValidFood);\n\n        foodToVotes[_food] += 1;\n\n        uint256 _meetupId = meetups.length - 1;\n        Meetup storage _meetup = meetups[_meetupId];\n\n        // Can't join a meetup that has already started.\n        require(now < _meetup.startTime);        \n\n        // Can't join twice\n        for (uint i = 0; i < _meetup.registrationList.length; i++) {\n            if (_meetup.registrationList[i] == _userId) {\n                revert();\n            }\n        }      \n\n        // bytes32 _userName = addressToUser[msg.sender];\n        bytes32 _userName = users[_userId].userName;\n        _meetup.registrationList.push(_userId);\n        _meetup.registeredUserNames.push(_userName);\n\n        // deduct deposit\n        // addressToPoints[msg.sender] = addressToPoints[msg.sender] - 50;\n\n    }\n\n    function leaveNextMeetup ()\n        public           \n        // returns (bool)\n    {\n        // Can't leave a meetup that has already started.\n        require(now < _meetup.startTime);        \n\n        // Have to be a registered user\n        // require(addressToUser[msg.sender] > 0);        \n        uint256 _userId = getUserId();\n\n        uint256 _meetupId = meetups.length - 1;\n        Meetup storage _meetup = meetups[_meetupId];\n\n        // Have to be registered to leave\n        bool hasJoined = false;\n        for (uint i = 0; i < _meetup.registrationList.length; i++) {\n            if (_meetup.registrationList[i] == _userId) {\n                hasJoined = true;\n\n                // can't leave the meetup if there's only one person!\n                if (_meetup.registrationList.length > 1) {\n                    // shift the last entry to the deleted entry\n                    _meetup.registrationList[i] = _meetup.registrationList[_meetup.registrationList.length-1];\n                    _meetup.registeredUserNames[i] = _meetup.registeredUserNames[_meetup.registrationList.length-1];\n\n                    // delete the last entry\n                    delete(_meetup.registrationList[_meetup.registrationList.length-1]);\n                    delete(_meetup.registeredUserNames[_meetup.registrationList.length-1]);\n\n                    // update length\n                    _meetup.registrationList.length--;\n                    _meetup.registeredUserNames.length--;\n                }                \n            }\n        }      \n        require(hasJoined);\n    }\n\n    function getMeetupCount () public view returns (uint256) {\n        return meetups.length;\n    }\n  \n\n}\n\n\n\n\n\n// list of meetup members: \n// http://api.meetup.com/BokkyPooBahs-Ethereum-Workshop/members\n",
  "sourcePath": "/home/zeming/work/blockchain/meetup-queue/react-uport/contracts/MeetupBase.sol",
  "compiler": {
    "name": "solc",
    "version": "0.4.18+commit.9cf6e910.Emscripten.clang"
  },
  "schemaVersion": "1.0.1",
  "updatedAt": "2018-03-30T02:30:56.742Z"
}