{
  "contractName": "MeetupBase",
  "abi": [
    {
      "constant": true,
      "inputs": [],
      "name": "organiserAddress",
      "outputs": [
        {
          "name": "",
          "type": "address"
        }
      ],
      "payable": false,
      "stateMutability": "view",
      "type": "function"
    },
    {
      "constant": true,
      "inputs": [
        {
          "name": "",
          "type": "address"
        }
      ],
      "name": "userToPoints",
      "outputs": [
        {
          "name": "",
          "type": "int256"
        }
      ],
      "payable": false,
      "stateMutability": "view",
      "type": "function"
    },
    {
      "constant": false,
      "inputs": [
        {
          "name": "name",
          "type": "bytes32"
        }
      ],
      "name": "registerUser",
      "outputs": [],
      "payable": false,
      "stateMutability": "nonpayable",
      "type": "function"
    },
    {
      "constant": true,
      "inputs": [
        {
          "name": "",
          "type": "uint256"
        }
      ],
      "name": "meetups",
      "outputs": [
        {
          "name": "createTime",
          "type": "uint64"
        },
        {
          "name": "startTime",
          "type": "uint64"
        },
        {
          "name": "maxCapacity",
          "type": "uint8"
        }
      ],
      "payable": false,
      "stateMutability": "view",
      "type": "function"
    },
    {
      "constant": false,
      "inputs": [],
      "name": "unpause",
      "outputs": [],
      "payable": false,
      "stateMutability": "nonpayable",
      "type": "function"
    },
    {
      "constant": true,
      "inputs": [
        {
          "name": "i",
          "type": "uint256"
        }
      ],
      "name": "getRegistrationList",
      "outputs": [
        {
          "name": "",
          "type": "address[]"
        }
      ],
      "payable": false,
      "stateMutability": "view",
      "type": "function"
    },
    {
      "constant": false,
      "inputs": [
        {
          "name": "name",
          "type": "bytes32"
        }
      ],
      "name": "deregisterUser",
      "outputs": [],
      "payable": false,
      "stateMutability": "nonpayable",
      "type": "function"
    },
    {
      "constant": true,
      "inputs": [],
      "name": "getMeetupCount",
      "outputs": [
        {
          "name": "",
          "type": "uint256"
        }
      ],
      "payable": false,
      "stateMutability": "view",
      "type": "function"
    },
    {
      "constant": false,
      "inputs": [
        {
          "name": "_userName",
          "type": "bytes32"
        }
      ],
      "name": "joinNextMeetup",
      "outputs": [],
      "payable": false,
      "stateMutability": "nonpayable",
      "type": "function"
    },
    {
      "constant": true,
      "inputs": [
        {
          "name": "i",
          "type": "uint256"
        }
      ],
      "name": "getRegisteredUserNames",
      "outputs": [
        {
          "name": "",
          "type": "bytes32[]"
        }
      ],
      "payable": false,
      "stateMutability": "view",
      "type": "function"
    },
    {
      "constant": false,
      "inputs": [
        {
          "name": "_newAssistant",
          "type": "address"
        }
      ],
      "name": "setAssistant_1",
      "outputs": [],
      "payable": false,
      "stateMutability": "nonpayable",
      "type": "function"
    },
    {
      "constant": true,
      "inputs": [
        {
          "name": "i",
          "type": "uint256"
        }
      ],
      "name": "getPresenters",
      "outputs": [
        {
          "name": "",
          "type": "address[]"
        }
      ],
      "payable": false,
      "stateMutability": "view",
      "type": "function"
    },
    {
      "constant": false,
      "inputs": [],
      "name": "pause",
      "outputs": [],
      "payable": false,
      "stateMutability": "nonpayable",
      "type": "function"
    },
    {
      "constant": false,
      "inputs": [
        {
          "name": "_newOrganiser",
          "type": "address"
        }
      ],
      "name": "setOrganiser",
      "outputs": [],
      "payable": false,
      "stateMutability": "nonpayable",
      "type": "function"
    },
    {
      "constant": true,
      "inputs": [],
      "name": "assistantAddress_1",
      "outputs": [
        {
          "name": "",
          "type": "address"
        }
      ],
      "payable": false,
      "stateMutability": "view",
      "type": "function"
    },
    {
      "constant": true,
      "inputs": [
        {
          "name": "",
          "type": "bytes32"
        }
      ],
      "name": "users",
      "outputs": [
        {
          "name": "",
          "type": "address"
        }
      ],
      "payable": false,
      "stateMutability": "view",
      "type": "function"
    },
    {
      "constant": false,
      "inputs": [
        {
          "name": "_newAssistant",
          "type": "address"
        }
      ],
      "name": "setAssistant_2",
      "outputs": [],
      "payable": false,
      "stateMutability": "nonpayable",
      "type": "function"
    },
    {
      "constant": true,
      "inputs": [],
      "name": "assistantAddress_2",
      "outputs": [
        {
          "name": "",
          "type": "address"
        }
      ],
      "payable": false,
      "stateMutability": "view",
      "type": "function"
    },
    {
      "constant": true,
      "inputs": [
        {
          "name": "",
          "type": "address"
        }
      ],
      "name": "addressToUser",
      "outputs": [
        {
          "name": "",
          "type": "bytes32"
        }
      ],
      "payable": false,
      "stateMutability": "view",
      "type": "function"
    },
    {
      "constant": false,
      "inputs": [
        {
          "name": "_startTime",
          "type": "uint64"
        },
        {
          "name": "_maxCapacity",
          "type": "uint8"
        },
        {
          "name": "_presenters",
          "type": "address[]"
        }
      ],
      "name": "createMeetup",
      "outputs": [
        {
          "name": "",
          "type": "uint256"
        }
      ],
      "payable": false,
      "stateMutability": "nonpayable",
      "type": "function"
    },
    {
      "inputs": [],
      "payable": false,
      "stateMutability": "nonpayable",
      "type": "constructor"
    },
    {
      "anonymous": false,
      "inputs": [
        {
          "indexed": false,
          "name": "startTime",
          "type": "uint64"
        },
        {
          "indexed": false,
          "name": "maxCapacity",
          "type": "uint8"
        }
      ],
      "name": "Creation",
      "type": "event"
    }
  ],
  "bytecode": "0x60606040526000600260146101000a81548160ff021916908315150217905550341561002a57600080fd5b336000806101000a81548173ffffffffffffffffffffffffffffffffffffffff021916908373ffffffffffffffffffffffffffffffffffffffff16021790555033600160006101000a81548173ffffffffffffffffffffffffffffffffffffffff021916908373ffffffffffffffffffffffffffffffffffffffff16021790555033600260006101000a81548173ffffffffffffffffffffffffffffffffffffffff021916908373ffffffffffffffffffffffffffffffffffffffff160217905550611d18806100fb6000396000f300606060405260043610610112576000357c0100000000000000000000000000000000000000000000000000000000900463ffffffff16806304e3c9b8146101175780632ae6b1351461016c5780632dc03259146101b957806337026ae1146101e05780633f4ba83a14610253578063430f19151461026857806347546970146102e0578063539f7fb71461030757806353a81dcc146103305780635bf790011461035757806377bdfc57146103cf57806379c685e2146104085780638456cb59146104805780638c4b0e7e14610495578063c8ded43e146104ce578063cea6ab9814610523578063d92319271461058a578063d92a1745146105c3578063edf5388614610618578063f33a4c501461066d575b600080fd5b341561012257600080fd5b61012a6106fa565b604051808273ffffffffffffffffffffffffffffffffffffffff1673ffffffffffffffffffffffffffffffffffffffff16815260200191505060405180910390f35b341561017757600080fd5b6101a3600480803573ffffffffffffffffffffffffffffffffffffffff1690602001909190505061071f565b6040518082815260200191505060405180910390f35b34156101c457600080fd5b6101de600480803560001916906020019091905050610737565b005b34156101eb57600080fd5b6102016004808035906020019091905050610848565b604051808467ffffffffffffffff1667ffffffffffffffff1681526020018367ffffffffffffffff1667ffffffffffffffff1681526020018260ff1660ff168152602001935050505060405180910390f35b341561025e57600080fd5b6102666108b6565b005b341561027357600080fd5b6102896004808035906020019091905050610949565b6040518080602001828103825283818151815260200191508051906020019060200280838360005b838110156102cc5780820151818401526020810190506102b1565b505050509050019250505060405180910390f35b34156102eb57600080fd5b6103056004808035600019169060200190919050506109fd565b005b341561031257600080fd5b61031a610c1c565b6040518082815260200191505060405180910390f35b341561033b57600080fd5b610355600480803560001916906020019091905050610c29565b005b341561036257600080fd5b6103786004808035906020019091905050610ea6565b6040518080602001828103825283818151815260200191508051906020019060200280838360005b838110156103bb5780820151818401526020810190506103a0565b505050509050019250505060405180910390f35b34156103da57600080fd5b610406600480803573ffffffffffffffffffffffffffffffffffffffff16906020019091905050610f28565b005b341561041357600080fd5b61042960048080359060200190919050506110b3565b6040518080602001828103825283818151815260200191508051906020019060200280838360005b8381101561046c578082015181840152602081019050610451565b505050509050019250505060405180910390f35b341561048b57600080fd5b610493611167565b005b34156104a057600080fd5b6104cc600480803573ffffffffffffffffffffffffffffffffffffffff169060200190919050506112ab565b005b34156104d957600080fd5b6104e1611385565b604051808273ffffffffffffffffffffffffffffffffffffffff1673ffffffffffffffffffffffffffffffffffffffff16815260200191505060405180910390f35b341561052e57600080fd5b6105486004808035600019169060200190919050506113ab565b604051808273ffffffffffffffffffffffffffffffffffffffff1673ffffffffffffffffffffffffffffffffffffffff16815260200191505060405180910390f35b341561059557600080fd5b6105c1600480803573ffffffffffffffffffffffffffffffffffffffff169060200190919050506113de565b005b34156105ce57600080fd5b6105d6611569565b604051808273ffffffffffffffffffffffffffffffffffffffff1673ffffffffffffffffffffffffffffffffffffffff16815260200191505060405180910390f35b341561062357600080fd5b61064f600480803573ffffffffffffffffffffffffffffffffffffffff1690602001909190505061158f565b60405180826000191660001916815260200191505060405180910390f35b341561067857600080fd5b6106e4600480803567ffffffffffffffff1690602001909190803560ff16906020019091908035906020019082018035906020019080806020026020016040519081016040528093929190818152602001838360200280828437820191505050505050919050506115a7565b6040518082815260200191505060405180910390f35b6000809054906101000a900473ffffffffffffffffffffffffffffffffffffffff1681565b60046020528060005260406000206000915090505481565b600060056000836000191660001916815260200190815260200160002060009054906101000a900473ffffffffffffffffffffffffffffffffffffffff1673ffffffffffffffffffffffffffffffffffffffff1614801561079d57506000816000191614155b156108455780600660003373ffffffffffffffffffffffffffffffffffffffff1673ffffffffffffffffffffffffffffffffffffffff16815260200190815260200160002081600019169055503360056000836000191660001916815260200190815260200160002060006101000a81548173ffffffffffffffffffffffffffffffffffffffff021916908373ffffffffffffffffffffffffffffffffffffffff1602179055505b50565b60038181548110151561085757fe5b90600052602060002090600402016000915090508060000160009054906101000a900467ffffffffffffffff16908060000160089054906101000a900467ffffffffffffffff16908060000160109054906101000a900460ff16905083565b6000809054906101000a900473ffffffffffffffffffffffffffffffffffffffff1673ffffffffffffffffffffffffffffffffffffffff163373ffffffffffffffffffffffffffffffffffffffff1614151561091157600080fd5b600260149054906101000a900460ff16151561092c57600080fd5b6000600260146101000a81548160ff021916908315150217905550565b61095161196d565b60038281548110151561096057fe5b90600052602060002090600402016002018054806020026020016040519081016040528092919081815260200182805480156109f157602002820191906000526020600020905b8160009054906101000a900473ffffffffffffffffffffffffffffffffffffffff1673ffffffffffffffffffffffffffffffffffffffff16815260200190600101908083116109a7575b50505050509050919050565b6000809054906101000a900473ffffffffffffffffffffffffffffffffffffffff1673ffffffffffffffffffffffffffffffffffffffff163373ffffffffffffffffffffffffffffffffffffffff161480610aa55750600160009054906101000a900473ffffffffffffffffffffffffffffffffffffffff1673ffffffffffffffffffffffffffffffffffffffff163373ffffffffffffffffffffffffffffffffffffffff16145b80610afd5750600260009054906101000a900473ffffffffffffffffffffffffffffffffffffffff1673ffffffffffffffffffffffffffffffffffffffff163373ffffffffffffffffffffffffffffffffffffffff16145b1515610b0857600080fd5b600060056000836000191660001916815260200190815260200160002060009054906101000a900473ffffffffffffffffffffffffffffffffffffffff1673ffffffffffffffffffffffffffffffffffffffff1614158015610b6f57506000816000191614155b15610c19576000600660003373ffffffffffffffffffffffffffffffffffffffff1673ffffffffffffffffffffffffffffffffffffffff1681526020019081526020016000208160001916905550600060056000836000191660001916815260200190815260200160002060006101000a81548173ffffffffffffffffffffffffffffffffffffffff021916908373ffffffffffffffffffffffffffffffffffffffff1602179055505b50565b6000600380549050905090565b60008060003373ffffffffffffffffffffffffffffffffffffffff1660056000866000191660001916815260200190815260200160002060009054906101000a900473ffffffffffffffffffffffffffffffffffffffff1673ffffffffffffffffffffffffffffffffffffffff16141515610ca357600080fd5b600073ffffffffffffffffffffffffffffffffffffffff1660056000866000191660001916815260200190815260200160002060009054906101000a900473ffffffffffffffffffffffffffffffffffffffff1673ffffffffffffffffffffffffffffffffffffffff1614151515610d1a57600080fd5b6001600380549050039250600383815481101515610d3457fe5b906000526020600020906004020191508160000160089054906101000a900467ffffffffffffffff1667ffffffffffffffff1642101515610d7457600080fd5b600090505b8160020180549050811015610e0a573373ffffffffffffffffffffffffffffffffffffffff168260020182815481101515610db057fe5b906000526020600020900160009054906101000a900473ffffffffffffffffffffffffffffffffffffffff1673ffffffffffffffffffffffffffffffffffffffff161415610dfd57600080fd5b8080600101915050610d79565b816002018054806001018281610e209190611981565b9160005260206000209001600033909190916101000a81548173ffffffffffffffffffffffffffffffffffffffff021916908373ffffffffffffffffffffffffffffffffffffffff16021790555050816003018054806001018281610e8591906119ad565b91600052602060002090016000869091909150906000191690555050505050565b610eae6119d9565b600382815481101515610ebd57fe5b9060005260206000209060040201600301805480602002602001604051908101604052809291908181526020018280548015610f1c57602002820191906000526020600020905b81546000191681526020019060010190808311610f04575b50505050509050919050565b6000809054906101000a900473ffffffffffffffffffffffffffffffffffffffff1673ffffffffffffffffffffffffffffffffffffffff163373ffffffffffffffffffffffffffffffffffffffff161480610fd05750600160009054906101000a900473ffffffffffffffffffffffffffffffffffffffff1673ffffffffffffffffffffffffffffffffffffffff163373ffffffffffffffffffffffffffffffffffffffff16145b806110285750600260009054906101000a900473ffffffffffffffffffffffffffffffffffffffff1673ffffffffffffffffffffffffffffffffffffffff163373ffffffffffffffffffffffffffffffffffffffff16145b151561103357600080fd5b600073ffffffffffffffffffffffffffffffffffffffff168173ffffffffffffffffffffffffffffffffffffffff161415151561106f57600080fd5b80600160006101000a81548173ffffffffffffffffffffffffffffffffffffffff021916908373ffffffffffffffffffffffffffffffffffffffff16021790555050565b6110bb61196d565b6003828154811015156110ca57fe5b906000526020600020906004020160010180548060200260200160405190810160405280929190818152602001828054801561115b57602002820191906000526020600020905b8160009054906101000a900473ffffffffffffffffffffffffffffffffffffffff1673ffffffffffffffffffffffffffffffffffffffff1681526020019060010190808311611111575b50505050509050919050565b6000809054906101000a900473ffffffffffffffffffffffffffffffffffffffff1673ffffffffffffffffffffffffffffffffffffffff163373ffffffffffffffffffffffffffffffffffffffff16148061120f5750600160009054906101000a900473ffffffffffffffffffffffffffffffffffffffff1673ffffffffffffffffffffffffffffffffffffffff163373ffffffffffffffffffffffffffffffffffffffff16145b806112675750600260009054906101000a900473ffffffffffffffffffffffffffffffffffffffff1673ffffffffffffffffffffffffffffffffffffffff163373ffffffffffffffffffffffffffffffffffffffff16145b151561127257600080fd5b600260149054906101000a900460ff1615151561128e57600080fd5b6001600260146101000a81548160ff021916908315150217905550565b6000809054906101000a900473ffffffffffffffffffffffffffffffffffffffff1673ffffffffffffffffffffffffffffffffffffffff163373ffffffffffffffffffffffffffffffffffffffff1614151561130657600080fd5b600073ffffffffffffffffffffffffffffffffffffffff168173ffffffffffffffffffffffffffffffffffffffff161415151561134257600080fd5b806000806101000a81548173ffffffffffffffffffffffffffffffffffffffff021916908373ffffffffffffffffffffffffffffffffffffffff16021790555050565b600160009054906101000a900473ffffffffffffffffffffffffffffffffffffffff1681565b60056020528060005260406000206000915054906101000a900473ffffffffffffffffffffffffffffffffffffffff1681565b6000809054906101000a900473ffffffffffffffffffffffffffffffffffffffff1673ffffffffffffffffffffffffffffffffffffffff163373ffffffffffffffffffffffffffffffffffffffff1614806114865750600160009054906101000a900473ffffffffffffffffffffffffffffffffffffffff1673ffffffffffffffffffffffffffffffffffffffff163373ffffffffffffffffffffffffffffffffffffffff16145b806114de5750600260009054906101000a900473ffffffffffffffffffffffffffffffffffffffff1673ffffffffffffffffffffffffffffffffffffffff163373ffffffffffffffffffffffffffffffffffffffff16145b15156114e957600080fd5b600073ffffffffffffffffffffffffffffffffffffffff168173ffffffffffffffffffffffffffffffffffffffff161415151561152557600080fd5b80600260006101000a81548173ffffffffffffffffffffffffffffffffffffffff021916908373ffffffffffffffffffffffffffffffffffffffff16021790555050565b600260009054906101000a900473ffffffffffffffffffffffffffffffffffffffff1681565b60066020528060005260406000206000915090505481565b60006115b161196d565b6115b96119d9565b60006115c36119ed565b60008060009054906101000a900473ffffffffffffffffffffffffffffffffffffffff1673ffffffffffffffffffffffffffffffffffffffff163373ffffffffffffffffffffffffffffffffffffffff16148061166d5750600160009054906101000a900473ffffffffffffffffffffffffffffffffffffffff1673ffffffffffffffffffffffffffffffffffffffff163373ffffffffffffffffffffffffffffffffffffffff16145b806116c55750600260009054906101000a900473ffffffffffffffffffffffffffffffffffffffff1673ffffffffffffffffffffffffffffffffffffffff163373ffffffffffffffffffffffffffffffffffffffff16145b15156116d057600080fd5b8867ffffffffffffffff16421015156116e857600080fd5b86518860ff161115156116fa57600080fd5b869450865160405180591061170c5750595b90808252806020026020018201604052509350600092505b86518310156117b75760066000888581518110151561173f57fe5b9060200190602002015173ffffffffffffffffffffffffffffffffffffffff1673ffffffffffffffffffffffffffffffffffffffff16815260200190815260200160002054848481518110151561179257fe5b9060200190602002019060001916908160001916815250508280600101935050611724565b60c0604051908101604052804267ffffffffffffffff1681526020018a67ffffffffffffffff1681526020018960ff1681526020018881526020018681526020018581525091506001600380548060010182816118149190611a4d565b9160005260206000209060040201600085909190915060008201518160000160006101000a81548167ffffffffffffffff021916908367ffffffffffffffff16021790555060208201518160000160086101000a81548167ffffffffffffffff021916908367ffffffffffffffff16021790555060408201518160000160106101000a81548160ff021916908360ff16021790555060608201518160010190805190602001906118c5929190611a7f565b5060808201518160020190805190602001906118e2929190611a7f565b5060a08201518160030190805190602001906118ff929190611b09565b5050500390507f6c08c4f4120938bf9af43b49da6fa61eba64ebd2ffd368cbfb6bc9a7ab61bd168989604051808367ffffffffffffffff1667ffffffffffffffff1681526020018260ff1660ff1681526020019250505060405180910390a180955050505050509392505050565b602060405190810160405280600081525090565b8154818355818115116119a8578183600052602060002091820191016119a79190611b5c565b5b505050565b8154818355818115116119d4578183600052602060002091820191016119d39190611b81565b5b505050565b602060405190810160405280600081525090565b60c060405190810160405280600067ffffffffffffffff168152602001600067ffffffffffffffff168152602001600060ff168152602001611a2d611ba6565b8152602001611a3a611ba6565b8152602001611a47611bba565b81525090565b815481835581811511611a7a57600402816004028360005260206000209182019101611a799190611bce565b5b505050565b828054828255906000526020600020908101928215611af8579160200282015b82811115611af75782518260006101000a81548173ffffffffffffffffffffffffffffffffffffffff021916908373ffffffffffffffffffffffffffffffffffffffff16021790555091602001919060010190611a9f565b5b509050611b059190611c67565b5090565b828054828255906000526020600020908101928215611b4b579160200282015b82811115611b4a578251829060001916905591602001919060010190611b29565b5b509050611b589190611b81565b5090565b611b7e91905b80821115611b7a576000816000905550600101611b62565b5090565b90565b611ba391905b80821115611b9f576000816000905550600101611b87565b5090565b90565b602060405190810160405280600081525090565b602060405190810160405280600081525090565b611c6491905b80821115611c6057600080820160006101000a81549067ffffffffffffffff02191690556000820160086101000a81549067ffffffffffffffff02191690556000820160106101000a81549060ff0219169055600182016000611c379190611caa565b600282016000611c479190611caa565b600382016000611c579190611ccb565b50600401611bd4565b5090565b90565b611ca791905b80821115611ca357600081816101000a81549073ffffffffffffffffffffffffffffffffffffffff021916905550600101611c6d565b5090565b90565b5080546000825590600052602060002090810190611cc89190611b5c565b50565b5080546000825590600052602060002090810190611ce99190611b81565b505600a165627a7a72305820ca74f2b3be94a15a490644310aa97d282ff585865ff4b58dc4259a44868523e10029",
  "source": "pragma solidity ^0.4.18;\n\nimport \"./MeetupAccessControl.sol\";\n\n/// @title Base contract for Meetup. Holds all common structs, events and base variables.\n\n// Based on\n// https://github.com/axiomzen/cryptokitties-bounty/blob/master/contracts/KittyBase.sol\n// https://monax.io/docs/solidity/solidity_1_the_five_types_model/\n\ncontract MeetupBase is MeetupAccessControl {\n    /*** EVENTS ***/\n\n    // @dev The Creation event is fired whenever a new meetup event comes into existence. \n    //      These meetup events are created by event organiser or assistants \n    event Creation(uint64 startTime, uint8 maxCapacity);\n\n\n    /*** DATA TYPES ***/\n\n    struct Meetup {\n        // The timestamp from the block when the meetup event is created.\n        uint64 createTime;\n\n        // The timestamp from the block when the meetup event is scheduled to start.\n        uint64 startTime;\n\n        // Capacity of the meeting.\n        uint8 maxCapacity;\n\n        // Address of the presenters.\n        address[] presenters;\n\n        // Address of people who register for the event.\n        // Only the top maxCapacity people will be able to enter.\n        // The rest will be on the waiting list.\n        address[] registrationList;\n\n        bytes32[] registeredUserNames;\n    }\n\n    /*** STORAGE ***/\n\n    /// @dev An array containing the Meetup struct for all Meetups in existence. \n    Meetup[] public meetups;\n\n    /// @dev A mapping from user address to points\n    mapping (address => int256) public userToPoints;\n\n    // Here we store the names. Make it public to automatically generate an\n    // accessor function named 'users' that takes a fixed-length string as argument.\n    mapping (bytes32 => address) public users;\n    mapping (address => bytes32) public addressToUser;\n\n\n    // Initialise contract with the owner taking all three roles\n    // These can later be transferred to the right person\n    function MeetupBase() public {\n        organiserAddress = msg.sender;\n        assistantAddress_1 = msg.sender;\n        assistantAddress_2 = msg.sender;\n    }\n\n    // Register the provided name with the caller address.\n    // Also, we don't want them to register \"\" as their name.\n    function registerUser(bytes32 name) public {\n        // require(\n        //     msg.sender == users[name] ||\n        //     msg.sender == organiserAddress ||\n        //     msg.sender == assistantAddress_1 ||\n        //     msg.sender == assistantAddress_2\n        // );\n        \n        if(users[name] == 0 && name != \"\"){\n            addressToUser[msg.sender] = name;\n            users[name] = msg.sender;            \n        }\n    }\n\n    // Deregister the provided name with the caller address.\n    // Only user him/herself or assistants can deregister a user\n    function deregisterUser(bytes32 name) public onlyAssistant {        \n        // require(\n        //     msg.sender == users[name] ||\n        //     msg.sender == organiserAddress ||\n        //     msg.sender == assistantAddress_1 ||\n        //     msg.sender == assistantAddress_2\n        // );\n        if(users[name] != 0 && name != \"\"){\n            addressToUser[msg.sender] = \"\";\n            users[name] = 0x0;\n        }\n    }\n\n    // @param _timeUntilMeetup Time until the scheduled meeting start time\n    // @param _maxCapacity Maximum capacity of the meeting.\n    // @param _presenters Addresses of presenters.\n    function createMeetup (            \n        uint64 _startTime,        \n        uint8 _maxCapacity,       \n        address[] _presenters\n    )\n        public\n        onlyAssistant() \n        returns (uint256)\n    {\n\n        // Can't create a meetup in the past\n        require(now < _startTime);\n\n        // Must have at least 1 extra spot\n        require(_maxCapacity > _presenters.length);\n\n        address[] memory _registrationList = _presenters;\n        bytes32[] memory _registeredUserNames = new bytes32[](_presenters.length);\n\n        // Map address to names\n        for (uint i = 0; i < _presenters.length; i++) {\n            _registeredUserNames[i] = addressToUser[_presenters[i]];\n        }      \n        \n\n        \n        Meetup memory _meetup = Meetup({            \n            createTime: uint64(now),\n            startTime: uint64(_startTime),\n            maxCapacity: _maxCapacity,\n            presenters: _presenters,\n            registrationList: _registrationList,\n            registeredUserNames: _registeredUserNames\n        });\n\n        uint256 newMeetupId = meetups.push(_meetup) - 1 ;\n\n        // emit the creation event\n        Creation(_startTime, _maxCapacity);\n\n        return newMeetupId;\n    }\n\n\n\tfunction getPresenters(uint i) public view returns (address[]){\n\t\treturn meetups[i].presenters;\n\t}\n\n    function getRegistrationList(uint i) public view returns (address[]){\n        return meetups[i].registrationList;\n    }\n\n    function getRegisteredUserNames(uint i) public view returns (bytes32[]){\n        return meetups[i].registeredUserNames;\n    }\n\n\n    function joinNextMeetup (bytes32 _userName)\n        public        \n        // returns (bool)\n    {\n        require(users[_userName] == msg.sender);\n        require(users[_userName] != address(0));        \n\n        uint256 _meetupId = meetups.length - 1;\n        Meetup storage _meetup = meetups[_meetupId];\n\n        // Can't join a meetup that has already started.\n        require(now < _meetup.startTime);        \n\n        // Can't join twice\n        for (uint i = 0; i < _meetup.registrationList.length; i++) {\n            if (_meetup.registrationList[i] == msg.sender) {\n                revert();\n            }\n        }      \n\n        \n        _meetup.registrationList.push(msg.sender);\n        _meetup.registeredUserNames.push(_userName);\n\n    }\n\n    function getMeetupCount () public view returns (uint256) {\n        return meetups.length;\n    }\n  \n\n}\n\n\n\n\n\n// list of meetup members: \n// http://api.meetup.com/BokkyPooBahs-Ethereum-Workshop/members\n",
  "sourcePath": "/home/zeming/work/blockchain/meetup-queue/react-uport/contracts/MeetupBase.sol",
  "compiler": {
    "name": "solc",
    "version": "0.4.18+commit.9cf6e910.Emscripten.clang"
  },
  "schemaVersion": "1.0.1",
  "updatedAt": "2018-03-22T00:05:47.588Z"
}