{
  "contractName": "MeetupAccessControl",
  "abi": [
    {
      "constant": true,
      "inputs": [],
      "name": "organiserAddress",
      "outputs": [
        {
          "name": "",
          "type": "address"
        }
      ],
      "payable": false,
      "stateMutability": "view",
      "type": "function"
    },
    {
      "constant": false,
      "inputs": [],
      "name": "unpause",
      "outputs": [],
      "payable": false,
      "stateMutability": "nonpayable",
      "type": "function"
    },
    {
      "constant": false,
      "inputs": [
        {
          "name": "_newAssistant",
          "type": "address"
        }
      ],
      "name": "setAssistant_1",
      "outputs": [],
      "payable": false,
      "stateMutability": "nonpayable",
      "type": "function"
    },
    {
      "constant": false,
      "inputs": [],
      "name": "pause",
      "outputs": [],
      "payable": false,
      "stateMutability": "nonpayable",
      "type": "function"
    },
    {
      "constant": false,
      "inputs": [
        {
          "name": "_newOrganiser",
          "type": "address"
        }
      ],
      "name": "setOrganiser",
      "outputs": [],
      "payable": false,
      "stateMutability": "nonpayable",
      "type": "function"
    },
    {
      "constant": true,
      "inputs": [],
      "name": "assistantAddress_1",
      "outputs": [
        {
          "name": "",
          "type": "address"
        }
      ],
      "payable": false,
      "stateMutability": "view",
      "type": "function"
    },
    {
      "constant": false,
      "inputs": [
        {
          "name": "_newAssistant",
          "type": "address"
        }
      ],
      "name": "setAssistant_2",
      "outputs": [],
      "payable": false,
      "stateMutability": "nonpayable",
      "type": "function"
    },
    {
      "constant": true,
      "inputs": [],
      "name": "assistantAddress_2",
      "outputs": [
        {
          "name": "",
          "type": "address"
        }
      ],
      "payable": false,
      "stateMutability": "view",
      "type": "function"
    }
  ],
  "bytecode": "0x60606040526000600260146101000a81548160ff021916908315150217905550341561002a57600080fd5b6108cb806100396000396000f30060606040526004361061008e576000357c0100000000000000000000000000000000000000000000000000000000900463ffffffff16806304e3c9b8146100935780633f4ba83a146100e857806377bdfc57146100fd5780638456cb59146101365780638c4b0e7e1461014b578063c8ded43e14610184578063d9231927146101d9578063d92a174514610212575b600080fd5b341561009e57600080fd5b6100a6610267565b604051808273ffffffffffffffffffffffffffffffffffffffff1673ffffffffffffffffffffffffffffffffffffffff16815260200191505060405180910390f35b34156100f357600080fd5b6100fb61028c565b005b341561010857600080fd5b610134600480803573ffffffffffffffffffffffffffffffffffffffff1690602001909190505061031f565b005b341561014157600080fd5b6101496104aa565b005b341561015657600080fd5b610182600480803573ffffffffffffffffffffffffffffffffffffffff169060200190919050506105ee565b005b341561018f57600080fd5b6101976106c8565b604051808273ffffffffffffffffffffffffffffffffffffffff1673ffffffffffffffffffffffffffffffffffffffff16815260200191505060405180910390f35b34156101e457600080fd5b610210600480803573ffffffffffffffffffffffffffffffffffffffff169060200190919050506106ee565b005b341561021d57600080fd5b610225610879565b604051808273ffffffffffffffffffffffffffffffffffffffff1673ffffffffffffffffffffffffffffffffffffffff16815260200191505060405180910390f35b6000809054906101000a900473ffffffffffffffffffffffffffffffffffffffff1681565b6000809054906101000a900473ffffffffffffffffffffffffffffffffffffffff1673ffffffffffffffffffffffffffffffffffffffff163373ffffffffffffffffffffffffffffffffffffffff161415156102e757600080fd5b600260149054906101000a900460ff16151561030257600080fd5b6000600260146101000a81548160ff021916908315150217905550565b6000809054906101000a900473ffffffffffffffffffffffffffffffffffffffff1673ffffffffffffffffffffffffffffffffffffffff163373ffffffffffffffffffffffffffffffffffffffff1614806103c75750600160009054906101000a900473ffffffffffffffffffffffffffffffffffffffff1673ffffffffffffffffffffffffffffffffffffffff163373ffffffffffffffffffffffffffffffffffffffff16145b8061041f5750600260009054906101000a900473ffffffffffffffffffffffffffffffffffffffff1673ffffffffffffffffffffffffffffffffffffffff163373ffffffffffffffffffffffffffffffffffffffff16145b151561042a57600080fd5b600073ffffffffffffffffffffffffffffffffffffffff168173ffffffffffffffffffffffffffffffffffffffff161415151561046657600080fd5b80600160006101000a81548173ffffffffffffffffffffffffffffffffffffffff021916908373ffffffffffffffffffffffffffffffffffffffff16021790555050565b6000809054906101000a900473ffffffffffffffffffffffffffffffffffffffff1673ffffffffffffffffffffffffffffffffffffffff163373ffffffffffffffffffffffffffffffffffffffff1614806105525750600160009054906101000a900473ffffffffffffffffffffffffffffffffffffffff1673ffffffffffffffffffffffffffffffffffffffff163373ffffffffffffffffffffffffffffffffffffffff16145b806105aa5750600260009054906101000a900473ffffffffffffffffffffffffffffffffffffffff1673ffffffffffffffffffffffffffffffffffffffff163373ffffffffffffffffffffffffffffffffffffffff16145b15156105b557600080fd5b600260149054906101000a900460ff161515156105d157600080fd5b6001600260146101000a81548160ff021916908315150217905550565b6000809054906101000a900473ffffffffffffffffffffffffffffffffffffffff1673ffffffffffffffffffffffffffffffffffffffff163373ffffffffffffffffffffffffffffffffffffffff1614151561064957600080fd5b600073ffffffffffffffffffffffffffffffffffffffff168173ffffffffffffffffffffffffffffffffffffffff161415151561068557600080fd5b806000806101000a81548173ffffffffffffffffffffffffffffffffffffffff021916908373ffffffffffffffffffffffffffffffffffffffff16021790555050565b600160009054906101000a900473ffffffffffffffffffffffffffffffffffffffff1681565b6000809054906101000a900473ffffffffffffffffffffffffffffffffffffffff1673ffffffffffffffffffffffffffffffffffffffff163373ffffffffffffffffffffffffffffffffffffffff1614806107965750600160009054906101000a900473ffffffffffffffffffffffffffffffffffffffff1673ffffffffffffffffffffffffffffffffffffffff163373ffffffffffffffffffffffffffffffffffffffff16145b806107ee5750600260009054906101000a900473ffffffffffffffffffffffffffffffffffffffff1673ffffffffffffffffffffffffffffffffffffffff163373ffffffffffffffffffffffffffffffffffffffff16145b15156107f957600080fd5b600073ffffffffffffffffffffffffffffffffffffffff168173ffffffffffffffffffffffffffffffffffffffff161415151561083557600080fd5b80600260006101000a81548173ffffffffffffffffffffffffffffffffffffffff021916908373ffffffffffffffffffffffffffffffffffffffff16021790555050565b600260009054906101000a900473ffffffffffffffffffffffffffffffffffffffff16815600a165627a7a72305820913c558fc67236cdb85a954b8a8c524f59cb61b3429b4a7d25d816485cfb82780029",
  "source": "pragma solidity ^0.4.18;\n\n\n// Based on https://github.com/axiomzen/cryptokitties-bounty/blob/master/contracts/KittyAccessControl.sol\ncontract MeetupAccessControl {\n\n  // The addresses of the accounts (or contracts) that can execute actions within each roles.\n  address public organiserAddress;\n  address public assistantAddress_1;\n  address public assistantAddress_2;\n  bool paused = false;\n\n  /// Access modifier for organiser-only functionality\n  modifier onlyOrganiser() {\n      require(msg.sender == organiserAddress);\n      _;\n  }\n\n  /// Access modifier for organiser-only functionality\n  modifier onlyAssistant() {\n      require(\n        msg.sender == organiserAddress ||\n        msg.sender == assistantAddress_1 ||\n        msg.sender == assistantAddress_2\n      );\n      _;\n  }\n\n  /// @dev Assigns a new address to act as the assistant. Only available to the current CEO.\n  /// @param _newAssistant The address of the new assistant\n  function setAssistant_1(address _newAssistant) public onlyAssistant {\n      require(_newAssistant != address(0));\n\n      assistantAddress_1 = _newAssistant;\n  }\n\n  /// @dev Assigns a new address to act as the assistant. Only available to the current CEO.\n  /// @param _newAssistant The address of the new assistant\n  function setAssistant_2(address _newAssistant) public onlyAssistant {\n      require(_newAssistant != address(0));\n\n      assistantAddress_2 = _newAssistant;\n  }\n\n\n  /// @dev Assigns a new address to act as the organiser. Only available to the current organiser.\n  /// @param _newOrganiser The address of the new organiser\n  function setOrganiser(address _newOrganiser) public onlyOrganiser {\n      require(_newOrganiser != address(0));\n\n      organiserAddress = _newOrganiser;\n  }\n\n  /// @dev Modifier to allow actions only when the contract IS NOT paused\n  modifier whenNotPaused() {\n      require(!paused);\n      _;\n  }\n\n  /// @dev Modifier to allow actions only when the contract IS paused\n  modifier whenPaused {\n      require(paused);\n      _;\n  }\n\n  /// @dev Called by any \"assistant\" role to pause the contract. Used only when\n  ///  a bug or exploit is detected and we need to limit damage.\n  function pause() public onlyAssistant whenNotPaused {\n      paused = true;\n  }\n\n  /// @dev Unpauses the smart contract. Can only be called by the CEO, since\n  ///  one reason we may pause the contract is when CFO or COO accounts are\n  ///  compromised.\n  function unpause() public onlyOrganiser whenPaused {\n      // can't unpause if contract was upgraded\n      paused = false;\n  }\n}\n",
  "sourcePath": "/home/zeming/work/blockchain/meetup-queue/react-uport/contracts/MeetupAccessControl.sol",
  "compiler": {
    "name": "solc",
    "version": "0.4.18+commit.9cf6e910.Emscripten.clang"
  },
  "schemaVersion": "1.0.1",
  "updatedAt": "2018-04-22T13:48:57.843Z"
}