{
  "contractName": "MeetupBase",
  "abi": [
    {
      "constant": true,
      "inputs": [],
      "name": "organiserAddress",
      "outputs": [
        {
          "name": "",
          "type": "address"
        }
      ],
      "payable": false,
      "stateMutability": "view",
      "type": "function"
    },
    {
      "constant": true,
      "inputs": [
        {
          "name": "",
          "type": "address"
        }
      ],
      "name": "userToPoints",
      "outputs": [
        {
          "name": "",
          "type": "int256"
        }
      ],
      "payable": false,
      "stateMutability": "view",
      "type": "function"
    },
    {
      "constant": false,
      "inputs": [
        {
          "name": "name",
          "type": "bytes32"
        }
      ],
      "name": "registerUser",
      "outputs": [],
      "payable": false,
      "stateMutability": "nonpayable",
      "type": "function"
    },
    {
      "constant": true,
      "inputs": [
        {
          "name": "",
          "type": "uint256"
        }
      ],
      "name": "meetups",
      "outputs": [
        {
          "name": "birthTime",
          "type": "uint64"
        },
        {
          "name": "startTime",
          "type": "uint64"
        },
        {
          "name": "maxCapacity",
          "type": "uint8"
        }
      ],
      "payable": false,
      "stateMutability": "view",
      "type": "function"
    },
    {
      "constant": false,
      "inputs": [],
      "name": "unpause",
      "outputs": [],
      "payable": false,
      "stateMutability": "nonpayable",
      "type": "function"
    },
    {
      "constant": false,
      "inputs": [
        {
          "name": "name",
          "type": "bytes32"
        }
      ],
      "name": "deregisterUser",
      "outputs": [],
      "payable": false,
      "stateMutability": "nonpayable",
      "type": "function"
    },
    {
      "constant": true,
      "inputs": [],
      "name": "getMeetupCount",
      "outputs": [
        {
          "name": "",
          "type": "uint256"
        }
      ],
      "payable": false,
      "stateMutability": "view",
      "type": "function"
    },
    {
      "constant": false,
      "inputs": [
        {
          "name": "_userName",
          "type": "bytes32"
        }
      ],
      "name": "joinNextMeetup",
      "outputs": [],
      "payable": false,
      "stateMutability": "nonpayable",
      "type": "function"
    },
    {
      "constant": false,
      "inputs": [
        {
          "name": "_newAssistant",
          "type": "address"
        }
      ],
      "name": "setAssistant_1",
      "outputs": [],
      "payable": false,
      "stateMutability": "nonpayable",
      "type": "function"
    },
    {
      "constant": false,
      "inputs": [],
      "name": "pause",
      "outputs": [],
      "payable": false,
      "stateMutability": "nonpayable",
      "type": "function"
    },
    {
      "constant": false,
      "inputs": [
        {
          "name": "_newOrganiser",
          "type": "address"
        }
      ],
      "name": "setOrganiser",
      "outputs": [],
      "payable": false,
      "stateMutability": "nonpayable",
      "type": "function"
    },
    {
      "constant": true,
      "inputs": [],
      "name": "assistantAddress_1",
      "outputs": [
        {
          "name": "",
          "type": "address"
        }
      ],
      "payable": false,
      "stateMutability": "view",
      "type": "function"
    },
    {
      "constant": true,
      "inputs": [
        {
          "name": "",
          "type": "bytes32"
        }
      ],
      "name": "users",
      "outputs": [
        {
          "name": "",
          "type": "address"
        }
      ],
      "payable": false,
      "stateMutability": "view",
      "type": "function"
    },
    {
      "constant": false,
      "inputs": [
        {
          "name": "_newAssistant",
          "type": "address"
        }
      ],
      "name": "setAssistant_2",
      "outputs": [],
      "payable": false,
      "stateMutability": "nonpayable",
      "type": "function"
    },
    {
      "constant": true,
      "inputs": [],
      "name": "assistantAddress_2",
      "outputs": [
        {
          "name": "",
          "type": "address"
        }
      ],
      "payable": false,
      "stateMutability": "view",
      "type": "function"
    },
    {
      "constant": false,
      "inputs": [
        {
          "name": "_timeUntilMeetup",
          "type": "uint64"
        },
        {
          "name": "_maxCapacity",
          "type": "uint8"
        },
        {
          "name": "_presenters",
          "type": "address[]"
        }
      ],
      "name": "createMeetup",
      "outputs": [
        {
          "name": "",
          "type": "uint256"
        }
      ],
      "payable": false,
      "stateMutability": "nonpayable",
      "type": "function"
    },
    {
      "inputs": [],
      "payable": false,
      "stateMutability": "nonpayable",
      "type": "constructor"
    },
    {
      "anonymous": false,
      "inputs": [
        {
          "indexed": false,
          "name": "timeUntilMeetup",
          "type": "uint64"
        },
        {
          "indexed": false,
          "name": "maxCapacity",
          "type": "uint8"
        }
      ],
      "name": "Birth",
      "type": "event"
    }
  ],
  "bytecode": "0x60606040526000600260146101000a81548160ff021916908315150217905550341561002a57600080fd5b336000806101000a81548173ffffffffffffffffffffffffffffffffffffffff021916908373ffffffffffffffffffffffffffffffffffffffff16021790555033600160006101000a81548173ffffffffffffffffffffffffffffffffffffffff021916908373ffffffffffffffffffffffffffffffffffffffff16021790555033600260006101000a81548173ffffffffffffffffffffffffffffffffffffffff021916908373ffffffffffffffffffffffffffffffffffffffff16021790555061165a806100fb6000396000f3006060604052600436106100e6576000357c0100000000000000000000000000000000000000000000000000000000900463ffffffff16806304e3c9b8146100eb5780632ae6b135146101405780632dc032591461018d57806337026ae1146101b45780633f4ba83a14610227578063475469701461023c578063539f7fb71461026357806353a81dcc1461028c57806377bdfc57146102b35780638456cb59146102ec5780638c4b0e7e14610301578063c8ded43e1461033a578063cea6ab981461038f578063d9231927146103f6578063d92a17451461042f578063f33a4c5014610484575b600080fd5b34156100f657600080fd5b6100fe610511565b604051808273ffffffffffffffffffffffffffffffffffffffff1673ffffffffffffffffffffffffffffffffffffffff16815260200191505060405180910390f35b341561014b57600080fd5b610177600480803573ffffffffffffffffffffffffffffffffffffffff16906020019091905050610536565b6040518082815260200191505060405180910390f35b341561019857600080fd5b6101b260048080356000191690602001909190505061054e565b005b34156101bf57600080fd5b6101d56004808035906020019091905050610617565b604051808467ffffffffffffffff1667ffffffffffffffff1681526020018367ffffffffffffffff1667ffffffffffffffff1681526020018260ff1660ff168152602001935050505060405180910390f35b341561023257600080fd5b61023a610685565b005b341561024757600080fd5b610261600480803560001916906020019091905050610718565b005b341561026e57600080fd5b6102766108ee565b6040518082815260200191505060405180910390f35b341561029757600080fd5b6102b16004808035600019169060200190919050506108fb565b005b34156102be57600080fd5b6102ea600480803573ffffffffffffffffffffffffffffffffffffffff16906020019091905050610b47565b005b34156102f757600080fd5b6102ff610cd2565b005b341561030c57600080fd5b610338600480803573ffffffffffffffffffffffffffffffffffffffff16906020019091905050610e16565b005b341561034557600080fd5b61034d610ef0565b604051808273ffffffffffffffffffffffffffffffffffffffff1673ffffffffffffffffffffffffffffffffffffffff16815260200191505060405180910390f35b341561039a57600080fd5b6103b4600480803560001916906020019091905050610f16565b604051808273ffffffffffffffffffffffffffffffffffffffff1673ffffffffffffffffffffffffffffffffffffffff16815260200191505060405180910390f35b341561040157600080fd5b61042d600480803573ffffffffffffffffffffffffffffffffffffffff16906020019091905050610f49565b005b341561043a57600080fd5b6104426110d4565b604051808273ffffffffffffffffffffffffffffffffffffffff1673ffffffffffffffffffffffffffffffffffffffff16815260200191505060405180910390f35b341561048f57600080fd5b6104fb600480803567ffffffffffffffff1690602001909190803560ff16906020019091908035906020019082018035906020019080806020026020016040519081016040528093929190818152602001838360200280828437820191505050505050919050506110fa565b6040518082815260200191505060405180910390f35b6000809054906101000a900473ffffffffffffffffffffffffffffffffffffffff1681565b60046020528060005260406000206000915090505481565b600060056000836000191660001916815260200190815260200160002060009054906101000a900473ffffffffffffffffffffffffffffffffffffffff1673ffffffffffffffffffffffffffffffffffffffff161480156105b457506000816000191614155b15610614573360056000836000191660001916815260200190815260200160002060006101000a81548173ffffffffffffffffffffffffffffffffffffffff021916908373ffffffffffffffffffffffffffffffffffffffff1602179055505b50565b60038181548110151561062657fe5b90600052602060002090600302016000915090508060000160009054906101000a900467ffffffffffffffff16908060000160089054906101000a900467ffffffffffffffff16908060000160109054906101000a900460ff16905083565b6000809054906101000a900473ffffffffffffffffffffffffffffffffffffffff1673ffffffffffffffffffffffffffffffffffffffff163373ffffffffffffffffffffffffffffffffffffffff161415156106e057600080fd5b600260149054906101000a900460ff1615156106fb57600080fd5b6000600260146101000a81548160ff021916908315150217905550565b6000809054906101000a900473ffffffffffffffffffffffffffffffffffffffff1673ffffffffffffffffffffffffffffffffffffffff163373ffffffffffffffffffffffffffffffffffffffff1614806107c05750600160009054906101000a900473ffffffffffffffffffffffffffffffffffffffff1673ffffffffffffffffffffffffffffffffffffffff163373ffffffffffffffffffffffffffffffffffffffff16145b806108185750600260009054906101000a900473ffffffffffffffffffffffffffffffffffffffff1673ffffffffffffffffffffffffffffffffffffffff163373ffffffffffffffffffffffffffffffffffffffff16145b151561082357600080fd5b600060056000836000191660001916815260200190815260200160002060009054906101000a900473ffffffffffffffffffffffffffffffffffffffff1673ffffffffffffffffffffffffffffffffffffffff161415801561088a57506000816000191614155b156108eb57600060056000836000191660001916815260200190815260200160002060006101000a81548173ffffffffffffffffffffffffffffffffffffffff021916908373ffffffffffffffffffffffffffffffffffffffff1602179055505b50565b6000600380549050905090565b60008060003373ffffffffffffffffffffffffffffffffffffffff1660056000866000191660001916815260200190815260200160002060009054906101000a900473ffffffffffffffffffffffffffffffffffffffff1673ffffffffffffffffffffffffffffffffffffffff1614151561097557600080fd5b600073ffffffffffffffffffffffffffffffffffffffff1660056000866000191660001916815260200190815260200160002060009054906101000a900473ffffffffffffffffffffffffffffffffffffffff1673ffffffffffffffffffffffffffffffffffffffff16141515156109ec57600080fd5b6001600380549050039250600383815481101515610a0657fe5b906000526020600020906003020191508160000160089054906101000a900467ffffffffffffffff1667ffffffffffffffff1642101515610a4657600080fd5b600090505b8160020180549050811015610adc573373ffffffffffffffffffffffffffffffffffffffff168260020182815481101515610a8257fe5b906000526020600020900160009054906101000a900473ffffffffffffffffffffffffffffffffffffffff1673ffffffffffffffffffffffffffffffffffffffff161415610acf57600080fd5b8080600101915050610a4b565b816002018054806001018281610af291906113b9565b9160005260206000209001600033909190916101000a81548173ffffffffffffffffffffffffffffffffffffffff021916908373ffffffffffffffffffffffffffffffffffffffff1602179055505050505050565b6000809054906101000a900473ffffffffffffffffffffffffffffffffffffffff1673ffffffffffffffffffffffffffffffffffffffff163373ffffffffffffffffffffffffffffffffffffffff161480610bef5750600160009054906101000a900473ffffffffffffffffffffffffffffffffffffffff1673ffffffffffffffffffffffffffffffffffffffff163373ffffffffffffffffffffffffffffffffffffffff16145b80610c475750600260009054906101000a900473ffffffffffffffffffffffffffffffffffffffff1673ffffffffffffffffffffffffffffffffffffffff163373ffffffffffffffffffffffffffffffffffffffff16145b1515610c5257600080fd5b600073ffffffffffffffffffffffffffffffffffffffff168173ffffffffffffffffffffffffffffffffffffffff1614151515610c8e57600080fd5b80600160006101000a81548173ffffffffffffffffffffffffffffffffffffffff021916908373ffffffffffffffffffffffffffffffffffffffff16021790555050565b6000809054906101000a900473ffffffffffffffffffffffffffffffffffffffff1673ffffffffffffffffffffffffffffffffffffffff163373ffffffffffffffffffffffffffffffffffffffff161480610d7a5750600160009054906101000a900473ffffffffffffffffffffffffffffffffffffffff1673ffffffffffffffffffffffffffffffffffffffff163373ffffffffffffffffffffffffffffffffffffffff16145b80610dd25750600260009054906101000a900473ffffffffffffffffffffffffffffffffffffffff1673ffffffffffffffffffffffffffffffffffffffff163373ffffffffffffffffffffffffffffffffffffffff16145b1515610ddd57600080fd5b600260149054906101000a900460ff16151515610df957600080fd5b6001600260146101000a81548160ff021916908315150217905550565b6000809054906101000a900473ffffffffffffffffffffffffffffffffffffffff1673ffffffffffffffffffffffffffffffffffffffff163373ffffffffffffffffffffffffffffffffffffffff16141515610e7157600080fd5b600073ffffffffffffffffffffffffffffffffffffffff168173ffffffffffffffffffffffffffffffffffffffff1614151515610ead57600080fd5b806000806101000a81548173ffffffffffffffffffffffffffffffffffffffff021916908373ffffffffffffffffffffffffffffffffffffffff16021790555050565b600160009054906101000a900473ffffffffffffffffffffffffffffffffffffffff1681565b60056020528060005260406000206000915054906101000a900473ffffffffffffffffffffffffffffffffffffffff1681565b6000809054906101000a900473ffffffffffffffffffffffffffffffffffffffff1673ffffffffffffffffffffffffffffffffffffffff163373ffffffffffffffffffffffffffffffffffffffff161480610ff15750600160009054906101000a900473ffffffffffffffffffffffffffffffffffffffff1673ffffffffffffffffffffffffffffffffffffffff163373ffffffffffffffffffffffffffffffffffffffff16145b806110495750600260009054906101000a900473ffffffffffffffffffffffffffffffffffffffff1673ffffffffffffffffffffffffffffffffffffffff163373ffffffffffffffffffffffffffffffffffffffff16145b151561105457600080fd5b600073ffffffffffffffffffffffffffffffffffffffff168173ffffffffffffffffffffffffffffffffffffffff161415151561109057600080fd5b80600260006101000a81548173ffffffffffffffffffffffffffffffffffffffff021916908373ffffffffffffffffffffffffffffffffffffffff16021790555050565b600260009054906101000a900473ffffffffffffffffffffffffffffffffffffffff1681565b60006111046113e5565b61110c6113f9565b60008060009054906101000a900473ffffffffffffffffffffffffffffffffffffffff1673ffffffffffffffffffffffffffffffffffffffff163373ffffffffffffffffffffffffffffffffffffffff1614806111b65750600160009054906101000a900473ffffffffffffffffffffffffffffffffffffffff1673ffffffffffffffffffffffffffffffffffffffff163373ffffffffffffffffffffffffffffffffffffffff16145b8061120e5750600260009054906101000a900473ffffffffffffffffffffffffffffffffffffffff1673ffffffffffffffffffffffffffffffffffffffff163373ffffffffffffffffffffffffffffffffffffffff16145b151561121957600080fd5b84925060a0604051908101604052804267ffffffffffffffff1681526020018867ffffffffffffffff16420167ffffffffffffffff1681526020018760ff16815260200186815260200184815250915060016003805480600101828161127f919061144c565b9160005260206000209060030201600085909190915060008201518160000160006101000a81548167ffffffffffffffff021916908367ffffffffffffffff16021790555060208201518160000160086101000a81548167ffffffffffffffff021916908367ffffffffffffffff16021790555060408201518160000160106101000a81548160ff021916908360ff160217905550606082015181600101908051906020019061133092919061147e565b50608082015181600201908051906020019061134d92919061147e565b5050500390507f28972991b28557e0dfac62c83b4eb863d13d65ad467e70e6e0a0ece1c1bafac98787604051808367ffffffffffffffff1667ffffffffffffffff1681526020018260ff1660ff1681526020019250505060405180910390a18093505050509392505050565b8154818355818115116113e0578183600052602060002091820191016113df9190611508565b5b505050565b602060405190810160405280600081525090565b60a060405190810160405280600067ffffffffffffffff168152602001600067ffffffffffffffff168152602001600060ff16815260200161143961152d565b815260200161144661152d565b81525090565b815481835581811511611479576003028160030283600052602060002091820191016114789190611541565b5b505050565b8280548282559060005260206000209081019282156114f7579160200282015b828111156114f65782518260006101000a81548173ffffffffffffffffffffffffffffffffffffffff021916908373ffffffffffffffffffffffffffffffffffffffff1602179055509160200191906001019061149e565b5b50905061150491906115ca565b5090565b61152a91905b8082111561152657600081600090555060010161150e565b5090565b90565b602060405190810160405280600081525090565b6115c791905b808211156115c357600080820160006101000a81549067ffffffffffffffff02191690556000820160086101000a81549067ffffffffffffffff02191690556000820160106101000a81549060ff02191690556001820160006115aa919061160d565b6002820160006115ba919061160d565b50600301611547565b5090565b90565b61160a91905b8082111561160657600081816101000a81549073ffffffffffffffffffffffffffffffffffffffff0219169055506001016115d0565b5090565b90565b508054600082559060005260206000209081019061162b9190611508565b505600a165627a7a723058205b96665fd6ab194bc6e43da63760d543ad014ffe583cf9193c473daadf8e0ee60029",
  "source": "pragma solidity ^0.4.18;\n\nimport \"./MeetupAccessControl.sol\";\n\n/// @title Base contract for Meetup. Holds all common structs, events and base variables.\n\n// Based on\n// https://github.com/axiomzen/cryptokitties-bounty/blob/master/contracts/KittyBase.sol\n// https://monax.io/docs/solidity/solidity_1_the_five_types_model/\n\ncontract MeetupBase is MeetupAccessControl {\n    /*** EVENTS ***/\n\n    // @dev The Birth event is fired whenever a new meetup event comes into existence. \n    //      These meetup events are created by event organiser or assistants \n    event Birth(uint64 timeUntilMeetup, uint8 maxCapacity);\n\n\n    /*** DATA TYPES ***/\n\n    struct Meetup {\n        // The timestamp from the block when the meetup event is created.\n        uint64 birthTime;\n\n        // The timestamp from the block when the meetup event is scheduled to start.\n        uint64 startTime;\n\n        // Capacity of the meeting.\n        uint8 maxCapacity;\n\n        // Address of the presenters.\n        address[] presenters;\n\n        // Address of people who register for the event.\n        // Only the top maxCapacity people will be able to enter.\n        // The rest will be on the waiting list.\n        address[] registrationList;\n    }\n\n    /*** STORAGE ***/\n\n    /// @dev An array containing the Meetup struct for all Meetups in existence. \n    Meetup[] public meetups;\n\n    /// @dev A mapping from user address to points\n    mapping (address => int256) public userToPoints;\n\n    // Here we store the names. Make it public to automatically generate an\n    // accessor function named 'users' that takes a fixed-length string as argument.\n    mapping (bytes32 => address) public users;\n\n\n    // Initialise contract with the owner taking all three roles\n    // These can later be transferred to the right person\n    function MeetupBase() public {\n        organiserAddress = msg.sender;\n        assistantAddress_1 = msg.sender;\n        assistantAddress_2 = msg.sender;\n    }\n\n    // Register the provided name with the caller address.\n    // Also, we don't want them to register \"\" as their name.\n    function registerUser(bytes32 name) public {\n        // require(\n        //     msg.sender == users[name] ||\n        //     msg.sender == organiserAddress ||\n        //     msg.sender == assistantAddress_1 ||\n        //     msg.sender == assistantAddress_2\n        // );\n        \n        if(users[name] == 0 && name != \"\"){\n            users[name] = msg.sender;\n        }\n    }\n\n    // Deregister the provided name with the caller address.\n    // Only user him/herself or assistants can deregister a user\n    function deregisterUser(bytes32 name) public onlyAssistant {        \n        // require(\n        //     msg.sender == users[name] ||\n        //     msg.sender == organiserAddress ||\n        //     msg.sender == assistantAddress_1 ||\n        //     msg.sender == assistantAddress_2\n        // );\n        if(users[name] != 0 && name != \"\"){\n            users[name] = 0x0;\n        }\n    }\n\n    // @param _timeUntilMeetup Time until the scheduled meeting start time\n    // @param _maxCapacity Maximum capacity of the meeting.\n    // @param _presenters Addresses of presenters.\n    function createMeetup (            \n        uint64 _timeUntilMeetup,        \n        uint8 _maxCapacity,       \n        address[] _presenters\n    )\n        public\n        onlyAssistant() \n        returns (uint256)\n    {\n\n        address[] memory _registrationList = _presenters;\n        \n        Meetup memory _meetup = Meetup({            \n            birthTime: uint64(now),\n            startTime: uint64(now + _timeUntilMeetup),            \n            maxCapacity: _maxCapacity,\n            presenters: _presenters,\n            registrationList: _registrationList\n        });\n\n        uint256 newMeetupId = meetups.push(_meetup) - 1 ;\n\n        // emit the birth event\n        Birth(_timeUntilMeetup, _maxCapacity);\n\n        return newMeetupId;\n    }\n\n    function joinNextMeetup (bytes32 _userName)\n        public        \n        // returns (bool)\n    {\n        require(users[_userName] == msg.sender);\n        require(users[_userName] != address(0));        \n\n        uint256 _meetupId = meetups.length - 1;\n        Meetup storage _meetup = meetups[_meetupId];\n\n        // Can't join a meetup that has already started.\n        require(now < _meetup.startTime);        \n\n        // Can't join twice\n        for (uint i = 0; i < _meetup.registrationList.length; i++) {\n            if (_meetup.registrationList[i] == msg.sender) {\n                revert();\n            }\n        }      \n\n        \n        _meetup.registrationList.push(msg.sender);\n\n    }\n\n    function getMeetupCount () public view returns (uint256) {\n        return meetups.length;\n    }\n  \n\n}\n\n\n\n\n\n// list of meetup members: \n// http://api.meetup.com/BokkyPooBahs-Ethereum-Workshop/members",
  "sourcePath": "/home/zeming/work/blockchain/meetup-queue/react-uport/contracts/MeetupBase.sol",
  "compiler": {
    "name": "solc",
    "version": "0.4.18+commit.9cf6e910.Emscripten.clang"
  },
  "schemaVersion": "1.0.1",
  "updatedAt": "2018-03-19T11:13:13.167Z"
}