{
  "contractName": "MeetupBase",
  "abi": [
    {
      "constant": true,
      "inputs": [],
      "name": "organiserAddress",
      "outputs": [
        {
          "name": "",
          "type": "address"
        }
      ],
      "payable": false,
      "stateMutability": "view",
      "type": "function"
    },
    {
      "constant": true,
      "inputs": [
        {
          "name": "",
          "type": "address"
        }
      ],
      "name": "addressToPoints",
      "outputs": [
        {
          "name": "",
          "type": "uint256"
        }
      ],
      "payable": false,
      "stateMutability": "view",
      "type": "function"
    },
    {
      "constant": false,
      "inputs": [
        {
          "name": "name",
          "type": "bytes32"
        }
      ],
      "name": "registerUser",
      "outputs": [],
      "payable": false,
      "stateMutability": "nonpayable",
      "type": "function"
    },
    {
      "constant": false,
      "inputs": [],
      "name": "joinNextMeetup",
      "outputs": [],
      "payable": false,
      "stateMutability": "nonpayable",
      "type": "function"
    },
    {
      "constant": true,
      "inputs": [
        {
          "name": "",
          "type": "uint256"
        }
      ],
      "name": "meetups",
      "outputs": [
        {
          "name": "createTime",
          "type": "uint64"
        },
        {
          "name": "startTime",
          "type": "uint64"
        },
        {
          "name": "maxCapacity",
          "type": "uint8"
        }
      ],
      "payable": false,
      "stateMutability": "view",
      "type": "function"
    },
    {
      "constant": false,
      "inputs": [],
      "name": "unpause",
      "outputs": [],
      "payable": false,
      "stateMutability": "nonpayable",
      "type": "function"
    },
    {
      "constant": true,
      "inputs": [
        {
          "name": "i",
          "type": "uint256"
        }
      ],
      "name": "getRegistrationList",
      "outputs": [
        {
          "name": "",
          "type": "address[]"
        }
      ],
      "payable": false,
      "stateMutability": "view",
      "type": "function"
    },
    {
      "constant": false,
      "inputs": [
        {
          "name": "name",
          "type": "bytes32"
        }
      ],
      "name": "deregisterUser",
      "outputs": [],
      "payable": false,
      "stateMutability": "nonpayable",
      "type": "function"
    },
    {
      "constant": true,
      "inputs": [],
      "name": "getMeetupCount",
      "outputs": [
        {
          "name": "",
          "type": "uint256"
        }
      ],
      "payable": false,
      "stateMutability": "view",
      "type": "function"
    },
    {
      "constant": true,
      "inputs": [
        {
          "name": "i",
          "type": "uint256"
        }
      ],
      "name": "getRegisteredUserNames",
      "outputs": [
        {
          "name": "",
          "type": "bytes32[]"
        }
      ],
      "payable": false,
      "stateMutability": "view",
      "type": "function"
    },
    {
      "constant": true,
      "inputs": [
        {
          "name": "",
          "type": "bytes32"
        }
      ],
      "name": "userToAddress",
      "outputs": [
        {
          "name": "",
          "type": "address"
        }
      ],
      "payable": false,
      "stateMutability": "view",
      "type": "function"
    },
    {
      "constant": false,
      "inputs": [
        {
          "name": "_newAssistant",
          "type": "address"
        }
      ],
      "name": "setAssistant_1",
      "outputs": [],
      "payable": false,
      "stateMutability": "nonpayable",
      "type": "function"
    },
    {
      "constant": true,
      "inputs": [
        {
          "name": "i",
          "type": "uint256"
        }
      ],
      "name": "getPresenters",
      "outputs": [
        {
          "name": "",
          "type": "address[]"
        }
      ],
      "payable": false,
      "stateMutability": "view",
      "type": "function"
    },
    {
      "constant": false,
      "inputs": [],
      "name": "pause",
      "outputs": [],
      "payable": false,
      "stateMutability": "nonpayable",
      "type": "function"
    },
    {
      "constant": false,
      "inputs": [
        {
          "name": "_newOrganiser",
          "type": "address"
        }
      ],
      "name": "setOrganiser",
      "outputs": [],
      "payable": false,
      "stateMutability": "nonpayable",
      "type": "function"
    },
    {
      "constant": true,
      "inputs": [],
      "name": "assistantAddress_1",
      "outputs": [
        {
          "name": "",
          "type": "address"
        }
      ],
      "payable": false,
      "stateMutability": "view",
      "type": "function"
    },
    {
      "constant": false,
      "inputs": [
        {
          "name": "_newAssistant",
          "type": "address"
        }
      ],
      "name": "setAssistant_2",
      "outputs": [],
      "payable": false,
      "stateMutability": "nonpayable",
      "type": "function"
    },
    {
      "constant": true,
      "inputs": [],
      "name": "assistantAddress_2",
      "outputs": [
        {
          "name": "",
          "type": "address"
        }
      ],
      "payable": false,
      "stateMutability": "view",
      "type": "function"
    },
    {
      "constant": false,
      "inputs": [],
      "name": "leaveNextMeetup",
      "outputs": [],
      "payable": false,
      "stateMutability": "nonpayable",
      "type": "function"
    },
    {
      "constant": true,
      "inputs": [
        {
          "name": "",
          "type": "address"
        }
      ],
      "name": "addressToUser",
      "outputs": [
        {
          "name": "",
          "type": "bytes32"
        }
      ],
      "payable": false,
      "stateMutability": "view",
      "type": "function"
    },
    {
      "constant": false,
      "inputs": [
        {
          "name": "_startTime",
          "type": "uint64"
        },
        {
          "name": "_maxCapacity",
          "type": "uint8"
        },
        {
          "name": "_presenters",
          "type": "address[]"
        }
      ],
      "name": "createMeetup",
      "outputs": [
        {
          "name": "",
          "type": "uint256"
        }
      ],
      "payable": false,
      "stateMutability": "nonpayable",
      "type": "function"
    },
    {
      "inputs": [],
      "payable": false,
      "stateMutability": "nonpayable",
      "type": "constructor"
    },
    {
      "anonymous": false,
      "inputs": [
        {
          "indexed": false,
          "name": "startTime",
          "type": "uint64"
        },
        {
          "indexed": false,
          "name": "maxCapacity",
          "type": "uint8"
        }
      ],
      "name": "Creation",
      "type": "event"
    }
  ],
  "bytecode": "0x60606040526000600260146101000a81548160ff021916908315150217905550341561002a57600080fd5b336000806101000a81548173ffffffffffffffffffffffffffffffffffffffff021916908373ffffffffffffffffffffffffffffffffffffffff16021790555033600160006101000a81548173ffffffffffffffffffffffffffffffffffffffff021916908373ffffffffffffffffffffffffffffffffffffffff16021790555033600260006101000a81548173ffffffffffffffffffffffffffffffffffffffff021916908373ffffffffffffffffffffffffffffffffffffffff16021790555061207a806100fb6000396000f30060606040526004361061011d576000357c0100000000000000000000000000000000000000000000000000000000900463ffffffff16806304e3c9b814610122578063131b745e146101775780632dc03259146101c45780632ff96e8e146101eb57806337026ae1146102005780633f4ba83a14610273578063430f1915146102885780634754697014610300578063539f7fb7146103275780635bf79001146103505780636c88beeb146103c857806377bdfc571461042f57806379c685e2146104685780638456cb59146104e05780638c4b0e7e146104f5578063c8ded43e1461052e578063d923192714610583578063d92a1745146105bc578063e3ccbc5914610611578063edf5388614610626578063f33a4c501461067b575b600080fd5b341561012d57600080fd5b610135610708565b604051808273ffffffffffffffffffffffffffffffffffffffff1673ffffffffffffffffffffffffffffffffffffffff16815260200191505060405180910390f35b341561018257600080fd5b6101ae600480803573ffffffffffffffffffffffffffffffffffffffff1690602001909190505061072d565b6040518082815260200191505060405180910390f35b34156101cf57600080fd5b6101e9600480803560001916906020019091905050610745565b005b34156101f657600080fd5b6101fe61089b565b005b341561020b57600080fd5b6102216004808035906020019091905050610ac4565b604051808467ffffffffffffffff1667ffffffffffffffff1681526020018367ffffffffffffffff1667ffffffffffffffff1681526020018260ff1660ff168152602001935050505060405180910390f35b341561027e57600080fd5b610286610b32565b005b341561029357600080fd5b6102a96004808035906020019091905050610bc5565b6040518080602001828103825283818151815260200191508051906020019060200280838360005b838110156102ec5780820151818401526020810190506102d1565b505050509050019250505060405180910390f35b341561030b57600080fd5b610325600480803560001916906020019091905050610c79565b005b341561033257600080fd5b61033a610e98565b6040518082815260200191505060405180910390f35b341561035b57600080fd5b6103716004808035906020019091905050610ea5565b6040518080602001828103825283818151815260200191508051906020019060200280838360005b838110156103b4578082015181840152602081019050610399565b505050509050019250505060405180910390f35b34156103d357600080fd5b6103ed600480803560001916906020019091905050610f27565b604051808273ffffffffffffffffffffffffffffffffffffffff1673ffffffffffffffffffffffffffffffffffffffff16815260200191505060405180910390f35b341561043a57600080fd5b610466600480803573ffffffffffffffffffffffffffffffffffffffff16906020019091905050610f5a565b005b341561047357600080fd5b61048960048080359060200190919050506110e5565b6040518080602001828103825283818151815260200191508051906020019060200280838360005b838110156104cc5780820151818401526020810190506104b1565b505050509050019250505060405180910390f35b34156104eb57600080fd5b6104f3611199565b005b341561050057600080fd5b61052c600480803573ffffffffffffffffffffffffffffffffffffffff169060200190919050506112dd565b005b341561053957600080fd5b6105416113b7565b604051808273ffffffffffffffffffffffffffffffffffffffff1673ffffffffffffffffffffffffffffffffffffffff16815260200191505060405180910390f35b341561058e57600080fd5b6105ba600480803573ffffffffffffffffffffffffffffffffffffffff169060200190919050506113dd565b005b34156105c757600080fd5b6105cf611568565b604051808273ffffffffffffffffffffffffffffffffffffffff1673ffffffffffffffffffffffffffffffffffffffff16815260200191505060405180910390f35b341561061c57600080fd5b61062461158e565b005b341561063157600080fd5b61065d600480803573ffffffffffffffffffffffffffffffffffffffff1690602001909190505061188f565b60405180826000191660001916815260200191505060405180910390f35b341561068657600080fd5b6106f2600480803567ffffffffffffffff1690602001909190803560ff16906020019091908035906020019082018035906020019080806020026020016040519081016040528093929190818152602001838360200280828437820191505050505050919050506118a7565b6040518082815260200191505060405180910390f35b6000809054906101000a900473ffffffffffffffffffffffffffffffffffffffff1681565b60046020528060005260406000206000915090505481565b600060056000836000191660001916815260200190815260200160002060009054906101000a900473ffffffffffffffffffffffffffffffffffffffff1673ffffffffffffffffffffffffffffffffffffffff161480156107ab57506000816000191614155b156108985780600660003373ffffffffffffffffffffffffffffffffffffffff1673ffffffffffffffffffffffffffffffffffffffff16815260200190815260200160002081600019169055503360056000836000191660001916815260200190815260200160002060006101000a81548173ffffffffffffffffffffffffffffffffffffffff021916908373ffffffffffffffffffffffffffffffffffffffff1602179055506064600460003373ffffffffffffffffffffffffffffffffffffffff1673ffffffffffffffffffffffffffffffffffffffff168152602001908152602001600020819055505b50565b6000806000806000600102600660003373ffffffffffffffffffffffffffffffffffffffff1673ffffffffffffffffffffffffffffffffffffffff16815260200190815260200160002054600019161115156108f657600080fd5b600160038054905003935060038481548110151561091057fe5b906000526020600020906004020192508260000160089054906101000a900467ffffffffffffffff1667ffffffffffffffff164210151561095057600080fd5b600091505b82600201805490508210156109e6573373ffffffffffffffffffffffffffffffffffffffff16836002018381548110151561098c57fe5b906000526020600020900160009054906101000a900473ffffffffffffffffffffffffffffffffffffffff1673ffffffffffffffffffffffffffffffffffffffff1614156109d957600080fd5b8180600101925050610955565b600660003373ffffffffffffffffffffffffffffffffffffffff1673ffffffffffffffffffffffffffffffffffffffff168152602001908152602001600020549050826002018054806001018281610a3e9190611c77565b9160005260206000209001600033909190916101000a81548173ffffffffffffffffffffffffffffffffffffffff021916908373ffffffffffffffffffffffffffffffffffffffff16021790555050826003018054806001018281610aa39190611ca3565b91600052602060002090016000839091909150906000191690555050505050565b600381815481101515610ad357fe5b90600052602060002090600402016000915090508060000160009054906101000a900467ffffffffffffffff16908060000160089054906101000a900467ffffffffffffffff16908060000160109054906101000a900460ff16905083565b6000809054906101000a900473ffffffffffffffffffffffffffffffffffffffff1673ffffffffffffffffffffffffffffffffffffffff163373ffffffffffffffffffffffffffffffffffffffff16141515610b8d57600080fd5b600260149054906101000a900460ff161515610ba857600080fd5b6000600260146101000a81548160ff021916908315150217905550565b610bcd611ccf565b600382815481101515610bdc57fe5b9060005260206000209060040201600201805480602002602001604051908101604052809291908181526020018280548015610c6d57602002820191906000526020600020905b8160009054906101000a900473ffffffffffffffffffffffffffffffffffffffff1673ffffffffffffffffffffffffffffffffffffffff1681526020019060010190808311610c23575b50505050509050919050565b6000809054906101000a900473ffffffffffffffffffffffffffffffffffffffff1673ffffffffffffffffffffffffffffffffffffffff163373ffffffffffffffffffffffffffffffffffffffff161480610d215750600160009054906101000a900473ffffffffffffffffffffffffffffffffffffffff1673ffffffffffffffffffffffffffffffffffffffff163373ffffffffffffffffffffffffffffffffffffffff16145b80610d795750600260009054906101000a900473ffffffffffffffffffffffffffffffffffffffff1673ffffffffffffffffffffffffffffffffffffffff163373ffffffffffffffffffffffffffffffffffffffff16145b1515610d8457600080fd5b600060056000836000191660001916815260200190815260200160002060009054906101000a900473ffffffffffffffffffffffffffffffffffffffff1673ffffffffffffffffffffffffffffffffffffffff1614158015610deb57506000816000191614155b15610e95576000600660003373ffffffffffffffffffffffffffffffffffffffff1673ffffffffffffffffffffffffffffffffffffffff1681526020019081526020016000208160001916905550600060056000836000191660001916815260200190815260200160002060006101000a81548173ffffffffffffffffffffffffffffffffffffffff021916908373ffffffffffffffffffffffffffffffffffffffff1602179055505b50565b6000600380549050905090565b610ead611ce3565b600382815481101515610ebc57fe5b9060005260206000209060040201600301805480602002602001604051908101604052809291908181526020018280548015610f1b57602002820191906000526020600020905b81546000191681526020019060010190808311610f03575b50505050509050919050565b60056020528060005260406000206000915054906101000a900473ffffffffffffffffffffffffffffffffffffffff1681565b6000809054906101000a900473ffffffffffffffffffffffffffffffffffffffff1673ffffffffffffffffffffffffffffffffffffffff163373ffffffffffffffffffffffffffffffffffffffff1614806110025750600160009054906101000a900473ffffffffffffffffffffffffffffffffffffffff1673ffffffffffffffffffffffffffffffffffffffff163373ffffffffffffffffffffffffffffffffffffffff16145b8061105a5750600260009054906101000a900473ffffffffffffffffffffffffffffffffffffffff1673ffffffffffffffffffffffffffffffffffffffff163373ffffffffffffffffffffffffffffffffffffffff16145b151561106557600080fd5b600073ffffffffffffffffffffffffffffffffffffffff168173ffffffffffffffffffffffffffffffffffffffff16141515156110a157600080fd5b80600160006101000a81548173ffffffffffffffffffffffffffffffffffffffff021916908373ffffffffffffffffffffffffffffffffffffffff16021790555050565b6110ed611ccf565b6003828154811015156110fc57fe5b906000526020600020906004020160010180548060200260200160405190810160405280929190818152602001828054801561118d57602002820191906000526020600020905b8160009054906101000a900473ffffffffffffffffffffffffffffffffffffffff1673ffffffffffffffffffffffffffffffffffffffff1681526020019060010190808311611143575b50505050509050919050565b6000809054906101000a900473ffffffffffffffffffffffffffffffffffffffff1673ffffffffffffffffffffffffffffffffffffffff163373ffffffffffffffffffffffffffffffffffffffff1614806112415750600160009054906101000a900473ffffffffffffffffffffffffffffffffffffffff1673ffffffffffffffffffffffffffffffffffffffff163373ffffffffffffffffffffffffffffffffffffffff16145b806112995750600260009054906101000a900473ffffffffffffffffffffffffffffffffffffffff1673ffffffffffffffffffffffffffffffffffffffff163373ffffffffffffffffffffffffffffffffffffffff16145b15156112a457600080fd5b600260149054906101000a900460ff161515156112c057600080fd5b6001600260146101000a81548160ff021916908315150217905550565b6000809054906101000a900473ffffffffffffffffffffffffffffffffffffffff1673ffffffffffffffffffffffffffffffffffffffff163373ffffffffffffffffffffffffffffffffffffffff1614151561133857600080fd5b600073ffffffffffffffffffffffffffffffffffffffff168173ffffffffffffffffffffffffffffffffffffffff161415151561137457600080fd5b806000806101000a81548173ffffffffffffffffffffffffffffffffffffffff021916908373ffffffffffffffffffffffffffffffffffffffff16021790555050565b600160009054906101000a900473ffffffffffffffffffffffffffffffffffffffff1681565b6000809054906101000a900473ffffffffffffffffffffffffffffffffffffffff1673ffffffffffffffffffffffffffffffffffffffff163373ffffffffffffffffffffffffffffffffffffffff1614806114855750600160009054906101000a900473ffffffffffffffffffffffffffffffffffffffff1673ffffffffffffffffffffffffffffffffffffffff163373ffffffffffffffffffffffffffffffffffffffff16145b806114dd5750600260009054906101000a900473ffffffffffffffffffffffffffffffffffffffff1673ffffffffffffffffffffffffffffffffffffffff163373ffffffffffffffffffffffffffffffffffffffff16145b15156114e857600080fd5b600073ffffffffffffffffffffffffffffffffffffffff168173ffffffffffffffffffffffffffffffffffffffff161415151561152457600080fd5b80600260006101000a81548173ffffffffffffffffffffffffffffffffffffffff021916908373ffffffffffffffffffffffffffffffffffffffff16021790555050565b600260009054906101000a900473ffffffffffffffffffffffffffffffffffffffff1681565b6000806000808260000160089054906101000a900467ffffffffffffffff1667ffffffffffffffff16421015156115c457600080fd5b6000600102600660003373ffffffffffffffffffffffffffffffffffffffff1673ffffffffffffffffffffffffffffffffffffffff168152602001908152602001600020546000191611151561161957600080fd5b600160038054905003935060038481548110151561163357fe5b9060005260206000209060040201925060009150600090505b826002018054905081101561187d573373ffffffffffffffffffffffffffffffffffffffff16836002018281548110151561168357fe5b906000526020600020900160009054906101000a900473ffffffffffffffffffffffffffffffffffffffff1673ffffffffffffffffffffffffffffffffffffffff161415611870576001915060018360020180549050111561186f578260020160018460020180549050038154811015156116fa57fe5b906000526020600020900160009054906101000a900473ffffffffffffffffffffffffffffffffffffffff16836002018281548110151561173757fe5b906000526020600020900160006101000a81548173ffffffffffffffffffffffffffffffffffffffff021916908373ffffffffffffffffffffffffffffffffffffffff16021790555082600301600184600201805490500381548110151561179b57fe5b90600052602060002090015483600301828154811015156117b857fe5b906000526020600020900181600019169055508260020160018460020180549050038154811015156117e657fe5b906000526020600020900160006101000a81549073ffffffffffffffffffffffffffffffffffffffff021916905582600301600184600201805490500381548110151561182f57fe5b906000526020600020900160009055826002018054809190600190036118559190611cf7565b508260030180548091906001900361186d9190611d23565b505b5b808060010191505061164c565b81151561188957600080fd5b50505050565b60066020528060005260406000206000915090505481565b60006118b1611ccf565b6118b9611ce3565b60006118c3611d4f565b60008060009054906101000a900473ffffffffffffffffffffffffffffffffffffffff1673ffffffffffffffffffffffffffffffffffffffff163373ffffffffffffffffffffffffffffffffffffffff16148061196d5750600160009054906101000a900473ffffffffffffffffffffffffffffffffffffffff1673ffffffffffffffffffffffffffffffffffffffff163373ffffffffffffffffffffffffffffffffffffffff16145b806119c55750600260009054906101000a900473ffffffffffffffffffffffffffffffffffffffff1673ffffffffffffffffffffffffffffffffffffffff163373ffffffffffffffffffffffffffffffffffffffff16145b15156119d057600080fd5b4267ffffffffffffffff168967ffffffffffffffff161115156119f257600080fd5b86518860ff16111515611a0457600080fd5b8694508651604051805910611a165750595b90808252806020026020018201604052509350600092505b8651831015611ac157600660008885815181101515611a4957fe5b9060200190602002015173ffffffffffffffffffffffffffffffffffffffff1673ffffffffffffffffffffffffffffffffffffffff168152602001908152602001600020548484815181101515611a9c57fe5b9060200190602002019060001916908160001916815250508280600101935050611a2e565b60c0604051908101604052804267ffffffffffffffff1681526020018a67ffffffffffffffff1681526020018960ff168152602001888152602001868152602001858152509150600160038054806001018281611b1e9190611daf565b9160005260206000209060040201600085909190915060008201518160000160006101000a81548167ffffffffffffffff021916908367ffffffffffffffff16021790555060208201518160000160086101000a81548167ffffffffffffffff021916908367ffffffffffffffff16021790555060408201518160000160106101000a81548160ff021916908360ff1602179055506060820151816001019080519060200190611bcf929190611de1565b506080820151816002019080519060200190611bec929190611de1565b5060a0820151816003019080519060200190611c09929190611e6b565b5050500390507f6c08c4f4120938bf9af43b49da6fa61eba64ebd2ffd368cbfb6bc9a7ab61bd168989604051808367ffffffffffffffff1667ffffffffffffffff1681526020018260ff1660ff1681526020019250505060405180910390a180955050505050509392505050565b815481835581811511611c9e57818360005260206000209182019101611c9d9190611ebe565b5b505050565b815481835581811511611cca57818360005260206000209182019101611cc99190611ee3565b5b505050565b602060405190810160405280600081525090565b602060405190810160405280600081525090565b815481835581811511611d1e57818360005260206000209182019101611d1d9190611ebe565b5b505050565b815481835581811511611d4a57818360005260206000209182019101611d499190611ee3565b5b505050565b60c060405190810160405280600067ffffffffffffffff168152602001600067ffffffffffffffff168152602001600060ff168152602001611d8f611f08565b8152602001611d9c611f08565b8152602001611da9611f1c565b81525090565b815481835581811511611ddc57600402816004028360005260206000209182019101611ddb9190611f30565b5b505050565b828054828255906000526020600020908101928215611e5a579160200282015b82811115611e595782518260006101000a81548173ffffffffffffffffffffffffffffffffffffffff021916908373ffffffffffffffffffffffffffffffffffffffff16021790555091602001919060010190611e01565b5b509050611e679190611fc9565b5090565b828054828255906000526020600020908101928215611ead579160200282015b82811115611eac578251829060001916905591602001919060010190611e8b565b5b509050611eba9190611ee3565b5090565b611ee091905b80821115611edc576000816000905550600101611ec4565b5090565b90565b611f0591905b80821115611f01576000816000905550600101611ee9565b5090565b90565b602060405190810160405280600081525090565b602060405190810160405280600081525090565b611fc691905b80821115611fc257600080820160006101000a81549067ffffffffffffffff02191690556000820160086101000a81549067ffffffffffffffff02191690556000820160106101000a81549060ff0219169055600182016000611f99919061200c565b600282016000611fa9919061200c565b600382016000611fb9919061202d565b50600401611f36565b5090565b90565b61200991905b8082111561200557600081816101000a81549073ffffffffffffffffffffffffffffffffffffffff021916905550600101611fcf565b5090565b90565b508054600082559060005260206000209081019061202a9190611ebe565b50565b508054600082559060005260206000209081019061204b9190611ee3565b505600a165627a7a723058209e4e8f7ba692dc48ca9a9595883f4a2e118f0f564c661bc43e0abed36eb1adc20029",
  "source": "pragma solidity ^0.4.18;\n\nimport \"./MeetupAccessControl.sol\";\n\n/// @title Base contract for Meetup. Holds all common structs, events and base variables.\n\n// Based on\n// https://github.com/axiomzen/cryptokitties-bounty/blob/master/contracts/KittyBase.sol\n// https://monax.io/docs/solidity/solidity_1_the_five_types_model/\n\ncontract MeetupBase is MeetupAccessControl {\n    /*** EVENTS ***/\n\n    // @dev The Creation event is fired whenever a new meetup event comes into existence. \n    //      These meetup events are created by event organiser or assistants \n    event Creation(uint64 startTime, uint8 maxCapacity);\n\n\n    /*** DATA TYPES ***/\n\n    struct Meetup {\n        // The timestamp from the block when the meetup event is created.\n        uint64 createTime;\n\n        // The timestamp from the block when the meetup event is scheduled to start.\n        uint64 startTime;\n\n        // Capacity of the meeting.\n        uint8 maxCapacity;\n\n        // Address of the presenters.\n        address[] presenters;\n\n        // Address of people who register for the event.\n        // Only the top maxCapacity people will be able to enter.\n        // The rest will be on the waiting list.\n        address[] registrationList;\n\n        bytes32[] registeredUserNames;\n    }\n\n    /*** STORAGE ***/\n\n    /// @dev An array containing the Meetup struct for all Meetups in existence. \n    Meetup[] public meetups;\n\n    /// @dev A mapping from user address to points\n    mapping (address => uint256) public addressToPoints;\n\n    // Here we store the names. Make it public to automatically generate an\n    // accessor function named 'users' that takes a fixed-length string as argument.\n    mapping (bytes32 => address) public userToAddress;\n    mapping (address => bytes32) public addressToUser;\n\n\n    // Initialise contract with the owner taking all three roles\n    // These can later be transferred to the right person\n    function MeetupBase() public {\n        organiserAddress = msg.sender;\n        assistantAddress_1 = msg.sender;\n        assistantAddress_2 = msg.sender;\n    }\n\n    // Register the provided name with the caller address.\n    // Also, we don't want them to register \"\" as their name.\n    function registerUser(bytes32 name) public {\n        // require(\n        //     msg.sender == userToAddress[name] ||\n        //     msg.sender == organiserAddress ||\n        //     msg.sender == assistantAddress_1 ||\n        //     msg.sender == assistantAddress_2\n        // );\n        \n        if(userToAddress[name] == 0 && name != \"\"){\n            addressToUser[msg.sender] = name;\n            userToAddress[name] = msg.sender;            \n            addressToPoints[msg.sender] = 100;\n        }\n    }\n\n    // Deregister the provided name with the caller address.\n    // Only user him/herself or assistants can deregister a user\n    function deregisterUser(bytes32 name) public onlyAssistant {        \n        // require(\n        //     msg.sender == users[name] ||\n        //     msg.sender == organiserAddress ||\n        //     msg.sender == assistantAddress_1 ||\n        //     msg.sender == assistantAddress_2\n        // );\n        if(userToAddress[name] != 0 && name != \"\"){\n            addressToUser[msg.sender] = \"\";\n            userToAddress[name] = 0x0;\n        }\n    }\n\n    // @param _timeUntilMeetup Time until the scheduled meeting start time\n    // @param _maxCapacity Maximum capacity of the meeting.\n    // @param _presenters Addresses of presenters.\n    function createMeetup (            \n        uint64 _startTime,        \n        uint8 _maxCapacity,       \n        address[] _presenters\n    )\n        public\n        onlyAssistant() \n        returns (uint256)\n    {\n\n        // Can't create a meetup in the past\n        require(uint64(_startTime) > uint64(now));\n\n        // Must have at least 1 extra spot\n        require(_maxCapacity > _presenters.length);\n\n        address[] memory _registrationList = _presenters;\n        bytes32[] memory _registeredUserNames = new bytes32[](_presenters.length);\n\n        // Map address to names\n        for (uint i = 0; i < _presenters.length; i++) {\n            _registeredUserNames[i] = addressToUser[_presenters[i]];\n        }      \n        \n\n        \n        Meetup memory _meetup = Meetup({            \n            createTime: uint64(now),\n            startTime: uint64(_startTime),\n            maxCapacity: _maxCapacity,\n            presenters: _presenters,\n            registrationList: _registrationList,\n            registeredUserNames: _registeredUserNames\n        });\n\n        uint256 newMeetupId = meetups.push(_meetup) - 1 ;\n\n        // emit the creation event\n        Creation(_startTime, _maxCapacity);\n\n        return newMeetupId;\n    }\n\n\n\tfunction getPresenters(uint i) public view returns (address[]){\n\t\treturn meetups[i].presenters;\n\t}\n\n    function getRegistrationList(uint i) public view returns (address[]){\n        return meetups[i].registrationList;\n    }\n\n    function getRegisteredUserNames(uint i) public view returns (bytes32[]){\n        return meetups[i].registeredUserNames;\n    }\n\n\n    function joinNextMeetup ()\n        public        \n        // returns (bool)\n    {\n        // require(userToAddress[_userName] == msg.sender);\n        // require(userToAddress[_userName] != address(0));        \n        require(addressToUser[msg.sender] > 0);\n\n        uint256 _meetupId = meetups.length - 1;\n        Meetup storage _meetup = meetups[_meetupId];\n\n        // Can't join a meetup that has already started.\n        require(now < _meetup.startTime);        \n\n        // Can't join twice\n        for (uint i = 0; i < _meetup.registrationList.length; i++) {\n            if (_meetup.registrationList[i] == msg.sender) {\n                revert();\n            }\n        }      \n\n        bytes32 _userName = addressToUser[msg.sender];\n        _meetup.registrationList.push(msg.sender);\n        _meetup.registeredUserNames.push(_userName);\n        // deduct deposit\n        // addressToPoints[msg.sender] = addressToPoints[msg.sender] - 50;\n\n    }\n\n    function leaveNextMeetup ()\n        public        \n        // returns (bool)\n    {\n        // Can't leave a meetup that has already started.\n        require(now < _meetup.startTime);        \n\n        // Have to be a registered user\n        require(addressToUser[msg.sender] > 0);        \n\n        uint256 _meetupId = meetups.length - 1;\n        Meetup storage _meetup = meetups[_meetupId];\n\n        // Have to be registered to leave\n        bool hasJoined = false;\n        for (uint i = 0; i < _meetup.registrationList.length; i++) {\n            if (_meetup.registrationList[i] == msg.sender) {\n                hasJoined = true;\n\n                // can't leave the meetup if there's only one person!\n                if (_meetup.registrationList.length > 1) {\n                    // shift the last entry to the delted entry\n                    _meetup.registrationList[i] = _meetup.registrationList[_meetup.registrationList.length-1];\n                    _meetup.registeredUserNames[i] = _meetup.registeredUserNames[_meetup.registrationList.length-1];\n\n                    // delete the last entry\n                    delete(_meetup.registrationList[_meetup.registrationList.length-1]);\n                    delete(_meetup.registeredUserNames[_meetup.registrationList.length-1]);\n\n                    // update length\n                    _meetup.registrationList.length--;\n                    _meetup.registeredUserNames.length--;\n                }                \n            }\n        }      \n        require(hasJoined);\n    }\n\n    function getMeetupCount () public view returns (uint256) {\n        return meetups.length;\n    }\n  \n\n}\n\n\n\n\n\n// list of meetup members: \n// http://api.meetup.com/BokkyPooBahs-Ethereum-Workshop/members\n",
  "sourcePath": "/home/zeming/work/blockchain/meetup-queue/react-uport/contracts/MeetupBase.sol",
  "compiler": {
    "name": "solc",
    "version": "0.4.18+commit.9cf6e910.Emscripten.clang"
  },
  "schemaVersion": "1.0.1",
  "updatedAt": "2018-03-22T10:39:48.550Z"
}