{
  "contractName": "MeetupBase",
  "abi": [
    {
      "constant": true,
      "inputs": [],
      "name": "organiserAddress",
      "outputs": [
        {
          "name": "",
          "type": "address"
        }
      ],
      "payable": false,
      "stateMutability": "view",
      "type": "function"
    },
    {
      "constant": true,
      "inputs": [
        {
          "name": "",
          "type": "address"
        }
      ],
      "name": "userToPoints",
      "outputs": [
        {
          "name": "",
          "type": "int256"
        }
      ],
      "payable": false,
      "stateMutability": "view",
      "type": "function"
    },
    {
      "constant": true,
      "inputs": [
        {
          "name": "",
          "type": "uint256"
        }
      ],
      "name": "meetups",
      "outputs": [
        {
          "name": "birthTime",
          "type": "uint64"
        },
        {
          "name": "startTime",
          "type": "uint64"
        },
        {
          "name": "maxCapacity",
          "type": "uint8"
        }
      ],
      "payable": false,
      "stateMutability": "view",
      "type": "function"
    },
    {
      "constant": false,
      "inputs": [],
      "name": "unpause",
      "outputs": [],
      "payable": false,
      "stateMutability": "nonpayable",
      "type": "function"
    },
    {
      "constant": false,
      "inputs": [
        {
          "name": "_newAssistant",
          "type": "address"
        }
      ],
      "name": "setAssistant_1",
      "outputs": [],
      "payable": false,
      "stateMutability": "nonpayable",
      "type": "function"
    },
    {
      "constant": false,
      "inputs": [],
      "name": "pause",
      "outputs": [],
      "payable": false,
      "stateMutability": "nonpayable",
      "type": "function"
    },
    {
      "constant": false,
      "inputs": [
        {
          "name": "_newOrganiser",
          "type": "address"
        }
      ],
      "name": "setOrganiser",
      "outputs": [],
      "payable": false,
      "stateMutability": "nonpayable",
      "type": "function"
    },
    {
      "constant": true,
      "inputs": [],
      "name": "assistantAddress_1",
      "outputs": [
        {
          "name": "",
          "type": "address"
        }
      ],
      "payable": false,
      "stateMutability": "view",
      "type": "function"
    },
    {
      "constant": true,
      "inputs": [
        {
          "name": "",
          "type": "bytes32"
        }
      ],
      "name": "users",
      "outputs": [
        {
          "name": "",
          "type": "address"
        }
      ],
      "payable": false,
      "stateMutability": "view",
      "type": "function"
    },
    {
      "constant": false,
      "inputs": [
        {
          "name": "_newAssistant",
          "type": "address"
        }
      ],
      "name": "setAssistant_2",
      "outputs": [],
      "payable": false,
      "stateMutability": "nonpayable",
      "type": "function"
    },
    {
      "constant": true,
      "inputs": [],
      "name": "assistantAddress_2",
      "outputs": [
        {
          "name": "",
          "type": "address"
        }
      ],
      "payable": false,
      "stateMutability": "view",
      "type": "function"
    },
    {
      "inputs": [],
      "payable": false,
      "stateMutability": "nonpayable",
      "type": "constructor"
    },
    {
      "anonymous": false,
      "inputs": [
        {
          "indexed": false,
          "name": "timeUntilMeetup",
          "type": "uint64"
        },
        {
          "indexed": false,
          "name": "maxCapacity",
          "type": "uint8"
        }
      ],
      "name": "Birth",
      "type": "event"
    },
    {
      "constant": false,
      "inputs": [
        {
          "name": "name",
          "type": "bytes32"
        }
      ],
      "name": "registerUser",
      "outputs": [],
      "payable": false,
      "stateMutability": "nonpayable",
      "type": "function"
    },
    {
      "constant": false,
      "inputs": [
        {
          "name": "name",
          "type": "bytes32"
        }
      ],
      "name": "deregisterUser",
      "outputs": [],
      "payable": false,
      "stateMutability": "nonpayable",
      "type": "function"
    },
    {
      "constant": false,
      "inputs": [
        {
          "name": "_timeUntilMeetup",
          "type": "uint64"
        },
        {
          "name": "_maxCapacity",
          "type": "uint8"
        },
        {
          "name": "_presenters",
          "type": "address[]"
        }
      ],
      "name": "createMeetup",
      "outputs": [
        {
          "name": "",
          "type": "uint256"
        }
      ],
      "payable": false,
      "stateMutability": "nonpayable",
      "type": "function"
    },
    {
      "constant": true,
      "inputs": [
        {
          "name": "i",
          "type": "uint256"
        }
      ],
      "name": "getPresenters",
      "outputs": [
        {
          "name": "",
          "type": "address[]"
        }
      ],
      "payable": false,
      "stateMutability": "view",
      "type": "function"
    },
    {
      "constant": true,
      "inputs": [
        {
          "name": "i",
          "type": "uint256"
        }
      ],
      "name": "getRegistrationList",
      "outputs": [
        {
          "name": "",
          "type": "address[]"
        }
      ],
      "payable": false,
      "stateMutability": "view",
      "type": "function"
    },
    {
      "constant": false,
      "inputs": [
        {
          "name": "_userName",
          "type": "bytes32"
        }
      ],
      "name": "joinNextMeetup",
      "outputs": [],
      "payable": false,
      "stateMutability": "nonpayable",
      "type": "function"
    },
    {
      "constant": true,
      "inputs": [],
      "name": "getMeetupCount",
      "outputs": [
        {
          "name": "",
          "type": "uint256"
        }
      ],
      "payable": false,
      "stateMutability": "view",
      "type": "function"
    }
  ],
  "bytecode": "0x60606040526000600260146101000a81548160ff021916908315150217905550341561002a57600080fd5b336000806101000a81548173ffffffffffffffffffffffffffffffffffffffff021916908373ffffffffffffffffffffffffffffffffffffffff16021790555033600160006101000a81548173ffffffffffffffffffffffffffffffffffffffff021916908373ffffffffffffffffffffffffffffffffffffffff16021790555033600260006101000a81548173ffffffffffffffffffffffffffffffffffffffff021916908373ffffffffffffffffffffffffffffffffffffffff1602179055506118c8806100fb6000396000f3006060604052600436106100fc576000357c0100000000000000000000000000000000000000000000000000000000900463ffffffff16806304e3c9b8146101015780632ae6b135146101565780632dc03259146101a357806337026ae1146101ca5780633f4ba83a1461023d578063430f19151461025257806347546970146102ca578063539f7fb7146102f157806353a81dcc1461031a57806377bdfc571461034157806379c685e21461037a5780638456cb59146103f25780638c4b0e7e14610407578063c8ded43e14610440578063cea6ab9814610495578063d9231927146104fc578063d92a174514610535578063f33a4c501461058a575b600080fd5b341561010c57600080fd5b610114610617565b604051808273ffffffffffffffffffffffffffffffffffffffff1673ffffffffffffffffffffffffffffffffffffffff16815260200191505060405180910390f35b341561016157600080fd5b61018d600480803573ffffffffffffffffffffffffffffffffffffffff1690602001909190505061063c565b6040518082815260200191505060405180910390f35b34156101ae57600080fd5b6101c8600480803560001916906020019091905050610654565b005b34156101d557600080fd5b6101eb600480803590602001909190505061071d565b604051808467ffffffffffffffff1667ffffffffffffffff1681526020018367ffffffffffffffff1667ffffffffffffffff1681526020018260ff1660ff168152602001935050505060405180910390f35b341561024857600080fd5b61025061078b565b005b341561025d57600080fd5b610273600480803590602001909190505061081e565b6040518080602001828103825283818151815260200191508051906020019060200280838360005b838110156102b657808201518184015260208101905061029b565b505050509050019250505060405180910390f35b34156102d557600080fd5b6102ef6004808035600019169060200190919050506108d2565b005b34156102fc57600080fd5b610304610aa8565b6040518082815260200191505060405180910390f35b341561032557600080fd5b61033f600480803560001916906020019091905050610ab5565b005b341561034c57600080fd5b610378600480803573ffffffffffffffffffffffffffffffffffffffff16906020019091905050610d01565b005b341561038557600080fd5b61039b6004808035906020019091905050610e8c565b6040518080602001828103825283818151815260200191508051906020019060200280838360005b838110156103de5780820151818401526020810190506103c3565b505050509050019250505060405180910390f35b34156103fd57600080fd5b610405610f40565b005b341561041257600080fd5b61043e600480803573ffffffffffffffffffffffffffffffffffffffff16906020019091905050611084565b005b341561044b57600080fd5b61045361115e565b604051808273ffffffffffffffffffffffffffffffffffffffff1673ffffffffffffffffffffffffffffffffffffffff16815260200191505060405180910390f35b34156104a057600080fd5b6104ba600480803560001916906020019091905050611184565b604051808273ffffffffffffffffffffffffffffffffffffffff1673ffffffffffffffffffffffffffffffffffffffff16815260200191505060405180910390f35b341561050757600080fd5b610533600480803573ffffffffffffffffffffffffffffffffffffffff169060200190919050506111b7565b005b341561054057600080fd5b610548611342565b604051808273ffffffffffffffffffffffffffffffffffffffff1673ffffffffffffffffffffffffffffffffffffffff16815260200191505060405180910390f35b341561059557600080fd5b610601600480803567ffffffffffffffff1690602001909190803560ff1690602001909190803590602001908201803590602001908080602002602001604051908101604052809392919081815260200183836020028082843782019150505050505091905050611368565b6040518082815260200191505060405180910390f35b6000809054906101000a900473ffffffffffffffffffffffffffffffffffffffff1681565b60046020528060005260406000206000915090505481565b600060056000836000191660001916815260200190815260200160002060009054906101000a900473ffffffffffffffffffffffffffffffffffffffff1673ffffffffffffffffffffffffffffffffffffffff161480156106ba57506000816000191614155b1561071a573360056000836000191660001916815260200190815260200160002060006101000a81548173ffffffffffffffffffffffffffffffffffffffff021916908373ffffffffffffffffffffffffffffffffffffffff1602179055505b50565b60038181548110151561072c57fe5b90600052602060002090600302016000915090508060000160009054906101000a900467ffffffffffffffff16908060000160089054906101000a900467ffffffffffffffff16908060000160109054906101000a900460ff16905083565b6000809054906101000a900473ffffffffffffffffffffffffffffffffffffffff1673ffffffffffffffffffffffffffffffffffffffff163373ffffffffffffffffffffffffffffffffffffffff161415156107e657600080fd5b600260149054906101000a900460ff16151561080157600080fd5b6000600260146101000a81548160ff021916908315150217905550565b610826611627565b60038281548110151561083557fe5b90600052602060002090600302016002018054806020026020016040519081016040528092919081815260200182805480156108c657602002820191906000526020600020905b8160009054906101000a900473ffffffffffffffffffffffffffffffffffffffff1673ffffffffffffffffffffffffffffffffffffffff168152602001906001019080831161087c575b50505050509050919050565b6000809054906101000a900473ffffffffffffffffffffffffffffffffffffffff1673ffffffffffffffffffffffffffffffffffffffff163373ffffffffffffffffffffffffffffffffffffffff16148061097a5750600160009054906101000a900473ffffffffffffffffffffffffffffffffffffffff1673ffffffffffffffffffffffffffffffffffffffff163373ffffffffffffffffffffffffffffffffffffffff16145b806109d25750600260009054906101000a900473ffffffffffffffffffffffffffffffffffffffff1673ffffffffffffffffffffffffffffffffffffffff163373ffffffffffffffffffffffffffffffffffffffff16145b15156109dd57600080fd5b600060056000836000191660001916815260200190815260200160002060009054906101000a900473ffffffffffffffffffffffffffffffffffffffff1673ffffffffffffffffffffffffffffffffffffffff1614158015610a4457506000816000191614155b15610aa557600060056000836000191660001916815260200190815260200160002060006101000a81548173ffffffffffffffffffffffffffffffffffffffff021916908373ffffffffffffffffffffffffffffffffffffffff1602179055505b50565b6000600380549050905090565b60008060003373ffffffffffffffffffffffffffffffffffffffff1660056000866000191660001916815260200190815260200160002060009054906101000a900473ffffffffffffffffffffffffffffffffffffffff1673ffffffffffffffffffffffffffffffffffffffff16141515610b2f57600080fd5b600073ffffffffffffffffffffffffffffffffffffffff1660056000866000191660001916815260200190815260200160002060009054906101000a900473ffffffffffffffffffffffffffffffffffffffff1673ffffffffffffffffffffffffffffffffffffffff1614151515610ba657600080fd5b6001600380549050039250600383815481101515610bc057fe5b906000526020600020906003020191508160000160089054906101000a900467ffffffffffffffff1667ffffffffffffffff1642101515610c0057600080fd5b600090505b8160020180549050811015610c96573373ffffffffffffffffffffffffffffffffffffffff168260020182815481101515610c3c57fe5b906000526020600020900160009054906101000a900473ffffffffffffffffffffffffffffffffffffffff1673ffffffffffffffffffffffffffffffffffffffff161415610c8957600080fd5b8080600101915050610c05565b816002018054806001018281610cac919061163b565b9160005260206000209001600033909190916101000a81548173ffffffffffffffffffffffffffffffffffffffff021916908373ffffffffffffffffffffffffffffffffffffffff1602179055505050505050565b6000809054906101000a900473ffffffffffffffffffffffffffffffffffffffff1673ffffffffffffffffffffffffffffffffffffffff163373ffffffffffffffffffffffffffffffffffffffff161480610da95750600160009054906101000a900473ffffffffffffffffffffffffffffffffffffffff1673ffffffffffffffffffffffffffffffffffffffff163373ffffffffffffffffffffffffffffffffffffffff16145b80610e015750600260009054906101000a900473ffffffffffffffffffffffffffffffffffffffff1673ffffffffffffffffffffffffffffffffffffffff163373ffffffffffffffffffffffffffffffffffffffff16145b1515610e0c57600080fd5b600073ffffffffffffffffffffffffffffffffffffffff168173ffffffffffffffffffffffffffffffffffffffff1614151515610e4857600080fd5b80600160006101000a81548173ffffffffffffffffffffffffffffffffffffffff021916908373ffffffffffffffffffffffffffffffffffffffff16021790555050565b610e94611627565b600382815481101515610ea357fe5b9060005260206000209060030201600101805480602002602001604051908101604052809291908181526020018280548015610f3457602002820191906000526020600020905b8160009054906101000a900473ffffffffffffffffffffffffffffffffffffffff1673ffffffffffffffffffffffffffffffffffffffff1681526020019060010190808311610eea575b50505050509050919050565b6000809054906101000a900473ffffffffffffffffffffffffffffffffffffffff1673ffffffffffffffffffffffffffffffffffffffff163373ffffffffffffffffffffffffffffffffffffffff161480610fe85750600160009054906101000a900473ffffffffffffffffffffffffffffffffffffffff1673ffffffffffffffffffffffffffffffffffffffff163373ffffffffffffffffffffffffffffffffffffffff16145b806110405750600260009054906101000a900473ffffffffffffffffffffffffffffffffffffffff1673ffffffffffffffffffffffffffffffffffffffff163373ffffffffffffffffffffffffffffffffffffffff16145b151561104b57600080fd5b600260149054906101000a900460ff1615151561106757600080fd5b6001600260146101000a81548160ff021916908315150217905550565b6000809054906101000a900473ffffffffffffffffffffffffffffffffffffffff1673ffffffffffffffffffffffffffffffffffffffff163373ffffffffffffffffffffffffffffffffffffffff161415156110df57600080fd5b600073ffffffffffffffffffffffffffffffffffffffff168173ffffffffffffffffffffffffffffffffffffffff161415151561111b57600080fd5b806000806101000a81548173ffffffffffffffffffffffffffffffffffffffff021916908373ffffffffffffffffffffffffffffffffffffffff16021790555050565b600160009054906101000a900473ffffffffffffffffffffffffffffffffffffffff1681565b60056020528060005260406000206000915054906101000a900473ffffffffffffffffffffffffffffffffffffffff1681565b6000809054906101000a900473ffffffffffffffffffffffffffffffffffffffff1673ffffffffffffffffffffffffffffffffffffffff163373ffffffffffffffffffffffffffffffffffffffff16148061125f5750600160009054906101000a900473ffffffffffffffffffffffffffffffffffffffff1673ffffffffffffffffffffffffffffffffffffffff163373ffffffffffffffffffffffffffffffffffffffff16145b806112b75750600260009054906101000a900473ffffffffffffffffffffffffffffffffffffffff1673ffffffffffffffffffffffffffffffffffffffff163373ffffffffffffffffffffffffffffffffffffffff16145b15156112c257600080fd5b600073ffffffffffffffffffffffffffffffffffffffff168173ffffffffffffffffffffffffffffffffffffffff16141515156112fe57600080fd5b80600260006101000a81548173ffffffffffffffffffffffffffffffffffffffff021916908373ffffffffffffffffffffffffffffffffffffffff16021790555050565b600260009054906101000a900473ffffffffffffffffffffffffffffffffffffffff1681565b6000611372611627565b61137a611667565b60008060009054906101000a900473ffffffffffffffffffffffffffffffffffffffff1673ffffffffffffffffffffffffffffffffffffffff163373ffffffffffffffffffffffffffffffffffffffff1614806114245750600160009054906101000a900473ffffffffffffffffffffffffffffffffffffffff1673ffffffffffffffffffffffffffffffffffffffff163373ffffffffffffffffffffffffffffffffffffffff16145b8061147c5750600260009054906101000a900473ffffffffffffffffffffffffffffffffffffffff1673ffffffffffffffffffffffffffffffffffffffff163373ffffffffffffffffffffffffffffffffffffffff16145b151561148757600080fd5b84925060a0604051908101604052804267ffffffffffffffff1681526020018867ffffffffffffffff16420167ffffffffffffffff1681526020018760ff1681526020018681526020018481525091506001600380548060010182816114ed91906116ba565b9160005260206000209060030201600085909190915060008201518160000160006101000a81548167ffffffffffffffff021916908367ffffffffffffffff16021790555060208201518160000160086101000a81548167ffffffffffffffff021916908367ffffffffffffffff16021790555060408201518160000160106101000a81548160ff021916908360ff160217905550606082015181600101908051906020019061159e9291906116ec565b5060808201518160020190805190602001906115bb9291906116ec565b5050500390507f28972991b28557e0dfac62c83b4eb863d13d65ad467e70e6e0a0ece1c1bafac98787604051808367ffffffffffffffff1667ffffffffffffffff1681526020018260ff1660ff1681526020019250505060405180910390a18093505050509392505050565b602060405190810160405280600081525090565b815481835581811511611662578183600052602060002091820191016116619190611776565b5b505050565b60a060405190810160405280600067ffffffffffffffff168152602001600067ffffffffffffffff168152602001600060ff1681526020016116a761179b565b81526020016116b461179b565b81525090565b8154818355818115116116e7576003028160030283600052602060002091820191016116e691906117af565b5b505050565b828054828255906000526020600020908101928215611765579160200282015b828111156117645782518260006101000a81548173ffffffffffffffffffffffffffffffffffffffff021916908373ffffffffffffffffffffffffffffffffffffffff1602179055509160200191906001019061170c565b5b5090506117729190611838565b5090565b61179891905b8082111561179457600081600090555060010161177c565b5090565b90565b602060405190810160405280600081525090565b61183591905b8082111561183157600080820160006101000a81549067ffffffffffffffff02191690556000820160086101000a81549067ffffffffffffffff02191690556000820160106101000a81549060ff0219169055600182016000611818919061187b565b600282016000611828919061187b565b506003016117b5565b5090565b90565b61187891905b8082111561187457600081816101000a81549073ffffffffffffffffffffffffffffffffffffffff02191690555060010161183e565b5090565b90565b50805460008255906000526020600020908101906118999190611776565b505600a165627a7a7230582040ba4a01febc3c6ca5092fd2f33a0ebfa837a2ff00c86112f68f862c8e5d55950029",
  "source": "pragma solidity ^0.4.18;\n\nimport \"./MeetupAccessControl.sol\";\n\n/// @title Base contract for Meetup. Holds all common structs, events and base variables.\n\n// Based on\n// https://github.com/axiomzen/cryptokitties-bounty/blob/master/contracts/KittyBase.sol\n// https://monax.io/docs/solidity/solidity_1_the_five_types_model/\n\ncontract MeetupBase is MeetupAccessControl {\n    /*** EVENTS ***/\n\n    // @dev The Birth event is fired whenever a new meetup event comes into existence. \n    //      These meetup events are created by event organiser or assistants \n    event Birth(uint64 timeUntilMeetup, uint8 maxCapacity);\n\n\n    /*** DATA TYPES ***/\n\n    struct Meetup {\n        // The timestamp from the block when the meetup event is created.\n        uint64 birthTime;\n\n        // The timestamp from the block when the meetup event is scheduled to start.\n        uint64 startTime;\n\n        // Capacity of the meeting.\n        uint8 maxCapacity;\n\n        // Address of the presenters.\n        address[] presenters;\n\n        // Address of people who register for the event.\n        // Only the top maxCapacity people will be able to enter.\n        // The rest will be on the waiting list.\n        address[] registrationList;\n    }\n\n    /*** STORAGE ***/\n\n    /// @dev An array containing the Meetup struct for all Meetups in existence. \n    Meetup[] public meetups;\n\n    /// @dev A mapping from user address to points\n    mapping (address => int256) public userToPoints;\n\n    // Here we store the names. Make it public to automatically generate an\n    // accessor function named 'users' that takes a fixed-length string as argument.\n    mapping (bytes32 => address) public users;\n\n\n    // Initialise contract with the owner taking all three roles\n    // These can later be transferred to the right person\n    function MeetupBase() public {\n        organiserAddress = msg.sender;\n        assistantAddress_1 = msg.sender;\n        assistantAddress_2 = msg.sender;\n    }\n\n    // Register the provided name with the caller address.\n    // Also, we don't want them to register \"\" as their name.\n    function registerUser(bytes32 name) public {\n        // require(\n        //     msg.sender == users[name] ||\n        //     msg.sender == organiserAddress ||\n        //     msg.sender == assistantAddress_1 ||\n        //     msg.sender == assistantAddress_2\n        // );\n        \n        if(users[name] == 0 && name != \"\"){\n            users[name] = msg.sender;\n        }\n    }\n\n    // Deregister the provided name with the caller address.\n    // Only user him/herself or assistants can deregister a user\n    function deregisterUser(bytes32 name) public onlyAssistant {        \n        // require(\n        //     msg.sender == users[name] ||\n        //     msg.sender == organiserAddress ||\n        //     msg.sender == assistantAddress_1 ||\n        //     msg.sender == assistantAddress_2\n        // );\n        if(users[name] != 0 && name != \"\"){\n            users[name] = 0x0;\n        }\n    }\n\n    // @param _timeUntilMeetup Time until the scheduled meeting start time\n    // @param _maxCapacity Maximum capacity of the meeting.\n    // @param _presenters Addresses of presenters.\n    function createMeetup (            \n        uint64 _timeUntilMeetup,        \n        uint8 _maxCapacity,       \n        address[] _presenters\n    )\n        public\n        onlyAssistant() \n        returns (uint256)\n    {\n\n        address[] memory _registrationList = _presenters;\n        \n        Meetup memory _meetup = Meetup({            \n            birthTime: uint64(now),\n            startTime: uint64(now + _timeUntilMeetup),            \n            maxCapacity: _maxCapacity,\n            presenters: _presenters,\n            registrationList: _registrationList\n        });\n\n        uint256 newMeetupId = meetups.push(_meetup) - 1 ;\n\n        // emit the birth event\n        Birth(_timeUntilMeetup, _maxCapacity);\n\n        return newMeetupId;\n    }\n\n\tfunction getPresenters(uint i) public view returns (address[]){\n\t\treturn meetups[i].presenters;\n\t}\n\n    function getRegistrationList(uint i) public view returns (address[]){\n        return meetups[i].registrationList;\n    }\n\n\n\n    function joinNextMeetup (bytes32 _userName)\n        public        \n        // returns (bool)\n    {\n        require(users[_userName] == msg.sender);\n        require(users[_userName] != address(0));        \n\n        uint256 _meetupId = meetups.length - 1;\n        Meetup storage _meetup = meetups[_meetupId];\n\n        // Can't join a meetup that has already started.\n        require(now < _meetup.startTime);        \n\n        // Can't join twice\n        for (uint i = 0; i < _meetup.registrationList.length; i++) {\n            if (_meetup.registrationList[i] == msg.sender) {\n                revert();\n            }\n        }      \n\n        \n        _meetup.registrationList.push(msg.sender);\n\n    }\n\n    function getMeetupCount () public view returns (uint256) {\n        return meetups.length;\n    }\n  \n\n}\n\n\n\n\n\n// list of meetup members: \n// http://api.meetup.com/BokkyPooBahs-Ethereum-Workshop/members\n",
  "sourcePath": "/home/zeming/work/blockchain/meetup-queue/react-uport/contracts/MeetupBase.sol",
  "compiler": {
    "name": "solc",
    "version": "0.4.19+commit.c4cbbb05.Emscripten.clang"
  },
  "schemaVersion": "2.0.0",
  "updatedAt": "2018-03-20T07:42:02.998Z"
}