{
  "contractName": "MeetupBase",
  "abi": [
    {
      "constant": true,
      "inputs": [],
      "name": "organiserAddress",
      "outputs": [
        {
          "name": "",
          "type": "address"
        }
      ],
      "payable": false,
      "stateMutability": "view",
      "type": "function"
    },
    {
      "constant": true,
      "inputs": [
        {
          "name": "",
          "type": "address"
        }
      ],
      "name": "addressToPoints",
      "outputs": [
        {
          "name": "",
          "type": "uint256"
        }
      ],
      "payable": false,
      "stateMutability": "view",
      "type": "function"
    },
    {
      "constant": false,
      "inputs": [
        {
          "name": "name",
          "type": "bytes32"
        }
      ],
      "name": "registerUser",
      "outputs": [],
      "payable": false,
      "stateMutability": "nonpayable",
      "type": "function"
    },
    {
      "constant": false,
      "inputs": [],
      "name": "joinNextMeetup",
      "outputs": [],
      "payable": false,
      "stateMutability": "nonpayable",
      "type": "function"
    },
    {
      "constant": true,
      "inputs": [
        {
          "name": "",
          "type": "uint256"
        }
      ],
      "name": "meetups",
      "outputs": [
        {
          "name": "createTime",
          "type": "uint64"
        },
        {
          "name": "startTime",
          "type": "uint64"
        },
        {
          "name": "maxCapacity",
          "type": "uint8"
        }
      ],
      "payable": false,
      "stateMutability": "view",
      "type": "function"
    },
    {
      "constant": false,
      "inputs": [],
      "name": "unpause",
      "outputs": [],
      "payable": false,
      "stateMutability": "nonpayable",
      "type": "function"
    },
    {
      "constant": true,
      "inputs": [
        {
          "name": "i",
          "type": "uint256"
        }
      ],
      "name": "getRegistrationList",
      "outputs": [
        {
          "name": "",
          "type": "address[]"
        }
      ],
      "payable": false,
      "stateMutability": "view",
      "type": "function"
    },
    {
      "constant": false,
      "inputs": [
        {
          "name": "name",
          "type": "bytes32"
        }
      ],
      "name": "deregisterUser",
      "outputs": [],
      "payable": false,
      "stateMutability": "nonpayable",
      "type": "function"
    },
    {
      "constant": true,
      "inputs": [],
      "name": "getMeetupCount",
      "outputs": [
        {
          "name": "",
          "type": "uint256"
        }
      ],
      "payable": false,
      "stateMutability": "view",
      "type": "function"
    },
    {
      "constant": true,
      "inputs": [
        {
          "name": "i",
          "type": "uint256"
        }
      ],
      "name": "getRegisteredUserNames",
      "outputs": [
        {
          "name": "",
          "type": "bytes32[]"
        }
      ],
      "payable": false,
      "stateMutability": "view",
      "type": "function"
    },
    {
      "constant": true,
      "inputs": [
        {
          "name": "",
          "type": "bytes32"
        }
      ],
      "name": "userToAddress",
      "outputs": [
        {
          "name": "",
          "type": "address"
        }
      ],
      "payable": false,
      "stateMutability": "view",
      "type": "function"
    },
    {
      "constant": false,
      "inputs": [
        {
          "name": "_newAssistant",
          "type": "address"
        }
      ],
      "name": "setAssistant_1",
      "outputs": [],
      "payable": false,
      "stateMutability": "nonpayable",
      "type": "function"
    },
    {
      "constant": true,
      "inputs": [
        {
          "name": "i",
          "type": "uint256"
        }
      ],
      "name": "getPresenters",
      "outputs": [
        {
          "name": "",
          "type": "address[]"
        }
      ],
      "payable": false,
      "stateMutability": "view",
      "type": "function"
    },
    {
      "constant": false,
      "inputs": [],
      "name": "pause",
      "outputs": [],
      "payable": false,
      "stateMutability": "nonpayable",
      "type": "function"
    },
    {
      "constant": false,
      "inputs": [
        {
          "name": "_newOrganiser",
          "type": "address"
        }
      ],
      "name": "setOrganiser",
      "outputs": [],
      "payable": false,
      "stateMutability": "nonpayable",
      "type": "function"
    },
    {
      "constant": true,
      "inputs": [],
      "name": "assistantAddress_1",
      "outputs": [
        {
          "name": "",
          "type": "address"
        }
      ],
      "payable": false,
      "stateMutability": "view",
      "type": "function"
    },
    {
      "constant": false,
      "inputs": [
        {
          "name": "_newAssistant",
          "type": "address"
        }
      ],
      "name": "setAssistant_2",
      "outputs": [],
      "payable": false,
      "stateMutability": "nonpayable",
      "type": "function"
    },
    {
      "constant": true,
      "inputs": [],
      "name": "assistantAddress_2",
      "outputs": [
        {
          "name": "",
          "type": "address"
        }
      ],
      "payable": false,
      "stateMutability": "view",
      "type": "function"
    },
    {
      "constant": true,
      "inputs": [
        {
          "name": "",
          "type": "address"
        }
      ],
      "name": "addressToUser",
      "outputs": [
        {
          "name": "",
          "type": "bytes32"
        }
      ],
      "payable": false,
      "stateMutability": "view",
      "type": "function"
    },
    {
      "constant": false,
      "inputs": [
        {
          "name": "_startTime",
          "type": "uint64"
        },
        {
          "name": "_maxCapacity",
          "type": "uint8"
        },
        {
          "name": "_presenters",
          "type": "address[]"
        }
      ],
      "name": "createMeetup",
      "outputs": [
        {
          "name": "",
          "type": "uint256"
        }
      ],
      "payable": false,
      "stateMutability": "nonpayable",
      "type": "function"
    },
    {
      "inputs": [],
      "payable": false,
      "stateMutability": "nonpayable",
      "type": "constructor"
    },
    {
      "anonymous": false,
      "inputs": [
        {
          "indexed": false,
          "name": "startTime",
          "type": "uint64"
        },
        {
          "indexed": false,
          "name": "maxCapacity",
          "type": "uint8"
        }
      ],
      "name": "Creation",
      "type": "event"
    }
  ],
  "bytecode": "0x60606040526000600260146101000a81548160ff021916908315150217905550341561002a57600080fd5b336000806101000a81548173ffffffffffffffffffffffffffffffffffffffff021916908373ffffffffffffffffffffffffffffffffffffffff16021790555033600160006101000a81548173ffffffffffffffffffffffffffffffffffffffff021916908373ffffffffffffffffffffffffffffffffffffffff16021790555033600260006101000a81548173ffffffffffffffffffffffffffffffffffffffff021916908373ffffffffffffffffffffffffffffffffffffffff160217905550611cfb806100fb6000396000f300606060405260043610610112576000357c0100000000000000000000000000000000000000000000000000000000900463ffffffff16806304e3c9b814610117578063131b745e1461016c5780632dc03259146101b95780632ff96e8e146101e057806337026ae1146101f55780633f4ba83a14610268578063430f19151461027d57806347546970146102f5578063539f7fb71461031c5780635bf79001146103455780636c88beeb146103bd57806377bdfc571461042457806379c685e21461045d5780638456cb59146104d55780638c4b0e7e146104ea578063c8ded43e14610523578063d923192714610578578063d92a1745146105b1578063edf5388614610606578063f33a4c501461065b575b600080fd5b341561012257600080fd5b61012a6106e8565b604051808273ffffffffffffffffffffffffffffffffffffffff1673ffffffffffffffffffffffffffffffffffffffff16815260200191505060405180910390f35b341561017757600080fd5b6101a3600480803573ffffffffffffffffffffffffffffffffffffffff1690602001909190505061070d565b6040518082815260200191505060405180910390f35b34156101c457600080fd5b6101de600480803560001916906020019091905050610725565b005b34156101eb57600080fd5b6101f361087b565b005b341561020057600080fd5b6102166004808035906020019091905050610a9e565b604051808467ffffffffffffffff1667ffffffffffffffff1681526020018367ffffffffffffffff1667ffffffffffffffff1681526020018260ff1660ff168152602001935050505060405180910390f35b341561027357600080fd5b61027b610b0c565b005b341561028857600080fd5b61029e6004808035906020019091905050610b9f565b6040518080602001828103825283818151815260200191508051906020019060200280838360005b838110156102e15780820151818401526020810190506102c6565b505050509050019250505060405180910390f35b341561030057600080fd5b61031a600480803560001916906020019091905050610c53565b005b341561032757600080fd5b61032f610e72565b6040518082815260200191505060405180910390f35b341561035057600080fd5b6103666004808035906020019091905050610e7f565b6040518080602001828103825283818151815260200191508051906020019060200280838360005b838110156103a957808201518184015260208101905061038e565b505050509050019250505060405180910390f35b34156103c857600080fd5b6103e2600480803560001916906020019091905050610f01565b604051808273ffffffffffffffffffffffffffffffffffffffff1673ffffffffffffffffffffffffffffffffffffffff16815260200191505060405180910390f35b341561042f57600080fd5b61045b600480803573ffffffffffffffffffffffffffffffffffffffff16906020019091905050610f34565b005b341561046857600080fd5b61047e60048080359060200190919050506110bf565b6040518080602001828103825283818151815260200191508051906020019060200280838360005b838110156104c15780820151818401526020810190506104a6565b505050509050019250505060405180910390f35b34156104e057600080fd5b6104e8611173565b005b34156104f557600080fd5b610521600480803573ffffffffffffffffffffffffffffffffffffffff169060200190919050506112b7565b005b341561052e57600080fd5b610536611391565b604051808273ffffffffffffffffffffffffffffffffffffffff1673ffffffffffffffffffffffffffffffffffffffff16815260200191505060405180910390f35b341561058357600080fd5b6105af600480803573ffffffffffffffffffffffffffffffffffffffff169060200190919050506113b7565b005b34156105bc57600080fd5b6105c4611542565b604051808273ffffffffffffffffffffffffffffffffffffffff1673ffffffffffffffffffffffffffffffffffffffff16815260200191505060405180910390f35b341561061157600080fd5b61063d600480803573ffffffffffffffffffffffffffffffffffffffff16906020019091905050611568565b60405180826000191660001916815260200191505060405180910390f35b341561066657600080fd5b6106d2600480803567ffffffffffffffff1690602001909190803560ff1690602001909190803590602001908201803590602001908080602002602001604051908101604052809392919081815260200183836020028082843782019150505050505091905050611580565b6040518082815260200191505060405180910390f35b6000809054906101000a900473ffffffffffffffffffffffffffffffffffffffff1681565b60046020528060005260406000206000915090505481565b600060056000836000191660001916815260200190815260200160002060009054906101000a900473ffffffffffffffffffffffffffffffffffffffff1673ffffffffffffffffffffffffffffffffffffffff1614801561078b57506000816000191614155b156108785780600660003373ffffffffffffffffffffffffffffffffffffffff1673ffffffffffffffffffffffffffffffffffffffff16815260200190815260200160002081600019169055503360056000836000191660001916815260200190815260200160002060006101000a81548173ffffffffffffffffffffffffffffffffffffffff021916908373ffffffffffffffffffffffffffffffffffffffff1602179055506064600460003373ffffffffffffffffffffffffffffffffffffffff1673ffffffffffffffffffffffffffffffffffffffff168152602001908152602001600020819055505b50565b600080600080600102600660003373ffffffffffffffffffffffffffffffffffffffff1673ffffffffffffffffffffffffffffffffffffffff16815260200190815260200160002054600019161115156108d457600080fd5b60016003805490500392506003838154811015156108ee57fe5b906000526020600020906004020191508160000160089054906101000a900467ffffffffffffffff1667ffffffffffffffff164210151561092e57600080fd5b600090505b81600201805490508110156109c4573373ffffffffffffffffffffffffffffffffffffffff16826002018281548110151561096a57fe5b906000526020600020900160009054906101000a900473ffffffffffffffffffffffffffffffffffffffff1673ffffffffffffffffffffffffffffffffffffffff1614156109b757600080fd5b8080600101915050610933565b8160020180548060010182816109da9190611950565b9160005260206000209001600033909190916101000a81548173ffffffffffffffffffffffffffffffffffffffff021916908373ffffffffffffffffffffffffffffffffffffffff16021790555050816003018054806001018281610a3f919061197c565b91600052602060002090016000600660003373ffffffffffffffffffffffffffffffffffffffff1673ffffffffffffffffffffffffffffffffffffffff1681526020019081526020016000205490919091509060001916905550505050565b600381815481101515610aad57fe5b90600052602060002090600402016000915090508060000160009054906101000a900467ffffffffffffffff16908060000160089054906101000a900467ffffffffffffffff16908060000160109054906101000a900460ff16905083565b6000809054906101000a900473ffffffffffffffffffffffffffffffffffffffff1673ffffffffffffffffffffffffffffffffffffffff163373ffffffffffffffffffffffffffffffffffffffff16141515610b6757600080fd5b600260149054906101000a900460ff161515610b8257600080fd5b6000600260146101000a81548160ff021916908315150217905550565b610ba76119a8565b600382815481101515610bb657fe5b9060005260206000209060040201600201805480602002602001604051908101604052809291908181526020018280548015610c4757602002820191906000526020600020905b8160009054906101000a900473ffffffffffffffffffffffffffffffffffffffff1673ffffffffffffffffffffffffffffffffffffffff1681526020019060010190808311610bfd575b50505050509050919050565b6000809054906101000a900473ffffffffffffffffffffffffffffffffffffffff1673ffffffffffffffffffffffffffffffffffffffff163373ffffffffffffffffffffffffffffffffffffffff161480610cfb5750600160009054906101000a900473ffffffffffffffffffffffffffffffffffffffff1673ffffffffffffffffffffffffffffffffffffffff163373ffffffffffffffffffffffffffffffffffffffff16145b80610d535750600260009054906101000a900473ffffffffffffffffffffffffffffffffffffffff1673ffffffffffffffffffffffffffffffffffffffff163373ffffffffffffffffffffffffffffffffffffffff16145b1515610d5e57600080fd5b600060056000836000191660001916815260200190815260200160002060009054906101000a900473ffffffffffffffffffffffffffffffffffffffff1673ffffffffffffffffffffffffffffffffffffffff1614158015610dc557506000816000191614155b15610e6f576000600660003373ffffffffffffffffffffffffffffffffffffffff1673ffffffffffffffffffffffffffffffffffffffff1681526020019081526020016000208160001916905550600060056000836000191660001916815260200190815260200160002060006101000a81548173ffffffffffffffffffffffffffffffffffffffff021916908373ffffffffffffffffffffffffffffffffffffffff1602179055505b50565b6000600380549050905090565b610e876119bc565b600382815481101515610e9657fe5b9060005260206000209060040201600301805480602002602001604051908101604052809291908181526020018280548015610ef557602002820191906000526020600020905b81546000191681526020019060010190808311610edd575b50505050509050919050565b60056020528060005260406000206000915054906101000a900473ffffffffffffffffffffffffffffffffffffffff1681565b6000809054906101000a900473ffffffffffffffffffffffffffffffffffffffff1673ffffffffffffffffffffffffffffffffffffffff163373ffffffffffffffffffffffffffffffffffffffff161480610fdc5750600160009054906101000a900473ffffffffffffffffffffffffffffffffffffffff1673ffffffffffffffffffffffffffffffffffffffff163373ffffffffffffffffffffffffffffffffffffffff16145b806110345750600260009054906101000a900473ffffffffffffffffffffffffffffffffffffffff1673ffffffffffffffffffffffffffffffffffffffff163373ffffffffffffffffffffffffffffffffffffffff16145b151561103f57600080fd5b600073ffffffffffffffffffffffffffffffffffffffff168173ffffffffffffffffffffffffffffffffffffffff161415151561107b57600080fd5b80600160006101000a81548173ffffffffffffffffffffffffffffffffffffffff021916908373ffffffffffffffffffffffffffffffffffffffff16021790555050565b6110c76119a8565b6003828154811015156110d657fe5b906000526020600020906004020160010180548060200260200160405190810160405280929190818152602001828054801561116757602002820191906000526020600020905b8160009054906101000a900473ffffffffffffffffffffffffffffffffffffffff1673ffffffffffffffffffffffffffffffffffffffff168152602001906001019080831161111d575b50505050509050919050565b6000809054906101000a900473ffffffffffffffffffffffffffffffffffffffff1673ffffffffffffffffffffffffffffffffffffffff163373ffffffffffffffffffffffffffffffffffffffff16148061121b5750600160009054906101000a900473ffffffffffffffffffffffffffffffffffffffff1673ffffffffffffffffffffffffffffffffffffffff163373ffffffffffffffffffffffffffffffffffffffff16145b806112735750600260009054906101000a900473ffffffffffffffffffffffffffffffffffffffff1673ffffffffffffffffffffffffffffffffffffffff163373ffffffffffffffffffffffffffffffffffffffff16145b151561127e57600080fd5b600260149054906101000a900460ff1615151561129a57600080fd5b6001600260146101000a81548160ff021916908315150217905550565b6000809054906101000a900473ffffffffffffffffffffffffffffffffffffffff1673ffffffffffffffffffffffffffffffffffffffff163373ffffffffffffffffffffffffffffffffffffffff1614151561131257600080fd5b600073ffffffffffffffffffffffffffffffffffffffff168173ffffffffffffffffffffffffffffffffffffffff161415151561134e57600080fd5b806000806101000a81548173ffffffffffffffffffffffffffffffffffffffff021916908373ffffffffffffffffffffffffffffffffffffffff16021790555050565b600160009054906101000a900473ffffffffffffffffffffffffffffffffffffffff1681565b6000809054906101000a900473ffffffffffffffffffffffffffffffffffffffff1673ffffffffffffffffffffffffffffffffffffffff163373ffffffffffffffffffffffffffffffffffffffff16148061145f5750600160009054906101000a900473ffffffffffffffffffffffffffffffffffffffff1673ffffffffffffffffffffffffffffffffffffffff163373ffffffffffffffffffffffffffffffffffffffff16145b806114b75750600260009054906101000a900473ffffffffffffffffffffffffffffffffffffffff1673ffffffffffffffffffffffffffffffffffffffff163373ffffffffffffffffffffffffffffffffffffffff16145b15156114c257600080fd5b600073ffffffffffffffffffffffffffffffffffffffff168173ffffffffffffffffffffffffffffffffffffffff16141515156114fe57600080fd5b80600260006101000a81548173ffffffffffffffffffffffffffffffffffffffff021916908373ffffffffffffffffffffffffffffffffffffffff16021790555050565b600260009054906101000a900473ffffffffffffffffffffffffffffffffffffffff1681565b60066020528060005260406000206000915090505481565b600061158a6119a8565b6115926119bc565b600061159c6119d0565b60008060009054906101000a900473ffffffffffffffffffffffffffffffffffffffff1673ffffffffffffffffffffffffffffffffffffffff163373ffffffffffffffffffffffffffffffffffffffff1614806116465750600160009054906101000a900473ffffffffffffffffffffffffffffffffffffffff1673ffffffffffffffffffffffffffffffffffffffff163373ffffffffffffffffffffffffffffffffffffffff16145b8061169e5750600260009054906101000a900473ffffffffffffffffffffffffffffffffffffffff1673ffffffffffffffffffffffffffffffffffffffff163373ffffffffffffffffffffffffffffffffffffffff16145b15156116a957600080fd5b4267ffffffffffffffff168967ffffffffffffffff161115156116cb57600080fd5b86518860ff161115156116dd57600080fd5b86945086516040518059106116ef5750595b90808252806020026020018201604052509350600092505b865183101561179a5760066000888581518110151561172257fe5b9060200190602002015173ffffffffffffffffffffffffffffffffffffffff1673ffffffffffffffffffffffffffffffffffffffff16815260200190815260200160002054848481518110151561177557fe5b9060200190602002019060001916908160001916815250508280600101935050611707565b60c0604051908101604052804267ffffffffffffffff1681526020018a67ffffffffffffffff1681526020018960ff1681526020018881526020018681526020018581525091506001600380548060010182816117f79190611a30565b9160005260206000209060040201600085909190915060008201518160000160006101000a81548167ffffffffffffffff021916908367ffffffffffffffff16021790555060208201518160000160086101000a81548167ffffffffffffffff021916908367ffffffffffffffff16021790555060408201518160000160106101000a81548160ff021916908360ff16021790555060608201518160010190805190602001906118a8929190611a62565b5060808201518160020190805190602001906118c5929190611a62565b5060a08201518160030190805190602001906118e2929190611aec565b5050500390507f6c08c4f4120938bf9af43b49da6fa61eba64ebd2ffd368cbfb6bc9a7ab61bd168989604051808367ffffffffffffffff1667ffffffffffffffff1681526020018260ff1660ff1681526020019250505060405180910390a180955050505050509392505050565b815481835581811511611977578183600052602060002091820191016119769190611b3f565b5b505050565b8154818355818115116119a3578183600052602060002091820191016119a29190611b64565b5b505050565b602060405190810160405280600081525090565b602060405190810160405280600081525090565b60c060405190810160405280600067ffffffffffffffff168152602001600067ffffffffffffffff168152602001600060ff168152602001611a10611b89565b8152602001611a1d611b89565b8152602001611a2a611b9d565b81525090565b815481835581811511611a5d57600402816004028360005260206000209182019101611a5c9190611bb1565b5b505050565b828054828255906000526020600020908101928215611adb579160200282015b82811115611ada5782518260006101000a81548173ffffffffffffffffffffffffffffffffffffffff021916908373ffffffffffffffffffffffffffffffffffffffff16021790555091602001919060010190611a82565b5b509050611ae89190611c4a565b5090565b828054828255906000526020600020908101928215611b2e579160200282015b82811115611b2d578251829060001916905591602001919060010190611b0c565b5b509050611b3b9190611b64565b5090565b611b6191905b80821115611b5d576000816000905550600101611b45565b5090565b90565b611b8691905b80821115611b82576000816000905550600101611b6a565b5090565b90565b602060405190810160405280600081525090565b602060405190810160405280600081525090565b611c4791905b80821115611c4357600080820160006101000a81549067ffffffffffffffff02191690556000820160086101000a81549067ffffffffffffffff02191690556000820160106101000a81549060ff0219169055600182016000611c1a9190611c8d565b600282016000611c2a9190611c8d565b600382016000611c3a9190611cae565b50600401611bb7565b5090565b90565b611c8a91905b80821115611c8657600081816101000a81549073ffffffffffffffffffffffffffffffffffffffff021916905550600101611c50565b5090565b90565b5080546000825590600052602060002090810190611cab9190611b3f565b50565b5080546000825590600052602060002090810190611ccc9190611b64565b505600a165627a7a72305820cc8d67654c6d2af773b6598be68d3d1ca7bb069d4635c9bc891f4f445cb1d50a0029",
  "source": "pragma solidity ^0.4.18;\n\nimport \"./MeetupAccessControl.sol\";\n\n/// @title Base contract for Meetup. Holds all common structs, events and base variables.\n\n// Based on\n// https://github.com/axiomzen/cryptokitties-bounty/blob/master/contracts/KittyBase.sol\n// https://monax.io/docs/solidity/solidity_1_the_five_types_model/\n\ncontract MeetupBase is MeetupAccessControl {\n    /*** EVENTS ***/\n\n    // @dev The Creation event is fired whenever a new meetup event comes into existence. \n    //      These meetup events are created by event organiser or assistants \n    event Creation(uint64 startTime, uint8 maxCapacity);\n\n\n    /*** DATA TYPES ***/\n\n    struct Meetup {\n        // The timestamp from the block when the meetup event is created.\n        uint64 createTime;\n\n        // The timestamp from the block when the meetup event is scheduled to start.\n        uint64 startTime;\n\n        // Capacity of the meeting.\n        uint8 maxCapacity;\n\n        // Address of the presenters.\n        address[] presenters;\n\n        // Address of people who register for the event.\n        // Only the top maxCapacity people will be able to enter.\n        // The rest will be on the waiting list.\n        address[] registrationList;\n\n        bytes32[] registeredUserNames;\n    }\n\n    /*** STORAGE ***/\n\n    /// @dev An array containing the Meetup struct for all Meetups in existence. \n    Meetup[] public meetups;\n\n    /// @dev A mapping from user address to points\n    mapping (address => uint256) public addressToPoints;\n\n    // Here we store the names. Make it public to automatically generate an\n    // accessor function named 'users' that takes a fixed-length string as argument.\n    mapping (bytes32 => address) public userToAddress;\n    mapping (address => bytes32) public addressToUser;\n\n\n    // Initialise contract with the owner taking all three roles\n    // These can later be transferred to the right person\n    function MeetupBase() public {\n        organiserAddress = msg.sender;\n        assistantAddress_1 = msg.sender;\n        assistantAddress_2 = msg.sender;\n    }\n\n    // Register the provided name with the caller address.\n    // Also, we don't want them to register \"\" as their name.\n    function registerUser(bytes32 name) public {\n        // require(\n        //     msg.sender == userToAddress[name] ||\n        //     msg.sender == organiserAddress ||\n        //     msg.sender == assistantAddress_1 ||\n        //     msg.sender == assistantAddress_2\n        // );\n        \n        if(userToAddress[name] == 0 && name != \"\"){\n            addressToUser[msg.sender] = name;\n            userToAddress[name] = msg.sender;            \n            addressToPoints[msg.sender] = 100;\n        }\n    }\n\n    // Deregister the provided name with the caller address.\n    // Only user him/herself or assistants can deregister a user\n    function deregisterUser(bytes32 name) public onlyAssistant {        \n        // require(\n        //     msg.sender == users[name] ||\n        //     msg.sender == organiserAddress ||\n        //     msg.sender == assistantAddress_1 ||\n        //     msg.sender == assistantAddress_2\n        // );\n        if(userToAddress[name] != 0 && name != \"\"){\n            addressToUser[msg.sender] = \"\";\n            userToAddress[name] = 0x0;\n        }\n    }\n\n    // @param _timeUntilMeetup Time until the scheduled meeting start time\n    // @param _maxCapacity Maximum capacity of the meeting.\n    // @param _presenters Addresses of presenters.\n    function createMeetup (            \n        uint64 _startTime,        \n        uint8 _maxCapacity,       \n        address[] _presenters\n    )\n        public\n        onlyAssistant() \n        returns (uint256)\n    {\n\n        // Can't create a meetup in the past\n        require(uint64(_startTime) > uint64(now));\n\n        // Must have at least 1 extra spot\n        require(_maxCapacity > _presenters.length);\n\n        address[] memory _registrationList = _presenters;\n        bytes32[] memory _registeredUserNames = new bytes32[](_presenters.length);\n\n        // Map address to names\n        for (uint i = 0; i < _presenters.length; i++) {\n            _registeredUserNames[i] = addressToUser[_presenters[i]];\n        }      \n        \n\n        \n        Meetup memory _meetup = Meetup({            \n            createTime: uint64(now),\n            startTime: uint64(_startTime),\n            maxCapacity: _maxCapacity,\n            presenters: _presenters,\n            registrationList: _registrationList,\n            registeredUserNames: _registeredUserNames\n        });\n\n        uint256 newMeetupId = meetups.push(_meetup) - 1 ;\n\n        // emit the creation event\n        Creation(_startTime, _maxCapacity);\n\n        return newMeetupId;\n    }\n\n\n\tfunction getPresenters(uint i) public view returns (address[]){\n\t\treturn meetups[i].presenters;\n\t}\n\n    function getRegistrationList(uint i) public view returns (address[]){\n        return meetups[i].registrationList;\n    }\n\n    function getRegisteredUserNames(uint i) public view returns (bytes32[]){\n        return meetups[i].registeredUserNames;\n    }\n\n\n    function joinNextMeetup ()\n        public        \n        // returns (bool)\n    {\n        // require(userToAddress[_userName] == msg.sender);\n        // require(userToAddress[_userName] != address(0));        \n        require(addressToUser[msg.sender] > 0);\n\n        uint256 _meetupId = meetups.length - 1;\n        Meetup storage _meetup = meetups[_meetupId];\n\n        // Can't join a meetup that has already started.\n        require(now < _meetup.startTime);        \n\n        // Can't join twice\n        for (uint i = 0; i < _meetup.registrationList.length; i++) {\n            if (_meetup.registrationList[i] == msg.sender) {\n                revert();\n            }\n        }      \n\n\n        _meetup.registrationList.push(msg.sender);\n        _meetup.registeredUserNames.push(addressToUser[msg.sender]);\n        // deduct deposit\n        // addressToPoints[msg.sender] = addressToPoints[msg.sender] - 50;\n\n    }\n\n    // function leaveNextMeetup (bytes32 _userName)\n    //     public        \n    //     // returns (bool)\n    // {\n    //     require(userToAddress[_userName] == msg.sender);\n    //     require(userToAddress[_userName] != address(0));        \n\n    //     uint256 _meetupId = meetups.length - 1;\n    //     Meetup storage _meetup = meetups[_meetupId];\n\n    //     // Can't join a meetup that has already started.\n    //     require(now < _meetup.startTime);        \n\n    //     // Can't join twice\n    //     for (uint i = 0; i < _meetup.registrationList.length; i++) {\n    //         if (_meetup.registrationList[i] == msg.sender) {\n    //             revert();\n    //         }\n    //     }      \n\n        \n    //     _meetup.registrationList.push(msg.sender);\n    //     _meetup.registeredUserNames.push(_userName);\n    //     // deduct deposit\n    //     // addressToPoints[msg.sender] = addressToPoints[msg.sender] - 50;\n\n    // }\n\n    function getMeetupCount () public view returns (uint256) {\n        return meetups.length;\n    }\n  \n\n}\n\n\n\n\n\n// list of meetup members: \n// http://api.meetup.com/BokkyPooBahs-Ethereum-Workshop/members\n",
  "sourcePath": "/home/zeming/work/blockchain/meetup-queue/react-uport/contracts/MeetupBase.sol",
  "compiler": {
    "name": "solc",
    "version": "0.4.18+commit.9cf6e910.Emscripten.clang"
  },
  "schemaVersion": "1.0.1",
  "updatedAt": "2018-03-22T09:42:38.434Z"
}