{
  "contractName": "Members",
  "abi": [
    {
      "constant": true,
      "inputs": [
        {
          "name": "self",
          "type": "Members.Data storage"
        }
      ],
      "name": "length",
      "outputs": [
        {
          "name": "",
          "type": "uint256"
        }
      ],
      "payable": false,
      "stateMutability": "view",
      "type": "function"
    },
    {
      "constant": false,
      "inputs": [
        {
          "name": "self",
          "type": "Members.Data storage"
        },
        {
          "name": "_address",
          "type": "address"
        },
        {
          "name": "_name",
          "type": "bytes32"
        },
        {
          "name": "_governor",
          "type": "bool"
        }
      ],
      "name": "add",
      "outputs": [],
      "payable": false,
      "stateMutability": "nonpayable",
      "type": "function"
    },
    {
      "constant": false,
      "inputs": [
        {
          "name": "self",
          "type": "Members.Data storage"
        },
        {
          "name": "_address",
          "type": "address"
        }
      ],
      "name": "remove",
      "outputs": [],
      "payable": false,
      "stateMutability": "nonpayable",
      "type": "function"
    },
    {
      "constant": false,
      "inputs": [
        {
          "name": "self",
          "type": "Members.Data storage"
        }
      ],
      "name": "init",
      "outputs": [],
      "payable": false,
      "stateMutability": "nonpayable",
      "type": "function"
    },
    {
      "constant": true,
      "inputs": [
        {
          "name": "self",
          "type": "Members.Data storage"
        },
        {
          "name": "_address",
          "type": "address"
        }
      ],
      "name": "isGovernor",
      "outputs": [
        {
          "name": "",
          "type": "bool"
        }
      ],
      "payable": false,
      "stateMutability": "view",
      "type": "function"
    },
    {
      "constant": true,
      "inputs": [
        {
          "name": "self",
          "type": "Members.Data storage"
        },
        {
          "name": "_address",
          "type": "address"
        }
      ],
      "name": "isMember",
      "outputs": [
        {
          "name": "",
          "type": "bool"
        }
      ],
      "payable": false,
      "stateMutability": "view",
      "type": "function"
    },
    {
      "anonymous": false,
      "inputs": [
        {
          "indexed": true,
          "name": "_address",
          "type": "address"
        },
        {
          "indexed": false,
          "name": "_name",
          "type": "bytes32"
        },
        {
          "indexed": false,
          "name": "_governor",
          "type": "bool"
        },
        {
          "indexed": false,
          "name": "totalAfter",
          "type": "uint256"
        }
      ],
      "name": "MemberAdded",
      "type": "event"
    },
    {
      "anonymous": false,
      "inputs": [
        {
          "indexed": true,
          "name": "_address",
          "type": "address"
        },
        {
          "indexed": false,
          "name": "_name",
          "type": "bytes32"
        },
        {
          "indexed": false,
          "name": "_governor",
          "type": "bool"
        },
        {
          "indexed": false,
          "name": "totalAfter",
          "type": "uint256"
        }
      ],
      "name": "MemberRemoved",
      "type": "event"
    }
  ],
  "bytecode": "0x6060604052341561000f57600080fd5b6108f08061001e6000396000f300606060405260043610610078576000357c0100000000000000000000000000000000000000000000000000000000900463ffffffff1680630e1efa5a1461007d57806325b160dc146100a95780633dee20c7146100f85780635bcfc7711461012f578063b601b82d14610147578063f6ac7ec314610196575b600080fd5b61009360048080359060200190919050506101e5565b6040518082815260200191505060405180910390f35b6100f6600480803590602001909190803573ffffffffffffffffffffffffffffffffffffffff169060200190919080356000191690602001909190803515159060200190919050506101f6565b005b61012d600480803590602001909190803573ffffffffffffffffffffffffffffffffffffffff16906020019091905050610403565b005b6101456004808035906020019091905050610751565b005b61017c600480803590602001909190803573ffffffffffffffffffffffffffffffffffffffff1690602001909190505061078f565b604051808215151515815260200191505060405180910390f35b6101cb600480803590602001909190803573ffffffffffffffffffffffffffffffffffffffff169060200190919050506107eb565b604051808215151515815260200191505060405180910390f35b600081600201805490509050919050565b8360010160008473ffffffffffffffffffffffffffffffffffffffff1673ffffffffffffffffffffffffffffffffffffffff16815260200190815260200160002060000160009054906101000a900460ff1615151561025457600080fd5b83600201805480600101828161026a9190610847565b9160005260206000209001600085909190916101000a81548173ffffffffffffffffffffffffffffffffffffffff021916908373ffffffffffffffffffffffffffffffffffffffff1602179055505060806040519081016040528060011515815260200160018660020180549050038152602001836000191681526020018215158152508460010160008573ffffffffffffffffffffffffffffffffffffffff1673ffffffffffffffffffffffffffffffffffffffff16815260200190815260200160002060008201518160000160006101000a81548160ff021916908315150217905550602082015181600101556040820151816002019060001916905560608201518160030160006101000a81548160ff0219169083151502179055509050508273ffffffffffffffffffffffffffffffffffffffff167f76d0b1bb6f42db703523871bf0bcabda2c7d95d05176dffd87d342562f58d43d8383876002018054905060405180846000191660001916815260200183151515158152602001828152602001935050505060405180910390a250505050565b60008060008460010160008573ffffffffffffffffffffffffffffffffffffffff1673ffffffffffffffffffffffffffffffffffffffff16815260200190815260200160002060000160009054906101000a900460ff16151561046557600080fd5b8460010160008573ffffffffffffffffffffffffffffffffffffffff1673ffffffffffffffffffffffffffffffffffffffff1681526020019081526020016000206001015492508373ffffffffffffffffffffffffffffffffffffffff167f41b880d876a95d37afa1e5ffcae692c0d8ff8a2e1228f0c49c0ae872f60a03998660010160008773ffffffffffffffffffffffffffffffffffffffff1673ffffffffffffffffffffffffffffffffffffffff168152602001908152602001600020600201548760010160008873ffffffffffffffffffffffffffffffffffffffff1673ffffffffffffffffffffffffffffffffffffffff16815260200190815260200160002060030160009054906101000a900460ff16600189600201805490500360405180846000191660001916815260200183151515158152602001828152602001935050505060405180910390a26001856002018054905003915084600201828154811015156105d357fe5b906000526020600020900160009054906101000a900473ffffffffffffffffffffffffffffffffffffffff16905080856002018481548110151561061357fe5b906000526020600020900160006101000a81548173ffffffffffffffffffffffffffffffffffffffff021916908373ffffffffffffffffffffffffffffffffffffffff160217905550828560010160008373ffffffffffffffffffffffffffffffffffffffff1673ffffffffffffffffffffffffffffffffffffffff168152602001908152602001600020600101819055508460010160008573ffffffffffffffffffffffffffffffffffffffff1673ffffffffffffffffffffffffffffffffffffffff168152602001908152602001600020600080820160006101000a81549060ff0219169055600182016000905560028201600090556003820160006101000a81549060ff0219169055505060008560020180549050111561074a57846002018054809190600190036107489190610873565b505b5050505050565b8060000160009054906101000a900460ff1615151561076f57600080fd5b60018160000160006101000a81548160ff02191690831515021790555050565b60008260010160008373ffffffffffffffffffffffffffffffffffffffff1673ffffffffffffffffffffffffffffffffffffffff16815260200190815260200160002060030160009054906101000a900460ff16905092915050565b60008260010160008373ffffffffffffffffffffffffffffffffffffffff1673ffffffffffffffffffffffffffffffffffffffff16815260200190815260200160002060000160009054906101000a900460ff16905092915050565b81548183558181151161086e5781836000526020600020918201910161086d919061089f565b5b505050565b81548183558181151161089a57818360005260206000209182019101610899919061089f565b5b505050565b6108c191905b808211156108bd5760008160009055506001016108a5565b5090565b905600a165627a7a723058207bdc318d6c81941e66a680f0d7e1b0e533c30cd095b058917ba9f104690780a50029",
  "source": "pragma solidity ^0.4.18;\n\nlibrary Members {\n    struct Member {\n        bool exists;\n        uint index;\n        bytes32 name;\n        bool governor;\n    }\n    struct Data {\n        bool initialised;\n        mapping(address => Member) entries;\n        address[] index;\n    }\n\n    event MemberAdded(address indexed _address, bytes32 _name, bool _governor, uint totalAfter);\n    event MemberRemoved(address indexed _address, bytes32 _name, bool _governor, uint totalAfter);\n\n    function init(Data storage self) public {\n        require(!self.initialised);\n        self.initialised = true;\n    }\n    function isMember(Data storage self, address _address) public view returns (bool) {\n        return self.entries[_address].exists;\n    }\n    function isGovernor(Data storage self, address _address) public view returns (bool) {\n        return self.entries[_address].governor;\n    }\n    function add(Data storage self, address _address, bytes32 _name, bool _governor) public {\n        require(!self.entries[_address].exists);\n        self.index.push(_address);\n        self.entries[_address] = Member(true, self.index.length - 1, _name, _governor);\n        MemberAdded(_address, _name, _governor, self.index.length);\n    }\n    function remove(Data storage self, address _address) public {\n        require(self.entries[_address].exists);\n        uint removeIndex = self.entries[_address].index;\n        MemberRemoved(_address, self.entries[_address].name, self.entries[_address].governor, self.index.length - 1);\n        uint lastIndex = self.index.length - 1;\n        address lastIndexAddress = self.index[lastIndex];\n        self.index[removeIndex] = lastIndexAddress;\n        self.entries[lastIndexAddress].index = removeIndex;\n        delete self.entries[_address];\n        if (self.index.length > 0) {\n            self.index.length--;\n        }\n    }\n    function length(Data storage self) public view returns (uint) {\n        return self.index.length;\n    }\n}\n",
  "sourcePath": "/home/zeming/work/blockchain/meetup-queue/react-uport/contracts/Members.sol",
  "compiler": {
    "name": "solc",
    "version": "0.4.18+commit.9cf6e910.Emscripten.clang"
  },
  "schemaVersion": "1.0.1",
  "updatedAt": "2018-04-22T13:48:57.844Z"
}